{
  "_format": "hh-sol-artifact-1",
  "contractName": "AdminDashboard",
  "sourceName": "contracts/AdminDashboard.sol",
  "abi": [
    {
      "inputs": [
        {
          "internalType": "address",
          "name": "_factoryAddress",
          "type": "address"
        }
      ],
      "stateMutability": "nonpayable",
      "type": "constructor"
    },
    {
      "anonymous": false,
      "inputs": [
        {
          "indexed": false,
          "internalType": "uint256",
          "name": "totalOrgs",
          "type": "uint256"
        },
        {
          "indexed": false,
          "internalType": "uint256",
          "name": "totalEmployees",
          "type": "uint256"
        },
        {
          "indexed": false,
          "internalType": "uint256",
          "name": "totalLocked",
          "type": "uint256"
        }
      ],
      "name": "PlatformStatsUpdated",
      "type": "event"
    },
    {
      "inputs": [],
      "name": "factory",
      "outputs": [
        {
          "internalType": "contract SalaryStreamingFactory",
          "name": "",
          "type": "address"
        }
      ],
      "stateMutability": "view",
      "type": "function"
    },
    {
      "inputs": [],
      "name": "getAllOrganizationsSummary",
      "outputs": [
        {
          "components": [
            {
              "internalType": "address",
              "name": "orgAddress",
              "type": "address"
            },
            {
              "internalType": "string",
              "name": "name",
              "type": "string"
            },
            {
              "internalType": "string",
              "name": "email",
              "type": "string"
            },
            {
              "internalType": "uint256",
              "name": "totalEmployees",
              "type": "uint256"
            },
            {
              "internalType": "uint256",
              "name": "totalSalariesLocked",
              "type": "uint256"
            },
            {
              "internalType": "uint256",
              "name": "activeContracts",
              "type": "uint256"
            },
            {
              "internalType": "bool",
              "name": "isActive",
              "type": "bool"
            },
            {
              "internalType": "uint256",
              "name": "createdAt",
              "type": "uint256"
            }
          ],
          "internalType": "struct AdminDashboard.OrganizationSummary[]",
          "name": "",
          "type": "tuple[]"
        }
      ],
      "stateMutability": "view",
      "type": "function"
    },
    {
      "inputs": [
        {
          "internalType": "address",
          "name": "_contractAddress",
          "type": "address"
        }
      ],
      "name": "getContractDetails",
      "outputs": [
        {
          "internalType": "address",
          "name": "employer",
          "type": "address"
        },
        {
          "internalType": "address",
          "name": "employee",
          "type": "address"
        },
        {
          "internalType": "uint256",
          "name": "dailySalary",
          "type": "uint256"
        },
        {
          "internalType": "uint256",
          "name": "attendanceCount",
          "type": "uint256"
        },
        {
          "internalType": "uint256",
          "name": "totalWithdrawn",
          "type": "uint256"
        },
        {
          "internalType": "uint256",
          "name": "availableBalance",
          "type": "uint256"
        },
        {
          "internalType": "bool",
          "name": "isActive",
          "type": "bool"
        },
        {
          "internalType": "bool",
          "name": "employeeApproved",
          "type": "bool"
        },
        {
          "internalType": "bool",
          "name": "isOnProbation",
          "type": "bool"
        },
        {
          "internalType": "uint256",
          "name": "probationPercentage",
          "type": "uint256"
        },
        {
          "internalType": "uint256",
          "name": "contractBalance",
          "type": "uint256"
        }
      ],
      "stateMutability": "view",
      "type": "function"
    },
    {
      "inputs": [
        {
          "internalType": "address",
          "name": "_orgAddress",
          "type": "address"
        }
      ],
      "name": "getOrganizationEmployees",
      "outputs": [
        {
          "components": [
            {
              "internalType": "address",
              "name": "contractAddress",
              "type": "address"
            },
            {
              "internalType": "address",
              "name": "employer",
              "type": "address"
            },
            {
              "internalType": "address",
              "name": "employee",
              "type": "address"
            },
            {
              "internalType": "uint256",
              "name": "dailySalary",
              "type": "uint256"
            },
            {
              "internalType": "uint256",
              "name": "attendanceCount",
              "type": "uint256"
            },
            {
              "internalType": "uint256",
              "name": "totalWithdrawn",
              "type": "uint256"
            },
            {
              "internalType": "bool",
              "name": "isActive",
              "type": "bool"
            },
            {
              "internalType": "bool",
              "name": "employeeApproved",
              "type": "bool"
            },
            {
              "internalType": "uint256",
              "name": "startDate",
              "type": "uint256"
            }
          ],
          "internalType": "struct AdminDashboard.EmployeeContractSummary[]",
          "name": "",
          "type": "tuple[]"
        }
      ],
      "stateMutability": "view",
      "type": "function"
    },
    {
      "inputs": [],
      "name": "getPlatformStats",
      "outputs": [
        {
          "components": [
            {
              "internalType": "uint256",
              "name": "totalOrganizations",
              "type": "uint256"
            },
            {
              "internalType": "uint256",
              "name": "totalEmployees",
              "type": "uint256"
            },
            {
              "internalType": "uint256",
              "name": "totalSalariesLocked",
              "type": "uint256"
            },
            {
              "internalType": "uint256",
              "name": "totalWithdrawn",
              "type": "uint256"
            },
            {
              "internalType": "uint256",
              "name": "activeContracts",
              "type": "uint256"
            },
            {
              "internalType": "uint256",
              "name": "terminatedContracts",
              "type": "uint256"
            }
          ],
          "internalType": "struct AdminDashboard.PlatformStats",
          "name": "stats",
          "type": "tuple"
        }
      ],
      "stateMutability": "view",
      "type": "function"
    },
    {
      "inputs": [
        {
          "internalType": "uint256",
          "name": "_limit",
          "type": "uint256"
        }
      ],
      "name": "getRecentContracts",
      "outputs": [
        {
          "components": [
            {
              "internalType": "address",
              "name": "contractAddress",
              "type": "address"
            },
            {
              "internalType": "address",
              "name": "employer",
              "type": "address"
            },
            {
              "internalType": "address",
              "name": "employee",
              "type": "address"
            },
            {
              "internalType": "uint256",
              "name": "dailySalary",
              "type": "uint256"
            },
            {
              "internalType": "uint256",
              "name": "attendanceCount",
              "type": "uint256"
            },
            {
              "internalType": "uint256",
              "name": "totalWithdrawn",
              "type": "uint256"
            },
            {
              "internalType": "bool",
              "name": "isActive",
              "type": "bool"
            },
            {
              "internalType": "bool",
              "name": "employeeApproved",
              "type": "bool"
            },
            {
              "internalType": "uint256",
              "name": "startDate",
              "type": "uint256"
            }
          ],
          "internalType": "struct AdminDashboard.EmployeeContractSummary[]",
          "name": "",
          "type": "tuple[]"
        }
      ],
      "stateMutability": "view",
      "type": "function"
    },
    {
      "inputs": [
        {
          "internalType": "uint256",
          "name": "_limit",
          "type": "uint256"
        }
      ],
      "name": "getTopOrganizationsByEmployees",
      "outputs": [
        {
          "components": [
            {
              "internalType": "address",
              "name": "orgAddress",
              "type": "address"
            },
            {
              "internalType": "string",
              "name": "name",
              "type": "string"
            },
            {
              "internalType": "string",
              "name": "email",
              "type": "string"
            },
            {
              "internalType": "uint256",
              "name": "totalEmployees",
              "type": "uint256"
            },
            {
              "internalType": "uint256",
              "name": "totalSalariesLocked",
              "type": "uint256"
            },
            {
              "internalType": "uint256",
              "name": "activeContracts",
              "type": "uint256"
            },
            {
              "internalType": "bool",
              "name": "isActive",
              "type": "bool"
            },
            {
              "internalType": "uint256",
              "name": "createdAt",
              "type": "uint256"
            }
          ],
          "internalType": "struct AdminDashboard.OrganizationSummary[]",
          "name": "",
          "type": "tuple[]"
        }
      ],
      "stateMutability": "view",
      "type": "function"
    },
    {
      "inputs": [
        {
          "internalType": "string",
          "name": "_name",
          "type": "string"
        }
      ],
      "name": "searchOrganizationByName",
      "outputs": [
        {
          "components": [
            {
              "internalType": "address",
              "name": "orgAddress",
              "type": "address"
            },
            {
              "internalType": "string",
              "name": "name",
              "type": "string"
            },
            {
              "internalType": "string",
              "name": "email",
              "type": "string"
            },
            {
              "internalType": "uint256",
              "name": "totalEmployees",
              "type": "uint256"
            },
            {
              "internalType": "uint256",
              "name": "totalSalariesLocked",
              "type": "uint256"
            },
            {
              "internalType": "uint256",
              "name": "activeContracts",
              "type": "uint256"
            },
            {
              "internalType": "bool",
              "name": "isActive",
              "type": "bool"
            },
            {
              "internalType": "uint256",
              "name": "createdAt",
              "type": "uint256"
            }
          ],
          "internalType": "struct AdminDashboard.OrganizationSummary[]",
          "name": "",
          "type": "tuple[]"
        }
      ],
      "stateMutability": "view",
      "type": "function"
    }
  ],
  "bytecode": "0x60803461007457601f611fa138819003918201601f19168301916001600160401b038311848410176100795780849260209460405283398101031261007457516001600160a01b0381169081900361007457600080546001600160a01b031916919091179055604051611f1190816100908239f35b600080fd5b634e487b7160e01b600052604160045260246000fdfe608080604052600436101561001357600080fd5b60003560e01c90816307a11c951461118b57508063136d888314610db257806332df3f0214610b5a5780633504fbab146109a75780635a91b0b21461065e57806377b93ff31461054057806379f59f84146100a55763c45a01551461007757600080fd5b346100a05760003660031901126100a0576000546040516001600160a01b039091168152602090f35b600080fd5b346100a05760203660031901126100a05760043567ffffffffffffffff81116100a057366023820112156100a05780600401356100e181611815565b906100ef60405192836117f3565b808252602082019236602483830101116100a0578160009260246020930186378301015260005460405163429b62e560e01b81523360048201526001600160a01b0390911690602081602481855afa90811561033957600091610506575b508015610494575b61015e90611852565b60405163010ddb2760e31b8152600081600481855afa90811561033957600091610471575b5061018e8151611a16565b9160009160005b815181101561041f576001600160a01b036101b082846119df565b51604051630c37503b60e31b815291166004820152600081602481875afa908115610339576000916103fc575b50602081015160405161020d602082816102008183019687815193849201611605565b81010380845201826117f3565b5190208860405161022d6020828c61020083830196879251928391611605565b51902014610245575b50610240906119ba565b610195565b9660018060a0989694939597981b0361025e85846119df565b51604051635ac6820960e01b815291166004820152946000866024818a5afa958615610339576000966103d7575b5060009660005b875181101561034557600460206001600160a01b036102b2848c6119df565b5116604051928380926308bcf8b560e21b82525afa908115610339576000916102ff575b506102ea575b6102e5906119ba565b610293565b976102f76102e5916119ba565b9890506102dc565b90506020813d602011610331575b8161031a602093836117f3565b810103126100a05761032b90611831565b8c6102d6565b3d915061030d565b6040513d6000823e3d90fd5b5094955096959261024092936103d0929960018060a01b03815116916020820151916040810151916060808301516080808501519160a0938487015115159760c080980151996040519b6103988d6117b9565b8c5260208c015260408b015289015287015285015283015260e08201526103bf82896119df565b526103ca81886119df565b506119ba565b9390610236565b6103f59196503d806000833e6103ed81836117f3565b810190611930565b948961028c565b61041991503d806000833e61041181836117f3565b810190611ae3565b886101dd565b50505061042b81611a16565b9160005b8281106104485760405180610444868261164d565b0390f35b8061045661046c92846119df565b5161046182876119df565b526103ca81866119df565b61042f565b61048e91503d806000833e61048681836117f3565b8101906118ae565b84610183565b50604051638da5cb5b60e01b8152602081600481855afa8015610339576000906104cb575b6001600160a01b031633149050610155565b506020813d6020116104fe575b816104e5602093836117f3565b810103126100a0576104f961015e9161183e565b6104b9565b3d91506104d8565b90506020813d602011610538575b81610521602093836117f3565b810103126100a05761053290611831565b8461014d565b3d9150610514565b346100a0576020806003193601126100a05760005460405163429b62e560e01b8152336004820152916001600160a01b039182168184602481845afa93841561033957600094610627575b5083156105b6575b61059c84611852565b6104446105aa600435611ddc565b60405191829182611714565b604051638da5cb5b60e01b815293508190849060049082905afa908115610339576000916105f0575b5061059c9250163314908280610593565b905082813d8311610620575b61060681836117f3565b810103126100a05761061a61059c9261183e565b836105df565b503d6105fc565b9093508181813d8311610657575b61063f81836117f3565b810103126100a05761065090611831565b928461058b565b503d610635565b346100a05760003660031901126100a05760005460405163429b62e560e01b81523360048201526001600160a01b0390911690602081602481855afa9081156103395760009161096d575b5080156108fb575b6106ba90611852565b60405163010ddb2760e31b8152600081600481855afa908115610339576000916108e0575b506106ea8151611a16565b9160005b82518110156108d2576001600160a01b0361070982856119df565b51169360405193630c37503b60e31b8552856004860152600085602481875afa948515610339576000956108b5575b5060405195635ac6820960e01b87526004870152600086602481875afa95861561033957600096610898575b5060009360005b875181101561081157600460206001600160a01b0361078a848c6119df565b5116604051928380926308bcf8b560e21b82525afa908115610339576000916107d7575b506107c2575b6107bd906119ba565b61076b565b946107cf6107bd916119ba565b9590506107b4565b90506020813d602011610809575b816107f2602093836117f3565b810103126100a05761080390611831565b896107ae565b3d91506107e5565b509550939261089092919360018060a01b03815116916020820151916040810151916060808301516080808501519160a0938487015115159760c080980151996040519b61085e8d6117b9565b8c5260208c015260408b015289015287015285015283015260e082015261088582856119df565b526103ca81846119df565b9290926106ee565b6108ae9196503d806000833e6103ed81836117f3565b9486610764565b6108cb9195503d806000833e61041181836117f3565b9386610738565b60405180610444868261164d565b6108f591503d806000833e61048681836117f3565b826106df565b50604051638da5cb5b60e01b8152602081600481855afa801561033957600090610932575b6001600160a01b0316331490506106b1565b506020813d602011610965575b8161094c602093836117f3565b810103126100a0576109606106ba9161183e565b610920565b3d915061093f565b90506020813d60201161099f575b81610988602093836117f3565b810103126100a05761099990611831565b826106a9565b3d915061097b565b346100a0576020806003193601126100a0576001600160a01b039060043582811691908290036100a0578260005416916040519163429b62e560e01b83523360048401528083602481875afa92831561033957600093610b23575b508215610aa8575b50610a16600092611852565b602460405180948193635ac6820960e01b835260048301525afa90811561033957600091610a8d575b50610a4a8151611bdd565b9160005b8251811015610a7f5780610a7083610a69610a7a94876119df565b5116611c91565b61046182876119df565b610a4e565b604051806104448682611714565b610aa291503d806000833e6103ed81836117f3565b82610a3f565b604051638da5cb5b60e01b81529092508281600481875afa908115610339578593600092610ae4575b5050600092610a16911633149250610a0a565b8194508092503d8311610b1c575b610afc81836117f3565b810103126100a057610a1684610b1360009461183e565b91819450610ad1565b503d610af2565b9080935081813d8311610b53575b610b3b81836117f3565b810103126100a057610b4c90611831565b9185610a02565b503d610b31565b346100a05760203660031901126100a0576004356001600160a01b038116908190036100a05760005460405163429b62e560e01b81523360048201526001600160a01b0390911690602081602481855afa90811561033957600091610d78575b508015610d01575b610bcc9150611852565b604051637cc1f86760e01b815261012081600481855afa90811561033957600091600091600094600090600090600091600093600095600097610cbe575b5060405163404ed5b560e11b81529960208b600481875afa93841561033957600094610c88575b604080516001600160a01b039c8d1681529b909a1660208c0152988a01526060890152608088015260a0870152151560c0860152151560e08501521515610100840152610120830152316101408201526101609150f35b935060208b3d602011610cb6575b81610ca3602093836117f3565b810103126100a0576101609a5193610c31565b3d9150610c96565b97505050965050505050610cec91506101203d61012011610cfa575b610ce481836117f3565b810190611c2d565b95989094919390918a610c0a565b503d610cda565b50602060049160405192838092638da5cb5b60e01b82525afa801561033957600090610d3d575b610bcc91506001600160a01b03163314610bc2565b506020813d602011610d70575b81610d57602093836117f3565b810103126100a057610d6b610bcc9161183e565b610d28565b3d9150610d4a565b90506020813d602011610daa575b81610d93602093836117f3565b810103126100a057610da490611831565b83610bba565b3d9150610d86565b346100a05760003660031901126100a05760405160c0810181811067ffffffffffffffff821117611175576040526000815260006020820152600060408201526000606082015260006080820152600060a082015260018060a01b036000541660405163429b62e560e01b8152336004820152602081602481855afa9081156103395760009161113b575b5080156110c9575b610e4e90611852565b60405163010ddb2760e31b815290600082600481845afa908115610339576004926000926110aa575b5060009060405193848092630c69e74b60e11b82525afa9182156103395760009261108d575b50518252600091828080805b8551871015611039576001600160a01b03610ec488886119df565b5116936040516308bcf8b560e21b8152602081600481895afa90811561033957600091610fff575b5015610fee57610efb906119ba565b915b6040516306f8dfe160e21b815290602082600481895afa91821561033957600092610fb8575b50610f32600492602092611a09565b9560405192838092634b31971360e01b82525afa90811561033957600091610f84575b50610f6390610f7b92611a09565b96610f7160208701516119ba565b60208701526119ba565b95929092610ea9565b90506020813d602011610fb0575b81610f9f602093836117f3565b810103126100a05751610f7b610f55565b3d9150610f92565b91506020823d602011610fe6575b81610fd3602093836117f3565b810103126100a057905190610f32610f23565b3d9150610fc6565b9192610ff9906119ba565b92610efd565b90506020813d602011611031575b8161101a602093836117f3565b810103126100a05761102b90611831565b89610eec565b3d915061100d565b60c094939160408501526060840152608083015260a082015260a0604051918051835260208101516020840152604081015160408401526060810151606084015260808101516080840152015160a0820152f35b6110a39192503d806000833e6103ed81836117f3565b9083610e9d565b60009192506110c2903d8084833e61048681836117f3565b9190610e77565b50604051638da5cb5b60e01b8152602081600481855afa801561033957600090611100575b6001600160a01b031633149050610e45565b506020813d602011611133575b8161111a602093836117f3565b810103126100a05761112e610e4e9161183e565b6110ee565b3d915061110d565b90506020813d60201161116d575b81611156602093836117f3565b810103126100a05761116790611831565b83610e3d565b3d9150611149565b634e487b7160e01b600052604160045260246000fd5b346100a057602090816003193601126100a05760005463429b62e560e01b8252336004838101919091526001600160a01b039390359260249285169082818581855afa908115610339576000916115d0575b508015611568575b6111ee90611852565b60405163010ddb2760e31b815293600085600481855afa9485156103395760009561154b575b50926112208551611a16565b6000915b86518310156113ee578761123884896119df565b51604051630c37503b60e31b815291166004820152966000888381885afa978815610339576000986113d1575b508861127185836119df565b51604051635ac6820960e01b815291166004820152946000868481845afa958615610339576000966113b4575b5060009760005b875181101561133e576004898d6112bc848c6119df565b5116604051928380926308bcf8b560e21b82525afa90811561033957600091611309575b506112f4575b6112ef906119ba565b6112a5565b986113016112ef916119ba565b9990506112e6565b90508981813d8311611337575b61132081836117f3565b810103126100a05761133190611831565b8d6112e0565b503d611316565b5094919861138791965097876113ac9495998c81511692828201516040830151606080850151608091828701519360a0958689015115159960c0809a01519b6040519d8e6117b9565b8d528c015260408b015289015287015285015283015260e08201526103bf82896119df565b919490611224565b6113ca9196503d806000833e6103ed81836117f3565b948a61129e565b6113e79198503d806000833e61041181836117f3565b9689611265565b858260005b81516000199390848101908111611536578210156114ec5760005b83518581019081116114d7578361142491611dcf565b8110156114c6576060908161143982876119df565b51015160018201908183116114b1576114649361145683896119df565b5101511161146957506119ba565b61140e565b6114aa9061147783886119df565b5161148282896119df565b5161148d858a6119df565b5261149884896119df565b506114a382896119df565b52866119df565b50876103ca565b88634e487b7160e01b60005260116004526000fd5b5092506114d2906119ba565b6113f3565b86634e487b7160e01b60005260116004526000fd5b825191508181111561152f57505b61150381611a16565b9160005b82811061151c5760405180610444868261164d565b8061045661152a92846119df565b611507565b90506114fa565b85634e487b7160e01b60005260116004526000fd5b6115619195503d806000833e61048681836117f3565b9386611214565b50604051638da5cb5b60e01b81528281600481855afa8015610339578690600090611598575b16331490506111e5565b50508281813d83116115c9575b6115af81836117f3565b810103126100a057856115c46111ee9261183e565b61158e565b503d6115a5565b90508281813d83116115fe575b6115e781836117f3565b810103126100a0576115f890611831565b866111dd565b503d6115dd565b60005b8381106116185750506000910152565b8181015183820152602001611608565b9060209161164181518092818552858086019101611605565b601f01601f1916010190565b602080820190808352835180925260409283810182858560051b8401019601946000925b858410611682575050505050505090565b909192939495968580600192603f198582030187528a5190848060a01b0382511681526116cf6116bf848401516101008087860152840190611628565b888401518382038a850152611628565b91606080820151908301526080808201519083015260a0808201519083015260c08082015115159083015260e080910151910152990194019401929594939190611671565b60208082019080835283518092528060408094019401926000905b83821061173e57505050505090565b845180516001600160a01b03908116885281850151811688860152818301511687830152606080820151908801526080808201519088015260a0808201519088015260c08082015115159088015260e0808201511515908801526101009081015190870152610120909501949382019360019091019061172f565b610100810190811067ffffffffffffffff82111761117557604052565b610120810190811067ffffffffffffffff82111761117557604052565b90601f8019910116810190811067ffffffffffffffff82111761117557604052565b67ffffffffffffffff811161117557601f01601f191660200190565b519081151582036100a057565b51906001600160a01b03821682036100a057565b1561185957565b60405162461bcd60e51b81526020600482015260156024820152744f6e6c792061646d696e2063616e2061636365737360581b6044820152606490fd5b67ffffffffffffffff81116111755760051b60200190565b60209081818403126100a05780519067ffffffffffffffff82116100a057019180601f840112156100a05782516118e481611896565b936118f260405195866117f3565b818552838086019260051b8201019283116100a0578301905b828210611919575050505090565b8380916119258461183e565b81520191019061190b565b60209081818403126100a05780519067ffffffffffffffff82116100a057019180601f840112156100a057825161196681611896565b9361197460405195866117f3565b818552838086019260051b8201019283116100a0578301905b82821061199b575050505090565b81516001600160a01b03811681036100a057815290830190830161198d565b60001981146119c95760010190565b634e487b7160e01b600052601160045260246000fd5b80518210156119f35760209160051b010190565b634e487b7160e01b600052603260045260246000fd5b919082018092116119c957565b90611a2082611896565b604090611a2f825191826117f3565b8381528093611a40601f1991611896565b019160005b838110611a525750505050565b6020908251611a60816117b9565b600081526060600084918083850152808785015283015260006080830152600060a0830152600060c0830152600060e0830152828601015201611a45565b81601f820112156100a0578051611ab481611815565b92611ac260405194856117f3565b818452602082840101116100a057611ae09160208085019101611605565b90565b906020828203126100a057815167ffffffffffffffff928382116100a0570160e0818303126100a0576040519260e084018481108282111761117557604052611b2b8261183e565b845260208201518181116100a05783611b45918401611a9e565b602085015260408201519081116100a05760c092611b64918301611a9e565b60408401526060810151606084015260808101516080840152611b8960a08201611831565b60a0840152015160c082015290565b60405190611ba5826117d6565b816101006000918281528260208201528260408201528260608201528260808201528260a08201528260c08201528260e08201520152565b90611be782611896565b611bf460405191826117f3565b8281528092611c05601f1991611896565b019060005b828110611c1657505050565b602090611c21611b98565b82828501015201611c0a565b90816101209103126100a057611c428161183e565b91611c4f6020830161183e565b91604081015191606082015191608081015191611c6e60a08301611831565b91611c7b60c08201611831565b91610100611c8b60e08401611831565b92015190565b90611c9a611b98565b5060408051637cc1f86760e01b815290926001600160a01b0390811691610120908181600481875afa928315611dc457956004949596600091829183928480968198829a611d8d575b505083516305cbde4360e11b8152996020908b90818e5afa998a15611d825760009a611d4c575b50829084519b611d198d6117d6565b8c521660208b015216908801526060870152608086015260a0850152151560c0840152151560e083015261010082015290565b90996020823d8211611d7a575b81611d66602093836117f3565b81010312611d775750519882611d0a565b80fd5b3d9150611d59565b84513d6000823e3d90fd5b95509550505095509350611dad9250803d10610cfa57610ce481836117f3565b505096929390959791949093949596973880611ce3565b86513d6000823e3d90fd5b919082039182116119c957565b60008054604051630c69e74b60e11b81526001600160a01b039183908290600490829086165afa908115611ed0578391611eb6575b508051938415611e7b5784811115611e75575083925b611e3a84611e3481611bdd565b96611dcf565b905b848110611e4b57505050505090565b80611e6685610a69611e60611e709587611a09565b876119df565b6103bf82896119df565b611e3c565b92611e27565b50506040519250506020820167ffffffffffffffff811183821017611ea257604052815290565b634e487b7160e01b82526041600452602482fd5b611eca91503d8085833e6103ed81836117f3565b38611e11565b6040513d85823e3d90fdfea2646970667358221220ac0915d09344e871cd2049744c491d05be49400b04e58bf83acba0b7439c43f264736f6c63430008130033",
  "linkReferences": {},
  "deployedLinkReferences": {}
}