{
  "_format": "hh-sol-artifact-1",
  "contractName": "AttendanceManager",
  "sourceName": "contracts/AttendanceManager.sol",
  "abi": [
    {
      "anonymous": false,
      "inputs": [
        {
          "indexed": true,
          "internalType": "address",
          "name": "employee",
          "type": "address"
        },
        {
          "indexed": true,
          "internalType": "address",
          "name": "employer",
          "type": "address"
        },
        {
          "indexed": false,
          "internalType": "uint256",
          "name": "day",
          "type": "uint256"
        },
        {
          "indexed": false,
          "internalType": "bytes32",
          "name": "codeHash",
          "type": "bytes32"
        }
      ],
      "name": "AttendanceMarked",
      "type": "event"
    },
    {
      "anonymous": false,
      "inputs": [
        {
          "indexed": true,
          "internalType": "address",
          "name": "employer",
          "type": "address"
        },
        {
          "indexed": true,
          "internalType": "address",
          "name": "employee",
          "type": "address"
        },
        {
          "indexed": true,
          "internalType": "bytes32",
          "name": "codeHash",
          "type": "bytes32"
        },
        {
          "indexed": false,
          "internalType": "uint256",
          "name": "expiryTime",
          "type": "uint256"
        },
        {
          "indexed": false,
          "internalType": "uint256",
          "name": "day",
          "type": "uint256"
        }
      ],
      "name": "CodeGenerated",
      "type": "event"
    },
    {
      "inputs": [],
      "name": "CODE_VALIDITY_DURATION",
      "outputs": [
        {
          "internalType": "uint256",
          "name": "",
          "type": "uint256"
        }
      ],
      "stateMutability": "view",
      "type": "function"
    },
    {
      "inputs": [
        {
          "internalType": "bytes32",
          "name": "",
          "type": "bytes32"
        }
      ],
      "name": "attendanceCodes",
      "outputs": [
        {
          "internalType": "bytes32",
          "name": "codeHash",
          "type": "bytes32"
        },
        {
          "internalType": "uint256",
          "name": "expiryTime",
          "type": "uint256"
        },
        {
          "internalType": "bool",
          "name": "isActive",
          "type": "bool"
        },
        {
          "internalType": "address",
          "name": "employer",
          "type": "address"
        },
        {
          "internalType": "address",
          "name": "employee",
          "type": "address"
        },
        {
          "internalType": "uint256",
          "name": "day",
          "type": "uint256"
        },
        {
          "internalType": "bool",
          "name": "isUsed",
          "type": "bool"
        }
      ],
      "stateMutability": "view",
      "type": "function"
    },
    {
      "inputs": [
        {
          "internalType": "address",
          "name": "",
          "type": "address"
        },
        {
          "internalType": "uint256",
          "name": "",
          "type": "uint256"
        }
      ],
      "name": "employeeAttendanceDays",
      "outputs": [
        {
          "internalType": "uint256",
          "name": "",
          "type": "uint256"
        }
      ],
      "stateMutability": "view",
      "type": "function"
    },
    {
      "inputs": [
        {
          "internalType": "address",
          "name": "",
          "type": "address"
        },
        {
          "internalType": "address",
          "name": "",
          "type": "address"
        },
        {
          "internalType": "uint256",
          "name": "",
          "type": "uint256"
        }
      ],
      "name": "employeeEmployerDayAttendance",
      "outputs": [
        {
          "internalType": "bool",
          "name": "",
          "type": "bool"
        }
      ],
      "stateMutability": "view",
      "type": "function"
    },
    {
      "inputs": [
        {
          "internalType": "address",
          "name": "",
          "type": "address"
        },
        {
          "internalType": "uint256",
          "name": "",
          "type": "uint256"
        }
      ],
      "name": "employerDailyCodes",
      "outputs": [
        {
          "internalType": "bytes32",
          "name": "",
          "type": "bytes32"
        }
      ],
      "stateMutability": "view",
      "type": "function"
    },
    {
      "inputs": [
        {
          "internalType": "address",
          "name": "_salaryContract",
          "type": "address"
        },
        {
          "internalType": "address",
          "name": "_employee",
          "type": "address"
        },
        {
          "internalType": "uint256",
          "name": "_day",
          "type": "uint256"
        },
        {
          "internalType": "uint256",
          "name": "_nonce",
          "type": "uint256"
        }
      ],
      "name": "generateAttendanceCode",
      "outputs": [
        {
          "internalType": "bytes32",
          "name": "",
          "type": "bytes32"
        }
      ],
      "stateMutability": "nonpayable",
      "type": "function"
    },
    {
      "inputs": [
        {
          "internalType": "address",
          "name": "_employer",
          "type": "address"
        },
        {
          "internalType": "address",
          "name": "_employee",
          "type": "address"
        },
        {
          "internalType": "uint256",
          "name": "_day",
          "type": "uint256"
        }
      ],
      "name": "getActiveCodeForEmployeeDay",
      "outputs": [
        {
          "internalType": "bytes32",
          "name": "",
          "type": "bytes32"
        }
      ],
      "stateMutability": "view",
      "type": "function"
    },
    {
      "inputs": [
        {
          "internalType": "bytes32",
          "name": "_codeHash",
          "type": "bytes32"
        }
      ],
      "name": "getCodeDetails",
      "outputs": [
        {
          "components": [
            {
              "internalType": "bytes32",
              "name": "codeHash",
              "type": "bytes32"
            },
            {
              "internalType": "uint256",
              "name": "expiryTime",
              "type": "uint256"
            },
            {
              "internalType": "bool",
              "name": "isActive",
              "type": "bool"
            },
            {
              "internalType": "address",
              "name": "employer",
              "type": "address"
            },
            {
              "internalType": "address",
              "name": "employee",
              "type": "address"
            },
            {
              "internalType": "uint256",
              "name": "day",
              "type": "uint256"
            },
            {
              "internalType": "bool",
              "name": "isUsed",
              "type": "bool"
            }
          ],
          "internalType": "struct AttendanceManager.AttendanceCode",
          "name": "",
          "type": "tuple"
        }
      ],
      "stateMutability": "view",
      "type": "function"
    },
    {
      "inputs": [
        {
          "internalType": "address",
          "name": "_employee",
          "type": "address"
        }
      ],
      "name": "getEmployeeAttendanceDays",
      "outputs": [
        {
          "internalType": "uint256[]",
          "name": "",
          "type": "uint256[]"
        }
      ],
      "stateMutability": "view",
      "type": "function"
    },
    {
      "inputs": [
        {
          "internalType": "address",
          "name": "",
          "type": "address"
        },
        {
          "internalType": "uint256",
          "name": "",
          "type": "uint256"
        }
      ],
      "name": "hasAttendanceForDay",
      "outputs": [
        {
          "internalType": "bool",
          "name": "",
          "type": "bool"
        }
      ],
      "stateMutability": "view",
      "type": "function"
    },
    {
      "inputs": [
        {
          "internalType": "address",
          "name": "_employee",
          "type": "address"
        },
        {
          "internalType": "address",
          "name": "_employer",
          "type": "address"
        },
        {
          "internalType": "uint256",
          "name": "_day",
          "type": "uint256"
        }
      ],
      "name": "hasEmployeeAttendedDay",
      "outputs": [
        {
          "internalType": "bool",
          "name": "",
          "type": "bool"
        }
      ],
      "stateMutability": "view",
      "type": "function"
    },
    {
      "inputs": [
        {
          "internalType": "bytes32",
          "name": "_codeHash",
          "type": "bytes32"
        }
      ],
      "name": "isCodeValid",
      "outputs": [
        {
          "internalType": "bool",
          "name": "",
          "type": "bool"
        }
      ],
      "stateMutability": "view",
      "type": "function"
    },
    {
      "inputs": [
        {
          "internalType": "address",
          "name": "_salaryContract",
          "type": "address"
        },
        {
          "internalType": "bytes32",
          "name": "_codeHash",
          "type": "bytes32"
        },
        {
          "internalType": "uint256",
          "name": "_day",
          "type": "uint256"
        }
      ],
      "name": "verifyAndMarkAttendance",
      "outputs": [
        {
          "internalType": "bool",
          "name": "",
          "type": "bool"
        }
      ],
      "stateMutability": "nonpayable",
      "type": "function"
    }
  ],
  "bytecode": "0x6080806040523461001657610f6a908161001c8239f35b600080fdfe608060408181526004918236101561001657600080fd5b600090813560e01c90816323ec70e114610c69575080633cbfedff146108845780634c7f52b41461083d57806353a85125146105fa57806364785689146107915780636ea77fae1461075057806388a0617f146106fa5780639926a6ab1461063e5780639931fca3146105fa5780639df01831146105d7578063a01b94fd14610558578063c5ff49d6146105365763ffb71c1a146100b357600080fd5b34610533576080366003190112610533576100cc610d5f565b6001600160a01b0392602480359391928585169283860361053357866044359286519063ae200e7960e01b8252818b8160209c8d94165afa9081156105295790829184916104fc575b501633036104bc578482528888528582203383528852858220838352885260ff868320541661046f57338252600188528582208383528852858220548015159788610371575b87518a8101913360601b83526bffffffffffffffffffffffff199060601b16603482015285604882015242606882015244608882015260643560a882015260a881526101a681610ddd565b51902097888452838a5287842054610313576201518042019586421161030257508960058a809c9d888b8d9e9d98849a986102a4986102e9575b508c8a51976101ee89610ddd565b8689528089019182528b890191600183528b60608b019233845260808c0196875260a08c0197885260c08c0199828b528252528c8c2099518a555160018a015561024b60028a0192511515839060ff801983541691151516179055565b51815490610100600160a81b039060081b1690610100600160a81b031916179055600387019151166bffffffffffffffffffffffff60a01b825416179055519084015551151591019060ff801983541691151516179055565b33815260018a528181208482528a5220558451918252868201527fb0fb8ce86ee3fb97b9d175fc11fb2b9d8fe11ad1be18947c761d6c1c66e3ccf7843392a451908152f35b8952888752898920600201805460ff19169055386101e0565b634e487b7160e01b855260118c5284fd5b875162461bcd60e51b8152808c018b90526033818801527f436f6465206861736820636f6c6c6973696f6e2c2074727920616761696e207760448201527269746820646966666572656e74206e6f6e636560681b6064820152608490fd5b818452838a5289888c898288209160ff600585519461038f86610ddd565b80548652600181015480988701528a60028201548481161515809989015260081c1660608701528a6003820154169384608088015281015460a0870152015416159260c08415910152149182610467575b508161045f575b506103f3575b5061015b565b42111561040057386103ed565b875162461bcd60e51b8152808c018b90526034818801527f41637469766520636f646520616c72656164792065786973747320666f72207460448201527368697320656d706c6f79656520616e642064617960601b6064820152608490fd5b9050386103e7565b9150386103e0565b855162461bcd60e51b8152808a018990526022818601527f456d706c6f79656520616c726561647920617474656e64656420746869732064604482015261617960f01b6064820152608490fd5b6064898986818a519362461bcd60e51b85528401528201527f4f6e6c7920656d706c6f7965722063616e2067656e657261746520636f6465736044820152fd5b61051c91508a3d8c11610522575b6105148183610e0f565b810190610e31565b38610115565b503d61050a565b87513d85823e3d90fd5b80fd5b50903461055457816003193601126105545760209051620151808152f35b5080fd5b509190346105d35760203660031901126105d3578060e093833581528060205220805492600182015492600283015460018060a01b039160ff6005846003880154169587015496015416958151978852602088015260ff821615159087015260081c166060850152608084015260a0830152151560c0820152f35b8280fd5b509034610554576020906105f36105ed36610d7a565b91610e50565b9051908152f35b5091346105d3578160209360ff9261061136610d7a565b6001600160a01b039283168552928852848420911683528652828220908252855220549151911615158152f35b509190346105d35760203660031901126105d357806020938335815280855220815161066981610ddd565b815480825260ff60056001850154948589860152600281015497838916151598898988015260018060a01b03809160081c166060880152600383015416608087015281015460a0860152015416159160c08315910152151593846106f2575b50836106ea575b50826106df575b50519015158152f35b4211159150386106d6565b9250386106cf565b9350386106c8565b509034610554578060031936011261055457610714610d5f565b6001600160a01b03168252600260205280822080546024359390841015610533575060209261074291610daf565b91905490519160031b1c8152f35b50903461055457806003193601126105545760209181906001600160a01b03610777610d5f565b168152600184528181206024358252845220549051908152f35b503461053357602090816003193601126105335782906001600160a01b036107b7610d5f565b16815260028352818120908251808584549182815201908194845286842090845b81811061082957505050816107ee910382610e0f565b83519485948186019282875251809352850193925b82811061081257505050500390f35b835185528695509381019392810192600101610803565b8254845292880192600192830192016107d8565b50903461055457806003193601126105545760209160ff9082906001600160a01b03610867610d5f565b168152600385528181206024358252855220541690519015158152f35b5090346105545760603660031901126105545761089f610d5f565b602492833591604480359285519763a0a1a7d760e01b89526020988981838160018060a01b038099165afa908115610c5f579085918491610c42575b50163303610bf75785825281895286822097885415610bc0576002890193845460ff811615610b8a5760058b0180549260ff8416610b485760019c8d8101544211610b1357338a60038301541603610ac657868b91015403610a9057338752858e528b8720600884901c8a1688528e528b87208a88528e528b87205460ff16610a3f575060ff199283168c1790558116855533845260028b5288842080549194939268010000000000000000831015610a2e5750916109a2828b948d809795018155610daf565b81549060031b908a821b91600019901b191617905533825260038c528282208883528c5282822084868254161790553382528b5281812086865460081c1682528b528181208782528b5220918254161790555460081c16918351918252858201527ff1f568d9365211ed9a4a4e05b0187d304a11620ac0abd042b212d39fc4de20d6833392a351908152f35b634e487b7160e01b85526041845284fd5b857f416c7265616479206d61726b656420617474656e64616e636520666f722074688f9260268f6084958a91519562461bcd60e51b87528601528401528201526569732064617960d01b6064820152fd5b8570086dec8ca40c8c2f240dad2e6dac2e8c6d607b1b8f9260118f6064958a91519562461bcd60e51b8752860152840152820152fd5b60848f7f436f6465206e6f742061737369676e656420746f207468697320656d706c6f798f60228a8c948893519562461bcd60e51b875286015284015282015261656560f01b6064820152fd5b60648f6f10dbd919481a185cc8195e1c1a5c995960821b8f60108a8c948893519562461bcd60e51b8752860152840152820152fd5b857f436f64652068617320616c7265616479206265656e20757365640000000000008f92601a8f6064958a91519562461bcd60e51b8752860152840152820152fd5b5060649350601271436f6465206973206e6f742061637469766560701b928c8b519562461bcd60e51b8752860152840152820152fd5b875162461bcd60e51b81529182018a90526013908201527210dbd91948191bd95cc81b9bdd08195e1a5cdd606a1b81840152606490fd5b865162461bcd60e51b81529081018990526021818901527f4f6e6c7920656d706c6f7965652063616e206d61726b20617474656e64616e6381840152606560f81b6064820152608490fd5b610c5991508b3d8d11610522576105148183610e0f565b386108db565b88513d85823e3d90fd5b8484849234610d5b576020366003190112610d5b578360e09460c083610c8f8695610ddd565b82815282602082015282858201528260608201528260808201528260a08201520152833581528060205220815191610cc683610ddd565b815493848452600183015491602085019283526002840154908086019060ff831615158252606087019160018060a01b039586809560081c16845260c060ff60058760038c0154169860808d01998a528b01549a60a08d019b8c52015416990198151589528251998a525160208a01525115159088015251166060860152511660808401525160a083015251151560c0820152f35b8380fd5b600435906001600160a01b0382168203610d7557565b600080fd5b6060906003190112610d75576001600160a01b03906004358281168103610d7557916024359081168103610d75579060443590565b8054821015610dc75760005260206000200190600090565b634e487b7160e01b600052603260045260246000fd5b60e0810190811067ffffffffffffffff821117610df957604052565b634e487b7160e01b600052604160045260246000fd5b90601f8019910116810190811067ffffffffffffffff821117610df957604052565b90816020910312610d7557516001600160a01b0381168103610d755790565b6001600160a01b03908116600090815260016020908152604080832095835294905292832054919082610e84575b50505090565b828452836020526040842060405190610e9c82610ddd565b805482526001810154928360208401526002820154948160ff871615159687604087015260081c16606085015260ff60058360038601541694856080880152600481015460a0880152015416159360c0851591015216149283610f2c575b5082610f24575b5081610f19575b50610f14578080610e7e565b905090565b905042111538610f08565b915038610f01565b925038610efa56fea2646970667358221220db1add57a1c8bd5844c8fae468f4586034942ce2f1c95ecbd3b9ff99430d5f8a64736f6c63430008130033",
  "linkReferences": {},
  "deployedLinkReferences": {}
}