{"contracts/SalaryStreamingFactory.sol":{"SalaryStreamingFactory":{"abi":[{"inputs":[],"stateMutability":"nonpayable","type":"constructor"},{"anonymous":false,"inputs":[{"indexed":true,"internalType":"address","name":"admin","type":"address"}],"name":"AdminAdded","type":"event"},{"anonymous":false,"inputs":[{"indexed":true,"internalType":"address","name":"admin","type":"address"}],"name":"AdminRemoved","type":"event"},{"anonymous":false,"inputs":[{"indexed":true,"internalType":"address","name":"orgAddress","type":"address"},{"indexed":false,"internalType":"string","name":"name","type":"string"}],"name":"OrganizationRegistered","type":"event"},{"anonymous":false,"inputs":[{"indexed":true,"internalType":"address","name":"org","type":"address"},{"indexed":true,"internalType":"address","name":"employee","type":"address"},{"indexed":false,"internalType":"address","name":"contractAddress","type":"address"}],"name":"SalaryContractCreated","type":"event"},{"inputs":[{"internalType":"address","name":"_admin","type":"address"}],"name":"addAdmin","outputs":[],"stateMutability":"nonpayable","type":"function"},{"inputs":[{"internalType":"address","name":"","type":"address"}],"name":"admins","outputs":[{"internalType":"bool","name":"","type":"bool"}],"stateMutability":"view","type":"function"},{"inputs":[{"internalType":"uint256","name":"","type":"uint256"}],"name":"allContracts","outputs":[{"internalType":"contract SalaryContract","name":"","type":"address"}],"stateMutability":"view","type":"function"},{"inputs":[{"internalType":"uint256","name":"","type":"uint256"}],"name":"allOrganizations","outputs":[{"internalType":"address","name":"","type":"address"}],"stateMutability":"view","type":"function"},{"inputs":[{"internalType":"address","name":"_employee","type":"address"},{"internalType":"uint256","name":"_dailySalary","type":"uint256"},{"internalType":"uint256","name":"_probationPercentage","type":"uint256"},{"internalType":"bool","name":"_isOnProbation","type":"bool"},{"internalType":"uint256","name":"_contractDuration","type":"uint256"}],"name":"createSalaryContract","outputs":[],"stateMutability":"payable","type":"function"},{"inputs":[],"name":"getAllContracts","outputs":[{"internalType":"contract SalaryContract[]","name":"","type":"address[]"}],"stateMutability":"view","type":"function"},{"inputs":[],"name":"getAllOrganizations","outputs":[{"internalType":"address[]","name":"","type":"address[]"}],"stateMutability":"view","type":"function"},{"inputs":[{"internalType":"address","name":"_org","type":"address"}],"name":"getOrganizationContracts","outputs":[{"internalType":"contract SalaryContract[]","name":"","type":"address[]"}],"stateMutability":"view","type":"function"},{"inputs":[{"internalType":"address","name":"_org","type":"address"}],"name":"getOrganizationDetails","outputs":[{"components":[{"internalType":"address","name":"orgAddress","type":"address"},{"internalType":"string","name":"name","type":"string"},{"internalType":"string","name":"email","type":"string"},{"internalType":"uint256","name":"totalEmployees","type":"uint256"},{"internalType":"uint256","name":"totalSalariesLocked","type":"uint256"},{"internalType":"bool","name":"isActive","type":"bool"},{"internalType":"uint256","name":"createdAt","type":"uint256"}],"internalType":"struct SalaryStreamingFactory.Organization","name":"","type":"tuple"}],"stateMutability":"view","type":"function"},{"inputs":[],"name":"getTotalContracts","outputs":[{"internalType":"uint256","name":"","type":"uint256"}],"stateMutability":"view","type":"function"},{"inputs":[],"name":"getTotalOrganizations","outputs":[{"internalType":"uint256","name":"","type":"uint256"}],"stateMutability":"view","type":"function"},{"inputs":[{"internalType":"address","name":"","type":"address"}],"name":"isOrganization","outputs":[{"internalType":"bool","name":"","type":"bool"}],"stateMutability":"view","type":"function"},{"inputs":[{"internalType":"address","name":"","type":"address"},{"internalType":"uint256","name":"","type":"uint256"}],"name":"organizationContracts","outputs":[{"internalType":"contract SalaryContract","name":"","type":"address"}],"stateMutability":"view","type":"function"},{"inputs":[{"internalType":"address","name":"","type":"address"}],"name":"organizations","outputs":[{"internalType":"address","name":"orgAddress","type":"address"},{"internalType":"string","name":"name","type":"string"},{"internalType":"string","name":"email","type":"string"},{"internalType":"uint256","name":"totalEmployees","type":"uint256"},{"internalType":"uint256","name":"totalSalariesLocked","type":"uint256"},{"internalType":"bool","name":"isActive","type":"bool"},{"internalType":"uint256","name":"createdAt","type":"uint256"}],"stateMutability":"view","type":"function"},{"inputs":[],"name":"owner","outputs":[{"internalType":"address","name":"","type":"address"}],"stateMutability":"view","type":"function"},{"inputs":[{"internalType":"string","name":"_name","type":"string"},{"internalType":"string","name":"_email","type":"string"}],"name":"registerOrganization","outputs":[],"stateMutability":"nonpayable","type":"function"},{"inputs":[{"internalType":"address","name":"_admin","type":"address"}],"name":"removeAdmin","outputs":[],"stateMutability":"nonpayable","type":"function"},{"inputs":[{"internalType":"address","name":"_org","type":"address"},{"internalType":"bool","name":"_status","type":"bool"}],"name":"updateOrganizationStatus","outputs":[],"stateMutability":"nonpayable","type":"function"}],"evm":{"bytecode":{"linkReferences":{},"object":"60808060405234610040573360018060a01b031960005416176000553360005260016020526040600020600160ff1982541617905561301e90816100468239f35b600080fdfe608060405260043610156200001357600080fd5b60003560e01c8062600e1c1462001317578063086ed93814620012475780631785f53c146200113457806318d3ce9614620010a9578063247a50d81462000ba6578063429b62e51462000b63578063534860cc1462000b435780635a1f74061462000a895780635ac6820914620009f457806361ba81d814620008b35780637048027514620007dd5780638026c0a3146200037e5780638da5cb5b1462000353578063a1fa6f521462000333578063b1ce8eab14620002f0578063b625804e1462000290578063e54e26b914620002325763f61bd7a114620000f457600080fd5b346200022d5760403660031901126200022d5762000111620013c5565b6024359081151582036200022d5733600052600160205260ff60406000205416801562000218575b15620001c9576001600160a01b031660008181526004602052604090205490919060ff16156200018b576200018991600052600260205260056040600020019060ff801983541691151516179055565b005b60405162461bcd60e51b815260206004820152601660248201527513dc99d85b9a5e985d1a5bdb881b9bdd08199bdd5b9960521b6044820152606490fd5b60405162461bcd60e51b815260206004820152602160248201527f4f6e6c792061646d696e2063616e2063616c6c20746869732066756e6374696f6044820152603760f91b6064820152608490fd5b506000546001600160a01b0316331462000139565b600080fd5b346200022d5760203660031901126200022d576004356006548110156200022d5760066000527ff652222313e28459528d920b65115c16c04f3efc82aaedc97be59f3f377c0d3f01546040516001600160a01b039091168152602090f35b346200022d5760403660031901126200022d57620002ad620013c5565b6024359060018060a01b038091166000526003602052604060002080548310156200022d57602092620002e091620013ac565b90549060031b1c16604051908152f35b346200022d5760203660031901126200022d576001600160a01b0362000315620013c5565b166000526004602052602060ff604060002054166040519015158152f35b346200022d5760003660031901126200022d576020600554604051908152f35b346200022d5760003660031901126200022d576000546040516001600160a01b039091168152602090f35b60a03660031901126200022d5762000395620013c5565b6024906044906064823584358235801515908190036200022d5760843592336000526020946004865260ff60406000205416156200077f576001600160a01b039687169788156200073f578415620006f257600a83101580620006e7575b15620006a75785156200065557858502858104870362000640573410620005f35750506040519361195d928386019286841067ffffffffffffffff851117620005de5760c09587956200168c87393385528a8986015260408501526060840152608083015260a082015203019034f08015620005d25733600052600382526040600020908154600160401b9283821015620005bd57816200049e916001620004bf94018155620013ac565b95909216809583549060031b9160018060a01b03809116831b921b19161790565b905560065490811015620005a857600181018060065581101562000593577ff652222313e28459528d920b65115c16c04f3efc82aaedc97be59f3f377c0d3f0180546001600160a01b031916831790553360009081526002825260409020600301805460001981146200057e576001019055336000526002815260046040600020018054903482018092116200057e575560405191825233917f10a856768ada7fd34a33d8c8414ca3ff1ed4ddaecea4f4c5e9b0b810d6d14bfa9190a3005b85634e487b7160e01b60005260116004526000fd5b84634e487b7160e01b60005260326004526000fd5b84634e487b7160e01b60005260416004526000fd5b87634e487b7160e01b60005260416004526000fd5b6040513d6000823e3d90fd5b8a634e487b7160e01b60005260416004526000fd5b636c61727960e01b6084927f496e73756666696369656e742066756e6473206c6f636b656420666f7220736189938d6040519562461bcd60e51b8752600487015280860152840152820152fd5b8a634e487b7160e01b60005260116004526000fd5b67072207468616e20360c41b6084927f436f6e7472616374206475726174696f6e206d75737420626520677265617465899360288e6040519662461bcd60e51b88526004880152860152840152820152fd5b7f496e76616c69642070726f626174696f6e2070657263656e74616765000000008791601c8c6040519462461bcd60e51b86526004860152840152820152fd5b5081831115620003f3565b6206e20360ec1b6084927f4461696c792073616c617279206d757374206265206772656174657220746861899360238e6040519662461bcd60e51b88526004880152860152840152820152fd5b7f496e76616c696420656d706c6f79656520616464726573730000000000000000879160188c6040519462461bcd60e51b86526004860152840152820152fd5b8573371031b0b636103a3434b990333ab731ba34b7b760611b6084927f4f6e6c792072656769737465726564206f7267616e697a6174696f6e732063618b60348e6040519662461bcd60e51b88526004880152860152840152820152fd5b346200022d5760203660031901126200022d57620007fa620013c5565b6000546001600160a01b039190620008169083163314620015ef565b166200082481151562001646565b80600052600160205260ff604060002054166200087b578060005260016020526040600020600160ff198254161790557f44d6d25963f097ad14f29f06854a01f575648a1ef82f30e562ccd3889717e339600080a2005b60405162461bcd60e51b815260206004820152601060248201526f20b63932b0b23c9030b71030b236b4b760811b6044820152606490fd5b346200022d576020806003193601126200022d57620008d1620013c5565b90600060c0604051620008e48162001422565b828152606084820152606060408201528260608201528260808201528260a0820152015260018060a01b03809216600052600281526040600020604051916200092d8362001422565b8382541683526200094160018301620014fb565b918184019283526200095660028201620014fb565b9260408501938452620009d560038301549460608701958652620009c160048501549360808901948552600660ff6005880154169660a08b01971515885201549660c08a019788526040519a8b9a828c525116908a01525160e060408a0152610100890190620015ad565b9051878203601f19016060890152620015ad565b935160808601525160a085015251151560c08401525160e08301520390f35b346200022d576020806003193601126200022d576001600160a01b038062000a1b620013c5565b1660005260038252604060002091604051809282855492838152019460005282600020926000915b83831062000a6f5762000a6b8662000a5e818a03826200143f565b60405191829182620013dc565b0390f35b845481168752958101956001948501949092019162000a43565b346200022d5760203660031901126200022d576001600160a01b038062000aaf620013c5565b16600052600260205260406000209081541662000acf60018301620014fb565b9162000ade60028201620014fb565b600382015491600481015462000b28600660ff6005850154169301549362000b19604051988998895260e060208a015260e0890190620015ad565b908782036040890152620015ad565b9360608601526080850152151560a084015260c08301520390f35b346200022d5760003660031901126200022d576020600654604051908152f35b346200022d5760203660031901126200022d576001600160a01b0362000b88620013c5565b166000526001602052602060ff604060002054166040519015158152f35b346200022d5760403660031901126200022d5760043567ffffffffffffffff81116200022d5762000bdc90369060040162001462565b60243567ffffffffffffffff81116200022d5762000bff90369060040162001462565b9033600052600460205260ff604060002054166200106457805115620010285781511562000feb576040519162000c368362001422565b338352602083019082825260408401526000606084015260006080840152600160a08401524260c084015233600052600260205260406000209060018060a01b038451166bffffffffffffffffffffffff60a01b8354161782555192835167ffffffffffffffff811162000e375762000cb36001840154620014be565b601f811162000f9f575b506020601f821160011462000f2b57819293949560009262000f1f575b50508160011b916000199060031b1c19161760018301555b604081015180519067ffffffffffffffff821162000e375762000d196002850154620014be565b601f811162000ed3575b50602090601f831160011462000e595791806006949260c09460009262000e4d575b50508160011b916000199060031b1c19161760028501555b606081015160038501556080810151600485015562000d9160a08201511515600586019060ff801983541691151516179055565b01519101553360005260046020526040600020600160ff19825416179055600554600160401b81101562000e375762000dd581600162000df693016005556200135e565b815491926001600160a01b0360039290921b91821b199092163390911b1790565b90557f783e607e94efcb9adce3489c806008ddc378d784ae22a1f801458720054325a2604051602081528062000e3233946020830190620015ad565b0390a2005b634e487b7160e01b600052604160045260246000fd5b01519050878062000d45565b906002850160005260206000209160005b601f198516811062000eba5750926006949260019260c09583601f1981161062000ea0575b505050811b01600285015562000d5d565b015160001960f88460031b161c1916905587808062000e8f565b9192602060018192868501518155019401920162000e6a565b600285016000526020600020601f840160051c81016020851062000f17575b601f830160051c8201811062000f0a57505062000d23565b6000815560010162000ef2565b508062000ef2565b01519050858062000cda565b6001840160005260206000209060005b601f198416811062000f86575060019394959683601f1981161062000f6c575b505050811b01600183015562000cf2565b015160001960f88460031b161c1916905585808062000f5b565b9091602060018192858b01518155019301910162000f3b565b600184016000526020600020601f830160051c81016020841062000fe3575b601f830160051c8201811062000fd657505062000cbd565b6000815560010162000fbe565b508062000fbe565b60405162461bcd60e51b8152602060048201526015602482015274456d61696c2063616e6e6f7420626520656d70747960581b6044820152606490fd5b60405162461bcd60e51b81526020600482015260146024820152734e616d652063616e6e6f7420626520656d70747960601b6044820152606490fd5b60405162461bcd60e51b815260206004820152601f60248201527f4f7267616e697a6174696f6e20616c72656164792072656769737465726564006044820152606490fd5b346200022d5760003660031901126200022d57604051806006549182815260208091019260066000527ff652222313e28459528d920b65115c16c04f3efc82aaedc97be59f3f377c0d3f916000905b828210620011135762000a6b8562000a5e818903826200143f565b83546001600160a01b031686529485019460019384019390910190620010f8565b346200022d5760203660031901126200022d5762001151620013c5565b6000546001600160a01b03908116916200116d338414620015ef565b16906200117c82151562001646565b81600052600160205260ff604060002054161562001213578114620011d857806000526001602052604060002060ff1981541690557fa3b62bc36326052d97ea62d63c3d60308ed4c3ea8ac079dd8499f1e9c4f80c0f600080a2005b60405162461bcd60e51b815260206004820152601360248201527221b0b73737ba103932b6b7bb329037bbb732b960691b6044820152606490fd5b60405162461bcd60e51b815260206004820152600c60248201526b2737ba1030b71030b236b4b760a11b6044820152606490fd5b346200022d5760003660031901126200022d57604051806005548083526020809301809160056000527f036b6384b5eca791c62761152d0c79bb0604c104a5fb6f4eb0703f3154bb3db09060005b86828210620012f9578686620012ae828803836200143f565b604051928392818401908285525180915260408401929160005b828110620012d857505050500390f35b83516001600160a01b031685528695509381019392810192600101620012c8565b83546001600160a01b03168552909301926001928301920162001295565b346200022d5760203660031901126200022d576004356005548110156200022d57620013456020916200135e565b905460405160039290921b1c6001600160a01b03168152f35b600554811015620013965760056000527f036b6384b5eca791c62761152d0c79bb0604c104a5fb6f4eb0703f3154bb3db00190600090565b634e487b7160e01b600052603260045260246000fd5b8054821015620013965760005260206000200190600090565b600435906001600160a01b03821682036200022d57565b6020908160408183019282815285518094520193019160005b82811062001404575050505090565b83516001600160a01b031685529381019392810192600101620013f5565b60e0810190811067ffffffffffffffff82111762000e3757604052565b90601f8019910116810190811067ffffffffffffffff82111762000e3757604052565b81601f820112156200022d5780359067ffffffffffffffff821162000e3757604051926200149b601f8401601f1916602001856200143f565b828452602083830101116200022d57816000926020809301838601378301015290565b90600182811c92168015620014f0575b6020831014620014da57565b634e487b7160e01b600052602260045260246000fd5b91607f1691620014ce565b90604051918260008254926200151184620014be565b90818452600194858116908160001462001588575060011462001541575b50506200153f925003836200143f565b565b9093915060005260209081600020936000915b8183106200156f5750506200153f935082010138806200152f565b8554888401850152948501948794509183019162001554565b9150506200153f94506020925060ff191682840152151560051b82010138806200152f565b919082519283825260005b848110620015da575050826000602080949584010152601f8019910116010190565b602081830181015184830182015201620015b8565b15620015f757565b60405162461bcd60e51b815260206004820152602160248201527f4f6e6c79206f776e65722063616e2063616c6c20746869732066756e6374696f6044820152603760f91b6064820152608490fd5b156200164e57565b60405162461bcd60e51b8152602060048201526015602482015274496e76616c69642061646d696e206164647265737360581b6044820152606490fdfe6080601f6200195d38819003918201601f19168301916001600160401b0383118484101761012b5780849260c0946040528339810103126101265761004381610141565b9061005060208201610141565b9160408201519160608101516080820151918215158093036101265760a001519334156100e157620100009560ff9460018060a01b0319913383600054161760005560018060a01b03809216836001541617600155169060025416176002556003556004556007549260055534600655169062ff00ff19161717600755426008556040516118079081620001568239f35b60405162461bcd60e51b815260206004820152601a60248201527f4d757374206c6f636b2066756e647320666f722073616c6172790000000000006044820152606490fd5b600080fd5b634e487b7160e01b600052604160045260246000fd5b51906001600160a01b03821682036101265756fe608060408181526004918236101561001657600080fd5b600092833560e01c9182630b97bc86146114b8575081631be37f84146114995781631c11863a1461147a57816322f3e2d41461145357816323077da21461138b5781632fd949ca146111b75781633e6968b61461118a5781633fb856cd1461116657816343547f541461114957816343d00d04146110505781634b31971314611031578163564704171461049d57816362d4744c14610e2a5781636a246e7014610e0b5781637cc1f86714610d8c578163809dab6a14610d4957816382e0209f14610d225781639005b2c414610b3c5781639425039c14610adc5781639455cd3b146105145781639f7521b41461092f578163a0a1a7d714610906578163a158241e146108d9578163a90795cf14610588578163ae200e791461055f578163b561dd7d14610541578163c16b872814610514578163c45a0155146104ec578163d1cc9976146104c5578163d537f31d1461049d578163db2e21bc146103d2578163dd1d941a1461029657508063e01415f9146101ea578063e9d5e0ef146101cc5763ffa6399b146101a657600080fd5b346101c857816003193601126101c85760209060ff6011541690519015158152f35b5080fd5b50346101c857816003193601126101c8576020906003549051908152f35b823461029357806003193601126102935761021060018060a01b03600254163314611544565b61022a60075460ff8160101c169081610284575b506115f4565b60115461023960ff82166116eb565b61024a60ff600f5460b01c16611737565b81600e5581600f558160105560ff19166011557f118dba3f66e4c91da334c33bac200ff628abbf23c8d2d8212a799d6b942089268180a180f35b60ff915060181c161583610224565b80fd5b839150346101c857816003193601126101c857600254906001600160a01b036102c23382851614611544565b6102db60075460ff8160101c1690816103c357506115f4565b601154906102eb60ff83166116eb565b600f54926102fe60ff8560b01c16611737565b60ff8460a81c166103805750600e80546003819055919093166001600160a01b031994909416841760025591849055600f849055601084905560ff191660115592519283526001600160a01b03166020830152907f83f7d510b8dca14c0080f463411a5ca5ea498f589bcdaec84a017f794339868b9080604081015b0390a180f35b606490602088519162461bcd60e51b8352820152601a60248201527f416c7265616479207369676e656420627920656d706c6f7965650000000000006044820152fd5b60ff915060181c161587610224565b9190503461049957826003193601126104995782546001600160a01b03163381900361045657838080809347905af16104096116bb565b5015610413578280f35b906020606492519162461bcd60e51b8352820152601b60248201527f456d657267656e6379207769746864726177616c206661696c656400000000006044820152fd5b815162461bcd60e51b8152602081850152601a60248201527f4f6e6c7920666163746f72792063616e2063616c6c20746869730000000000006044820152606490fd5b8280fd5b905034610499576020366003190112610499576020928291358152600c845220549051908152f35b5050346101c857816003193601126101c85760209060ff60075460181c1690519015158152f35b5050346101c857816003193601126101c857905490516001600160a01b039091168152602090f35b905034610499576020366003190112610499578160209360ff92358152600b855220541690519015158152f35b90503461049957826003193601126104995760209250549051908152f35b5050346101c857816003193601126101c85760015490516001600160a01b039091168152602090f35b8383346101c857806003193601126101c8576024908335823567ffffffffffffffff81116108d557366023820112156108d55780860135906105c982611528565b916105d685519384611506565b808352368682840101116108d157859181889260209889930183870137840101526002546001600160a01b0392906106119084163314611544565b61063760ff600754818160101c16806108c3575b61062e906115f4565b60081c16611639565b6201518061064760085442611698565b04841161087257838752600b865260ff858820541661082157838752600d865260ff85882054166107df57838752600c8652848720541561079d5784519086828251928a5b8481106107865750506106ab9281018a83820152038084520182611506565b858151910120838752600c8652848720540361074557828652600b855283862060ff1990600182825416179055600d865260018588209182541617905560095496600019881461073457505060017fc51da1eeea2cfdb8d4f06db34d4bd7bf6a82f2e15cf055e2eef27446bc5c3b8994959601600955600254169382519182524290820152a280f35b634e487b7160e01b87526011905285fd5b8660176064928787519362461bcd60e51b85528401528201527f496e76616c696420617474656e64616e636520636f64650000000000000000006044820152fd5b8181018401518682018501528a938693500161068c565b845162461bcd60e51b8152808901879052601e818401527f4e6f20636f64652067656e65726174656420666f7220746869732064617900006044820152606490fd5b845162461bcd60e51b8152808901879052601e818401527f436f646520616c7265616479207573656420666f7220746869732064617900006044820152606490fd5b845162461bcd60e51b81528089018790526026818401527f417474656e64616e636520616c7265616479206d61726b656420666f7220746860448201526569732064617960d01b6064820152608490fd5b845162461bcd60e51b81528089018790526026818401527f43616e6e6f74206d61726b20617474656e64616e636520666f7220667574757260448201526565206461797360d01b6064820152608490fd5b50601881901c821615610625565b8680fd5b8480fd5b905034610499576020366003190112610499578160209360ff92358152600d855220541690519015158152f35b5050346101c857816003193601126101c85760025490516001600160a01b039091168152602090f35b8383346101c8576020806003193601126104995760015490843561095d336001600160a01b0385161461159c565b61097960ff600754818160101c16806108c35761062e906115f4565b6201518061098960085442611698565b048110610a8e57808552600c825283852054610a3f578351908282019342855244868401528160608401526bffffffffffffffffffffffff199060601b1660808301526074825260a082019382851067ffffffffffffffff861117610a2c577f3552d68173ffbd518f5549ce7274cab798032b049b140f3452ff5c211edd3d2996975090600c60c093928688528351902094828a5252838689205584520152a180f35b634e487b7160e01b875260418852602487fd5b835162461bcd60e51b8152808701839052602360248201527f436f646520616c72656164792067656e65726174656420666f7220746869732060448201526264617960e81b6064820152608490fd5b835162461bcd60e51b8152808701839052602260248201527f43616e6e6f742067656e657261746520636f646520666f722070617374206461604482015261797360f01b6064820152608490fd5b5050346101c857816003193601126101c85760c090600e549060ff600f5460105492805194855260018060a01b0382166020860152828260a01c16151590850152818160a81c161515606085015260b01c161515608083015260a0820152f35b919050346104995782600319360112610499576002546001600160a01b0390811692610b69338514611544565b610b8560ff600754818160101c16806108c35761062e906115f4565b60095415610ce857610b95611796565b93610ba3600a548096611698565b948515610c9a57854710610c5757858101809111610c445786808781948294600a555af1610bcf6116bb565b5015610c0f5750907fbee6e25aae108c0524d61c49d523305558f12f21017476c3fef02ca775c41f1f91600254169260095482519182526020820152a280f35b606490602084519162461bcd60e51b8352820152600f60248201526e151c985b9cd9995c8819985a5b1959608a1b6044820152fd5b634e487b7160e01b875260118352602487fd5b845162461bcd60e51b8152602081850152601d60248201527f496e73756666696369656e7420636f6e74726163742062616c616e63650000006044820152606490fd5b845162461bcd60e51b8152602081850152602260248201527f4e6f2073616c61727920617661696c61626c6520666f72207769746864726177604482015261185b60f21b6064820152608490fd5b606490602084519162461bcd60e51b83528201526014602482015273139bc8185d1d195b99185b98d9481b585c9ad95960621b6044820152fd5b5050346101c857816003193601126101c85760209060ff60075460081c1690519015158152f35b5050346101c857816003193601126101c857602091610d66611796565b600a549081811115610d8457610d7c9250611698565b905b51908152f35b505090610d7e565b91905034610499578260031936011261049957610120925060ff60018060a01b0392836001541693600254169260035460095490600a54926007549454968151988952602089015287015260608601526080850152818160101c16151560a0850152818160081c16151560c085015216151560e0830152610100820152f35b5050346101c857816003193601126101c8576020906005549051908152f35b839150346101c857826003193601126101c857602435908035906001600160a01b038084169081850361102d57610e669060015416331461159c565b610e8260ff600754818160101c16806108c35761062e906115f4565b6011549160ff8316610fdb578315610f8e578115610f4b575094600161037a927f43224da643afd5364fe13eca80e87986c24f373291ecbe87c3695beefb96d47196978351610ed0816114d4565b868152816020820152838582015289606082015283608082015260a04291015285600e558260b01b9061ffff60a81b19908460a01b906affffffffffffffffffffff60a81b600f541617171617600f554260105560ff19161760115551928392839092916020906040830194835260018060a01b0316910152565b606490602088519162461bcd60e51b8352820152601c60248201527f496e76616c6964206e657720656d706c6f7965652061646472657373000000006044820152fd5b608490602088519162461bcd60e51b8352820152602160248201527f4e65772073616c617279206d7573742062652067726561746572207468616e206044820152600360fc1b6064820152fd5b608490602088519162461bcd60e51b8352820152602660248201527f5468657265277320616c726561647920612070656e64696e67206d6f6469666960448201526531b0ba34b7b760d11b6064820152fd5b8580fd5b5050346101c857816003193601126101c857602090600a549051908152f35b919050346104995782600319360112610499576002546001600160a01b03169161107b338414611544565b6007549160ff8360081c166111065760ff8360181c166110ca57505061ff001916610100176007557f52fc9bbf272c9663e2f72e32ebbd87b584e1015d97d62c96a47d445f8460cac18280a280f35b906020606492519162461bcd60e51b8352820152601660248201527510dbdb9d1c9858dd081a5cc81d195c9b5a5b985d195960521b6044820152fd5b906020606492519162461bcd60e51b8352820152601960248201527f436f6e747261637420616c726561647920617070726f766564000000000000006044820152fd5b5050346101c857816003193601126101c857602090610d7c611796565b5050346101c857816003193601126101c85760209060ff6007541690519015158152f35b5050346101c857816003193601126101c857602090620151806111af60085442611698565b049051908152f35b919050346104995782600319360112610499576001546001600160a01b03906111e3908216331461159c565b6007549060ff8260101c168061137c575b6111fd906115f4565b60ff8260081c16156113275761121d611214611796565b600a5490611698565b93630100000061122d8647611698565b9363ffff0000191617600755846112d2575b8261127d575b50907f6be8be759cda4c5feef9ad215df471cba9b636e1a68e1b8fb0803037e02c89509291600154169382519182526020820152a280f35b858080808686600154165af16112916116bb565b5061124557606490602085519162461bcd60e51b83528201526016602482015275115b5c1b1bde595c881c99599d5b990819985a5b195960521b6044820152fd5b858080808886600254165af16112e66116bb565b5061123f57606490602085519162461bcd60e51b83528201526016602482015275115b5c1b1bde5959481c185e5bdd5d0819985a5b195960521b6044820152fd5b825162461bcd60e51b8152602081860152602960248201527f43616e6e6f74207465726d696e617465206265666f726520656d706c6f79656560448201526808185c1c1c9bdd985b60ba1b6064820152608490fd5b50601882901c60ff16156111f4565b5050346101c857816003193601126101c85760c09160a082516113ad816114d4565b8281528260208201528284820152826060820152826080820152015280516113d4816114d4565b600e5491828252600f5490602083019060018060a01b0380841683528185019060ff8560a01c1615158252606086019360ff8660a81c161515855260ff608088019660b01c161515865260a0601054970196875283519788525116602087015251151590850152511515606084015251151560808301525160a0820152f35b5050346101c857816003193601126101c85760209060ff60075460101c1690519015158152f35b5050346101c857816003193601126101c8576020906009549051908152f35b5050346101c857816003193601126101c8576020906006549051908152f35b8490346101c857816003193601126101c8576020906008548152f35b60c0810190811067ffffffffffffffff8211176114f057604052565b634e487b7160e01b600052604160045260246000fd5b90601f8019910116810190811067ffffffffffffffff8211176114f057604052565b67ffffffffffffffff81116114f057601f01601f191660200190565b1561154b57565b60405162461bcd60e51b8152602060048201526024808201527f4f6e6c7920656d706c6f7965652063616e2063616c6c20746869732066756e636044820152633a34b7b760e11b6064820152608490fd5b156115a357565b60405162461bcd60e51b8152602060048201526024808201527f4f6e6c7920656d706c6f7965722063616e2063616c6c20746869732066756e636044820152633a34b7b760e11b6064820152608490fd5b156115fb57565b60405162461bcd60e51b8152602060048201526016602482015275436f6e7472616374206973206e6f742061637469766560501b6044820152606490fd5b1561164057565b60405162461bcd60e51b815260206004820152602a60248201527f456d706c6f79656520686173206e6f7420617070726f7665642074686520636f6044820152691b9d1c9858dd081e595d60b21b6064820152608490fd5b919082039182116116a557565b634e487b7160e01b600052601160045260246000fd5b3d156116e6573d906116cc82611528565b916116da6040519384611506565b82523d6000602084013e565b606090565b156116f257565b60405162461bcd60e51b815260206004820152601760248201527f4e6f2070656e64696e67206d6f64696669636174696f6e0000000000000000006044820152606490fd5b1561173e57565b60405162461bcd60e51b815260206004820152601a60248201527f4d6f64696669636174696f6e206973206e6f74206163746976650000000000006044820152606490fd5b818102929181159184041417156116a557565b60095480156117cb576003546117ab91611783565b60ff600754166117b85790565b6117c760649160045490611783565b0490565b5060009056fea26469706673582212209258e13b23710f23d20778e85f916c81b7df482f87ae8cdc905d97527a67e34464736f6c63430008130033a2646970667358221220c0f488fcbf9f27b5cb5492b486a4a1939efdfd810ba3f545da99d3fe67d430a764736f6c63430008130033","opcodes":"PUSH1 0x80 DUP1 PUSH1 0x40 MSTORE CALLVALUE PUSH2 0x40 JUMPI CALLER PUSH1 0x1 DUP1 PUSH1 0xA0 SHL SUB NOT PUSH1 0x0 SLOAD AND OR PUSH1 0x0 SSTORE CALLER PUSH1 0x0 MSTORE PUSH1 0x1 PUSH1 0x20 MSTORE PUSH1 0x40 PUSH1 0x0 KECCAK256 PUSH1 0x1 PUSH1 0xFF NOT DUP3 SLOAD AND OR SWAP1 SSTORE PUSH2 0x301E SWAP1 DUP2 PUSH2 0x46 DUP3 CODECOPY RETURN JUMPDEST PUSH1 0x0 DUP1 REVERT INVALID PUSH1 0x80 PUSH1 0x40 MSTORE PUSH1 0x4 CALLDATASIZE LT ISZERO PUSH3 0x13 JUMPI PUSH1 0x0 DUP1 REVERT JUMPDEST PUSH1 0x0 CALLDATALOAD PUSH1 0xE0 SHR DUP1 PUSH3 0x600E1C EQ PUSH3 0x1317 JUMPI DUP1 PUSH4 0x86ED938 EQ PUSH3 0x1247 JUMPI DUP1 PUSH4 0x1785F53C EQ PUSH3 0x1134 JUMPI DUP1 PUSH4 0x18D3CE96 EQ PUSH3 0x10A9 JUMPI DUP1 PUSH4 0x247A50D8 EQ PUSH3 0xBA6 JUMPI DUP1 PUSH4 0x429B62E5 EQ PUSH3 0xB63 JUMPI DUP1 PUSH4 0x534860CC EQ PUSH3 0xB43 JUMPI DUP1 PUSH4 0x5A1F7406 EQ PUSH3 0xA89 JUMPI DUP1 PUSH4 0x5AC68209 EQ PUSH3 0x9F4 JUMPI DUP1 PUSH4 0x61BA81D8 EQ PUSH3 0x8B3 JUMPI DUP1 PUSH4 0x70480275 EQ PUSH3 0x7DD JUMPI DUP1 PUSH4 0x8026C0A3 EQ PUSH3 0x37E JUMPI DUP1 PUSH4 0x8DA5CB5B EQ PUSH3 0x353 JUMPI DUP1 PUSH4 0xA1FA6F52 EQ PUSH3 0x333 JUMPI DUP1 PUSH4 0xB1CE8EAB EQ PUSH3 0x2F0 JUMPI DUP1 PUSH4 0xB625804E EQ PUSH3 0x290 JUMPI DUP1 PUSH4 0xE54E26B9 EQ PUSH3 0x232 JUMPI PUSH4 0xF61BD7A1 EQ PUSH3 0xF4 JUMPI PUSH1 0x0 DUP1 REVERT JUMPDEST CALLVALUE PUSH3 0x22D JUMPI PUSH1 0x40 CALLDATASIZE PUSH1 0x3 NOT ADD SLT PUSH3 0x22D JUMPI PUSH3 0x111 PUSH3 0x13C5 JUMP JUMPDEST PUSH1 0x24 CALLDATALOAD SWAP1 DUP2 ISZERO ISZERO DUP3 SUB PUSH3 0x22D JUMPI CALLER PUSH1 0x0 MSTORE PUSH1 0x1 PUSH1 0x20 MSTORE PUSH1 0xFF PUSH1 0x40 PUSH1 0x0 KECCAK256 SLOAD AND DUP1 ISZERO PUSH3 0x218 JUMPI JUMPDEST ISZERO PUSH3 0x1C9 JUMPI PUSH1 0x1 PUSH1 0x1 PUSH1 0xA0 SHL SUB AND PUSH1 0x0 DUP2 DUP2 MSTORE PUSH1 0x4 PUSH1 0x20 MSTORE PUSH1 0x40 SWAP1 KECCAK256 SLOAD SWAP1 SWAP2 SWAP1 PUSH1 0xFF AND ISZERO PUSH3 0x18B JUMPI PUSH3 0x189 SWAP2 PUSH1 0x0 MSTORE PUSH1 0x2 PUSH1 0x20 MSTORE PUSH1 0x5 PUSH1 0x40 PUSH1 0x0 KECCAK256 ADD SWAP1 PUSH1 0xFF DUP1 NOT DUP4 SLOAD AND SWAP2 ISZERO ISZERO AND OR SWAP1 SSTORE JUMP JUMPDEST STOP JUMPDEST PUSH1 0x40 MLOAD PUSH3 0x461BCD PUSH1 0xE5 SHL DUP2 MSTORE PUSH1 0x20 PUSH1 0x4 DUP3 ADD MSTORE PUSH1 0x16 PUSH1 0x24 DUP3 ADD MSTORE PUSH22 0x13DC99D85B9A5E985D1A5BDB881B9BDD08199BDD5B99 PUSH1 0x52 SHL PUSH1 0x44 DUP3 ADD MSTORE PUSH1 0x64 SWAP1 REVERT JUMPDEST PUSH1 0x40 MLOAD PUSH3 0x461BCD PUSH1 0xE5 SHL DUP2 MSTORE PUSH1 0x20 PUSH1 0x4 DUP3 ADD MSTORE PUSH1 0x21 PUSH1 0x24 DUP3 ADD MSTORE PUSH32 0x4F6E6C792061646D696E2063616E2063616C6C20746869732066756E6374696F PUSH1 0x44 DUP3 ADD MSTORE PUSH1 0x37 PUSH1 0xF9 SHL PUSH1 0x64 DUP3 ADD MSTORE PUSH1 0x84 SWAP1 REVERT JUMPDEST POP PUSH1 0x0 SLOAD PUSH1 0x1 PUSH1 0x1 PUSH1 0xA0 SHL SUB AND CALLER EQ PUSH3 0x139 JUMP JUMPDEST PUSH1 0x0 DUP1 REVERT JUMPDEST CALLVALUE PUSH3 0x22D JUMPI PUSH1 0x20 CALLDATASIZE PUSH1 0x3 NOT ADD SLT PUSH3 0x22D JUMPI PUSH1 0x4 CALLDATALOAD PUSH1 0x6 SLOAD DUP2 LT ISZERO PUSH3 0x22D JUMPI PUSH1 0x6 PUSH1 0x0 MSTORE PUSH32 0xF652222313E28459528D920B65115C16C04F3EFC82AAEDC97BE59F3F377C0D3F ADD SLOAD PUSH1 0x40 MLOAD PUSH1 0x1 PUSH1 0x1 PUSH1 0xA0 SHL SUB SWAP1 SWAP2 AND DUP2 MSTORE PUSH1 0x20 SWAP1 RETURN JUMPDEST CALLVALUE PUSH3 0x22D JUMPI PUSH1 0x40 CALLDATASIZE PUSH1 0x3 NOT ADD SLT PUSH3 0x22D JUMPI PUSH3 0x2AD PUSH3 0x13C5 JUMP JUMPDEST PUSH1 0x24 CALLDATALOAD SWAP1 PUSH1 0x1 DUP1 PUSH1 0xA0 SHL SUB DUP1 SWAP2 AND PUSH1 0x0 MSTORE PUSH1 0x3 PUSH1 0x20 MSTORE PUSH1 0x40 PUSH1 0x0 KECCAK256 DUP1 SLOAD DUP4 LT ISZERO PUSH3 0x22D JUMPI PUSH1 0x20 SWAP3 PUSH3 0x2E0 SWAP2 PUSH3 0x13AC JUMP JUMPDEST SWAP1 SLOAD SWAP1 PUSH1 0x3 SHL SHR AND PUSH1 0x40 MLOAD SWAP1 DUP2 MSTORE RETURN JUMPDEST CALLVALUE PUSH3 0x22D JUMPI PUSH1 0x20 CALLDATASIZE PUSH1 0x3 NOT ADD SLT PUSH3 0x22D JUMPI PUSH1 0x1 PUSH1 0x1 PUSH1 0xA0 SHL SUB PUSH3 0x315 PUSH3 0x13C5 JUMP JUMPDEST AND PUSH1 0x0 MSTORE PUSH1 0x4 PUSH1 0x20 MSTORE PUSH1 0x20 PUSH1 0xFF PUSH1 0x40 PUSH1 0x0 KECCAK256 SLOAD AND PUSH1 0x40 MLOAD SWAP1 ISZERO ISZERO DUP2 MSTORE RETURN JUMPDEST CALLVALUE PUSH3 0x22D JUMPI PUSH1 0x0 CALLDATASIZE PUSH1 0x3 NOT ADD SLT PUSH3 0x22D JUMPI PUSH1 0x20 PUSH1 0x5 SLOAD PUSH1 0x40 MLOAD SWAP1 DUP2 MSTORE RETURN JUMPDEST CALLVALUE PUSH3 0x22D JUMPI PUSH1 0x0 CALLDATASIZE PUSH1 0x3 NOT ADD SLT PUSH3 0x22D JUMPI PUSH1 0x0 SLOAD PUSH1 0x40 MLOAD PUSH1 0x1 PUSH1 0x1 PUSH1 0xA0 SHL SUB SWAP1 SWAP2 AND DUP2 MSTORE PUSH1 0x20 SWAP1 RETURN JUMPDEST PUSH1 0xA0 CALLDATASIZE PUSH1 0x3 NOT ADD SLT PUSH3 0x22D JUMPI PUSH3 0x395 PUSH3 0x13C5 JUMP JUMPDEST PUSH1 0x24 SWAP1 PUSH1 0x44 SWAP1 PUSH1 0x64 DUP3 CALLDATALOAD DUP5 CALLDATALOAD DUP3 CALLDATALOAD DUP1 ISZERO ISZERO SWAP1 DUP2 SWAP1 SUB PUSH3 0x22D JUMPI PUSH1 0x84 CALLDATALOAD SWAP3 CALLER PUSH1 0x0 MSTORE PUSH1 0x20 SWAP5 PUSH1 0x4 DUP7 MSTORE PUSH1 0xFF PUSH1 0x40 PUSH1 0x0 KECCAK256 SLOAD AND ISZERO PUSH3 0x77F JUMPI PUSH1 0x1 PUSH1 0x1 PUSH1 0xA0 SHL SUB SWAP7 DUP8 AND SWAP8 DUP9 ISZERO PUSH3 0x73F JUMPI DUP5 ISZERO PUSH3 0x6F2 JUMPI PUSH1 0xA DUP4 LT ISZERO DUP1 PUSH3 0x6E7 JUMPI JUMPDEST ISZERO PUSH3 0x6A7 JUMPI DUP6 ISZERO PUSH3 0x655 JUMPI DUP6 DUP6 MUL DUP6 DUP2 DIV DUP8 SUB PUSH3 0x640 JUMPI CALLVALUE LT PUSH3 0x5F3 JUMPI POP POP PUSH1 0x40 MLOAD SWAP4 PUSH2 0x195D SWAP3 DUP4 DUP7 ADD SWAP3 DUP7 DUP5 LT PUSH8 0xFFFFFFFFFFFFFFFF DUP6 GT OR PUSH3 0x5DE JUMPI PUSH1 0xC0 SWAP6 DUP8 SWAP6 PUSH3 0x168C DUP8 CODECOPY CALLER DUP6 MSTORE DUP11 DUP10 DUP7 ADD MSTORE PUSH1 0x40 DUP6 ADD MSTORE PUSH1 0x60 DUP5 ADD MSTORE PUSH1 0x80 DUP4 ADD MSTORE PUSH1 0xA0 DUP3 ADD MSTORE SUB ADD SWAP1 CALLVALUE CREATE DUP1 ISZERO PUSH3 0x5D2 JUMPI CALLER PUSH1 0x0 MSTORE PUSH1 0x3 DUP3 MSTORE PUSH1 0x40 PUSH1 0x0 KECCAK256 SWAP1 DUP2 SLOAD PUSH1 0x1 PUSH1 0x40 SHL SWAP3 DUP4 DUP3 LT ISZERO PUSH3 0x5BD JUMPI DUP2 PUSH3 0x49E SWAP2 PUSH1 0x1 PUSH3 0x4BF SWAP5 ADD DUP2 SSTORE PUSH3 0x13AC JUMP JUMPDEST SWAP6 SWAP1 SWAP3 AND DUP1 SWAP6 DUP4 SLOAD SWAP1 PUSH1 0x3 SHL SWAP2 PUSH1 0x1 DUP1 PUSH1 0xA0 SHL SUB DUP1 SWAP2 AND DUP4 SHL SWAP3 SHL NOT AND OR SWAP1 JUMP JUMPDEST SWAP1 SSTORE PUSH1 0x6 SLOAD SWAP1 DUP2 LT ISZERO PUSH3 0x5A8 JUMPI PUSH1 0x1 DUP2 ADD DUP1 PUSH1 0x6 SSTORE DUP2 LT ISZERO PUSH3 0x593 JUMPI PUSH32 0xF652222313E28459528D920B65115C16C04F3EFC82AAEDC97BE59F3F377C0D3F ADD DUP1 SLOAD PUSH1 0x1 PUSH1 0x1 PUSH1 0xA0 SHL SUB NOT AND DUP4 OR SWAP1 SSTORE CALLER PUSH1 0x0 SWAP1 DUP2 MSTORE PUSH1 0x2 DUP3 MSTORE PUSH1 0x40 SWAP1 KECCAK256 PUSH1 0x3 ADD DUP1 SLOAD PUSH1 0x0 NOT DUP2 EQ PUSH3 0x57E JUMPI PUSH1 0x1 ADD SWAP1 SSTORE CALLER PUSH1 0x0 MSTORE PUSH1 0x2 DUP2 MSTORE PUSH1 0x4 PUSH1 0x40 PUSH1 0x0 KECCAK256 ADD DUP1 SLOAD SWAP1 CALLVALUE DUP3 ADD DUP1 SWAP3 GT PUSH3 0x57E JUMPI SSTORE PUSH1 0x40 MLOAD SWAP2 DUP3 MSTORE CALLER SWAP2 PUSH32 0x10A856768ADA7FD34A33D8C8414CA3FF1ED4DDAECEA4F4C5E9B0B810D6D14BFA SWAP2 SWAP1 LOG3 STOP JUMPDEST DUP6 PUSH4 0x4E487B71 PUSH1 0xE0 SHL PUSH1 0x0 MSTORE PUSH1 0x11 PUSH1 0x4 MSTORE PUSH1 0x0 REVERT JUMPDEST DUP5 PUSH4 0x4E487B71 PUSH1 0xE0 SHL PUSH1 0x0 MSTORE PUSH1 0x32 PUSH1 0x4 MSTORE PUSH1 0x0 REVERT JUMPDEST DUP5 PUSH4 0x4E487B71 PUSH1 0xE0 SHL PUSH1 0x0 MSTORE PUSH1 0x41 PUSH1 0x4 MSTORE PUSH1 0x0 REVERT JUMPDEST DUP8 PUSH4 0x4E487B71 PUSH1 0xE0 SHL PUSH1 0x0 MSTORE PUSH1 0x41 PUSH1 0x4 MSTORE PUSH1 0x0 REVERT JUMPDEST PUSH1 0x40 MLOAD RETURNDATASIZE PUSH1 0x0 DUP3 RETURNDATACOPY RETURNDATASIZE SWAP1 REVERT JUMPDEST DUP11 PUSH4 0x4E487B71 PUSH1 0xE0 SHL PUSH1 0x0 MSTORE PUSH1 0x41 PUSH1 0x4 MSTORE PUSH1 0x0 REVERT JUMPDEST PUSH4 0x6C617279 PUSH1 0xE0 SHL PUSH1 0x84 SWAP3 PUSH32 0x496E73756666696369656E742066756E6473206C6F636B656420666F72207361 DUP10 SWAP4 DUP14 PUSH1 0x40 MLOAD SWAP6 PUSH3 0x461BCD PUSH1 0xE5 SHL DUP8 MSTORE PUSH1 0x4 DUP8 ADD MSTORE DUP1 DUP7 ADD MSTORE DUP5 ADD MSTORE DUP3 ADD MSTORE REVERT JUMPDEST DUP11 PUSH4 0x4E487B71 PUSH1 0xE0 SHL PUSH1 0x0 MSTORE PUSH1 0x11 PUSH1 0x4 MSTORE PUSH1 0x0 REVERT JUMPDEST PUSH8 0x72207468616E203 PUSH1 0xC4 SHL PUSH1 0x84 SWAP3 PUSH32 0x436F6E7472616374206475726174696F6E206D75737420626520677265617465 DUP10 SWAP4 PUSH1 0x28 DUP15 PUSH1 0x40 MLOAD SWAP7 PUSH3 0x461BCD PUSH1 0xE5 SHL DUP9 MSTORE PUSH1 0x4 DUP9 ADD MSTORE DUP7 ADD MSTORE DUP5 ADD MSTORE DUP3 ADD MSTORE REVERT JUMPDEST PUSH32 0x496E76616C69642070726F626174696F6E2070657263656E7461676500000000 DUP8 SWAP2 PUSH1 0x1C DUP13 PUSH1 0x40 MLOAD SWAP5 PUSH3 0x461BCD PUSH1 0xE5 SHL DUP7 MSTORE PUSH1 0x4 DUP7 ADD MSTORE DUP5 ADD MSTORE DUP3 ADD MSTORE REVERT JUMPDEST POP DUP2 DUP4 GT ISZERO PUSH3 0x3F3 JUMP JUMPDEST PUSH3 0x6E203 PUSH1 0xEC SHL PUSH1 0x84 SWAP3 PUSH32 0x4461696C792073616C617279206D757374206265206772656174657220746861 DUP10 SWAP4 PUSH1 0x23 DUP15 PUSH1 0x40 MLOAD SWAP7 PUSH3 0x461BCD PUSH1 0xE5 SHL DUP9 MSTORE PUSH1 0x4 DUP9 ADD MSTORE DUP7 ADD MSTORE DUP5 ADD MSTORE DUP3 ADD MSTORE REVERT JUMPDEST PUSH32 0x496E76616C696420656D706C6F79656520616464726573730000000000000000 DUP8 SWAP2 PUSH1 0x18 DUP13 PUSH1 0x40 MLOAD SWAP5 PUSH3 0x461BCD PUSH1 0xE5 SHL DUP7 MSTORE PUSH1 0x4 DUP7 ADD MSTORE DUP5 ADD MSTORE DUP3 ADD MSTORE REVERT JUMPDEST DUP6 PUSH20 0x371031B0B636103A3434B990333AB731BA34B7B7 PUSH1 0x61 SHL PUSH1 0x84 SWAP3 PUSH32 0x4F6E6C792072656769737465726564206F7267616E697A6174696F6E73206361 DUP12 PUSH1 0x34 DUP15 PUSH1 0x40 MLOAD SWAP7 PUSH3 0x461BCD PUSH1 0xE5 SHL DUP9 MSTORE PUSH1 0x4 DUP9 ADD MSTORE DUP7 ADD MSTORE DUP5 ADD MSTORE DUP3 ADD MSTORE REVERT JUMPDEST CALLVALUE PUSH3 0x22D JUMPI PUSH1 0x20 CALLDATASIZE PUSH1 0x3 NOT ADD SLT PUSH3 0x22D JUMPI PUSH3 0x7FA PUSH3 0x13C5 JUMP JUMPDEST PUSH1 0x0 SLOAD PUSH1 0x1 PUSH1 0x1 PUSH1 0xA0 SHL SUB SWAP2 SWAP1 PUSH3 0x816 SWAP1 DUP4 AND CALLER EQ PUSH3 0x15EF JUMP JUMPDEST AND PUSH3 0x824 DUP2 ISZERO ISZERO PUSH3 0x1646 JUMP JUMPDEST DUP1 PUSH1 0x0 MSTORE PUSH1 0x1 PUSH1 0x20 MSTORE PUSH1 0xFF PUSH1 0x40 PUSH1 0x0 KECCAK256 SLOAD AND PUSH3 0x87B JUMPI DUP1 PUSH1 0x0 MSTORE PUSH1 0x1 PUSH1 0x20 MSTORE PUSH1 0x40 PUSH1 0x0 KECCAK256 PUSH1 0x1 PUSH1 0xFF NOT DUP3 SLOAD AND OR SWAP1 SSTORE PUSH32 0x44D6D25963F097AD14F29F06854A01F575648A1EF82F30E562CCD3889717E339 PUSH1 0x0 DUP1 LOG2 STOP JUMPDEST PUSH1 0x40 MLOAD PUSH3 0x461BCD PUSH1 0xE5 SHL DUP2 MSTORE PUSH1 0x20 PUSH1 0x4 DUP3 ADD MSTORE PUSH1 0x10 PUSH1 0x24 DUP3 ADD MSTORE PUSH16 0x20B63932B0B23C9030B71030B236B4B7 PUSH1 0x81 SHL PUSH1 0x44 DUP3 ADD MSTORE PUSH1 0x64 SWAP1 REVERT JUMPDEST CALLVALUE PUSH3 0x22D JUMPI PUSH1 0x20 DUP1 PUSH1 0x3 NOT CALLDATASIZE ADD SLT PUSH3 0x22D JUMPI PUSH3 0x8D1 PUSH3 0x13C5 JUMP JUMPDEST SWAP1 PUSH1 0x0 PUSH1 0xC0 PUSH1 0x40 MLOAD PUSH3 0x8E4 DUP2 PUSH3 0x1422 JUMP JUMPDEST DUP3 DUP2 MSTORE PUSH1 0x60 DUP5 DUP3 ADD MSTORE PUSH1 0x60 PUSH1 0x40 DUP3 ADD MSTORE DUP3 PUSH1 0x60 DUP3 ADD MSTORE DUP3 PUSH1 0x80 DUP3 ADD MSTORE DUP3 PUSH1 0xA0 DUP3 ADD MSTORE ADD MSTORE PUSH1 0x1 DUP1 PUSH1 0xA0 SHL SUB DUP1 SWAP3 AND PUSH1 0x0 MSTORE PUSH1 0x2 DUP2 MSTORE PUSH1 0x40 PUSH1 0x0 KECCAK256 PUSH1 0x40 MLOAD SWAP2 PUSH3 0x92D DUP4 PUSH3 0x1422 JUMP JUMPDEST DUP4 DUP3 SLOAD AND DUP4 MSTORE PUSH3 0x941 PUSH1 0x1 DUP4 ADD PUSH3 0x14FB JUMP JUMPDEST SWAP2 DUP2 DUP5 ADD SWAP3 DUP4 MSTORE PUSH3 0x956 PUSH1 0x2 DUP3 ADD PUSH3 0x14FB JUMP JUMPDEST SWAP3 PUSH1 0x40 DUP6 ADD SWAP4 DUP5 MSTORE PUSH3 0x9D5 PUSH1 0x3 DUP4 ADD SLOAD SWAP5 PUSH1 0x60 DUP8 ADD SWAP6 DUP7 MSTORE PUSH3 0x9C1 PUSH1 0x4 DUP6 ADD SLOAD SWAP4 PUSH1 0x80 DUP10 ADD SWAP5 DUP6 MSTORE PUSH1 0x6 PUSH1 0xFF PUSH1 0x5 DUP9 ADD SLOAD AND SWAP7 PUSH1 0xA0 DUP12 ADD SWAP8 ISZERO ISZERO DUP9 MSTORE ADD SLOAD SWAP7 PUSH1 0xC0 DUP11 ADD SWAP8 DUP9 MSTORE PUSH1 0x40 MLOAD SWAP11 DUP12 SWAP11 DUP3 DUP13 MSTORE MLOAD AND SWAP1 DUP11 ADD MSTORE MLOAD PUSH1 0xE0 PUSH1 0x40 DUP11 ADD MSTORE PUSH2 0x100 DUP10 ADD SWAP1 PUSH3 0x15AD JUMP JUMPDEST SWAP1 MLOAD DUP8 DUP3 SUB PUSH1 0x1F NOT ADD PUSH1 0x60 DUP10 ADD MSTORE PUSH3 0x15AD JUMP JUMPDEST SWAP4 MLOAD PUSH1 0x80 DUP7 ADD MSTORE MLOAD PUSH1 0xA0 DUP6 ADD MSTORE MLOAD ISZERO ISZERO PUSH1 0xC0 DUP5 ADD MSTORE MLOAD PUSH1 0xE0 DUP4 ADD MSTORE SUB SWAP1 RETURN JUMPDEST CALLVALUE PUSH3 0x22D JUMPI PUSH1 0x20 DUP1 PUSH1 0x3 NOT CALLDATASIZE ADD SLT PUSH3 0x22D JUMPI PUSH1 0x1 PUSH1 0x1 PUSH1 0xA0 SHL SUB DUP1 PUSH3 0xA1B PUSH3 0x13C5 JUMP JUMPDEST AND PUSH1 0x0 MSTORE PUSH1 0x3 DUP3 MSTORE PUSH1 0x40 PUSH1 0x0 KECCAK256 SWAP2 PUSH1 0x40 MLOAD DUP1 SWAP3 DUP3 DUP6 SLOAD SWAP3 DUP4 DUP2 MSTORE ADD SWAP5 PUSH1 0x0 MSTORE DUP3 PUSH1 0x0 KECCAK256 SWAP3 PUSH1 0x0 SWAP2 JUMPDEST DUP4 DUP4 LT PUSH3 0xA6F JUMPI PUSH3 0xA6B DUP7 PUSH3 0xA5E DUP2 DUP11 SUB DUP3 PUSH3 0x143F JUMP JUMPDEST PUSH1 0x40 MLOAD SWAP2 DUP3 SWAP2 DUP3 PUSH3 0x13DC JUMP JUMPDEST SUB SWAP1 RETURN JUMPDEST DUP5 SLOAD DUP2 AND DUP8 MSTORE SWAP6 DUP2 ADD SWAP6 PUSH1 0x1 SWAP5 DUP6 ADD SWAP5 SWAP1 SWAP3 ADD SWAP2 PUSH3 0xA43 JUMP JUMPDEST CALLVALUE PUSH3 0x22D JUMPI PUSH1 0x20 CALLDATASIZE PUSH1 0x3 NOT ADD SLT PUSH3 0x22D JUMPI PUSH1 0x1 PUSH1 0x1 PUSH1 0xA0 SHL SUB DUP1 PUSH3 0xAAF PUSH3 0x13C5 JUMP JUMPDEST AND PUSH1 0x0 MSTORE PUSH1 0x2 PUSH1 0x20 MSTORE PUSH1 0x40 PUSH1 0x0 KECCAK256 SWAP1 DUP2 SLOAD AND PUSH3 0xACF PUSH1 0x1 DUP4 ADD PUSH3 0x14FB JUMP JUMPDEST SWAP2 PUSH3 0xADE PUSH1 0x2 DUP3 ADD PUSH3 0x14FB JUMP JUMPDEST PUSH1 0x3 DUP3 ADD SLOAD SWAP2 PUSH1 0x4 DUP2 ADD SLOAD PUSH3 0xB28 PUSH1 0x6 PUSH1 0xFF PUSH1 0x5 DUP6 ADD SLOAD AND SWAP4 ADD SLOAD SWAP4 PUSH3 0xB19 PUSH1 0x40 MLOAD SWAP9 DUP10 SWAP9 DUP10 MSTORE PUSH1 0xE0 PUSH1 0x20 DUP11 ADD MSTORE PUSH1 0xE0 DUP10 ADD SWAP1 PUSH3 0x15AD JUMP JUMPDEST SWAP1 DUP8 DUP3 SUB PUSH1 0x40 DUP10 ADD MSTORE PUSH3 0x15AD JUMP JUMPDEST SWAP4 PUSH1 0x60 DUP7 ADD MSTORE PUSH1 0x80 DUP6 ADD MSTORE ISZERO ISZERO PUSH1 0xA0 DUP5 ADD MSTORE PUSH1 0xC0 DUP4 ADD MSTORE SUB SWAP1 RETURN JUMPDEST CALLVALUE PUSH3 0x22D JUMPI PUSH1 0x0 CALLDATASIZE PUSH1 0x3 NOT ADD SLT PUSH3 0x22D JUMPI PUSH1 0x20 PUSH1 0x6 SLOAD PUSH1 0x40 MLOAD SWAP1 DUP2 MSTORE RETURN JUMPDEST CALLVALUE PUSH3 0x22D JUMPI PUSH1 0x20 CALLDATASIZE PUSH1 0x3 NOT ADD SLT PUSH3 0x22D JUMPI PUSH1 0x1 PUSH1 0x1 PUSH1 0xA0 SHL SUB PUSH3 0xB88 PUSH3 0x13C5 JUMP JUMPDEST AND PUSH1 0x0 MSTORE PUSH1 0x1 PUSH1 0x20 MSTORE PUSH1 0x20 PUSH1 0xFF PUSH1 0x40 PUSH1 0x0 KECCAK256 SLOAD AND PUSH1 0x40 MLOAD SWAP1 ISZERO ISZERO DUP2 MSTORE RETURN JUMPDEST CALLVALUE PUSH3 0x22D JUMPI PUSH1 0x40 CALLDATASIZE PUSH1 0x3 NOT ADD SLT PUSH3 0x22D JUMPI PUSH1 0x4 CALLDATALOAD PUSH8 0xFFFFFFFFFFFFFFFF DUP2 GT PUSH3 0x22D JUMPI PUSH3 0xBDC SWAP1 CALLDATASIZE SWAP1 PUSH1 0x4 ADD PUSH3 0x1462 JUMP JUMPDEST PUSH1 0x24 CALLDATALOAD PUSH8 0xFFFFFFFFFFFFFFFF DUP2 GT PUSH3 0x22D JUMPI PUSH3 0xBFF SWAP1 CALLDATASIZE SWAP1 PUSH1 0x4 ADD PUSH3 0x1462 JUMP JUMPDEST SWAP1 CALLER PUSH1 0x0 MSTORE PUSH1 0x4 PUSH1 0x20 MSTORE PUSH1 0xFF PUSH1 0x40 PUSH1 0x0 KECCAK256 SLOAD AND PUSH3 0x1064 JUMPI DUP1 MLOAD ISZERO PUSH3 0x1028 JUMPI DUP2 MLOAD ISZERO PUSH3 0xFEB JUMPI PUSH1 0x40 MLOAD SWAP2 PUSH3 0xC36 DUP4 PUSH3 0x1422 JUMP JUMPDEST CALLER DUP4 MSTORE PUSH1 0x20 DUP4 ADD SWAP1 DUP3 DUP3 MSTORE PUSH1 0x40 DUP5 ADD MSTORE PUSH1 0x0 PUSH1 0x60 DUP5 ADD MSTORE PUSH1 0x0 PUSH1 0x80 DUP5 ADD MSTORE PUSH1 0x1 PUSH1 0xA0 DUP5 ADD MSTORE TIMESTAMP PUSH1 0xC0 DUP5 ADD MSTORE CALLER PUSH1 0x0 MSTORE PUSH1 0x2 PUSH1 0x20 MSTORE PUSH1 0x40 PUSH1 0x0 KECCAK256 SWAP1 PUSH1 0x1 DUP1 PUSH1 0xA0 SHL SUB DUP5 MLOAD AND PUSH12 0xFFFFFFFFFFFFFFFFFFFFFFFF PUSH1 0xA0 SHL DUP4 SLOAD AND OR DUP3 SSTORE MLOAD SWAP3 DUP4 MLOAD PUSH8 0xFFFFFFFFFFFFFFFF DUP2 GT PUSH3 0xE37 JUMPI PUSH3 0xCB3 PUSH1 0x1 DUP5 ADD SLOAD PUSH3 0x14BE JUMP JUMPDEST PUSH1 0x1F DUP2 GT PUSH3 0xF9F JUMPI JUMPDEST POP PUSH1 0x20 PUSH1 0x1F DUP3 GT PUSH1 0x1 EQ PUSH3 0xF2B JUMPI DUP2 SWAP3 SWAP4 SWAP5 SWAP6 PUSH1 0x0 SWAP3 PUSH3 0xF1F JUMPI JUMPDEST POP POP DUP2 PUSH1 0x1 SHL SWAP2 PUSH1 0x0 NOT SWAP1 PUSH1 0x3 SHL SHR NOT AND OR PUSH1 0x1 DUP4 ADD SSTORE JUMPDEST PUSH1 0x40 DUP2 ADD MLOAD DUP1 MLOAD SWAP1 PUSH8 0xFFFFFFFFFFFFFFFF DUP3 GT PUSH3 0xE37 JUMPI PUSH3 0xD19 PUSH1 0x2 DUP6 ADD SLOAD PUSH3 0x14BE JUMP JUMPDEST PUSH1 0x1F DUP2 GT PUSH3 0xED3 JUMPI JUMPDEST POP PUSH1 0x20 SWAP1 PUSH1 0x1F DUP4 GT PUSH1 0x1 EQ PUSH3 0xE59 JUMPI SWAP2 DUP1 PUSH1 0x6 SWAP5 SWAP3 PUSH1 0xC0 SWAP5 PUSH1 0x0 SWAP3 PUSH3 0xE4D JUMPI JUMPDEST POP POP DUP2 PUSH1 0x1 SHL SWAP2 PUSH1 0x0 NOT SWAP1 PUSH1 0x3 SHL SHR NOT AND OR PUSH1 0x2 DUP6 ADD SSTORE JUMPDEST PUSH1 0x60 DUP2 ADD MLOAD PUSH1 0x3 DUP6 ADD SSTORE PUSH1 0x80 DUP2 ADD MLOAD PUSH1 0x4 DUP6 ADD SSTORE PUSH3 0xD91 PUSH1 0xA0 DUP3 ADD MLOAD ISZERO ISZERO PUSH1 0x5 DUP7 ADD SWAP1 PUSH1 0xFF DUP1 NOT DUP4 SLOAD AND SWAP2 ISZERO ISZERO AND OR SWAP1 SSTORE JUMP JUMPDEST ADD MLOAD SWAP2 ADD SSTORE CALLER PUSH1 0x0 MSTORE PUSH1 0x4 PUSH1 0x20 MSTORE PUSH1 0x40 PUSH1 0x0 KECCAK256 PUSH1 0x1 PUSH1 0xFF NOT DUP3 SLOAD AND OR SWAP1 SSTORE PUSH1 0x5 SLOAD PUSH1 0x1 PUSH1 0x40 SHL DUP2 LT ISZERO PUSH3 0xE37 JUMPI PUSH3 0xDD5 DUP2 PUSH1 0x1 PUSH3 0xDF6 SWAP4 ADD PUSH1 0x5 SSTORE PUSH3 0x135E JUMP JUMPDEST DUP2 SLOAD SWAP2 SWAP3 PUSH1 0x1 PUSH1 0x1 PUSH1 0xA0 SHL SUB PUSH1 0x3 SWAP3 SWAP1 SWAP3 SHL SWAP2 DUP3 SHL NOT SWAP1 SWAP3 AND CALLER SWAP1 SWAP2 SHL OR SWAP1 JUMP JUMPDEST SWAP1 SSTORE PUSH32 0x783E607E94EFCB9ADCE3489C806008DDC378D784AE22A1F801458720054325A2 PUSH1 0x40 MLOAD PUSH1 0x20 DUP2 MSTORE DUP1 PUSH3 0xE32 CALLER SWAP5 PUSH1 0x20 DUP4 ADD SWAP1 PUSH3 0x15AD JUMP JUMPDEST SUB SWAP1 LOG2 STOP JUMPDEST PUSH4 0x4E487B71 PUSH1 0xE0 SHL PUSH1 0x0 MSTORE PUSH1 0x41 PUSH1 0x4 MSTORE PUSH1 0x24 PUSH1 0x0 REVERT JUMPDEST ADD MLOAD SWAP1 POP DUP8 DUP1 PUSH3 0xD45 JUMP JUMPDEST SWAP1 PUSH1 0x2 DUP6 ADD PUSH1 0x0 MSTORE PUSH1 0x20 PUSH1 0x0 KECCAK256 SWAP2 PUSH1 0x0 JUMPDEST PUSH1 0x1F NOT DUP6 AND DUP2 LT PUSH3 0xEBA JUMPI POP SWAP3 PUSH1 0x6 SWAP5 SWAP3 PUSH1 0x1 SWAP3 PUSH1 0xC0 SWAP6 DUP4 PUSH1 0x1F NOT DUP2 AND LT PUSH3 0xEA0 JUMPI JUMPDEST POP POP POP DUP2 SHL ADD PUSH1 0x2 DUP6 ADD SSTORE PUSH3 0xD5D JUMP JUMPDEST ADD MLOAD PUSH1 0x0 NOT PUSH1 0xF8 DUP5 PUSH1 0x3 SHL AND SHR NOT AND SWAP1 SSTORE DUP8 DUP1 DUP1 PUSH3 0xE8F JUMP JUMPDEST SWAP2 SWAP3 PUSH1 0x20 PUSH1 0x1 DUP2 SWAP3 DUP7 DUP6 ADD MLOAD DUP2 SSTORE ADD SWAP5 ADD SWAP3 ADD PUSH3 0xE6A JUMP JUMPDEST PUSH1 0x2 DUP6 ADD PUSH1 0x0 MSTORE PUSH1 0x20 PUSH1 0x0 KECCAK256 PUSH1 0x1F DUP5 ADD PUSH1 0x5 SHR DUP2 ADD PUSH1 0x20 DUP6 LT PUSH3 0xF17 JUMPI JUMPDEST PUSH1 0x1F DUP4 ADD PUSH1 0x5 SHR DUP3 ADD DUP2 LT PUSH3 0xF0A JUMPI POP POP PUSH3 0xD23 JUMP JUMPDEST PUSH1 0x0 DUP2 SSTORE PUSH1 0x1 ADD PUSH3 0xEF2 JUMP JUMPDEST POP DUP1 PUSH3 0xEF2 JUMP JUMPDEST ADD MLOAD SWAP1 POP DUP6 DUP1 PUSH3 0xCDA JUMP JUMPDEST PUSH1 0x1 DUP5 ADD PUSH1 0x0 MSTORE PUSH1 0x20 PUSH1 0x0 KECCAK256 SWAP1 PUSH1 0x0 JUMPDEST PUSH1 0x1F NOT DUP5 AND DUP2 LT PUSH3 0xF86 JUMPI POP PUSH1 0x1 SWAP4 SWAP5 SWAP6 SWAP7 DUP4 PUSH1 0x1F NOT DUP2 AND LT PUSH3 0xF6C JUMPI JUMPDEST POP POP POP DUP2 SHL ADD PUSH1 0x1 DUP4 ADD SSTORE PUSH3 0xCF2 JUMP JUMPDEST ADD MLOAD PUSH1 0x0 NOT PUSH1 0xF8 DUP5 PUSH1 0x3 SHL AND SHR NOT AND SWAP1 SSTORE DUP6 DUP1 DUP1 PUSH3 0xF5B JUMP JUMPDEST SWAP1 SWAP2 PUSH1 0x20 PUSH1 0x1 DUP2 SWAP3 DUP6 DUP12 ADD MLOAD DUP2 SSTORE ADD SWAP4 ADD SWAP2 ADD PUSH3 0xF3B JUMP JUMPDEST PUSH1 0x1 DUP5 ADD PUSH1 0x0 MSTORE PUSH1 0x20 PUSH1 0x0 KECCAK256 PUSH1 0x1F DUP4 ADD PUSH1 0x5 SHR DUP2 ADD PUSH1 0x20 DUP5 LT PUSH3 0xFE3 JUMPI JUMPDEST PUSH1 0x1F DUP4 ADD PUSH1 0x5 SHR DUP3 ADD DUP2 LT PUSH3 0xFD6 JUMPI POP POP PUSH3 0xCBD JUMP JUMPDEST PUSH1 0x0 DUP2 SSTORE PUSH1 0x1 ADD PUSH3 0xFBE JUMP JUMPDEST POP DUP1 PUSH3 0xFBE JUMP JUMPDEST PUSH1 0x40 MLOAD PUSH3 0x461BCD PUSH1 0xE5 SHL DUP2 MSTORE PUSH1 0x20 PUSH1 0x4 DUP3 ADD MSTORE PUSH1 0x15 PUSH1 0x24 DUP3 ADD MSTORE PUSH21 0x456D61696C2063616E6E6F7420626520656D707479 PUSH1 0x58 SHL PUSH1 0x44 DUP3 ADD MSTORE PUSH1 0x64 SWAP1 REVERT JUMPDEST PUSH1 0x40 MLOAD PUSH3 0x461BCD PUSH1 0xE5 SHL DUP2 MSTORE PUSH1 0x20 PUSH1 0x4 DUP3 ADD MSTORE PUSH1 0x14 PUSH1 0x24 DUP3 ADD MSTORE PUSH20 0x4E616D652063616E6E6F7420626520656D707479 PUSH1 0x60 SHL PUSH1 0x44 DUP3 ADD MSTORE PUSH1 0x64 SWAP1 REVERT JUMPDEST PUSH1 0x40 MLOAD PUSH3 0x461BCD PUSH1 0xE5 SHL DUP2 MSTORE PUSH1 0x20 PUSH1 0x4 DUP3 ADD MSTORE PUSH1 0x1F PUSH1 0x24 DUP3 ADD MSTORE PUSH32 0x4F7267616E697A6174696F6E20616C7265616479207265676973746572656400 PUSH1 0x44 DUP3 ADD MSTORE PUSH1 0x64 SWAP1 REVERT JUMPDEST CALLVALUE PUSH3 0x22D JUMPI PUSH1 0x0 CALLDATASIZE PUSH1 0x3 NOT ADD SLT PUSH3 0x22D JUMPI PUSH1 0x40 MLOAD DUP1 PUSH1 0x6 SLOAD SWAP2 DUP3 DUP2 MSTORE PUSH1 0x20 DUP1 SWAP2 ADD SWAP3 PUSH1 0x6 PUSH1 0x0 MSTORE PUSH32 0xF652222313E28459528D920B65115C16C04F3EFC82AAEDC97BE59F3F377C0D3F SWAP2 PUSH1 0x0 SWAP1 JUMPDEST DUP3 DUP3 LT PUSH3 0x1113 JUMPI PUSH3 0xA6B DUP6 PUSH3 0xA5E DUP2 DUP10 SUB DUP3 PUSH3 0x143F JUMP JUMPDEST DUP4 SLOAD PUSH1 0x1 PUSH1 0x1 PUSH1 0xA0 SHL SUB AND DUP7 MSTORE SWAP5 DUP6 ADD SWAP5 PUSH1 0x1 SWAP4 DUP5 ADD SWAP4 SWAP1 SWAP2 ADD SWAP1 PUSH3 0x10F8 JUMP JUMPDEST CALLVALUE PUSH3 0x22D JUMPI PUSH1 0x20 CALLDATASIZE PUSH1 0x3 NOT ADD SLT PUSH3 0x22D JUMPI PUSH3 0x1151 PUSH3 0x13C5 JUMP JUMPDEST PUSH1 0x0 SLOAD PUSH1 0x1 PUSH1 0x1 PUSH1 0xA0 SHL SUB SWAP1 DUP2 AND SWAP2 PUSH3 0x116D CALLER DUP5 EQ PUSH3 0x15EF JUMP JUMPDEST AND SWAP1 PUSH3 0x117C DUP3 ISZERO ISZERO PUSH3 0x1646 JUMP JUMPDEST DUP2 PUSH1 0x0 MSTORE PUSH1 0x1 PUSH1 0x20 MSTORE PUSH1 0xFF PUSH1 0x40 PUSH1 0x0 KECCAK256 SLOAD AND ISZERO PUSH3 0x1213 JUMPI DUP2 EQ PUSH3 0x11D8 JUMPI DUP1 PUSH1 0x0 MSTORE PUSH1 0x1 PUSH1 0x20 MSTORE PUSH1 0x40 PUSH1 0x0 KECCAK256 PUSH1 0xFF NOT DUP2 SLOAD AND SWAP1 SSTORE PUSH32 0xA3B62BC36326052D97EA62D63C3D60308ED4C3EA8AC079DD8499F1E9C4F80C0F PUSH1 0x0 DUP1 LOG2 STOP JUMPDEST PUSH1 0x40 MLOAD PUSH3 0x461BCD PUSH1 0xE5 SHL DUP2 MSTORE PUSH1 0x20 PUSH1 0x4 DUP3 ADD MSTORE PUSH1 0x13 PUSH1 0x24 DUP3 ADD MSTORE PUSH19 0x21B0B73737BA103932B6B7BB329037BBB732B9 PUSH1 0x69 SHL PUSH1 0x44 DUP3 ADD MSTORE PUSH1 0x64 SWAP1 REVERT JUMPDEST PUSH1 0x40 MLOAD PUSH3 0x461BCD PUSH1 0xE5 SHL DUP2 MSTORE PUSH1 0x20 PUSH1 0x4 DUP3 ADD MSTORE PUSH1 0xC PUSH1 0x24 DUP3 ADD MSTORE PUSH12 0x2737BA1030B71030B236B4B7 PUSH1 0xA1 SHL PUSH1 0x44 DUP3 ADD MSTORE PUSH1 0x64 SWAP1 REVERT JUMPDEST CALLVALUE PUSH3 0x22D JUMPI PUSH1 0x0 CALLDATASIZE PUSH1 0x3 NOT ADD SLT PUSH3 0x22D JUMPI PUSH1 0x40 MLOAD DUP1 PUSH1 0x5 SLOAD DUP1 DUP4 MSTORE PUSH1 0x20 DUP1 SWAP4 ADD DUP1 SWAP2 PUSH1 0x5 PUSH1 0x0 MSTORE PUSH32 0x36B6384B5ECA791C62761152D0C79BB0604C104A5FB6F4EB0703F3154BB3DB0 SWAP1 PUSH1 0x0 JUMPDEST DUP7 DUP3 DUP3 LT PUSH3 0x12F9 JUMPI DUP7 DUP7 PUSH3 0x12AE DUP3 DUP9 SUB DUP4 PUSH3 0x143F JUMP JUMPDEST PUSH1 0x40 MLOAD SWAP3 DUP4 SWAP3 DUP2 DUP5 ADD SWAP1 DUP3 DUP6 MSTORE MLOAD DUP1 SWAP2 MSTORE PUSH1 0x40 DUP5 ADD SWAP3 SWAP2 PUSH1 0x0 JUMPDEST DUP3 DUP2 LT PUSH3 0x12D8 JUMPI POP POP POP POP SUB SWAP1 RETURN JUMPDEST DUP4 MLOAD PUSH1 0x1 PUSH1 0x1 PUSH1 0xA0 SHL SUB AND DUP6 MSTORE DUP7 SWAP6 POP SWAP4 DUP2 ADD SWAP4 SWAP3 DUP2 ADD SWAP3 PUSH1 0x1 ADD PUSH3 0x12C8 JUMP JUMPDEST DUP4 SLOAD PUSH1 0x1 PUSH1 0x1 PUSH1 0xA0 SHL SUB AND DUP6 MSTORE SWAP1 SWAP4 ADD SWAP3 PUSH1 0x1 SWAP3 DUP4 ADD SWAP3 ADD PUSH3 0x1295 JUMP JUMPDEST CALLVALUE PUSH3 0x22D JUMPI PUSH1 0x20 CALLDATASIZE PUSH1 0x3 NOT ADD SLT PUSH3 0x22D JUMPI PUSH1 0x4 CALLDATALOAD PUSH1 0x5 SLOAD DUP2 LT ISZERO PUSH3 0x22D JUMPI PUSH3 0x1345 PUSH1 0x20 SWAP2 PUSH3 0x135E JUMP JUMPDEST SWAP1 SLOAD PUSH1 0x40 MLOAD PUSH1 0x3 SWAP3 SWAP1 SWAP3 SHL SHR PUSH1 0x1 PUSH1 0x1 PUSH1 0xA0 SHL SUB AND DUP2 MSTORE RETURN JUMPDEST PUSH1 0x5 SLOAD DUP2 LT ISZERO PUSH3 0x1396 JUMPI PUSH1 0x5 PUSH1 0x0 MSTORE PUSH32 0x36B6384B5ECA791C62761152D0C79BB0604C104A5FB6F4EB0703F3154BB3DB0 ADD SWAP1 PUSH1 0x0 SWAP1 JUMP JUMPDEST PUSH4 0x4E487B71 PUSH1 0xE0 SHL PUSH1 0x0 MSTORE PUSH1 0x32 PUSH1 0x4 MSTORE PUSH1 0x24 PUSH1 0x0 REVERT JUMPDEST DUP1 SLOAD DUP3 LT ISZERO PUSH3 0x1396 JUMPI PUSH1 0x0 MSTORE PUSH1 0x20 PUSH1 0x0 KECCAK256 ADD SWAP1 PUSH1 0x0 SWAP1 JUMP JUMPDEST PUSH1 0x4 CALLDATALOAD SWAP1 PUSH1 0x1 PUSH1 0x1 PUSH1 0xA0 SHL SUB DUP3 AND DUP3 SUB PUSH3 0x22D JUMPI JUMP JUMPDEST PUSH1 0x20 SWAP1 DUP2 PUSH1 0x40 DUP2 DUP4 ADD SWAP3 DUP3 DUP2 MSTORE DUP6 MLOAD DUP1 SWAP5 MSTORE ADD SWAP4 ADD SWAP2 PUSH1 0x0 JUMPDEST DUP3 DUP2 LT PUSH3 0x1404 JUMPI POP POP POP POP SWAP1 JUMP JUMPDEST DUP4 MLOAD PUSH1 0x1 PUSH1 0x1 PUSH1 0xA0 SHL SUB AND DUP6 MSTORE SWAP4 DUP2 ADD SWAP4 SWAP3 DUP2 ADD SWAP3 PUSH1 0x1 ADD PUSH3 0x13F5 JUMP JUMPDEST PUSH1 0xE0 DUP2 ADD SWAP1 DUP2 LT PUSH8 0xFFFFFFFFFFFFFFFF DUP3 GT OR PUSH3 0xE37 JUMPI PUSH1 0x40 MSTORE JUMP JUMPDEST SWAP1 PUSH1 0x1F DUP1 NOT SWAP2 ADD AND DUP2 ADD SWAP1 DUP2 LT PUSH8 0xFFFFFFFFFFFFFFFF DUP3 GT OR PUSH3 0xE37 JUMPI PUSH1 0x40 MSTORE JUMP JUMPDEST DUP2 PUSH1 0x1F DUP3 ADD SLT ISZERO PUSH3 0x22D JUMPI DUP1 CALLDATALOAD SWAP1 PUSH8 0xFFFFFFFFFFFFFFFF DUP3 GT PUSH3 0xE37 JUMPI PUSH1 0x40 MLOAD SWAP3 PUSH3 0x149B PUSH1 0x1F DUP5 ADD PUSH1 0x1F NOT AND PUSH1 0x20 ADD DUP6 PUSH3 0x143F JUMP JUMPDEST DUP3 DUP5 MSTORE PUSH1 0x20 DUP4 DUP4 ADD ADD GT PUSH3 0x22D JUMPI DUP2 PUSH1 0x0 SWAP3 PUSH1 0x20 DUP1 SWAP4 ADD DUP4 DUP7 ADD CALLDATACOPY DUP4 ADD ADD MSTORE SWAP1 JUMP JUMPDEST SWAP1 PUSH1 0x1 DUP3 DUP2 SHR SWAP3 AND DUP1 ISZERO PUSH3 0x14F0 JUMPI JUMPDEST PUSH1 0x20 DUP4 LT EQ PUSH3 0x14DA JUMPI JUMP JUMPDEST PUSH4 0x4E487B71 PUSH1 0xE0 SHL PUSH1 0x0 MSTORE PUSH1 0x22 PUSH1 0x4 MSTORE PUSH1 0x24 PUSH1 0x0 REVERT JUMPDEST SWAP2 PUSH1 0x7F AND SWAP2 PUSH3 0x14CE JUMP JUMPDEST SWAP1 PUSH1 0x40 MLOAD SWAP2 DUP3 PUSH1 0x0 DUP3 SLOAD SWAP3 PUSH3 0x1511 DUP5 PUSH3 0x14BE JUMP JUMPDEST SWAP1 DUP2 DUP5 MSTORE PUSH1 0x1 SWAP5 DUP6 DUP2 AND SWAP1 DUP2 PUSH1 0x0 EQ PUSH3 0x1588 JUMPI POP PUSH1 0x1 EQ PUSH3 0x1541 JUMPI JUMPDEST POP POP PUSH3 0x153F SWAP3 POP SUB DUP4 PUSH3 0x143F JUMP JUMPDEST JUMP JUMPDEST SWAP1 SWAP4 SWAP2 POP PUSH1 0x0 MSTORE PUSH1 0x20 SWAP1 DUP2 PUSH1 0x0 KECCAK256 SWAP4 PUSH1 0x0 SWAP2 JUMPDEST DUP2 DUP4 LT PUSH3 0x156F JUMPI POP POP PUSH3 0x153F SWAP4 POP DUP3 ADD ADD CODESIZE DUP1 PUSH3 0x152F JUMP JUMPDEST DUP6 SLOAD DUP9 DUP5 ADD DUP6 ADD MSTORE SWAP5 DUP6 ADD SWAP5 DUP8 SWAP5 POP SWAP2 DUP4 ADD SWAP2 PUSH3 0x1554 JUMP JUMPDEST SWAP2 POP POP PUSH3 0x153F SWAP5 POP PUSH1 0x20 SWAP3 POP PUSH1 0xFF NOT AND DUP3 DUP5 ADD MSTORE ISZERO ISZERO PUSH1 0x5 SHL DUP3 ADD ADD CODESIZE DUP1 PUSH3 0x152F JUMP JUMPDEST SWAP2 SWAP1 DUP3 MLOAD SWAP3 DUP4 DUP3 MSTORE PUSH1 0x0 JUMPDEST DUP5 DUP2 LT PUSH3 0x15DA JUMPI POP POP DUP3 PUSH1 0x0 PUSH1 0x20 DUP1 SWAP5 SWAP6 DUP5 ADD ADD MSTORE PUSH1 0x1F DUP1 NOT SWAP2 ADD AND ADD ADD SWAP1 JUMP JUMPDEST PUSH1 0x20 DUP2 DUP4 ADD DUP2 ADD MLOAD DUP5 DUP4 ADD DUP3 ADD MSTORE ADD PUSH3 0x15B8 JUMP JUMPDEST ISZERO PUSH3 0x15F7 JUMPI JUMP JUMPDEST PUSH1 0x40 MLOAD PUSH3 0x461BCD PUSH1 0xE5 SHL DUP2 MSTORE PUSH1 0x20 PUSH1 0x4 DUP3 ADD MSTORE PUSH1 0x21 PUSH1 0x24 DUP3 ADD MSTORE PUSH32 0x4F6E6C79206F776E65722063616E2063616C6C20746869732066756E6374696F PUSH1 0x44 DUP3 ADD MSTORE PUSH1 0x37 PUSH1 0xF9 SHL PUSH1 0x64 DUP3 ADD MSTORE PUSH1 0x84 SWAP1 REVERT JUMPDEST ISZERO PUSH3 0x164E JUMPI JUMP JUMPDEST PUSH1 0x40 MLOAD PUSH3 0x461BCD PUSH1 0xE5 SHL DUP2 MSTORE PUSH1 0x20 PUSH1 0x4 DUP3 ADD MSTORE PUSH1 0x15 PUSH1 0x24 DUP3 ADD MSTORE PUSH21 0x496E76616C69642061646D696E2061646472657373 PUSH1 0x58 SHL PUSH1 0x44 DUP3 ADD MSTORE PUSH1 0x64 SWAP1 REVERT INVALID PUSH1 0x80 PUSH1 0x1F PUSH3 0x195D CODESIZE DUP2 SWAP1 SUB SWAP2 DUP3 ADD PUSH1 0x1F NOT AND DUP4 ADD SWAP2 PUSH1 0x1 PUSH1 0x1 PUSH1 0x40 SHL SUB DUP4 GT DUP5 DUP5 LT OR PUSH2 0x12B JUMPI DUP1 DUP5 SWAP3 PUSH1 0xC0 SWAP5 PUSH1 0x40 MSTORE DUP4 CODECOPY DUP2 ADD SUB SLT PUSH2 0x126 JUMPI PUSH2 0x43 DUP2 PUSH2 0x141 JUMP JUMPDEST SWAP1 PUSH2 0x50 PUSH1 0x20 DUP3 ADD PUSH2 0x141 JUMP JUMPDEST SWAP2 PUSH1 0x40 DUP3 ADD MLOAD SWAP2 PUSH1 0x60 DUP2 ADD MLOAD PUSH1 0x80 DUP3 ADD MLOAD SWAP2 DUP3 ISZERO ISZERO DUP1 SWAP4 SUB PUSH2 0x126 JUMPI PUSH1 0xA0 ADD MLOAD SWAP4 CALLVALUE ISZERO PUSH2 0xE1 JUMPI PUSH3 0x10000 SWAP6 PUSH1 0xFF SWAP5 PUSH1 0x1 DUP1 PUSH1 0xA0 SHL SUB NOT SWAP2 CALLER DUP4 PUSH1 0x0 SLOAD AND OR PUSH1 0x0 SSTORE PUSH1 0x1 DUP1 PUSH1 0xA0 SHL SUB DUP1 SWAP3 AND DUP4 PUSH1 0x1 SLOAD AND OR PUSH1 0x1 SSTORE AND SWAP1 PUSH1 0x2 SLOAD AND OR PUSH1 0x2 SSTORE PUSH1 0x3 SSTORE PUSH1 0x4 SSTORE PUSH1 0x7 SLOAD SWAP3 PUSH1 0x5 SSTORE CALLVALUE PUSH1 0x6 SSTORE AND SWAP1 PUSH3 0xFF00FF NOT AND OR OR PUSH1 0x7 SSTORE TIMESTAMP PUSH1 0x8 SSTORE PUSH1 0x40 MLOAD PUSH2 0x1807 SWAP1 DUP2 PUSH3 0x156 DUP3 CODECOPY RETURN JUMPDEST PUSH1 0x40 MLOAD PUSH3 0x461BCD PUSH1 0xE5 SHL DUP2 MSTORE PUSH1 0x20 PUSH1 0x4 DUP3 ADD MSTORE PUSH1 0x1A PUSH1 0x24 DUP3 ADD MSTORE PUSH32 0x4D757374206C6F636B2066756E647320666F722073616C617279000000000000 PUSH1 0x44 DUP3 ADD MSTORE PUSH1 0x64 SWAP1 REVERT JUMPDEST PUSH1 0x0 DUP1 REVERT JUMPDEST PUSH4 0x4E487B71 PUSH1 0xE0 SHL PUSH1 0x0 MSTORE PUSH1 0x41 PUSH1 0x4 MSTORE PUSH1 0x24 PUSH1 0x0 REVERT JUMPDEST MLOAD SWAP1 PUSH1 0x1 PUSH1 0x1 PUSH1 0xA0 SHL SUB DUP3 AND DUP3 SUB PUSH2 0x126 JUMPI JUMP INVALID PUSH1 0x80 PUSH1 0x40 DUP2 DUP2 MSTORE PUSH1 0x4 SWAP2 DUP3 CALLDATASIZE LT ISZERO PUSH2 0x16 JUMPI PUSH1 0x0 DUP1 REVERT JUMPDEST PUSH1 0x0 SWAP3 DUP4 CALLDATALOAD PUSH1 0xE0 SHR SWAP2 DUP3 PUSH4 0xB97BC86 EQ PUSH2 0x14B8 JUMPI POP DUP2 PUSH4 0x1BE37F84 EQ PUSH2 0x1499 JUMPI DUP2 PUSH4 0x1C11863A EQ PUSH2 0x147A JUMPI DUP2 PUSH4 0x22F3E2D4 EQ PUSH2 0x1453 JUMPI DUP2 PUSH4 0x23077DA2 EQ PUSH2 0x138B JUMPI DUP2 PUSH4 0x2FD949CA EQ PUSH2 0x11B7 JUMPI DUP2 PUSH4 0x3E6968B6 EQ PUSH2 0x118A JUMPI DUP2 PUSH4 0x3FB856CD EQ PUSH2 0x1166 JUMPI DUP2 PUSH4 0x43547F54 EQ PUSH2 0x1149 JUMPI DUP2 PUSH4 0x43D00D04 EQ PUSH2 0x1050 JUMPI DUP2 PUSH4 0x4B319713 EQ PUSH2 0x1031 JUMPI DUP2 PUSH4 0x56470417 EQ PUSH2 0x49D JUMPI DUP2 PUSH4 0x62D4744C EQ PUSH2 0xE2A JUMPI DUP2 PUSH4 0x6A246E70 EQ PUSH2 0xE0B JUMPI DUP2 PUSH4 0x7CC1F867 EQ PUSH2 0xD8C JUMPI DUP2 PUSH4 0x809DAB6A EQ PUSH2 0xD49 JUMPI DUP2 PUSH4 0x82E0209F EQ PUSH2 0xD22 JUMPI DUP2 PUSH4 0x9005B2C4 EQ PUSH2 0xB3C JUMPI DUP2 PUSH4 0x9425039C EQ PUSH2 0xADC JUMPI DUP2 PUSH4 0x9455CD3B EQ PUSH2 0x514 JUMPI DUP2 PUSH4 0x9F7521B4 EQ PUSH2 0x92F JUMPI DUP2 PUSH4 0xA0A1A7D7 EQ PUSH2 0x906 JUMPI DUP2 PUSH4 0xA158241E EQ PUSH2 0x8D9 JUMPI DUP2 PUSH4 0xA90795CF EQ PUSH2 0x588 JUMPI DUP2 PUSH4 0xAE200E79 EQ PUSH2 0x55F JUMPI DUP2 PUSH4 0xB561DD7D EQ PUSH2 0x541 JUMPI DUP2 PUSH4 0xC16B8728 EQ PUSH2 0x514 JUMPI DUP2 PUSH4 0xC45A0155 EQ PUSH2 0x4EC JUMPI DUP2 PUSH4 0xD1CC9976 EQ PUSH2 0x4C5 JUMPI DUP2 PUSH4 0xD537F31D EQ PUSH2 0x49D JUMPI DUP2 PUSH4 0xDB2E21BC EQ PUSH2 0x3D2 JUMPI DUP2 PUSH4 0xDD1D941A EQ PUSH2 0x296 JUMPI POP DUP1 PUSH4 0xE01415F9 EQ PUSH2 0x1EA JUMPI DUP1 PUSH4 0xE9D5E0EF EQ PUSH2 0x1CC JUMPI PUSH4 0xFFA6399B EQ PUSH2 0x1A6 JUMPI PUSH1 0x0 DUP1 REVERT JUMPDEST CALLVALUE PUSH2 0x1C8 JUMPI DUP2 PUSH1 0x3 NOT CALLDATASIZE ADD SLT PUSH2 0x1C8 JUMPI PUSH1 0x20 SWAP1 PUSH1 0xFF PUSH1 0x11 SLOAD AND SWAP1 MLOAD SWAP1 ISZERO ISZERO DUP2 MSTORE RETURN JUMPDEST POP DUP1 REVERT JUMPDEST POP CALLVALUE PUSH2 0x1C8 JUMPI DUP2 PUSH1 0x3 NOT CALLDATASIZE ADD SLT PUSH2 0x1C8 JUMPI PUSH1 0x20 SWAP1 PUSH1 0x3 SLOAD SWAP1 MLOAD SWAP1 DUP2 MSTORE RETURN JUMPDEST DUP3 CALLVALUE PUSH2 0x293 JUMPI DUP1 PUSH1 0x3 NOT CALLDATASIZE ADD SLT PUSH2 0x293 JUMPI PUSH2 0x210 PUSH1 0x1 DUP1 PUSH1 0xA0 SHL SUB PUSH1 0x2 SLOAD AND CALLER EQ PUSH2 0x1544 JUMP JUMPDEST PUSH2 0x22A PUSH1 0x7 SLOAD PUSH1 0xFF DUP2 PUSH1 0x10 SHR AND SWAP1 DUP2 PUSH2 0x284 JUMPI JUMPDEST POP PUSH2 0x15F4 JUMP JUMPDEST PUSH1 0x11 SLOAD PUSH2 0x239 PUSH1 0xFF DUP3 AND PUSH2 0x16EB JUMP JUMPDEST PUSH2 0x24A PUSH1 0xFF PUSH1 0xF SLOAD PUSH1 0xB0 SHR AND PUSH2 0x1737 JUMP JUMPDEST DUP2 PUSH1 0xE SSTORE DUP2 PUSH1 0xF SSTORE DUP2 PUSH1 0x10 SSTORE PUSH1 0xFF NOT AND PUSH1 0x11 SSTORE PUSH32 0x118DBA3F66E4C91DA334C33BAC200FF628ABBF23C8D2D8212A799D6B94208926 DUP2 DUP1 LOG1 DUP1 RETURN JUMPDEST PUSH1 0xFF SWAP2 POP PUSH1 0x18 SHR AND ISZERO DUP4 PUSH2 0x224 JUMP JUMPDEST DUP1 REVERT JUMPDEST DUP4 SWAP2 POP CALLVALUE PUSH2 0x1C8 JUMPI DUP2 PUSH1 0x3 NOT CALLDATASIZE ADD SLT PUSH2 0x1C8 JUMPI PUSH1 0x2 SLOAD SWAP1 PUSH1 0x1 PUSH1 0x1 PUSH1 0xA0 SHL SUB PUSH2 0x2C2 CALLER DUP3 DUP6 AND EQ PUSH2 0x1544 JUMP JUMPDEST PUSH2 0x2DB PUSH1 0x7 SLOAD PUSH1 0xFF DUP2 PUSH1 0x10 SHR AND SWAP1 DUP2 PUSH2 0x3C3 JUMPI POP PUSH2 0x15F4 JUMP JUMPDEST PUSH1 0x11 SLOAD SWAP1 PUSH2 0x2EB PUSH1 0xFF DUP4 AND PUSH2 0x16EB JUMP JUMPDEST PUSH1 0xF SLOAD SWAP3 PUSH2 0x2FE PUSH1 0xFF DUP6 PUSH1 0xB0 SHR AND PUSH2 0x1737 JUMP JUMPDEST PUSH1 0xFF DUP5 PUSH1 0xA8 SHR AND PUSH2 0x380 JUMPI POP PUSH1 0xE DUP1 SLOAD PUSH1 0x3 DUP2 SWAP1 SSTORE SWAP2 SWAP1 SWAP4 AND PUSH1 0x1 PUSH1 0x1 PUSH1 0xA0 SHL SUB NOT SWAP5 SWAP1 SWAP5 AND DUP5 OR PUSH1 0x2 SSTORE SWAP2 DUP5 SWAP1 SSTORE PUSH1 0xF DUP5 SWAP1 SSTORE PUSH1 0x10 DUP5 SWAP1 SSTORE PUSH1 0xFF NOT AND PUSH1 0x11 SSTORE SWAP3 MLOAD SWAP3 DUP4 MSTORE PUSH1 0x1 PUSH1 0x1 PUSH1 0xA0 SHL SUB AND PUSH1 0x20 DUP4 ADD MSTORE SWAP1 PUSH32 0x83F7D510B8DCA14C0080F463411A5CA5EA498F589BCDAEC84A017F794339868B SWAP1 DUP1 PUSH1 0x40 DUP2 ADD JUMPDEST SUB SWAP1 LOG1 DUP1 RETURN JUMPDEST PUSH1 0x64 SWAP1 PUSH1 0x20 DUP9 MLOAD SWAP2 PUSH3 0x461BCD PUSH1 0xE5 SHL DUP4 MSTORE DUP3 ADD MSTORE PUSH1 0x1A PUSH1 0x24 DUP3 ADD MSTORE PUSH32 0x416C7265616479207369676E656420627920656D706C6F796565000000000000 PUSH1 0x44 DUP3 ADD MSTORE REVERT JUMPDEST PUSH1 0xFF SWAP2 POP PUSH1 0x18 SHR AND ISZERO DUP8 PUSH2 0x224 JUMP JUMPDEST SWAP2 SWAP1 POP CALLVALUE PUSH2 0x499 JUMPI DUP3 PUSH1 0x3 NOT CALLDATASIZE ADD SLT PUSH2 0x499 JUMPI DUP3 SLOAD PUSH1 0x1 PUSH1 0x1 PUSH1 0xA0 SHL SUB AND CALLER DUP2 SWAP1 SUB PUSH2 0x456 JUMPI DUP4 DUP1 DUP1 DUP1 SWAP4 SELFBALANCE SWAP1 GAS CALL PUSH2 0x409 PUSH2 0x16BB JUMP JUMPDEST POP ISZERO PUSH2 0x413 JUMPI DUP3 DUP1 RETURN JUMPDEST SWAP1 PUSH1 0x20 PUSH1 0x64 SWAP3 MLOAD SWAP2 PUSH3 0x461BCD PUSH1 0xE5 SHL DUP4 MSTORE DUP3 ADD MSTORE PUSH1 0x1B PUSH1 0x24 DUP3 ADD MSTORE PUSH32 0x456D657267656E6379207769746864726177616C206661696C65640000000000 PUSH1 0x44 DUP3 ADD MSTORE REVERT JUMPDEST DUP2 MLOAD PUSH3 0x461BCD PUSH1 0xE5 SHL DUP2 MSTORE PUSH1 0x20 DUP2 DUP6 ADD MSTORE PUSH1 0x1A PUSH1 0x24 DUP3 ADD MSTORE PUSH32 0x4F6E6C7920666163746F72792063616E2063616C6C2074686973000000000000 PUSH1 0x44 DUP3 ADD MSTORE PUSH1 0x64 SWAP1 REVERT JUMPDEST DUP3 DUP1 REVERT JUMPDEST SWAP1 POP CALLVALUE PUSH2 0x499 JUMPI PUSH1 0x20 CALLDATASIZE PUSH1 0x3 NOT ADD SLT PUSH2 0x499 JUMPI PUSH1 0x20 SWAP3 DUP3 SWAP2 CALLDATALOAD DUP2 MSTORE PUSH1 0xC DUP5 MSTORE KECCAK256 SLOAD SWAP1 MLOAD SWAP1 DUP2 MSTORE RETURN JUMPDEST POP POP CALLVALUE PUSH2 0x1C8 JUMPI DUP2 PUSH1 0x3 NOT CALLDATASIZE ADD SLT PUSH2 0x1C8 JUMPI PUSH1 0x20 SWAP1 PUSH1 0xFF PUSH1 0x7 SLOAD PUSH1 0x18 SHR AND SWAP1 MLOAD SWAP1 ISZERO ISZERO DUP2 MSTORE RETURN JUMPDEST POP POP CALLVALUE PUSH2 0x1C8 JUMPI DUP2 PUSH1 0x3 NOT CALLDATASIZE ADD SLT PUSH2 0x1C8 JUMPI SWAP1 SLOAD SWAP1 MLOAD PUSH1 0x1 PUSH1 0x1 PUSH1 0xA0 SHL SUB SWAP1 SWAP2 AND DUP2 MSTORE PUSH1 0x20 SWAP1 RETURN JUMPDEST SWAP1 POP CALLVALUE PUSH2 0x499 JUMPI PUSH1 0x20 CALLDATASIZE PUSH1 0x3 NOT ADD SLT PUSH2 0x499 JUMPI DUP2 PUSH1 0x20 SWAP4 PUSH1 0xFF SWAP3 CALLDATALOAD DUP2 MSTORE PUSH1 0xB DUP6 MSTORE KECCAK256 SLOAD AND SWAP1 MLOAD SWAP1 ISZERO ISZERO DUP2 MSTORE RETURN JUMPDEST SWAP1 POP CALLVALUE PUSH2 0x499 JUMPI DUP3 PUSH1 0x3 NOT CALLDATASIZE ADD SLT PUSH2 0x499 JUMPI PUSH1 0x20 SWAP3 POP SLOAD SWAP1 MLOAD SWAP1 DUP2 MSTORE RETURN JUMPDEST POP POP CALLVALUE PUSH2 0x1C8 JUMPI DUP2 PUSH1 0x3 NOT CALLDATASIZE ADD SLT PUSH2 0x1C8 JUMPI PUSH1 0x1 SLOAD SWAP1 MLOAD PUSH1 0x1 PUSH1 0x1 PUSH1 0xA0 SHL SUB SWAP1 SWAP2 AND DUP2 MSTORE PUSH1 0x20 SWAP1 RETURN JUMPDEST DUP4 DUP4 CALLVALUE PUSH2 0x1C8 JUMPI DUP1 PUSH1 0x3 NOT CALLDATASIZE ADD SLT PUSH2 0x1C8 JUMPI PUSH1 0x24 SWAP1 DUP4 CALLDATALOAD DUP3 CALLDATALOAD PUSH8 0xFFFFFFFFFFFFFFFF DUP2 GT PUSH2 0x8D5 JUMPI CALLDATASIZE PUSH1 0x23 DUP3 ADD SLT ISZERO PUSH2 0x8D5 JUMPI DUP1 DUP7 ADD CALLDATALOAD SWAP1 PUSH2 0x5C9 DUP3 PUSH2 0x1528 JUMP JUMPDEST SWAP2 PUSH2 0x5D6 DUP6 MLOAD SWAP4 DUP5 PUSH2 0x1506 JUMP JUMPDEST DUP1 DUP4 MSTORE CALLDATASIZE DUP7 DUP3 DUP5 ADD ADD GT PUSH2 0x8D1 JUMPI DUP6 SWAP2 DUP2 DUP9 SWAP3 PUSH1 0x20 SWAP9 DUP10 SWAP4 ADD DUP4 DUP8 ADD CALLDATACOPY DUP5 ADD ADD MSTORE PUSH1 0x2 SLOAD PUSH1 0x1 PUSH1 0x1 PUSH1 0xA0 SHL SUB SWAP3 SWAP1 PUSH2 0x611 SWAP1 DUP5 AND CALLER EQ PUSH2 0x1544 JUMP JUMPDEST PUSH2 0x637 PUSH1 0xFF PUSH1 0x7 SLOAD DUP2 DUP2 PUSH1 0x10 SHR AND DUP1 PUSH2 0x8C3 JUMPI JUMPDEST PUSH2 0x62E SWAP1 PUSH2 0x15F4 JUMP JUMPDEST PUSH1 0x8 SHR AND PUSH2 0x1639 JUMP JUMPDEST PUSH3 0x15180 PUSH2 0x647 PUSH1 0x8 SLOAD TIMESTAMP PUSH2 0x1698 JUMP JUMPDEST DIV DUP5 GT PUSH2 0x872 JUMPI DUP4 DUP8 MSTORE PUSH1 0xB DUP7 MSTORE PUSH1 0xFF DUP6 DUP9 KECCAK256 SLOAD AND PUSH2 0x821 JUMPI DUP4 DUP8 MSTORE PUSH1 0xD DUP7 MSTORE PUSH1 0xFF DUP6 DUP9 KECCAK256 SLOAD AND PUSH2 0x7DF JUMPI DUP4 DUP8 MSTORE PUSH1 0xC DUP7 MSTORE DUP5 DUP8 KECCAK256 SLOAD ISZERO PUSH2 0x79D JUMPI DUP5 MLOAD SWAP1 DUP7 DUP3 DUP3 MLOAD SWAP3 DUP11 JUMPDEST DUP5 DUP2 LT PUSH2 0x786 JUMPI POP POP PUSH2 0x6AB SWAP3 DUP2 ADD DUP11 DUP4 DUP3 ADD MSTORE SUB DUP1 DUP5 MSTORE ADD DUP3 PUSH2 0x1506 JUMP JUMPDEST DUP6 DUP2 MLOAD SWAP2 ADD KECCAK256 DUP4 DUP8 MSTORE PUSH1 0xC DUP7 MSTORE DUP5 DUP8 KECCAK256 SLOAD SUB PUSH2 0x745 JUMPI DUP3 DUP7 MSTORE PUSH1 0xB DUP6 MSTORE DUP4 DUP7 KECCAK256 PUSH1 0xFF NOT SWAP1 PUSH1 0x1 DUP3 DUP3 SLOAD AND OR SWAP1 SSTORE PUSH1 0xD DUP7 MSTORE PUSH1 0x1 DUP6 DUP9 KECCAK256 SWAP2 DUP3 SLOAD AND OR SWAP1 SSTORE PUSH1 0x9 SLOAD SWAP7 PUSH1 0x0 NOT DUP9 EQ PUSH2 0x734 JUMPI POP POP PUSH1 0x1 PUSH32 0xC51DA1EEEA2CFDB8D4F06DB34D4BD7BF6A82F2E15CF055E2EEF27446BC5C3B89 SWAP5 SWAP6 SWAP7 ADD PUSH1 0x9 SSTORE PUSH1 0x2 SLOAD AND SWAP4 DUP3 MLOAD SWAP2 DUP3 MSTORE TIMESTAMP SWAP1 DUP3 ADD MSTORE LOG2 DUP1 RETURN JUMPDEST PUSH4 0x4E487B71 PUSH1 0xE0 SHL DUP8 MSTORE PUSH1 0x11 SWAP1 MSTORE DUP6 REVERT JUMPDEST DUP7 PUSH1 0x17 PUSH1 0x64 SWAP3 DUP8 DUP8 MLOAD SWAP4 PUSH3 0x461BCD PUSH1 0xE5 SHL DUP6 MSTORE DUP5 ADD MSTORE DUP3 ADD MSTORE PUSH32 0x496E76616C696420617474656E64616E636520636F6465000000000000000000 PUSH1 0x44 DUP3 ADD MSTORE REVERT JUMPDEST DUP2 DUP2 ADD DUP5 ADD MLOAD DUP7 DUP3 ADD DUP6 ADD MSTORE DUP11 SWAP4 DUP7 SWAP4 POP ADD PUSH2 0x68C JUMP JUMPDEST DUP5 MLOAD PUSH3 0x461BCD PUSH1 0xE5 SHL DUP2 MSTORE DUP1 DUP10 ADD DUP8 SWAP1 MSTORE PUSH1 0x1E DUP2 DUP5 ADD MSTORE PUSH32 0x4E6F20636F64652067656E65726174656420666F722074686973206461790000 PUSH1 0x44 DUP3 ADD MSTORE PUSH1 0x64 SWAP1 REVERT JUMPDEST DUP5 MLOAD PUSH3 0x461BCD PUSH1 0xE5 SHL DUP2 MSTORE DUP1 DUP10 ADD DUP8 SWAP1 MSTORE PUSH1 0x1E DUP2 DUP5 ADD MSTORE PUSH32 0x436F646520616C7265616479207573656420666F722074686973206461790000 PUSH1 0x44 DUP3 ADD MSTORE PUSH1 0x64 SWAP1 REVERT JUMPDEST DUP5 MLOAD PUSH3 0x461BCD PUSH1 0xE5 SHL DUP2 MSTORE DUP1 DUP10 ADD DUP8 SWAP1 MSTORE PUSH1 0x26 DUP2 DUP5 ADD MSTORE PUSH32 0x417474656E64616E636520616C7265616479206D61726B656420666F72207468 PUSH1 0x44 DUP3 ADD MSTORE PUSH6 0x697320646179 PUSH1 0xD0 SHL PUSH1 0x64 DUP3 ADD MSTORE PUSH1 0x84 SWAP1 REVERT JUMPDEST DUP5 MLOAD PUSH3 0x461BCD PUSH1 0xE5 SHL DUP2 MSTORE DUP1 DUP10 ADD DUP8 SWAP1 MSTORE PUSH1 0x26 DUP2 DUP5 ADD MSTORE PUSH32 0x43616E6E6F74206D61726B20617474656E64616E636520666F72206675747572 PUSH1 0x44 DUP3 ADD MSTORE PUSH6 0x652064617973 PUSH1 0xD0 SHL PUSH1 0x64 DUP3 ADD MSTORE PUSH1 0x84 SWAP1 REVERT JUMPDEST POP PUSH1 0x18 DUP2 SWAP1 SHR DUP3 AND ISZERO PUSH2 0x625 JUMP JUMPDEST DUP7 DUP1 REVERT JUMPDEST DUP5 DUP1 REVERT JUMPDEST SWAP1 POP CALLVALUE PUSH2 0x499 JUMPI PUSH1 0x20 CALLDATASIZE PUSH1 0x3 NOT ADD SLT PUSH2 0x499 JUMPI DUP2 PUSH1 0x20 SWAP4 PUSH1 0xFF SWAP3 CALLDATALOAD DUP2 MSTORE PUSH1 0xD DUP6 MSTORE KECCAK256 SLOAD AND SWAP1 MLOAD SWAP1 ISZERO ISZERO DUP2 MSTORE RETURN JUMPDEST POP POP CALLVALUE PUSH2 0x1C8 JUMPI DUP2 PUSH1 0x3 NOT CALLDATASIZE ADD SLT PUSH2 0x1C8 JUMPI PUSH1 0x2 SLOAD SWAP1 MLOAD PUSH1 0x1 PUSH1 0x1 PUSH1 0xA0 SHL SUB SWAP1 SWAP2 AND DUP2 MSTORE PUSH1 0x20 SWAP1 RETURN JUMPDEST DUP4 DUP4 CALLVALUE PUSH2 0x1C8 JUMPI PUSH1 0x20 DUP1 PUSH1 0x3 NOT CALLDATASIZE ADD SLT PUSH2 0x499 JUMPI PUSH1 0x1 SLOAD SWAP1 DUP5 CALLDATALOAD PUSH2 0x95D CALLER PUSH1 0x1 PUSH1 0x1 PUSH1 0xA0 SHL SUB DUP6 AND EQ PUSH2 0x159C JUMP JUMPDEST PUSH2 0x979 PUSH1 0xFF PUSH1 0x7 SLOAD DUP2 DUP2 PUSH1 0x10 SHR AND DUP1 PUSH2 0x8C3 JUMPI PUSH2 0x62E SWAP1 PUSH2 0x15F4 JUMP JUMPDEST PUSH3 0x15180 PUSH2 0x989 PUSH1 0x8 SLOAD TIMESTAMP PUSH2 0x1698 JUMP JUMPDEST DIV DUP2 LT PUSH2 0xA8E JUMPI DUP1 DUP6 MSTORE PUSH1 0xC DUP3 MSTORE DUP4 DUP6 KECCAK256 SLOAD PUSH2 0xA3F JUMPI DUP4 MLOAD SWAP1 DUP3 DUP3 ADD SWAP4 TIMESTAMP DUP6 MSTORE PREVRANDAO DUP7 DUP5 ADD MSTORE DUP2 PUSH1 0x60 DUP5 ADD MSTORE PUSH12 0xFFFFFFFFFFFFFFFFFFFFFFFF NOT SWAP1 PUSH1 0x60 SHL AND PUSH1 0x80 DUP4 ADD MSTORE PUSH1 0x74 DUP3 MSTORE PUSH1 0xA0 DUP3 ADD SWAP4 DUP3 DUP6 LT PUSH8 0xFFFFFFFFFFFFFFFF DUP7 GT OR PUSH2 0xA2C JUMPI PUSH32 0x3552D68173FFBD518F5549CE7274CAB798032B049B140F3452FF5C211EDD3D29 SWAP7 SWAP8 POP SWAP1 PUSH1 0xC PUSH1 0xC0 SWAP4 SWAP3 DUP7 DUP9 MSTORE DUP4 MLOAD SWAP1 KECCAK256 SWAP5 DUP3 DUP11 MSTORE MSTORE DUP4 DUP7 DUP10 KECCAK256 SSTORE DUP5 MSTORE ADD MSTORE LOG1 DUP1 RETURN JUMPDEST PUSH4 0x4E487B71 PUSH1 0xE0 SHL DUP8 MSTORE PUSH1 0x41 DUP9 MSTORE PUSH1 0x24 DUP8 REVERT JUMPDEST DUP4 MLOAD PUSH3 0x461BCD PUSH1 0xE5 SHL DUP2 MSTORE DUP1 DUP8 ADD DUP4 SWAP1 MSTORE PUSH1 0x23 PUSH1 0x24 DUP3 ADD MSTORE PUSH32 0x436F646520616C72656164792067656E65726174656420666F72207468697320 PUSH1 0x44 DUP3 ADD MSTORE PUSH3 0x646179 PUSH1 0xE8 SHL PUSH1 0x64 DUP3 ADD MSTORE PUSH1 0x84 SWAP1 REVERT JUMPDEST DUP4 MLOAD PUSH3 0x461BCD PUSH1 0xE5 SHL DUP2 MSTORE DUP1 DUP8 ADD DUP4 SWAP1 MSTORE PUSH1 0x22 PUSH1 0x24 DUP3 ADD MSTORE PUSH32 0x43616E6E6F742067656E657261746520636F646520666F722070617374206461 PUSH1 0x44 DUP3 ADD MSTORE PUSH2 0x7973 PUSH1 0xF0 SHL PUSH1 0x64 DUP3 ADD MSTORE PUSH1 0x84 SWAP1 REVERT JUMPDEST POP POP CALLVALUE PUSH2 0x1C8 JUMPI DUP2 PUSH1 0x3 NOT CALLDATASIZE ADD SLT PUSH2 0x1C8 JUMPI PUSH1 0xC0 SWAP1 PUSH1 0xE SLOAD SWAP1 PUSH1 0xFF PUSH1 0xF SLOAD PUSH1 0x10 SLOAD SWAP3 DUP1 MLOAD SWAP5 DUP6 MSTORE PUSH1 0x1 DUP1 PUSH1 0xA0 SHL SUB DUP3 AND PUSH1 0x20 DUP7 ADD MSTORE DUP3 DUP3 PUSH1 0xA0 SHR AND ISZERO ISZERO SWAP1 DUP6 ADD MSTORE DUP2 DUP2 PUSH1 0xA8 SHR AND ISZERO ISZERO PUSH1 0x60 DUP6 ADD MSTORE PUSH1 0xB0 SHR AND ISZERO ISZERO PUSH1 0x80 DUP4 ADD MSTORE PUSH1 0xA0 DUP3 ADD MSTORE RETURN JUMPDEST SWAP2 SWAP1 POP CALLVALUE PUSH2 0x499 JUMPI DUP3 PUSH1 0x3 NOT CALLDATASIZE ADD SLT PUSH2 0x499 JUMPI PUSH1 0x2 SLOAD PUSH1 0x1 PUSH1 0x1 PUSH1 0xA0 SHL SUB SWAP1 DUP2 AND SWAP3 PUSH2 0xB69 CALLER DUP6 EQ PUSH2 0x1544 JUMP JUMPDEST PUSH2 0xB85 PUSH1 0xFF PUSH1 0x7 SLOAD DUP2 DUP2 PUSH1 0x10 SHR AND DUP1 PUSH2 0x8C3 JUMPI PUSH2 0x62E SWAP1 PUSH2 0x15F4 JUMP JUMPDEST PUSH1 0x9 SLOAD ISZERO PUSH2 0xCE8 JUMPI PUSH2 0xB95 PUSH2 0x1796 JUMP JUMPDEST SWAP4 PUSH2 0xBA3 PUSH1 0xA SLOAD DUP1 SWAP7 PUSH2 0x1698 JUMP JUMPDEST SWAP5 DUP6 ISZERO PUSH2 0xC9A JUMPI DUP6 SELFBALANCE LT PUSH2 0xC57 JUMPI DUP6 DUP2 ADD DUP1 SWAP2 GT PUSH2 0xC44 JUMPI DUP7 DUP1 DUP8 DUP2 SWAP5 DUP3 SWAP5 PUSH1 0xA SSTORE GAS CALL PUSH2 0xBCF PUSH2 0x16BB JUMP JUMPDEST POP ISZERO PUSH2 0xC0F JUMPI POP SWAP1 PUSH32 0xBEE6E25AAE108C0524D61C49D523305558F12F21017476C3FEF02CA775C41F1F SWAP2 PUSH1 0x2 SLOAD AND SWAP3 PUSH1 0x9 SLOAD DUP3 MLOAD SWAP2 DUP3 MSTORE PUSH1 0x20 DUP3 ADD MSTORE LOG2 DUP1 RETURN JUMPDEST PUSH1 0x64 SWAP1 PUSH1 0x20 DUP5 MLOAD SWAP2 PUSH3 0x461BCD PUSH1 0xE5 SHL DUP4 MSTORE DUP3 ADD MSTORE PUSH1 0xF PUSH1 0x24 DUP3 ADD MSTORE PUSH15 0x151C985B9CD9995C8819985A5B1959 PUSH1 0x8A SHL PUSH1 0x44 DUP3 ADD MSTORE REVERT JUMPDEST PUSH4 0x4E487B71 PUSH1 0xE0 SHL DUP8 MSTORE PUSH1 0x11 DUP4 MSTORE PUSH1 0x24 DUP8 REVERT JUMPDEST DUP5 MLOAD PUSH3 0x461BCD PUSH1 0xE5 SHL DUP2 MSTORE PUSH1 0x20 DUP2 DUP6 ADD MSTORE PUSH1 0x1D PUSH1 0x24 DUP3 ADD MSTORE PUSH32 0x496E73756666696369656E7420636F6E74726163742062616C616E6365000000 PUSH1 0x44 DUP3 ADD MSTORE PUSH1 0x64 SWAP1 REVERT JUMPDEST DUP5 MLOAD PUSH3 0x461BCD PUSH1 0xE5 SHL DUP2 MSTORE PUSH1 0x20 DUP2 DUP6 ADD MSTORE PUSH1 0x22 PUSH1 0x24 DUP3 ADD MSTORE PUSH32 0x4E6F2073616C61727920617661696C61626C6520666F72207769746864726177 PUSH1 0x44 DUP3 ADD MSTORE PUSH2 0x185B PUSH1 0xF2 SHL PUSH1 0x64 DUP3 ADD MSTORE PUSH1 0x84 SWAP1 REVERT JUMPDEST PUSH1 0x64 SWAP1 PUSH1 0x20 DUP5 MLOAD SWAP2 PUSH3 0x461BCD PUSH1 0xE5 SHL DUP4 MSTORE DUP3 ADD MSTORE PUSH1 0x14 PUSH1 0x24 DUP3 ADD MSTORE PUSH20 0x139BC8185D1D195B99185B98D9481B585C9AD959 PUSH1 0x62 SHL PUSH1 0x44 DUP3 ADD MSTORE REVERT JUMPDEST POP POP CALLVALUE PUSH2 0x1C8 JUMPI DUP2 PUSH1 0x3 NOT CALLDATASIZE ADD SLT PUSH2 0x1C8 JUMPI PUSH1 0x20 SWAP1 PUSH1 0xFF PUSH1 0x7 SLOAD PUSH1 0x8 SHR AND SWAP1 MLOAD SWAP1 ISZERO ISZERO DUP2 MSTORE RETURN JUMPDEST POP POP CALLVALUE PUSH2 0x1C8 JUMPI DUP2 PUSH1 0x3 NOT CALLDATASIZE ADD SLT PUSH2 0x1C8 JUMPI PUSH1 0x20 SWAP2 PUSH2 0xD66 PUSH2 0x1796 JUMP JUMPDEST PUSH1 0xA SLOAD SWAP1 DUP2 DUP2 GT ISZERO PUSH2 0xD84 JUMPI PUSH2 0xD7C SWAP3 POP PUSH2 0x1698 JUMP JUMPDEST SWAP1 JUMPDEST MLOAD SWAP1 DUP2 MSTORE RETURN JUMPDEST POP POP SWAP1 PUSH2 0xD7E JUMP JUMPDEST SWAP2 SWAP1 POP CALLVALUE PUSH2 0x499 JUMPI DUP3 PUSH1 0x3 NOT CALLDATASIZE ADD SLT PUSH2 0x499 JUMPI PUSH2 0x120 SWAP3 POP PUSH1 0xFF PUSH1 0x1 DUP1 PUSH1 0xA0 SHL SUB SWAP3 DUP4 PUSH1 0x1 SLOAD AND SWAP4 PUSH1 0x2 SLOAD AND SWAP3 PUSH1 0x3 SLOAD PUSH1 0x9 SLOAD SWAP1 PUSH1 0xA SLOAD SWAP3 PUSH1 0x7 SLOAD SWAP5 SLOAD SWAP7 DUP2 MLOAD SWAP9 DUP10 MSTORE PUSH1 0x20 DUP10 ADD MSTORE DUP8 ADD MSTORE PUSH1 0x60 DUP7 ADD MSTORE PUSH1 0x80 DUP6 ADD MSTORE DUP2 DUP2 PUSH1 0x10 SHR AND ISZERO ISZERO PUSH1 0xA0 DUP6 ADD MSTORE DUP2 DUP2 PUSH1 0x8 SHR AND ISZERO ISZERO PUSH1 0xC0 DUP6 ADD MSTORE AND ISZERO ISZERO PUSH1 0xE0 DUP4 ADD MSTORE PUSH2 0x100 DUP3 ADD MSTORE RETURN JUMPDEST POP POP CALLVALUE PUSH2 0x1C8 JUMPI DUP2 PUSH1 0x3 NOT CALLDATASIZE ADD SLT PUSH2 0x1C8 JUMPI PUSH1 0x20 SWAP1 PUSH1 0x5 SLOAD SWAP1 MLOAD SWAP1 DUP2 MSTORE RETURN JUMPDEST DUP4 SWAP2 POP CALLVALUE PUSH2 0x1C8 JUMPI DUP3 PUSH1 0x3 NOT CALLDATASIZE ADD SLT PUSH2 0x1C8 JUMPI PUSH1 0x24 CALLDATALOAD SWAP1 DUP1 CALLDATALOAD SWAP1 PUSH1 0x1 PUSH1 0x1 PUSH1 0xA0 SHL SUB DUP1 DUP5 AND SWAP1 DUP2 DUP6 SUB PUSH2 0x102D JUMPI PUSH2 0xE66 SWAP1 PUSH1 0x1 SLOAD AND CALLER EQ PUSH2 0x159C JUMP JUMPDEST PUSH2 0xE82 PUSH1 0xFF PUSH1 0x7 SLOAD DUP2 DUP2 PUSH1 0x10 SHR AND DUP1 PUSH2 0x8C3 JUMPI PUSH2 0x62E SWAP1 PUSH2 0x15F4 JUMP JUMPDEST PUSH1 0x11 SLOAD SWAP2 PUSH1 0xFF DUP4 AND PUSH2 0xFDB JUMPI DUP4 ISZERO PUSH2 0xF8E JUMPI DUP2 ISZERO PUSH2 0xF4B JUMPI POP SWAP5 PUSH1 0x1 PUSH2 0x37A SWAP3 PUSH32 0x43224DA643AFD5364FE13ECA80E87986C24F373291ECBE87C3695BEEFB96D471 SWAP7 SWAP8 DUP4 MLOAD PUSH2 0xED0 DUP2 PUSH2 0x14D4 JUMP JUMPDEST DUP7 DUP2 MSTORE DUP2 PUSH1 0x20 DUP3 ADD MSTORE DUP4 DUP6 DUP3 ADD MSTORE DUP10 PUSH1 0x60 DUP3 ADD MSTORE DUP4 PUSH1 0x80 DUP3 ADD MSTORE PUSH1 0xA0 TIMESTAMP SWAP2 ADD MSTORE DUP6 PUSH1 0xE SSTORE DUP3 PUSH1 0xB0 SHL SWAP1 PUSH2 0xFFFF PUSH1 0xA8 SHL NOT SWAP1 DUP5 PUSH1 0xA0 SHL SWAP1 PUSH11 0xFFFFFFFFFFFFFFFFFFFFFF PUSH1 0xA8 SHL PUSH1 0xF SLOAD AND OR OR AND OR PUSH1 0xF SSTORE TIMESTAMP PUSH1 0x10 SSTORE PUSH1 0xFF NOT AND OR PUSH1 0x11 SSTORE MLOAD SWAP3 DUP4 SWAP3 DUP4 SWAP1 SWAP3 SWAP2 PUSH1 0x20 SWAP1 PUSH1 0x40 DUP4 ADD SWAP5 DUP4 MSTORE PUSH1 0x1 DUP1 PUSH1 0xA0 SHL SUB AND SWAP2 ADD MSTORE JUMP JUMPDEST PUSH1 0x64 SWAP1 PUSH1 0x20 DUP9 MLOAD SWAP2 PUSH3 0x461BCD PUSH1 0xE5 SHL DUP4 MSTORE DUP3 ADD MSTORE PUSH1 0x1C PUSH1 0x24 DUP3 ADD MSTORE PUSH32 0x496E76616C6964206E657720656D706C6F796565206164647265737300000000 PUSH1 0x44 DUP3 ADD MSTORE REVERT JUMPDEST PUSH1 0x84 SWAP1 PUSH1 0x20 DUP9 MLOAD SWAP2 PUSH3 0x461BCD PUSH1 0xE5 SHL DUP4 MSTORE DUP3 ADD MSTORE PUSH1 0x21 PUSH1 0x24 DUP3 ADD MSTORE PUSH32 0x4E65772073616C617279206D7573742062652067726561746572207468616E20 PUSH1 0x44 DUP3 ADD MSTORE PUSH1 0x3 PUSH1 0xFC SHL PUSH1 0x64 DUP3 ADD MSTORE REVERT JUMPDEST PUSH1 0x84 SWAP1 PUSH1 0x20 DUP9 MLOAD SWAP2 PUSH3 0x461BCD PUSH1 0xE5 SHL DUP4 MSTORE DUP3 ADD MSTORE PUSH1 0x26 PUSH1 0x24 DUP3 ADD MSTORE PUSH32 0x5468657265277320616C726561647920612070656E64696E67206D6F64696669 PUSH1 0x44 DUP3 ADD MSTORE PUSH6 0x31B0BA34B7B7 PUSH1 0xD1 SHL PUSH1 0x64 DUP3 ADD MSTORE REVERT JUMPDEST DUP6 DUP1 REVERT JUMPDEST POP POP CALLVALUE PUSH2 0x1C8 JUMPI DUP2 PUSH1 0x3 NOT CALLDATASIZE ADD SLT PUSH2 0x1C8 JUMPI PUSH1 0x20 SWAP1 PUSH1 0xA SLOAD SWAP1 MLOAD SWAP1 DUP2 MSTORE RETURN JUMPDEST SWAP2 SWAP1 POP CALLVALUE PUSH2 0x499 JUMPI DUP3 PUSH1 0x3 NOT CALLDATASIZE ADD SLT PUSH2 0x499 JUMPI PUSH1 0x2 SLOAD PUSH1 0x1 PUSH1 0x1 PUSH1 0xA0 SHL SUB AND SWAP2 PUSH2 0x107B CALLER DUP5 EQ PUSH2 0x1544 JUMP JUMPDEST PUSH1 0x7 SLOAD SWAP2 PUSH1 0xFF DUP4 PUSH1 0x8 SHR AND PUSH2 0x1106 JUMPI PUSH1 0xFF DUP4 PUSH1 0x18 SHR AND PUSH2 0x10CA JUMPI POP POP PUSH2 0xFF00 NOT AND PUSH2 0x100 OR PUSH1 0x7 SSTORE PUSH32 0x52FC9BBF272C9663E2F72E32EBBD87B584E1015D97D62C96A47D445F8460CAC1 DUP3 DUP1 LOG2 DUP1 RETURN JUMPDEST SWAP1 PUSH1 0x20 PUSH1 0x64 SWAP3 MLOAD SWAP2 PUSH3 0x461BCD PUSH1 0xE5 SHL DUP4 MSTORE DUP3 ADD MSTORE PUSH1 0x16 PUSH1 0x24 DUP3 ADD MSTORE PUSH22 0x10DBDB9D1C9858DD081A5CC81D195C9B5A5B985D1959 PUSH1 0x52 SHL PUSH1 0x44 DUP3 ADD MSTORE REVERT JUMPDEST SWAP1 PUSH1 0x20 PUSH1 0x64 SWAP3 MLOAD SWAP2 PUSH3 0x461BCD PUSH1 0xE5 SHL DUP4 MSTORE DUP3 ADD MSTORE PUSH1 0x19 PUSH1 0x24 DUP3 ADD MSTORE PUSH32 0x436F6E747261637420616C726561647920617070726F76656400000000000000 PUSH1 0x44 DUP3 ADD MSTORE REVERT JUMPDEST POP POP CALLVALUE PUSH2 0x1C8 JUMPI DUP2 PUSH1 0x3 NOT CALLDATASIZE ADD SLT PUSH2 0x1C8 JUMPI PUSH1 0x20 SWAP1 PUSH2 0xD7C PUSH2 0x1796 JUMP JUMPDEST POP POP CALLVALUE PUSH2 0x1C8 JUMPI DUP2 PUSH1 0x3 NOT CALLDATASIZE ADD SLT PUSH2 0x1C8 JUMPI PUSH1 0x20 SWAP1 PUSH1 0xFF PUSH1 0x7 SLOAD AND SWAP1 MLOAD SWAP1 ISZERO ISZERO DUP2 MSTORE RETURN JUMPDEST POP POP CALLVALUE PUSH2 0x1C8 JUMPI DUP2 PUSH1 0x3 NOT CALLDATASIZE ADD SLT PUSH2 0x1C8 JUMPI PUSH1 0x20 SWAP1 PUSH3 0x15180 PUSH2 0x11AF PUSH1 0x8 SLOAD TIMESTAMP PUSH2 0x1698 JUMP JUMPDEST DIV SWAP1 MLOAD SWAP1 DUP2 MSTORE RETURN JUMPDEST SWAP2 SWAP1 POP CALLVALUE PUSH2 0x499 JUMPI DUP3 PUSH1 0x3 NOT CALLDATASIZE ADD SLT PUSH2 0x499 JUMPI PUSH1 0x1 SLOAD PUSH1 0x1 PUSH1 0x1 PUSH1 0xA0 SHL SUB SWAP1 PUSH2 0x11E3 SWAP1 DUP3 AND CALLER EQ PUSH2 0x159C JUMP JUMPDEST PUSH1 0x7 SLOAD SWAP1 PUSH1 0xFF DUP3 PUSH1 0x10 SHR AND DUP1 PUSH2 0x137C JUMPI JUMPDEST PUSH2 0x11FD SWAP1 PUSH2 0x15F4 JUMP JUMPDEST PUSH1 0xFF DUP3 PUSH1 0x8 SHR AND ISZERO PUSH2 0x1327 JUMPI PUSH2 0x121D PUSH2 0x1214 PUSH2 0x1796 JUMP JUMPDEST PUSH1 0xA SLOAD SWAP1 PUSH2 0x1698 JUMP JUMPDEST SWAP4 PUSH4 0x1000000 PUSH2 0x122D DUP7 SELFBALANCE PUSH2 0x1698 JUMP JUMPDEST SWAP4 PUSH4 0xFFFF0000 NOT AND OR PUSH1 0x7 SSTORE DUP5 PUSH2 0x12D2 JUMPI JUMPDEST DUP3 PUSH2 0x127D JUMPI JUMPDEST POP SWAP1 PUSH32 0x6BE8BE759CDA4C5FEEF9AD215DF471CBA9B636E1A68E1B8FB0803037E02C8950 SWAP3 SWAP2 PUSH1 0x1 SLOAD AND SWAP4 DUP3 MLOAD SWAP2 DUP3 MSTORE PUSH1 0x20 DUP3 ADD MSTORE LOG2 DUP1 RETURN JUMPDEST DUP6 DUP1 DUP1 DUP1 DUP7 DUP7 PUSH1 0x1 SLOAD AND GAS CALL PUSH2 0x1291 PUSH2 0x16BB JUMP JUMPDEST POP PUSH2 0x1245 JUMPI PUSH1 0x64 SWAP1 PUSH1 0x20 DUP6 MLOAD SWAP2 PUSH3 0x461BCD PUSH1 0xE5 SHL DUP4 MSTORE DUP3 ADD MSTORE PUSH1 0x16 PUSH1 0x24 DUP3 ADD MSTORE PUSH22 0x115B5C1B1BDE595C881C99599D5B990819985A5B1959 PUSH1 0x52 SHL PUSH1 0x44 DUP3 ADD MSTORE REVERT JUMPDEST DUP6 DUP1 DUP1 DUP1 DUP9 DUP7 PUSH1 0x2 SLOAD AND GAS CALL PUSH2 0x12E6 PUSH2 0x16BB JUMP JUMPDEST POP PUSH2 0x123F JUMPI PUSH1 0x64 SWAP1 PUSH1 0x20 DUP6 MLOAD SWAP2 PUSH3 0x461BCD PUSH1 0xE5 SHL DUP4 MSTORE DUP3 ADD MSTORE PUSH1 0x16 PUSH1 0x24 DUP3 ADD MSTORE PUSH22 0x115B5C1B1BDE5959481C185E5BDD5D0819985A5B1959 PUSH1 0x52 SHL PUSH1 0x44 DUP3 ADD MSTORE REVERT JUMPDEST DUP3 MLOAD PUSH3 0x461BCD PUSH1 0xE5 SHL DUP2 MSTORE PUSH1 0x20 DUP2 DUP7 ADD MSTORE PUSH1 0x29 PUSH1 0x24 DUP3 ADD MSTORE PUSH32 0x43616E6E6F74207465726D696E617465206265666F726520656D706C6F796565 PUSH1 0x44 DUP3 ADD MSTORE PUSH9 0x8185C1C1C9BDD985B PUSH1 0xBA SHL PUSH1 0x64 DUP3 ADD MSTORE PUSH1 0x84 SWAP1 REVERT JUMPDEST POP PUSH1 0x18 DUP3 SWAP1 SHR PUSH1 0xFF AND ISZERO PUSH2 0x11F4 JUMP JUMPDEST POP POP CALLVALUE PUSH2 0x1C8 JUMPI DUP2 PUSH1 0x3 NOT CALLDATASIZE ADD SLT PUSH2 0x1C8 JUMPI PUSH1 0xC0 SWAP2 PUSH1 0xA0 DUP3 MLOAD PUSH2 0x13AD DUP2 PUSH2 0x14D4 JUMP JUMPDEST DUP3 DUP2 MSTORE DUP3 PUSH1 0x20 DUP3 ADD MSTORE DUP3 DUP5 DUP3 ADD MSTORE DUP3 PUSH1 0x60 DUP3 ADD MSTORE DUP3 PUSH1 0x80 DUP3 ADD MSTORE ADD MSTORE DUP1 MLOAD PUSH2 0x13D4 DUP2 PUSH2 0x14D4 JUMP JUMPDEST PUSH1 0xE SLOAD SWAP2 DUP3 DUP3 MSTORE PUSH1 0xF SLOAD SWAP1 PUSH1 0x20 DUP4 ADD SWAP1 PUSH1 0x1 DUP1 PUSH1 0xA0 SHL SUB DUP1 DUP5 AND DUP4 MSTORE DUP2 DUP6 ADD SWAP1 PUSH1 0xFF DUP6 PUSH1 0xA0 SHR AND ISZERO ISZERO DUP3 MSTORE PUSH1 0x60 DUP7 ADD SWAP4 PUSH1 0xFF DUP7 PUSH1 0xA8 SHR AND ISZERO ISZERO DUP6 MSTORE PUSH1 0xFF PUSH1 0x80 DUP9 ADD SWAP7 PUSH1 0xB0 SHR AND ISZERO ISZERO DUP7 MSTORE PUSH1 0xA0 PUSH1 0x10 SLOAD SWAP8 ADD SWAP7 DUP8 MSTORE DUP4 MLOAD SWAP8 DUP9 MSTORE MLOAD AND PUSH1 0x20 DUP8 ADD MSTORE MLOAD ISZERO ISZERO SWAP1 DUP6 ADD MSTORE MLOAD ISZERO ISZERO PUSH1 0x60 DUP5 ADD MSTORE MLOAD ISZERO ISZERO PUSH1 0x80 DUP4 ADD MSTORE MLOAD PUSH1 0xA0 DUP3 ADD MSTORE RETURN JUMPDEST POP POP CALLVALUE PUSH2 0x1C8 JUMPI DUP2 PUSH1 0x3 NOT CALLDATASIZE ADD SLT PUSH2 0x1C8 JUMPI PUSH1 0x20 SWAP1 PUSH1 0xFF PUSH1 0x7 SLOAD PUSH1 0x10 SHR AND SWAP1 MLOAD SWAP1 ISZERO ISZERO DUP2 MSTORE RETURN JUMPDEST POP POP CALLVALUE PUSH2 0x1C8 JUMPI DUP2 PUSH1 0x3 NOT CALLDATASIZE ADD SLT PUSH2 0x1C8 JUMPI PUSH1 0x20 SWAP1 PUSH1 0x9 SLOAD SWAP1 MLOAD SWAP1 DUP2 MSTORE RETURN JUMPDEST POP POP CALLVALUE PUSH2 0x1C8 JUMPI DUP2 PUSH1 0x3 NOT CALLDATASIZE ADD SLT PUSH2 0x1C8 JUMPI PUSH1 0x20 SWAP1 PUSH1 0x6 SLOAD SWAP1 MLOAD SWAP1 DUP2 MSTORE RETURN JUMPDEST DUP5 SWAP1 CALLVALUE PUSH2 0x1C8 JUMPI DUP2 PUSH1 0x3 NOT CALLDATASIZE ADD SLT PUSH2 0x1C8 JUMPI PUSH1 0x20 SWAP1 PUSH1 0x8 SLOAD DUP2 MSTORE RETURN JUMPDEST PUSH1 0xC0 DUP2 ADD SWAP1 DUP2 LT PUSH8 0xFFFFFFFFFFFFFFFF DUP3 GT OR PUSH2 0x14F0 JUMPI PUSH1 0x40 MSTORE JUMP JUMPDEST PUSH4 0x4E487B71 PUSH1 0xE0 SHL PUSH1 0x0 MSTORE PUSH1 0x41 PUSH1 0x4 MSTORE PUSH1 0x24 PUSH1 0x0 REVERT JUMPDEST SWAP1 PUSH1 0x1F DUP1 NOT SWAP2 ADD AND DUP2 ADD SWAP1 DUP2 LT PUSH8 0xFFFFFFFFFFFFFFFF DUP3 GT OR PUSH2 0x14F0 JUMPI PUSH1 0x40 MSTORE JUMP JUMPDEST PUSH8 0xFFFFFFFFFFFFFFFF DUP2 GT PUSH2 0x14F0 JUMPI PUSH1 0x1F ADD PUSH1 0x1F NOT AND PUSH1 0x20 ADD SWAP1 JUMP JUMPDEST ISZERO PUSH2 0x154B JUMPI JUMP JUMPDEST PUSH1 0x40 MLOAD PUSH3 0x461BCD PUSH1 0xE5 SHL DUP2 MSTORE PUSH1 0x20 PUSH1 0x4 DUP3 ADD MSTORE PUSH1 0x24 DUP1 DUP3 ADD MSTORE PUSH32 0x4F6E6C7920656D706C6F7965652063616E2063616C6C20746869732066756E63 PUSH1 0x44 DUP3 ADD MSTORE PUSH4 0x3A34B7B7 PUSH1 0xE1 SHL PUSH1 0x64 DUP3 ADD MSTORE PUSH1 0x84 SWAP1 REVERT JUMPDEST ISZERO PUSH2 0x15A3 JUMPI JUMP JUMPDEST PUSH1 0x40 MLOAD PUSH3 0x461BCD PUSH1 0xE5 SHL DUP2 MSTORE PUSH1 0x20 PUSH1 0x4 DUP3 ADD MSTORE PUSH1 0x24 DUP1 DUP3 ADD MSTORE PUSH32 0x4F6E6C7920656D706C6F7965722063616E2063616C6C20746869732066756E63 PUSH1 0x44 DUP3 ADD MSTORE PUSH4 0x3A34B7B7 PUSH1 0xE1 SHL PUSH1 0x64 DUP3 ADD MSTORE PUSH1 0x84 SWAP1 REVERT JUMPDEST ISZERO PUSH2 0x15FB JUMPI JUMP JUMPDEST PUSH1 0x40 MLOAD PUSH3 0x461BCD PUSH1 0xE5 SHL DUP2 MSTORE PUSH1 0x20 PUSH1 0x4 DUP3 ADD MSTORE PUSH1 0x16 PUSH1 0x24 DUP3 ADD MSTORE PUSH22 0x436F6E7472616374206973206E6F7420616374697665 PUSH1 0x50 SHL PUSH1 0x44 DUP3 ADD MSTORE PUSH1 0x64 SWAP1 REVERT JUMPDEST ISZERO PUSH2 0x1640 JUMPI JUMP JUMPDEST PUSH1 0x40 MLOAD PUSH3 0x461BCD PUSH1 0xE5 SHL DUP2 MSTORE PUSH1 0x20 PUSH1 0x4 DUP3 ADD MSTORE PUSH1 0x2A PUSH1 0x24 DUP3 ADD MSTORE PUSH32 0x456D706C6F79656520686173206E6F7420617070726F7665642074686520636F PUSH1 0x44 DUP3 ADD MSTORE PUSH10 0x1B9D1C9858DD081E595D PUSH1 0xB2 SHL PUSH1 0x64 DUP3 ADD MSTORE PUSH1 0x84 SWAP1 REVERT JUMPDEST SWAP2 SWAP1 DUP3 SUB SWAP2 DUP3 GT PUSH2 0x16A5 JUMPI JUMP JUMPDEST PUSH4 0x4E487B71 PUSH1 0xE0 SHL PUSH1 0x0 MSTORE PUSH1 0x11 PUSH1 0x4 MSTORE PUSH1 0x24 PUSH1 0x0 REVERT JUMPDEST RETURNDATASIZE ISZERO PUSH2 0x16E6 JUMPI RETURNDATASIZE SWAP1 PUSH2 0x16CC DUP3 PUSH2 0x1528 JUMP JUMPDEST SWAP2 PUSH2 0x16DA PUSH1 0x40 MLOAD SWAP4 DUP5 PUSH2 0x1506 JUMP JUMPDEST DUP3 MSTORE RETURNDATASIZE PUSH1 0x0 PUSH1 0x20 DUP5 ADD RETURNDATACOPY JUMP JUMPDEST PUSH1 0x60 SWAP1 JUMP JUMPDEST ISZERO PUSH2 0x16F2 JUMPI JUMP JUMPDEST PUSH1 0x40 MLOAD PUSH3 0x461BCD PUSH1 0xE5 SHL DUP2 MSTORE PUSH1 0x20 PUSH1 0x4 DUP3 ADD MSTORE PUSH1 0x17 PUSH1 0x24 DUP3 ADD MSTORE PUSH32 0x4E6F2070656E64696E67206D6F64696669636174696F6E000000000000000000 PUSH1 0x44 DUP3 ADD MSTORE PUSH1 0x64 SWAP1 REVERT JUMPDEST ISZERO PUSH2 0x173E JUMPI JUMP JUMPDEST PUSH1 0x40 MLOAD PUSH3 0x461BCD PUSH1 0xE5 SHL DUP2 MSTORE PUSH1 0x20 PUSH1 0x4 DUP3 ADD MSTORE PUSH1 0x1A PUSH1 0x24 DUP3 ADD MSTORE PUSH32 0x4D6F64696669636174696F6E206973206E6F7420616374697665000000000000 PUSH1 0x44 DUP3 ADD MSTORE PUSH1 0x64 SWAP1 REVERT JUMPDEST DUP2 DUP2 MUL SWAP3 SWAP2 DUP2 ISZERO SWAP2 DUP5 DIV EQ OR ISZERO PUSH2 0x16A5 JUMPI JUMP JUMPDEST PUSH1 0x9 SLOAD DUP1 ISZERO PUSH2 0x17CB JUMPI PUSH1 0x3 SLOAD PUSH2 0x17AB SWAP2 PUSH2 0x1783 JUMP JUMPDEST PUSH1 0xFF PUSH1 0x7 SLOAD AND PUSH2 0x17B8 JUMPI SWAP1 JUMP JUMPDEST PUSH2 0x17C7 PUSH1 0x64 SWAP2 PUSH1 0x4 SLOAD SWAP1 PUSH2 0x1783 JUMP JUMPDEST DIV SWAP1 JUMP JUMPDEST POP PUSH1 0x0 SWAP1 JUMP INVALID LOG2 PUSH5 0x6970667358 0x22 SLT KECCAK256 SWAP3 PC 0xE1 EXTCODESIZE 0x23 PUSH18 0xF23D20778E85F916C81B7DF482F87AE8CDC SWAP1 0x5D SWAP8 MSTORE PUSH27 0x67E34464736F6C63430008130033A2646970667358221220C0F488 0xFC 0xBF SWAP16 0x27 0xB5 0xCB SLOAD SWAP3 0xB4 DUP7 LOG4 LOG1 SWAP4 SWAP15 REVERT REVERT DUP2 SIGNEXTEND LOG3 CREATE2 GASLIMIT 0xDA SWAP10 0xD3 INVALID PUSH8 0xD430A764736F6C63 NUMBER STOP ADDMOD SGT STOP CALLER "},"methodIdentifiers":{"addAdmin(address)":"70480275","admins(address)":"429b62e5","allContracts(uint256)":"e54e26b9","allOrganizations(uint256)":"00600e1c","createSalaryContract(address,uint256,uint256,bool,uint256)":"8026c0a3","getAllContracts()":"18d3ce96","getAllOrganizations()":"086ed938","getOrganizationContracts(address)":"5ac68209","getOrganizationDetails(address)":"61ba81d8","getTotalContracts()":"534860cc","getTotalOrganizations()":"a1fa6f52","isOrganization(address)":"b1ce8eab","organizationContracts(address,uint256)":"b625804e","organizations(address)":"5a1f7406","owner()":"8da5cb5b","registerOrganization(string,string)":"247a50d8","removeAdmin(address)":"1785f53c","updateOrganizationStatus(address,bool)":"f61bd7a1"}}}}}