{"contracts/EmployerDashboard.sol":{"EmployerDashboard":{"abi":[{"inputs":[{"internalType":"address","name":"_factoryAddress","type":"address"}],"stateMutability":"nonpayable","type":"constructor"},{"anonymous":false,"inputs":[{"indexed":true,"internalType":"address","name":"employer","type":"address"},{"indexed":true,"internalType":"address","name":"employee","type":"address"},{"indexed":false,"internalType":"uint256","name":"day","type":"uint256"}],"name":"CodeGenerated","type":"event"},{"anonymous":false,"inputs":[{"indexed":true,"internalType":"address","name":"employer","type":"address"},{"indexed":true,"internalType":"address","name":"employee","type":"address"},{"indexed":false,"internalType":"address","name":"contractAddress","type":"address"}],"name":"ContractTerminated","type":"event"},{"anonymous":false,"inputs":[{"indexed":true,"internalType":"address","name":"employer","type":"address"},{"indexed":true,"internalType":"address","name":"employee","type":"address"},{"indexed":false,"internalType":"address","name":"contractAddress","type":"address"}],"name":"EmployeeAdded","type":"event"},{"inputs":[{"internalType":"address[]","name":"_contractAddresses","type":"address[]"}],"name":"bulkGenerateCodes","outputs":[],"stateMutability":"nonpayable","type":"function"},{"inputs":[{"internalType":"address","name":"_employee","type":"address"},{"internalType":"uint256","name":"_dailySalary","type":"uint256"},{"internalType":"uint256","name":"_probationPercentage","type":"uint256"},{"internalType":"bool","name":"_isOnProbation","type":"bool"},{"internalType":"uint256","name":"_contractDuration","type":"uint256"}],"name":"createSalaryContract","outputs":[],"stateMutability":"payable","type":"function"},{"inputs":[],"name":"factory","outputs":[{"internalType":"contract SalaryStreamingFactory","name":"","type":"address"}],"stateMutability":"view","type":"function"},{"inputs":[{"internalType":"address","name":"_contractAddress","type":"address"},{"internalType":"uint256","name":"_day","type":"uint256"}],"name":"generateDailyCode","outputs":[],"stateMutability":"nonpayable","type":"function"},{"inputs":[{"internalType":"address","name":"_contractAddress","type":"address"}],"name":"generateTodaysCode","outputs":[],"stateMutability":"nonpayable","type":"function"},{"inputs":[{"internalType":"address","name":"_contractAddress","type":"address"}],"name":"getContractDetails","outputs":[{"internalType":"address","name":"employee","type":"address"},{"internalType":"uint256","name":"dailySalary","type":"uint256"},{"internalType":"uint256","name":"attendanceCount","type":"uint256"},{"internalType":"uint256","name":"totalWithdrawn","type":"uint256"},{"internalType":"uint256","name":"availableBalance","type":"uint256"},{"internalType":"uint256","name":"contractBalance","type":"uint256"},{"internalType":"bool","name":"isActive","type":"bool"},{"internalType":"bool","name":"employeeApproved","type":"bool"},{"internalType":"bool","name":"isOnProbation","type":"bool"},{"internalType":"uint256","name":"probationPercentage","type":"uint256"},{"internalType":"uint256","name":"startDate","type":"uint256"},{"internalType":"uint256","name":"contractDuration","type":"uint256"}],"stateMutability":"view","type":"function"},{"inputs":[{"internalType":"address","name":"_contractAddress","type":"address"},{"internalType":"uint256","name":"_days","type":"uint256"}],"name":"getEmployeeAttendanceHistory","outputs":[{"internalType":"uint256[]","name":"attendanceDays","type":"uint256[]"},{"internalType":"bool[]","name":"attendanceStatus","type":"bool[]"},{"internalType":"uint256[]","name":"timestamps","type":"uint256[]"}],"stateMutability":"view","type":"function"},{"inputs":[{"internalType":"address","name":"_employer","type":"address"}],"name":"getEmployeesList","outputs":[{"components":[{"internalType":"address","name":"contractAddress","type":"address"},{"internalType":"address","name":"employeeAddress","type":"address"},{"internalType":"uint256","name":"dailySalary","type":"uint256"},{"internalType":"uint256","name":"attendanceCount","type":"uint256"},{"internalType":"uint256","name":"totalWithdrawn","type":"uint256"},{"internalType":"uint256","name":"availableBalance","type":"uint256"},{"internalType":"bool","name":"isActive","type":"bool"},{"internalType":"bool","name":"employeeApproved","type":"bool"},{"internalType":"bool","name":"isOnProbation","type":"bool"},{"internalType":"uint256","name":"probationPercentage","type":"uint256"},{"internalType":"uint256","name":"startDate","type":"uint256"},{"internalType":"uint256","name":"contractDuration","type":"uint256"},{"internalType":"uint256","name":"currentDay","type":"uint256"},{"internalType":"bool","name":"todayAttendanceMarked","type":"bool"},{"internalType":"bool","name":"todayCodeGenerated","type":"bool"}],"internalType":"struct EmployerDashboard.EmployeeInfo[]","name":"","type":"tuple[]"}],"stateMutability":"view","type":"function"},{"inputs":[{"internalType":"address","name":"_employer","type":"address"}],"name":"getEmployerStats","outputs":[{"components":[{"internalType":"uint256","name":"totalEmployees","type":"uint256"},{"internalType":"uint256","name":"activeEmployees","type":"uint256"},{"internalType":"uint256","name":"totalSalariesLocked","type":"uint256"},{"internalType":"uint256","name":"totalPaidOut","type":"uint256"},{"internalType":"uint256","name":"pendingApprovals","type":"uint256"}],"internalType":"struct EmployerDashboard.EmployerStats","name":"","type":"tuple"}],"stateMutability":"view","type":"function"},{"inputs":[{"internalType":"address","name":"_employer","type":"address"},{"internalType":"uint256","name":"_limit","type":"uint256"}],"name":"getTopPerformingEmployees","outputs":[{"components":[{"internalType":"address","name":"contractAddress","type":"address"},{"internalType":"address","name":"employeeAddress","type":"address"},{"internalType":"uint256","name":"dailySalary","type":"uint256"},{"internalType":"uint256","name":"attendanceCount","type":"uint256"},{"internalType":"uint256","name":"totalWithdrawn","type":"uint256"},{"internalType":"uint256","name":"availableBalance","type":"uint256"},{"internalType":"bool","name":"isActive","type":"bool"},{"internalType":"bool","name":"employeeApproved","type":"bool"},{"internalType":"bool","name":"isOnProbation","type":"bool"},{"internalType":"uint256","name":"probationPercentage","type":"uint256"},{"internalType":"uint256","name":"startDate","type":"uint256"},{"internalType":"uint256","name":"contractDuration","type":"uint256"},{"internalType":"uint256","name":"currentDay","type":"uint256"},{"internalType":"bool","name":"todayAttendanceMarked","type":"bool"},{"internalType":"bool","name":"todayCodeGenerated","type":"bool"}],"internalType":"struct EmployerDashboard.EmployeeInfo[]","name":"","type":"tuple[]"}],"stateMutability":"view","type":"function"},{"inputs":[{"internalType":"address","name":"_contractAddress","type":"address"},{"internalType":"uint256","name":"_newDailySalary","type":"uint256"},{"internalType":"address","name":"_newEmployeeAddress","type":"address"}],"name":"proposeModification","outputs":[],"stateMutability":"nonpayable","type":"function"},{"inputs":[{"internalType":"address","name":"_contractAddress","type":"address"}],"name":"terminateContract","outputs":[],"stateMutability":"nonpayable","type":"function"}],"evm":{"bytecode":{"linkReferences":{},"object":"60803461007457601f61239938819003918201601f19168301916001600160401b038311848410176100795780849260209460405283398101031261007457516001600160a01b0381169081900361007457600080546001600160a01b03191691909117905560405161230990816100908239f35b600080fd5b634e487b7160e01b600052604160045260246000fdfe6080604052600436101561001257600080fd5b60003560e01c806327dde58f14611b165780632cf23a3b146119de5780633125ada2146118c557806332df3f02146116035780633a3b1e0a1461145d57806358b86ebc146110a55780638026c0a314610f1a5780638a3b3d0e14610c9d578063b6dd1f66146106fd578063c1db564a14610283578063c45a01551461025a5763c81a1d55146100a057600080fd5b346101ce576020806003193601126101ce576001600160a01b03806100c3611e3b565b1660405163ae200e7960e01b81528381600481855afa80156101da57600090610224575b6100f591508316331461220e565b604051631f34b45b60e11b8152918383600481855afa9283156101da576000936101f5575b50813b156101ce576040516327dd486d60e21b8152600481018490529160008360248183855af19081156101da5760049386926101e6575b5060405163a0a1a7d760e01b815293849182905afa80156101da57600090610193575b6000805160206122b4833981519152925060405193845216923392a3005b508382813d83116101d3575b6101a98183611e01565b810103126101ce576101c96000805160206122b4833981519152926120c8565b610175565b600080fd5b503d61019f565b6040513d6000823e3d90fd5b6101ef90611dba565b38610152565b9092508381813d831161021d575b61020d8183611e01565b810103126101ce5751913861011a565b503d610203565b508381813d8311610253575b61023a8183611e01565b810103126101ce5761024e6100f5916120c8565b6100e7565b503d610230565b346101ce5760003660031901126101ce576000546040516001600160a01b039091168152602090f35b346101ce5760203660031901126101ce5761029c611e3b565b60005460405163b1ce8eab60e01b81526001600160a01b03928316600482018190529290911691602082602481865afa9182156101da576000926106bd575b506102e7600092611fb9565b602460405180948193635ac6820960e01b835260048301525afa9081156101da5760009161069a575b5061031b815161214d565b60005b8251811015610688576001600160a01b03610339828561209e565b51604051637cc1f86760e01b8152911661012082600481845afa9081156101da576000926000926000809160009360008091600093610641575b50604051631f34b45b60e11b8152956020876004818b5afa9687156101da5760009761060d575b5060405163404ed5b560e11b81526020816004818c5afa9081156101da576000916105db575b506040516305cbde4360e11b8152966020886004818d5afa9687156101da576000976105a6575b6040516306a246e760e41b815298506020896004818e5afa9889156101da57600099610572575b5060405163182d70e560e31b8152600481018b90529b8c808d5a92602491602094fa9b8c156101da5760009c610536575b604051635647041760e01b8152600481018d90529d5060208e602481845afa9d8e156101da5760009e610502575b506040519e8f9161047d83611de4565b82526001600160a01b031660208201526040015260608d015260808c015260a08b0152151560c08a0152151560e0890152151561010088015261012087015261014086015261016085015261018084015215156101a083015215156101c08201526104e8828461209e565b526104f3818361209e565b506104fd9061208f565b61031e565b909d506020813d60201161052e575b8161051e60209383611e01565b810103126101ce57519c3861046d565b3d9150610511565b9b5060208d3d60201161056a575b8161055160209383611e01565b810103126101ce5761056460209d611fac565b9b61043f565b3d9150610544565b9098506020813d60201161059e575b8161058e60209383611e01565b810103126101ce5751973861040e565b3d9150610581565b96506020883d6020116105d3575b816105c160209383611e01565b810103126101ce5760049751966103e7565b3d91506105b4565b90506020813d602011610605575b816105f660209383611e01565b810103126101ce57518e6103c0565b3d91506105e9565b9096506020813d602011610639575b8161062960209383611e01565b810103126101ce5751958d61039a565b3d915061061c565b96985050505050505061066e91506101203d61012011610681575b6106668183611e01565b8101906120dc565b969895975094959194929392908c610373565b503d61065c565b604051806106968482611e85565b0390f35b6106b791503d806000833e6106af8183611e01565b810190612005565b81610310565b91506020823d6020116106f5575b816106d860209383611e01565b810103126101ce576102e76106ee600093611fac565b92506102db565b3d91506106cb565b346101ce5760403660031901126101ce57610716611e3b565b60005460405163b1ce8eab60e01b81526001600160a01b0392831660048201819052602480359490931692602090839081865afa9182156101da57600092610c5d575b50610765600092611fb9565b602460405180948193635ac6820960e01b835260048301525afa9081156101da57600091610c42575b50610799815161214d565b9060005b8151811015610af7576001600160a01b036107b8828461209e565b51604051637cc1f86760e01b8152911661012082600481845afa9081156101da576000926000926000809160009360008091600093610ac0575b50604051631f34b45b60e11b8152956020876004818b5afa9687156101da57600097610a8c575b5060405163404ed5b560e11b81526020816004818c5afa9081156101da57600091610a5a575b506040516305cbde4360e11b8152966020886004818d5afa9687156101da57600097610a25575b6040516306a246e760e41b815298506020896004818e5afa9889156101da576000996109f1575b5060405163182d70e560e31b8152600481018b90529b8c808d5a92602491602094fa9b8c156101da5760009c6109b5575b604051635647041760e01b8152600481018d90529d5060208e602481845afa9d8e156101da5760009e610981575b506040519e8f916108fc83611de4565b82526001600160a01b031660208201526040015260608d015260808c015260a08b0152151560c08a0152151560e0890152151561010088015261012087015261014086015261016085015261018084015215156101a083015215156101c0820152610967828561209e565b52610972818461209e565b5061097c9061208f565b61079d565b909d506020813d6020116109ad575b8161099d60209383611e01565b810103126101ce57519c386108ec565b3d9150610990565b9b5060208d3d6020116109e9575b816109d060209383611e01565b810103126101ce576109e360209d611fac565b9b6108be565b3d91506109c3565b9098506020813d602011610a1d575b81610a0d60209383611e01565b810103126101ce5751973861088d565b3d9150610a00565b96506020883d602011610a52575b81610a4060209383611e01565b810103126101ce576004975196610866565b3d9150610a33565b90506020813d602011610a84575b81610a7560209383611e01565b810103126101ce57518f61083f565b3d9150610a68565b9096506020813d602011610ab8575b81610aa860209383611e01565b810103126101ce5751958e610819565b3d9150610a9b565b969850505050505050610ae491506101203d61012011610681576106668183611e01565b969895975094959194929392908d6107f2565b828460005b82516000199290838101908111610bbb57821015610be25760005b8451848101908111610bbb5783610b2d916122a6565b811015610bd15760609081610b42828861209e565b5101516001820190818311610bbb57610b6e93610b5f838a61209e565b51015111610b73575b5061208f565b610b17565b610bb490610b81838961209e565b51610b8c828a61209e565b51610b97858b61209e565b52610ba2848a61209e565b50610bad828a61209e565b528761209e565b5086610b68565b634e487b7160e01b600052601160045260246000fd5b509150610bdd9061208f565b610afc565b8351849181811115610c3b57505b610bf98161214d565b9160005b828110610c1257604051806106968682611e85565b80610c20610c36928461209e565b51610c2b828761209e565b52610b68818661209e565b610bfd565b9050610bf0565b610c5791503d806000833e6106af8183611e01565b8261078e565b91506020823d602011610c95575b81610c7860209383611e01565b810103126101ce57610765610c8e600093611fac565b9250610759565b3d9150610c6b565b346101ce576020806003193601126101ce57610cb7611e3b565b90610cc0611f70565b5060005460405163b1ce8eab60e01b81526001600160a01b0393841660048201819052918416918382602481865afa9182156101da57600092610edf575b50610d0a600092611fb9565b602460405180948193635ac6820960e01b835260048301525afa9081156101da57600091610ec4575b5090610d3d611f70565b600091604082019460608301935b8551811015610e975781610d5f828861209e565b511660405191637cc1f86760e01b8352610120928381600481865afa9283156101da578691600094600091600091610e64575b5060049495965081610da48b5161208f565b8b52610e50575b159081610e48575b50610e33575b6040516306f8dfe160e21b815292839182905afa9081156101da57600091610e04575b50610dff92610def610df8928b51612140565b8a528751612140565b865261208f565b610d4b565b90508481813d8311610e2c575b610e1b8183611e01565b810103126101ce5751610dff610ddc565b503d610e11565b60808801610e41815161208f565b9052610db9565b90508c610db3565b838a01610e5d815161208f565b9052610dab565b915050600493945085610e839296903d10610681576106668183611e01565b505094509894509150509590869594610d92565b60a083608086888b6040519483518652808401519086015251604085015251606084015201516080820152f35b610ed991503d806000833e6106af8183611e01565b83610d33565b91508382813d8311610f13575b610ef68183611e01565b810103126101ce57610d0a610f0c600093611fac565b9250610cfe565b503d610eec565b60a03660031901126101ce57610f2e611e3b565b606435908115158092036101ce5760005460405163b1ce8eab60e01b81523360048201526020926001600160a01b039283169290918481602481875afa9081156101da57600091611070575b501561101057823b156101ce5760a46000926040519485938492638026c0a360e01b84521697886004840152602435602484015260443560448401526064830152608435608483015234905af180156101da57611001575b507f23af81eccafdcdf15da528004ccdfa3609d55578a2e0df674c079941508a792060405191600083523392a3005b61100a90611dba565b82610fd2565b60405162461bcd60e51b815260048101859052603260248201527f4f6e6c792072656769737465726564206f7267616e697a6174696f6e732063616044820152716e2063726561746520636f6e74726163747360701b6064820152608490fd5b90508481813d831161109e575b6110878183611e01565b810103126101ce5761109890611fac565b86610f7a565b503d61107d565b346101ce5760403660031901126101ce576110be611e3b565b60405163ae200e7960e01b81526020916001600160a01b0390811691602491823591908582600481885afa9182156101da57600092611426575b50339116036113c657604051631f34b45b60e11b8152918483600481875afa9283156101da57600093611397575b5060019182840190818511611355578181111561138f5750945b61114986612274565b9561115381611e23565b926111616040519485611e01565b81845261116d82611e23565b8484019790601f190136893761118283612274565b96600019840184811161137a578490821061136a576111a0916122a6565b86810180911161135557989694939795985b60005b848110611221575050505050946111db9585604051978896606088526060880190611e51565b9186830382880152519182815201939560005b82811061120957868061069688888382036040850152611e51565b875115158652968101968896509481019483016111ee565b808961123f611237839c9e9b9d999a9c86612140565b92839261209e565b5260405163182d70e560e31b81526004810182905287818781885afa9081156101da57600091611320575b50611275838a61209e565b90151590526040516305cbde4360e11b81528781600481885afa9081156101da576000916112f3575b5062015180918281029281840414901517156112de576112d292916112c291612140565b6112cc828c61209e565b5261208f565b999795949896996111b5565b85634e487b7160e01b60005260116004526000fd5b90508781813d8311611319575b61130a8183611e01565b810103126101ce57518d61129e565b503d611300565b90508781813d831161134e575b6113378183611e01565b810103126101ce5761134890611fac565b8d61126a565b503d61132d565b82634e487b7160e01b60005260116004526000fd5b50506000989694939795986111b2565b83634e487b7160e01b60005260116004526000fd5b905094611140565b9092508481813d83116113bf575b6113af8183611e01565b810103126101ce57519185611126565b503d6113a5565b60405162461bcd60e51b8152600481018590526033818401527f4e6f7420617574686f72697a656420746f207669657720617474656e64616e636044820152721948199bdc881d1a1a5cc818dbdb9d1c9858dd606a1b6064820152608490fd5b9091508581813d8311611456575b61143e8183611e01565b810103126101ce5761144f906120c8565b90866110f8565b503d611434565b346101ce576020806003193601126101ce576001600160a01b0380611480611e3b565b169060405163ae200e7960e01b81528381600481865afa9081156101da576000916115ce575b5081339116036115775760405163a0a1a7d760e01b8152908382600481865afa9182156101da57600092611540575b50823b156101ce576040516317eca4e560e11b81529160008360048183885af19283156101da577f59e8aba4672f07159a4e5de40f16903edb5063da5dfa8a40b84501e906a9ffb093611531575b5060405193845216923392a3005b61153a90611dba565b85611523565b9091508381813d8311611570575b6115588183611e01565b810103126101ce57611569906120c8565b90846114d5565b503d61154e565b60405162461bcd60e51b815260048101849052602960248201527f4e6f7420617574686f72697a656420746f207465726d696e61746520746869736044820152680818dbdb9d1c9858dd60ba1b6064820152608490fd5b90508381813d83116115fc575b6115e58183611e01565b810103126101ce576115f6906120c8565b846114a6565b503d6115db565b346101ce5760203660031901126101ce576001600160a01b03611624611e3b565b1660405163ae200e7960e01b8152602081600481855afa9081156101da5760009161188b575b50336001600160a01b039091160361183a57604051637cc1f86760e01b815261012081600481855afa80156101da5760009160009160009160009260008091600093600095611805575b5060405163404ed5b560e11b8152956020876004818d5afa9081156101da576000916117d0575b6040516305cbde4360e11b815297508a31926020896004818f5afa9889156101da57600099611799575b50602060049c6040519d8e80926306a246e760e41b82525afa998a156101da5760009a611763575b6101809c506040519b60018060a01b03168c5260208c015260408b015260608a0152608089015260a0880152151560c0870152151560e08601521515610100850152610120840152610140830152610160820152f35b995060208c3d602011611791575b8161177e60209383611e01565b810103126101ce576101809b519961170d565b3d9150611771565b9b985060208c3d6020116117c8575b816117b560209383611e01565b810103126101ce579a51979a60206116e5565b3d91506117a8565b90506020873d6020116117fd575b816117eb60209383611e01565b810103126101ce5760049651906116bb565b3d91506117de565b965050505050505061182891506101203d61012011610681576106668183611e01565b96975094959294929390919089611694565b60405162461bcd60e51b8152602060048201526024808201527f4e6f7420617574686f72697a656420746f2076696577207468697320636f6e746044820152631c9858dd60e21b6064820152608490fd5b90506020813d6020116118bd575b816118a660209383611e01565b810103126101ce576118b7906120c8565b8261164a565b3d9150611899565b346101ce5760403660031901126101ce576118de611e3b565b60405163ae200e7960e01b8152602091602435916001600160a01b0391821691908481600481865afa80156101da576000906119a8575b61192391508216331461220e565b813b156101ce576040516327dd486d60e21b8152600481018490529160008360248183855af19081156101da576004938692611999575060405163a0a1a7d760e01b815293849182905afa80156101da57600090610193576000805160206122b4833981519152925060405193845216923392a3005b6119a290611dba565b86610152565b508481813d83116119d7575b6119be8183611e01565b810103126101ce576119d2611923916120c8565b611915565b503d6119b4565b346101ce5760603660031901126101ce576119f7611e3b565b6001600160a01b039060443582811691908290036101ce5760405163ae200e7960e01b815290831692602082600481875afa9182156101da57600092611adb575b5033911603611a8757813b156101ce576000916044839260405194859384926318b51d1360e21b8452602435600485015260248401525af180156101da57611a7c57005b611a8590611dba565b005b60405162461bcd60e51b815260206004820152602660248201527f4e6f7420617574686f72697a656420746f206d6f64696679207468697320636f6044820152651b9d1c9858dd60d21b6064820152608490fd5b9091506020813d8211611b0e575b81611af660209383611e01565b810103126101ce57611b07906120c8565b9084611a38565b3d9150611ae9565b346101ce576020806003193601126101ce5760043567ffffffffffffffff81116101ce57366023820112156101ce57806004013591611b5483611e23565b91611b626040519384611e01565b8383528183016024809560051b830101913683116101ce578501905b828210611d9b5750505060005b8251811015611a85576001600160a01b039081611ba8828661209e565b51169160405163ae200e7960e01b81528481600481875afa80156101da57600090611d65575b611bdc91508216331461220e565b604051631f34b45b60e11b8152908482600481875afa9182156101da57600092611d36575b50604051635647041760e01b81526004810183905285818981885afa9081156101da57600091611d09575b5015611c44575b5050611c3f915061208f565b611b8b565b833b156101ce576040516327dd486d60e21b81526004810183905293600085898183855af19081156101da576004958792611cfa575b5060405163a0a1a7d760e01b815295869182905afa80156101da57600090611cc4575b611c3f945060405192835216906000805160206122b4833981519152853392a38580611c33565b508484813d8311611cf3575b611cda8183611e01565b810103126101ce57611cee611c3f946120c8565b611c9d565b503d611cd0565b611d0390611dba565b89611c7a565b90508581813d8311611d2f575b611d208183611e01565b810103126101ce575188611c2c565b503d611d16565b9091508481813d8311611d5e575b611d4e8183611e01565b810103126101ce57519087611c01565b503d611d44565b508481813d8311611d94575b611d7b8183611e01565b810103126101ce57611d8f611bdc916120c8565b611bce565b503d611d71565b81356001600160a01b03811681036101ce578152908301908301611b7e565b67ffffffffffffffff8111611dce57604052565b634e487b7160e01b600052604160045260246000fd5b6101e0810190811067ffffffffffffffff821117611dce57604052565b90601f8019910116810190811067ffffffffffffffff821117611dce57604052565b67ffffffffffffffff8111611dce5760051b60200190565b600435906001600160a01b03821682036101ce57565b90815180825260208080930193019160005b828110611e71575050505090565b835185529381019392810192600101611e63565b60208082019080835283518092528060408094019401926000905b838210611eaf57505050505090565b845180516001600160a01b0390811688528185015116878501528082015187830152606080820151908801526080808201519088015260a0808201519088015260c08082015115159088015260e0808201511515908801526101008082015115159088015261012080820151908801526101408082015190880152610160808201519088015261018080820151908801526101a0808201511515908801526101c0908101511515908701526101e09095019493820193600190910190611ea0565b6040519060a0820182811067ffffffffffffffff821117611dce5760405260006080838281528260208201528260408201528260608201520152565b519081151582036101ce57565b15611fc057565b60405162461bcd60e51b815260206004820152601d60248201527f4e6f7420612072656769737465726564206f7267616e697a6174696f6e0000006044820152606490fd5b60209081818403126101ce5780519067ffffffffffffffff82116101ce57019180601f840112156101ce57825161203b81611e23565b936120496040519586611e01565b818552838086019260051b8201019283116101ce578301905b828210612070575050505090565b81516001600160a01b03811681036101ce578152908301908301612062565b6000198114610bbb5760010190565b80518210156120b25760209160051b010190565b634e487b7160e01b600052603260045260246000fd5b51906001600160a01b03821682036101ce57565b90816101209103126101ce576120f1816120c8565b916120fe602083016120c8565b9160408101519160608201519160808101519161211d60a08301611fac565b9161212a60c08201611fac565b9161010061213a60e08401611fac565b92015190565b91908201809211610bbb57565b9061215782611e23565b60409061216682519182611e01565b8381528093612177601f1991611e23565b019160005b8381106121895750505050565b602090825161219781611de4565b60008152826000818301526000858301526000606083015260006080830152600060a0830152600060c0830152600060e08301526000610100830152600061012083015260006101408301526000610160830152600061018083015260006101a083015260006101c083015282860101520161217c565b1561221557565b60405162461bcd60e51b815260206004820152603160248201527f4e6f7420617574686f72697a656420746f2067656e657261746520636f646520604482015270199bdc881d1a1a5cc818dbdb9d1c9858dd607a1b6064820152608490fd5b9061227e82611e23565b61228b6040519182611e01565b828152809261229c601f1991611e23565b0190602036910137565b91908203918211610bbb5756feeb86b0d028a6d10575e52ea262ac529e889fa50d503f92ecb3992ef26c4c11c5a264697066735822122032d07c1badc6a00e9fa3e1e579ee41302e46bdc326181156f4ae9d2ec9ccbc2364736f6c63430008130033","opcodes":"PUSH1 0x80 CALLVALUE PUSH2 0x74 JUMPI PUSH1 0x1F PUSH2 0x2399 CODESIZE DUP2 SWAP1 SUB SWAP2 DUP3 ADD PUSH1 0x1F NOT AND DUP4 ADD SWAP2 PUSH1 0x1 PUSH1 0x1 PUSH1 0x40 SHL SUB DUP4 GT DUP5 DUP5 LT OR PUSH2 0x79 JUMPI DUP1 DUP5 SWAP3 PUSH1 0x20 SWAP5 PUSH1 0x40 MSTORE DUP4 CODECOPY DUP2 ADD SUB SLT PUSH2 0x74 JUMPI MLOAD PUSH1 0x1 PUSH1 0x1 PUSH1 0xA0 SHL SUB DUP2 AND SWAP1 DUP2 SWAP1 SUB PUSH2 0x74 JUMPI PUSH1 0x0 DUP1 SLOAD PUSH1 0x1 PUSH1 0x1 PUSH1 0xA0 SHL SUB NOT AND SWAP2 SWAP1 SWAP2 OR SWAP1 SSTORE PUSH1 0x40 MLOAD PUSH2 0x2309 SWAP1 DUP2 PUSH2 0x90 DUP3 CODECOPY RETURN JUMPDEST PUSH1 0x0 DUP1 REVERT JUMPDEST PUSH4 0x4E487B71 PUSH1 0xE0 SHL PUSH1 0x0 MSTORE PUSH1 0x41 PUSH1 0x4 MSTORE PUSH1 0x24 PUSH1 0x0 REVERT INVALID PUSH1 0x80 PUSH1 0x40 MSTORE PUSH1 0x4 CALLDATASIZE LT ISZERO PUSH2 0x12 JUMPI PUSH1 0x0 DUP1 REVERT JUMPDEST PUSH1 0x0 CALLDATALOAD PUSH1 0xE0 SHR DUP1 PUSH4 0x27DDE58F EQ PUSH2 0x1B16 JUMPI DUP1 PUSH4 0x2CF23A3B EQ PUSH2 0x19DE JUMPI DUP1 PUSH4 0x3125ADA2 EQ PUSH2 0x18C5 JUMPI DUP1 PUSH4 0x32DF3F02 EQ PUSH2 0x1603 JUMPI DUP1 PUSH4 0x3A3B1E0A EQ PUSH2 0x145D JUMPI DUP1 PUSH4 0x58B86EBC EQ PUSH2 0x10A5 JUMPI DUP1 PUSH4 0x8026C0A3 EQ PUSH2 0xF1A JUMPI DUP1 PUSH4 0x8A3B3D0E EQ PUSH2 0xC9D JUMPI DUP1 PUSH4 0xB6DD1F66 EQ PUSH2 0x6FD JUMPI DUP1 PUSH4 0xC1DB564A EQ PUSH2 0x283 JUMPI DUP1 PUSH4 0xC45A0155 EQ PUSH2 0x25A JUMPI PUSH4 0xC81A1D55 EQ PUSH2 0xA0 JUMPI PUSH1 0x0 DUP1 REVERT JUMPDEST CALLVALUE PUSH2 0x1CE JUMPI PUSH1 0x20 DUP1 PUSH1 0x3 NOT CALLDATASIZE ADD SLT PUSH2 0x1CE JUMPI PUSH1 0x1 PUSH1 0x1 PUSH1 0xA0 SHL SUB DUP1 PUSH2 0xC3 PUSH2 0x1E3B JUMP JUMPDEST AND PUSH1 0x40 MLOAD PUSH4 0xAE200E79 PUSH1 0xE0 SHL DUP2 MSTORE DUP4 DUP2 PUSH1 0x4 DUP2 DUP6 GAS STATICCALL DUP1 ISZERO PUSH2 0x1DA JUMPI PUSH1 0x0 SWAP1 PUSH2 0x224 JUMPI JUMPDEST PUSH2 0xF5 SWAP2 POP DUP4 AND CALLER EQ PUSH2 0x220E JUMP JUMPDEST PUSH1 0x40 MLOAD PUSH4 0x1F34B45B PUSH1 0xE1 SHL DUP2 MSTORE SWAP2 DUP4 DUP4 PUSH1 0x4 DUP2 DUP6 GAS STATICCALL SWAP3 DUP4 ISZERO PUSH2 0x1DA JUMPI PUSH1 0x0 SWAP4 PUSH2 0x1F5 JUMPI JUMPDEST POP DUP2 EXTCODESIZE ISZERO PUSH2 0x1CE JUMPI PUSH1 0x40 MLOAD PUSH4 0x27DD486D PUSH1 0xE2 SHL DUP2 MSTORE PUSH1 0x4 DUP2 ADD DUP5 SWAP1 MSTORE SWAP2 PUSH1 0x0 DUP4 PUSH1 0x24 DUP2 DUP4 DUP6 GAS CALL SWAP1 DUP2 ISZERO PUSH2 0x1DA JUMPI PUSH1 0x4 SWAP4 DUP7 SWAP3 PUSH2 0x1E6 JUMPI JUMPDEST POP PUSH1 0x40 MLOAD PUSH4 0xA0A1A7D7 PUSH1 0xE0 SHL DUP2 MSTORE SWAP4 DUP5 SWAP2 DUP3 SWAP1 GAS STATICCALL DUP1 ISZERO PUSH2 0x1DA JUMPI PUSH1 0x0 SWAP1 PUSH2 0x193 JUMPI JUMPDEST PUSH1 0x0 DUP1 MLOAD PUSH1 0x20 PUSH2 0x22B4 DUP4 CODECOPY DUP2 MLOAD SWAP2 MSTORE SWAP3 POP PUSH1 0x40 MLOAD SWAP4 DUP5 MSTORE AND SWAP3 CALLER SWAP3 LOG3 STOP JUMPDEST POP DUP4 DUP3 DUP2 RETURNDATASIZE DUP4 GT PUSH2 0x1D3 JUMPI JUMPDEST PUSH2 0x1A9 DUP2 DUP4 PUSH2 0x1E01 JUMP JUMPDEST DUP2 ADD SUB SLT PUSH2 0x1CE JUMPI PUSH2 0x1C9 PUSH1 0x0 DUP1 MLOAD PUSH1 0x20 PUSH2 0x22B4 DUP4 CODECOPY DUP2 MLOAD SWAP2 MSTORE SWAP3 PUSH2 0x20C8 JUMP JUMPDEST PUSH2 0x175 JUMP JUMPDEST PUSH1 0x0 DUP1 REVERT JUMPDEST POP RETURNDATASIZE PUSH2 0x19F JUMP JUMPDEST PUSH1 0x40 MLOAD RETURNDATASIZE PUSH1 0x0 DUP3 RETURNDATACOPY RETURNDATASIZE SWAP1 REVERT JUMPDEST PUSH2 0x1EF SWAP1 PUSH2 0x1DBA JUMP JUMPDEST CODESIZE PUSH2 0x152 JUMP JUMPDEST SWAP1 SWAP3 POP DUP4 DUP2 DUP2 RETURNDATASIZE DUP4 GT PUSH2 0x21D JUMPI JUMPDEST PUSH2 0x20D DUP2 DUP4 PUSH2 0x1E01 JUMP JUMPDEST DUP2 ADD SUB SLT PUSH2 0x1CE JUMPI MLOAD SWAP2 CODESIZE PUSH2 0x11A JUMP JUMPDEST POP RETURNDATASIZE PUSH2 0x203 JUMP JUMPDEST POP DUP4 DUP2 DUP2 RETURNDATASIZE DUP4 GT PUSH2 0x253 JUMPI JUMPDEST PUSH2 0x23A DUP2 DUP4 PUSH2 0x1E01 JUMP JUMPDEST DUP2 ADD SUB SLT PUSH2 0x1CE JUMPI PUSH2 0x24E PUSH2 0xF5 SWAP2 PUSH2 0x20C8 JUMP JUMPDEST PUSH2 0xE7 JUMP JUMPDEST POP RETURNDATASIZE PUSH2 0x230 JUMP JUMPDEST CALLVALUE PUSH2 0x1CE JUMPI PUSH1 0x0 CALLDATASIZE PUSH1 0x3 NOT ADD SLT PUSH2 0x1CE JUMPI PUSH1 0x0 SLOAD PUSH1 0x40 MLOAD PUSH1 0x1 PUSH1 0x1 PUSH1 0xA0 SHL SUB SWAP1 SWAP2 AND DUP2 MSTORE PUSH1 0x20 SWAP1 RETURN JUMPDEST CALLVALUE PUSH2 0x1CE JUMPI PUSH1 0x20 CALLDATASIZE PUSH1 0x3 NOT ADD SLT PUSH2 0x1CE JUMPI PUSH2 0x29C PUSH2 0x1E3B JUMP JUMPDEST PUSH1 0x0 SLOAD PUSH1 0x40 MLOAD PUSH4 0xB1CE8EAB PUSH1 0xE0 SHL DUP2 MSTORE PUSH1 0x1 PUSH1 0x1 PUSH1 0xA0 SHL SUB SWAP3 DUP4 AND PUSH1 0x4 DUP3 ADD DUP2 SWAP1 MSTORE SWAP3 SWAP1 SWAP2 AND SWAP2 PUSH1 0x20 DUP3 PUSH1 0x24 DUP2 DUP7 GAS STATICCALL SWAP2 DUP3 ISZERO PUSH2 0x1DA JUMPI PUSH1 0x0 SWAP3 PUSH2 0x6BD JUMPI JUMPDEST POP PUSH2 0x2E7 PUSH1 0x0 SWAP3 PUSH2 0x1FB9 JUMP JUMPDEST PUSH1 0x24 PUSH1 0x40 MLOAD DUP1 SWAP5 DUP2 SWAP4 PUSH4 0x5AC68209 PUSH1 0xE0 SHL DUP4 MSTORE PUSH1 0x4 DUP4 ADD MSTORE GAS STATICCALL SWAP1 DUP2 ISZERO PUSH2 0x1DA JUMPI PUSH1 0x0 SWAP2 PUSH2 0x69A JUMPI JUMPDEST POP PUSH2 0x31B DUP2 MLOAD PUSH2 0x214D JUMP JUMPDEST PUSH1 0x0 JUMPDEST DUP3 MLOAD DUP2 LT ISZERO PUSH2 0x688 JUMPI PUSH1 0x1 PUSH1 0x1 PUSH1 0xA0 SHL SUB PUSH2 0x339 DUP3 DUP6 PUSH2 0x209E JUMP JUMPDEST MLOAD PUSH1 0x40 MLOAD PUSH4 0x7CC1F867 PUSH1 0xE0 SHL DUP2 MSTORE SWAP2 AND PUSH2 0x120 DUP3 PUSH1 0x4 DUP2 DUP5 GAS STATICCALL SWAP1 DUP2 ISZERO PUSH2 0x1DA JUMPI PUSH1 0x0 SWAP3 PUSH1 0x0 SWAP3 PUSH1 0x0 DUP1 SWAP2 PUSH1 0x0 SWAP4 PUSH1 0x0 DUP1 SWAP2 PUSH1 0x0 SWAP4 PUSH2 0x641 JUMPI JUMPDEST POP PUSH1 0x40 MLOAD PUSH4 0x1F34B45B PUSH1 0xE1 SHL DUP2 MSTORE SWAP6 PUSH1 0x20 DUP8 PUSH1 0x4 DUP2 DUP12 GAS STATICCALL SWAP7 DUP8 ISZERO PUSH2 0x1DA JUMPI PUSH1 0x0 SWAP8 PUSH2 0x60D JUMPI JUMPDEST POP PUSH1 0x40 MLOAD PUSH4 0x404ED5B5 PUSH1 0xE1 SHL DUP2 MSTORE PUSH1 0x20 DUP2 PUSH1 0x4 DUP2 DUP13 GAS STATICCALL SWAP1 DUP2 ISZERO PUSH2 0x1DA JUMPI PUSH1 0x0 SWAP2 PUSH2 0x5DB JUMPI JUMPDEST POP PUSH1 0x40 MLOAD PUSH4 0x5CBDE43 PUSH1 0xE1 SHL DUP2 MSTORE SWAP7 PUSH1 0x20 DUP9 PUSH1 0x4 DUP2 DUP14 GAS STATICCALL SWAP7 DUP8 ISZERO PUSH2 0x1DA JUMPI PUSH1 0x0 SWAP8 PUSH2 0x5A6 JUMPI JUMPDEST PUSH1 0x40 MLOAD PUSH4 0x6A246E7 PUSH1 0xE4 SHL DUP2 MSTORE SWAP9 POP PUSH1 0x20 DUP10 PUSH1 0x4 DUP2 DUP15 GAS STATICCALL SWAP9 DUP10 ISZERO PUSH2 0x1DA JUMPI PUSH1 0x0 SWAP10 PUSH2 0x572 JUMPI JUMPDEST POP PUSH1 0x40 MLOAD PUSH4 0x182D70E5 PUSH1 0xE3 SHL DUP2 MSTORE PUSH1 0x4 DUP2 ADD DUP12 SWAP1 MSTORE SWAP12 DUP13 DUP1 DUP14 GAS SWAP3 PUSH1 0x24 SWAP2 PUSH1 0x20 SWAP5 STATICCALL SWAP12 DUP13 ISZERO PUSH2 0x1DA JUMPI PUSH1 0x0 SWAP13 PUSH2 0x536 JUMPI JUMPDEST PUSH1 0x40 MLOAD PUSH4 0x56470417 PUSH1 0xE0 SHL DUP2 MSTORE PUSH1 0x4 DUP2 ADD DUP14 SWAP1 MSTORE SWAP14 POP PUSH1 0x20 DUP15 PUSH1 0x24 DUP2 DUP5 GAS STATICCALL SWAP14 DUP15 ISZERO PUSH2 0x1DA JUMPI PUSH1 0x0 SWAP15 PUSH2 0x502 JUMPI JUMPDEST POP PUSH1 0x40 MLOAD SWAP15 DUP16 SWAP2 PUSH2 0x47D DUP4 PUSH2 0x1DE4 JUMP JUMPDEST DUP3 MSTORE PUSH1 0x1 PUSH1 0x1 PUSH1 0xA0 SHL SUB AND PUSH1 0x20 DUP3 ADD MSTORE PUSH1 0x40 ADD MSTORE PUSH1 0x60 DUP14 ADD MSTORE PUSH1 0x80 DUP13 ADD MSTORE PUSH1 0xA0 DUP12 ADD MSTORE ISZERO ISZERO PUSH1 0xC0 DUP11 ADD MSTORE ISZERO ISZERO PUSH1 0xE0 DUP10 ADD MSTORE ISZERO ISZERO PUSH2 0x100 DUP9 ADD MSTORE PUSH2 0x120 DUP8 ADD MSTORE PUSH2 0x140 DUP7 ADD MSTORE PUSH2 0x160 DUP6 ADD MSTORE PUSH2 0x180 DUP5 ADD MSTORE ISZERO ISZERO PUSH2 0x1A0 DUP4 ADD MSTORE ISZERO ISZERO PUSH2 0x1C0 DUP3 ADD MSTORE PUSH2 0x4E8 DUP3 DUP5 PUSH2 0x209E JUMP JUMPDEST MSTORE PUSH2 0x4F3 DUP2 DUP4 PUSH2 0x209E JUMP JUMPDEST POP PUSH2 0x4FD SWAP1 PUSH2 0x208F JUMP JUMPDEST PUSH2 0x31E JUMP JUMPDEST SWAP1 SWAP14 POP PUSH1 0x20 DUP2 RETURNDATASIZE PUSH1 0x20 GT PUSH2 0x52E JUMPI JUMPDEST DUP2 PUSH2 0x51E PUSH1 0x20 SWAP4 DUP4 PUSH2 0x1E01 JUMP JUMPDEST DUP2 ADD SUB SLT PUSH2 0x1CE JUMPI MLOAD SWAP13 CODESIZE PUSH2 0x46D JUMP JUMPDEST RETURNDATASIZE SWAP2 POP PUSH2 0x511 JUMP JUMPDEST SWAP12 POP PUSH1 0x20 DUP14 RETURNDATASIZE PUSH1 0x20 GT PUSH2 0x56A JUMPI JUMPDEST DUP2 PUSH2 0x551 PUSH1 0x20 SWAP4 DUP4 PUSH2 0x1E01 JUMP JUMPDEST DUP2 ADD SUB SLT PUSH2 0x1CE JUMPI PUSH2 0x564 PUSH1 0x20 SWAP14 PUSH2 0x1FAC JUMP JUMPDEST SWAP12 PUSH2 0x43F JUMP JUMPDEST RETURNDATASIZE SWAP2 POP PUSH2 0x544 JUMP JUMPDEST SWAP1 SWAP9 POP PUSH1 0x20 DUP2 RETURNDATASIZE PUSH1 0x20 GT PUSH2 0x59E JUMPI JUMPDEST DUP2 PUSH2 0x58E PUSH1 0x20 SWAP4 DUP4 PUSH2 0x1E01 JUMP JUMPDEST DUP2 ADD SUB SLT PUSH2 0x1CE JUMPI MLOAD SWAP8 CODESIZE PUSH2 0x40E JUMP JUMPDEST RETURNDATASIZE SWAP2 POP PUSH2 0x581 JUMP JUMPDEST SWAP7 POP PUSH1 0x20 DUP9 RETURNDATASIZE PUSH1 0x20 GT PUSH2 0x5D3 JUMPI JUMPDEST DUP2 PUSH2 0x5C1 PUSH1 0x20 SWAP4 DUP4 PUSH2 0x1E01 JUMP JUMPDEST DUP2 ADD SUB SLT PUSH2 0x1CE JUMPI PUSH1 0x4 SWAP8 MLOAD SWAP7 PUSH2 0x3E7 JUMP JUMPDEST RETURNDATASIZE SWAP2 POP PUSH2 0x5B4 JUMP JUMPDEST SWAP1 POP PUSH1 0x20 DUP2 RETURNDATASIZE PUSH1 0x20 GT PUSH2 0x605 JUMPI JUMPDEST DUP2 PUSH2 0x5F6 PUSH1 0x20 SWAP4 DUP4 PUSH2 0x1E01 JUMP JUMPDEST DUP2 ADD SUB SLT PUSH2 0x1CE JUMPI MLOAD DUP15 PUSH2 0x3C0 JUMP JUMPDEST RETURNDATASIZE SWAP2 POP PUSH2 0x5E9 JUMP JUMPDEST SWAP1 SWAP7 POP PUSH1 0x20 DUP2 RETURNDATASIZE PUSH1 0x20 GT PUSH2 0x639 JUMPI JUMPDEST DUP2 PUSH2 0x629 PUSH1 0x20 SWAP4 DUP4 PUSH2 0x1E01 JUMP JUMPDEST DUP2 ADD SUB SLT PUSH2 0x1CE JUMPI MLOAD SWAP6 DUP14 PUSH2 0x39A JUMP JUMPDEST RETURNDATASIZE SWAP2 POP PUSH2 0x61C JUMP JUMPDEST SWAP7 SWAP9 POP POP POP POP POP POP POP PUSH2 0x66E SWAP2 POP PUSH2 0x120 RETURNDATASIZE PUSH2 0x120 GT PUSH2 0x681 JUMPI JUMPDEST PUSH2 0x666 DUP2 DUP4 PUSH2 0x1E01 JUMP JUMPDEST DUP2 ADD SWAP1 PUSH2 0x20DC JUMP JUMPDEST SWAP7 SWAP9 SWAP6 SWAP8 POP SWAP5 SWAP6 SWAP2 SWAP5 SWAP3 SWAP4 SWAP3 SWAP1 DUP13 PUSH2 0x373 JUMP JUMPDEST POP RETURNDATASIZE PUSH2 0x65C JUMP JUMPDEST PUSH1 0x40 MLOAD DUP1 PUSH2 0x696 DUP5 DUP3 PUSH2 0x1E85 JUMP JUMPDEST SUB SWAP1 RETURN JUMPDEST PUSH2 0x6B7 SWAP2 POP RETURNDATASIZE DUP1 PUSH1 0x0 DUP4 RETURNDATACOPY PUSH2 0x6AF DUP2 DUP4 PUSH2 0x1E01 JUMP JUMPDEST DUP2 ADD SWAP1 PUSH2 0x2005 JUMP JUMPDEST DUP2 PUSH2 0x310 JUMP JUMPDEST SWAP2 POP PUSH1 0x20 DUP3 RETURNDATASIZE PUSH1 0x20 GT PUSH2 0x6F5 JUMPI JUMPDEST DUP2 PUSH2 0x6D8 PUSH1 0x20 SWAP4 DUP4 PUSH2 0x1E01 JUMP JUMPDEST DUP2 ADD SUB SLT PUSH2 0x1CE JUMPI PUSH2 0x2E7 PUSH2 0x6EE PUSH1 0x0 SWAP4 PUSH2 0x1FAC JUMP JUMPDEST SWAP3 POP PUSH2 0x2DB JUMP JUMPDEST RETURNDATASIZE SWAP2 POP PUSH2 0x6CB JUMP JUMPDEST CALLVALUE PUSH2 0x1CE JUMPI PUSH1 0x40 CALLDATASIZE PUSH1 0x3 NOT ADD SLT PUSH2 0x1CE JUMPI PUSH2 0x716 PUSH2 0x1E3B JUMP JUMPDEST PUSH1 0x0 SLOAD PUSH1 0x40 MLOAD PUSH4 0xB1CE8EAB PUSH1 0xE0 SHL DUP2 MSTORE PUSH1 0x1 PUSH1 0x1 PUSH1 0xA0 SHL SUB SWAP3 DUP4 AND PUSH1 0x4 DUP3 ADD DUP2 SWAP1 MSTORE PUSH1 0x24 DUP1 CALLDATALOAD SWAP5 SWAP1 SWAP4 AND SWAP3 PUSH1 0x20 SWAP1 DUP4 SWAP1 DUP2 DUP7 GAS STATICCALL SWAP2 DUP3 ISZERO PUSH2 0x1DA JUMPI PUSH1 0x0 SWAP3 PUSH2 0xC5D JUMPI JUMPDEST POP PUSH2 0x765 PUSH1 0x0 SWAP3 PUSH2 0x1FB9 JUMP JUMPDEST PUSH1 0x24 PUSH1 0x40 MLOAD DUP1 SWAP5 DUP2 SWAP4 PUSH4 0x5AC68209 PUSH1 0xE0 SHL DUP4 MSTORE PUSH1 0x4 DUP4 ADD MSTORE GAS STATICCALL SWAP1 DUP2 ISZERO PUSH2 0x1DA JUMPI PUSH1 0x0 SWAP2 PUSH2 0xC42 JUMPI JUMPDEST POP PUSH2 0x799 DUP2 MLOAD PUSH2 0x214D JUMP JUMPDEST SWAP1 PUSH1 0x0 JUMPDEST DUP2 MLOAD DUP2 LT ISZERO PUSH2 0xAF7 JUMPI PUSH1 0x1 PUSH1 0x1 PUSH1 0xA0 SHL SUB PUSH2 0x7B8 DUP3 DUP5 PUSH2 0x209E JUMP JUMPDEST MLOAD PUSH1 0x40 MLOAD PUSH4 0x7CC1F867 PUSH1 0xE0 SHL DUP2 MSTORE SWAP2 AND PUSH2 0x120 DUP3 PUSH1 0x4 DUP2 DUP5 GAS STATICCALL SWAP1 DUP2 ISZERO PUSH2 0x1DA JUMPI PUSH1 0x0 SWAP3 PUSH1 0x0 SWAP3 PUSH1 0x0 DUP1 SWAP2 PUSH1 0x0 SWAP4 PUSH1 0x0 DUP1 SWAP2 PUSH1 0x0 SWAP4 PUSH2 0xAC0 JUMPI JUMPDEST POP PUSH1 0x40 MLOAD PUSH4 0x1F34B45B PUSH1 0xE1 SHL DUP2 MSTORE SWAP6 PUSH1 0x20 DUP8 PUSH1 0x4 DUP2 DUP12 GAS STATICCALL SWAP7 DUP8 ISZERO PUSH2 0x1DA JUMPI PUSH1 0x0 SWAP8 PUSH2 0xA8C JUMPI JUMPDEST POP PUSH1 0x40 MLOAD PUSH4 0x404ED5B5 PUSH1 0xE1 SHL DUP2 MSTORE PUSH1 0x20 DUP2 PUSH1 0x4 DUP2 DUP13 GAS STATICCALL SWAP1 DUP2 ISZERO PUSH2 0x1DA JUMPI PUSH1 0x0 SWAP2 PUSH2 0xA5A JUMPI JUMPDEST POP PUSH1 0x40 MLOAD PUSH4 0x5CBDE43 PUSH1 0xE1 SHL DUP2 MSTORE SWAP7 PUSH1 0x20 DUP9 PUSH1 0x4 DUP2 DUP14 GAS STATICCALL SWAP7 DUP8 ISZERO PUSH2 0x1DA JUMPI PUSH1 0x0 SWAP8 PUSH2 0xA25 JUMPI JUMPDEST PUSH1 0x40 MLOAD PUSH4 0x6A246E7 PUSH1 0xE4 SHL DUP2 MSTORE SWAP9 POP PUSH1 0x20 DUP10 PUSH1 0x4 DUP2 DUP15 GAS STATICCALL SWAP9 DUP10 ISZERO PUSH2 0x1DA JUMPI PUSH1 0x0 SWAP10 PUSH2 0x9F1 JUMPI JUMPDEST POP PUSH1 0x40 MLOAD PUSH4 0x182D70E5 PUSH1 0xE3 SHL DUP2 MSTORE PUSH1 0x4 DUP2 ADD DUP12 SWAP1 MSTORE SWAP12 DUP13 DUP1 DUP14 GAS SWAP3 PUSH1 0x24 SWAP2 PUSH1 0x20 SWAP5 STATICCALL SWAP12 DUP13 ISZERO PUSH2 0x1DA JUMPI PUSH1 0x0 SWAP13 PUSH2 0x9B5 JUMPI JUMPDEST PUSH1 0x40 MLOAD PUSH4 0x56470417 PUSH1 0xE0 SHL DUP2 MSTORE PUSH1 0x4 DUP2 ADD DUP14 SWAP1 MSTORE SWAP14 POP PUSH1 0x20 DUP15 PUSH1 0x24 DUP2 DUP5 GAS STATICCALL SWAP14 DUP15 ISZERO PUSH2 0x1DA JUMPI PUSH1 0x0 SWAP15 PUSH2 0x981 JUMPI JUMPDEST POP PUSH1 0x40 MLOAD SWAP15 DUP16 SWAP2 PUSH2 0x8FC DUP4 PUSH2 0x1DE4 JUMP JUMPDEST DUP3 MSTORE PUSH1 0x1 PUSH1 0x1 PUSH1 0xA0 SHL SUB AND PUSH1 0x20 DUP3 ADD MSTORE PUSH1 0x40 ADD MSTORE PUSH1 0x60 DUP14 ADD MSTORE PUSH1 0x80 DUP13 ADD MSTORE PUSH1 0xA0 DUP12 ADD MSTORE ISZERO ISZERO PUSH1 0xC0 DUP11 ADD MSTORE ISZERO ISZERO PUSH1 0xE0 DUP10 ADD MSTORE ISZERO ISZERO PUSH2 0x100 DUP9 ADD MSTORE PUSH2 0x120 DUP8 ADD MSTORE PUSH2 0x140 DUP7 ADD MSTORE PUSH2 0x160 DUP6 ADD MSTORE PUSH2 0x180 DUP5 ADD MSTORE ISZERO ISZERO PUSH2 0x1A0 DUP4 ADD MSTORE ISZERO ISZERO PUSH2 0x1C0 DUP3 ADD MSTORE PUSH2 0x967 DUP3 DUP6 PUSH2 0x209E JUMP JUMPDEST MSTORE PUSH2 0x972 DUP2 DUP5 PUSH2 0x209E JUMP JUMPDEST POP PUSH2 0x97C SWAP1 PUSH2 0x208F JUMP JUMPDEST PUSH2 0x79D JUMP JUMPDEST SWAP1 SWAP14 POP PUSH1 0x20 DUP2 RETURNDATASIZE PUSH1 0x20 GT PUSH2 0x9AD JUMPI JUMPDEST DUP2 PUSH2 0x99D PUSH1 0x20 SWAP4 DUP4 PUSH2 0x1E01 JUMP JUMPDEST DUP2 ADD SUB SLT PUSH2 0x1CE JUMPI MLOAD SWAP13 CODESIZE PUSH2 0x8EC JUMP JUMPDEST RETURNDATASIZE SWAP2 POP PUSH2 0x990 JUMP JUMPDEST SWAP12 POP PUSH1 0x20 DUP14 RETURNDATASIZE PUSH1 0x20 GT PUSH2 0x9E9 JUMPI JUMPDEST DUP2 PUSH2 0x9D0 PUSH1 0x20 SWAP4 DUP4 PUSH2 0x1E01 JUMP JUMPDEST DUP2 ADD SUB SLT PUSH2 0x1CE JUMPI PUSH2 0x9E3 PUSH1 0x20 SWAP14 PUSH2 0x1FAC JUMP JUMPDEST SWAP12 PUSH2 0x8BE JUMP JUMPDEST RETURNDATASIZE SWAP2 POP PUSH2 0x9C3 JUMP JUMPDEST SWAP1 SWAP9 POP PUSH1 0x20 DUP2 RETURNDATASIZE PUSH1 0x20 GT PUSH2 0xA1D JUMPI JUMPDEST DUP2 PUSH2 0xA0D PUSH1 0x20 SWAP4 DUP4 PUSH2 0x1E01 JUMP JUMPDEST DUP2 ADD SUB SLT PUSH2 0x1CE JUMPI MLOAD SWAP8 CODESIZE PUSH2 0x88D JUMP JUMPDEST RETURNDATASIZE SWAP2 POP PUSH2 0xA00 JUMP JUMPDEST SWAP7 POP PUSH1 0x20 DUP9 RETURNDATASIZE PUSH1 0x20 GT PUSH2 0xA52 JUMPI JUMPDEST DUP2 PUSH2 0xA40 PUSH1 0x20 SWAP4 DUP4 PUSH2 0x1E01 JUMP JUMPDEST DUP2 ADD SUB SLT PUSH2 0x1CE JUMPI PUSH1 0x4 SWAP8 MLOAD SWAP7 PUSH2 0x866 JUMP JUMPDEST RETURNDATASIZE SWAP2 POP PUSH2 0xA33 JUMP JUMPDEST SWAP1 POP PUSH1 0x20 DUP2 RETURNDATASIZE PUSH1 0x20 GT PUSH2 0xA84 JUMPI JUMPDEST DUP2 PUSH2 0xA75 PUSH1 0x20 SWAP4 DUP4 PUSH2 0x1E01 JUMP JUMPDEST DUP2 ADD SUB SLT PUSH2 0x1CE JUMPI MLOAD DUP16 PUSH2 0x83F JUMP JUMPDEST RETURNDATASIZE SWAP2 POP PUSH2 0xA68 JUMP JUMPDEST SWAP1 SWAP7 POP PUSH1 0x20 DUP2 RETURNDATASIZE PUSH1 0x20 GT PUSH2 0xAB8 JUMPI JUMPDEST DUP2 PUSH2 0xAA8 PUSH1 0x20 SWAP4 DUP4 PUSH2 0x1E01 JUMP JUMPDEST DUP2 ADD SUB SLT PUSH2 0x1CE JUMPI MLOAD SWAP6 DUP15 PUSH2 0x819 JUMP JUMPDEST RETURNDATASIZE SWAP2 POP PUSH2 0xA9B JUMP JUMPDEST SWAP7 SWAP9 POP POP POP POP POP POP POP PUSH2 0xAE4 SWAP2 POP PUSH2 0x120 RETURNDATASIZE PUSH2 0x120 GT PUSH2 0x681 JUMPI PUSH2 0x666 DUP2 DUP4 PUSH2 0x1E01 JUMP JUMPDEST SWAP7 SWAP9 SWAP6 SWAP8 POP SWAP5 SWAP6 SWAP2 SWAP5 SWAP3 SWAP4 SWAP3 SWAP1 DUP14 PUSH2 0x7F2 JUMP JUMPDEST DUP3 DUP5 PUSH1 0x0 JUMPDEST DUP3 MLOAD PUSH1 0x0 NOT SWAP3 SWAP1 DUP4 DUP2 ADD SWAP1 DUP2 GT PUSH2 0xBBB JUMPI DUP3 LT ISZERO PUSH2 0xBE2 JUMPI PUSH1 0x0 JUMPDEST DUP5 MLOAD DUP5 DUP2 ADD SWAP1 DUP2 GT PUSH2 0xBBB JUMPI DUP4 PUSH2 0xB2D SWAP2 PUSH2 0x22A6 JUMP JUMPDEST DUP2 LT ISZERO PUSH2 0xBD1 JUMPI PUSH1 0x60 SWAP1 DUP2 PUSH2 0xB42 DUP3 DUP9 PUSH2 0x209E JUMP JUMPDEST MLOAD ADD MLOAD PUSH1 0x1 DUP3 ADD SWAP1 DUP2 DUP4 GT PUSH2 0xBBB JUMPI PUSH2 0xB6E SWAP4 PUSH2 0xB5F DUP4 DUP11 PUSH2 0x209E JUMP JUMPDEST MLOAD ADD MLOAD GT PUSH2 0xB73 JUMPI JUMPDEST POP PUSH2 0x208F JUMP JUMPDEST PUSH2 0xB17 JUMP JUMPDEST PUSH2 0xBB4 SWAP1 PUSH2 0xB81 DUP4 DUP10 PUSH2 0x209E JUMP JUMPDEST MLOAD PUSH2 0xB8C DUP3 DUP11 PUSH2 0x209E JUMP JUMPDEST MLOAD PUSH2 0xB97 DUP6 DUP12 PUSH2 0x209E JUMP JUMPDEST MSTORE PUSH2 0xBA2 DUP5 DUP11 PUSH2 0x209E JUMP JUMPDEST POP PUSH2 0xBAD DUP3 DUP11 PUSH2 0x209E JUMP JUMPDEST MSTORE DUP8 PUSH2 0x209E JUMP JUMPDEST POP DUP7 PUSH2 0xB68 JUMP JUMPDEST PUSH4 0x4E487B71 PUSH1 0xE0 SHL PUSH1 0x0 MSTORE PUSH1 0x11 PUSH1 0x4 MSTORE PUSH1 0x24 PUSH1 0x0 REVERT JUMPDEST POP SWAP2 POP PUSH2 0xBDD SWAP1 PUSH2 0x208F JUMP JUMPDEST PUSH2 0xAFC JUMP JUMPDEST DUP4 MLOAD DUP5 SWAP2 DUP2 DUP2 GT ISZERO PUSH2 0xC3B JUMPI POP JUMPDEST PUSH2 0xBF9 DUP2 PUSH2 0x214D JUMP JUMPDEST SWAP2 PUSH1 0x0 JUMPDEST DUP3 DUP2 LT PUSH2 0xC12 JUMPI PUSH1 0x40 MLOAD DUP1 PUSH2 0x696 DUP7 DUP3 PUSH2 0x1E85 JUMP JUMPDEST DUP1 PUSH2 0xC20 PUSH2 0xC36 SWAP3 DUP5 PUSH2 0x209E JUMP JUMPDEST MLOAD PUSH2 0xC2B DUP3 DUP8 PUSH2 0x209E JUMP JUMPDEST MSTORE PUSH2 0xB68 DUP2 DUP7 PUSH2 0x209E JUMP JUMPDEST PUSH2 0xBFD JUMP JUMPDEST SWAP1 POP PUSH2 0xBF0 JUMP JUMPDEST PUSH2 0xC57 SWAP2 POP RETURNDATASIZE DUP1 PUSH1 0x0 DUP4 RETURNDATACOPY PUSH2 0x6AF DUP2 DUP4 PUSH2 0x1E01 JUMP JUMPDEST DUP3 PUSH2 0x78E JUMP JUMPDEST SWAP2 POP PUSH1 0x20 DUP3 RETURNDATASIZE PUSH1 0x20 GT PUSH2 0xC95 JUMPI JUMPDEST DUP2 PUSH2 0xC78 PUSH1 0x20 SWAP4 DUP4 PUSH2 0x1E01 JUMP JUMPDEST DUP2 ADD SUB SLT PUSH2 0x1CE JUMPI PUSH2 0x765 PUSH2 0xC8E PUSH1 0x0 SWAP4 PUSH2 0x1FAC JUMP JUMPDEST SWAP3 POP PUSH2 0x759 JUMP JUMPDEST RETURNDATASIZE SWAP2 POP PUSH2 0xC6B JUMP JUMPDEST CALLVALUE PUSH2 0x1CE JUMPI PUSH1 0x20 DUP1 PUSH1 0x3 NOT CALLDATASIZE ADD SLT PUSH2 0x1CE JUMPI PUSH2 0xCB7 PUSH2 0x1E3B JUMP JUMPDEST SWAP1 PUSH2 0xCC0 PUSH2 0x1F70 JUMP JUMPDEST POP PUSH1 0x0 SLOAD PUSH1 0x40 MLOAD PUSH4 0xB1CE8EAB PUSH1 0xE0 SHL DUP2 MSTORE PUSH1 0x1 PUSH1 0x1 PUSH1 0xA0 SHL SUB SWAP4 DUP5 AND PUSH1 0x4 DUP3 ADD DUP2 SWAP1 MSTORE SWAP2 DUP5 AND SWAP2 DUP4 DUP3 PUSH1 0x24 DUP2 DUP7 GAS STATICCALL SWAP2 DUP3 ISZERO PUSH2 0x1DA JUMPI PUSH1 0x0 SWAP3 PUSH2 0xEDF JUMPI JUMPDEST POP PUSH2 0xD0A PUSH1 0x0 SWAP3 PUSH2 0x1FB9 JUMP JUMPDEST PUSH1 0x24 PUSH1 0x40 MLOAD DUP1 SWAP5 DUP2 SWAP4 PUSH4 0x5AC68209 PUSH1 0xE0 SHL DUP4 MSTORE PUSH1 0x4 DUP4 ADD MSTORE GAS STATICCALL SWAP1 DUP2 ISZERO PUSH2 0x1DA JUMPI PUSH1 0x0 SWAP2 PUSH2 0xEC4 JUMPI JUMPDEST POP SWAP1 PUSH2 0xD3D PUSH2 0x1F70 JUMP JUMPDEST PUSH1 0x0 SWAP2 PUSH1 0x40 DUP3 ADD SWAP5 PUSH1 0x60 DUP4 ADD SWAP4 JUMPDEST DUP6 MLOAD DUP2 LT ISZERO PUSH2 0xE97 JUMPI DUP2 PUSH2 0xD5F DUP3 DUP9 PUSH2 0x209E JUMP JUMPDEST MLOAD AND PUSH1 0x40 MLOAD SWAP2 PUSH4 0x7CC1F867 PUSH1 0xE0 SHL DUP4 MSTORE PUSH2 0x120 SWAP3 DUP4 DUP2 PUSH1 0x4 DUP2 DUP7 GAS STATICCALL SWAP3 DUP4 ISZERO PUSH2 0x1DA JUMPI DUP7 SWAP2 PUSH1 0x0 SWAP5 PUSH1 0x0 SWAP2 PUSH1 0x0 SWAP2 PUSH2 0xE64 JUMPI JUMPDEST POP PUSH1 0x4 SWAP5 SWAP6 SWAP7 POP DUP2 PUSH2 0xDA4 DUP12 MLOAD PUSH2 0x208F JUMP JUMPDEST DUP12 MSTORE PUSH2 0xE50 JUMPI JUMPDEST ISZERO SWAP1 DUP2 PUSH2 0xE48 JUMPI JUMPDEST POP PUSH2 0xE33 JUMPI JUMPDEST PUSH1 0x40 MLOAD PUSH4 0x6F8DFE1 PUSH1 0xE2 SHL DUP2 MSTORE SWAP3 DUP4 SWAP2 DUP3 SWAP1 GAS STATICCALL SWAP1 DUP2 ISZERO PUSH2 0x1DA JUMPI PUSH1 0x0 SWAP2 PUSH2 0xE04 JUMPI JUMPDEST POP PUSH2 0xDFF SWAP3 PUSH2 0xDEF PUSH2 0xDF8 SWAP3 DUP12 MLOAD PUSH2 0x2140 JUMP JUMPDEST DUP11 MSTORE DUP8 MLOAD PUSH2 0x2140 JUMP JUMPDEST DUP7 MSTORE PUSH2 0x208F JUMP JUMPDEST PUSH2 0xD4B JUMP JUMPDEST SWAP1 POP DUP5 DUP2 DUP2 RETURNDATASIZE DUP4 GT PUSH2 0xE2C JUMPI JUMPDEST PUSH2 0xE1B DUP2 DUP4 PUSH2 0x1E01 JUMP JUMPDEST DUP2 ADD SUB SLT PUSH2 0x1CE JUMPI MLOAD PUSH2 0xDFF PUSH2 0xDDC JUMP JUMPDEST POP RETURNDATASIZE PUSH2 0xE11 JUMP JUMPDEST PUSH1 0x80 DUP9 ADD PUSH2 0xE41 DUP2 MLOAD PUSH2 0x208F JUMP JUMPDEST SWAP1 MSTORE PUSH2 0xDB9 JUMP JUMPDEST SWAP1 POP DUP13 PUSH2 0xDB3 JUMP JUMPDEST DUP4 DUP11 ADD PUSH2 0xE5D DUP2 MLOAD PUSH2 0x208F JUMP JUMPDEST SWAP1 MSTORE PUSH2 0xDAB JUMP JUMPDEST SWAP2 POP POP PUSH1 0x4 SWAP4 SWAP5 POP DUP6 PUSH2 0xE83 SWAP3 SWAP7 SWAP1 RETURNDATASIZE LT PUSH2 0x681 JUMPI PUSH2 0x666 DUP2 DUP4 PUSH2 0x1E01 JUMP JUMPDEST POP POP SWAP5 POP SWAP9 SWAP5 POP SWAP2 POP POP SWAP6 SWAP1 DUP7 SWAP6 SWAP5 PUSH2 0xD92 JUMP JUMPDEST PUSH1 0xA0 DUP4 PUSH1 0x80 DUP7 DUP9 DUP12 PUSH1 0x40 MLOAD SWAP5 DUP4 MLOAD DUP7 MSTORE DUP1 DUP5 ADD MLOAD SWAP1 DUP7 ADD MSTORE MLOAD PUSH1 0x40 DUP6 ADD MSTORE MLOAD PUSH1 0x60 DUP5 ADD MSTORE ADD MLOAD PUSH1 0x80 DUP3 ADD MSTORE RETURN JUMPDEST PUSH2 0xED9 SWAP2 POP RETURNDATASIZE DUP1 PUSH1 0x0 DUP4 RETURNDATACOPY PUSH2 0x6AF DUP2 DUP4 PUSH2 0x1E01 JUMP JUMPDEST DUP4 PUSH2 0xD33 JUMP JUMPDEST SWAP2 POP DUP4 DUP3 DUP2 RETURNDATASIZE DUP4 GT PUSH2 0xF13 JUMPI JUMPDEST PUSH2 0xEF6 DUP2 DUP4 PUSH2 0x1E01 JUMP JUMPDEST DUP2 ADD SUB SLT PUSH2 0x1CE JUMPI PUSH2 0xD0A PUSH2 0xF0C PUSH1 0x0 SWAP4 PUSH2 0x1FAC JUMP JUMPDEST SWAP3 POP PUSH2 0xCFE JUMP JUMPDEST POP RETURNDATASIZE PUSH2 0xEEC JUMP JUMPDEST PUSH1 0xA0 CALLDATASIZE PUSH1 0x3 NOT ADD SLT PUSH2 0x1CE JUMPI PUSH2 0xF2E PUSH2 0x1E3B JUMP JUMPDEST PUSH1 0x64 CALLDATALOAD SWAP1 DUP2 ISZERO ISZERO DUP1 SWAP3 SUB PUSH2 0x1CE JUMPI PUSH1 0x0 SLOAD PUSH1 0x40 MLOAD PUSH4 0xB1CE8EAB PUSH1 0xE0 SHL DUP2 MSTORE CALLER PUSH1 0x4 DUP3 ADD MSTORE PUSH1 0x20 SWAP3 PUSH1 0x1 PUSH1 0x1 PUSH1 0xA0 SHL SUB SWAP3 DUP4 AND SWAP3 SWAP1 SWAP2 DUP5 DUP2 PUSH1 0x24 DUP2 DUP8 GAS STATICCALL SWAP1 DUP2 ISZERO PUSH2 0x1DA JUMPI PUSH1 0x0 SWAP2 PUSH2 0x1070 JUMPI JUMPDEST POP ISZERO PUSH2 0x1010 JUMPI DUP3 EXTCODESIZE ISZERO PUSH2 0x1CE JUMPI PUSH1 0xA4 PUSH1 0x0 SWAP3 PUSH1 0x40 MLOAD SWAP5 DUP6 SWAP4 DUP5 SWAP3 PUSH4 0x8026C0A3 PUSH1 0xE0 SHL DUP5 MSTORE AND SWAP8 DUP9 PUSH1 0x4 DUP5 ADD MSTORE PUSH1 0x24 CALLDATALOAD PUSH1 0x24 DUP5 ADD MSTORE PUSH1 0x44 CALLDATALOAD PUSH1 0x44 DUP5 ADD MSTORE PUSH1 0x64 DUP4 ADD MSTORE PUSH1 0x84 CALLDATALOAD PUSH1 0x84 DUP4 ADD MSTORE CALLVALUE SWAP1 GAS CALL DUP1 ISZERO PUSH2 0x1DA JUMPI PUSH2 0x1001 JUMPI JUMPDEST POP PUSH32 0x23AF81ECCAFDCDF15DA528004CCDFA3609D55578A2E0DF674C079941508A7920 PUSH1 0x40 MLOAD SWAP2 PUSH1 0x0 DUP4 MSTORE CALLER SWAP3 LOG3 STOP JUMPDEST PUSH2 0x100A SWAP1 PUSH2 0x1DBA JUMP JUMPDEST DUP3 PUSH2 0xFD2 JUMP JUMPDEST PUSH1 0x40 MLOAD PUSH3 0x461BCD PUSH1 0xE5 SHL DUP2 MSTORE PUSH1 0x4 DUP2 ADD DUP6 SWAP1 MSTORE PUSH1 0x32 PUSH1 0x24 DUP3 ADD MSTORE PUSH32 0x4F6E6C792072656769737465726564206F7267616E697A6174696F6E73206361 PUSH1 0x44 DUP3 ADD MSTORE PUSH18 0x6E2063726561746520636F6E747261637473 PUSH1 0x70 SHL PUSH1 0x64 DUP3 ADD MSTORE PUSH1 0x84 SWAP1 REVERT JUMPDEST SWAP1 POP DUP5 DUP2 DUP2 RETURNDATASIZE DUP4 GT PUSH2 0x109E JUMPI JUMPDEST PUSH2 0x1087 DUP2 DUP4 PUSH2 0x1E01 JUMP JUMPDEST DUP2 ADD SUB SLT PUSH2 0x1CE JUMPI PUSH2 0x1098 SWAP1 PUSH2 0x1FAC JUMP JUMPDEST DUP7 PUSH2 0xF7A JUMP JUMPDEST POP RETURNDATASIZE PUSH2 0x107D JUMP JUMPDEST CALLVALUE PUSH2 0x1CE JUMPI PUSH1 0x40 CALLDATASIZE PUSH1 0x3 NOT ADD SLT PUSH2 0x1CE JUMPI PUSH2 0x10BE PUSH2 0x1E3B JUMP JUMPDEST PUSH1 0x40 MLOAD PUSH4 0xAE200E79 PUSH1 0xE0 SHL DUP2 MSTORE PUSH1 0x20 SWAP2 PUSH1 0x1 PUSH1 0x1 PUSH1 0xA0 SHL SUB SWAP1 DUP2 AND SWAP2 PUSH1 0x24 SWAP2 DUP3 CALLDATALOAD SWAP2 SWAP1 DUP6 DUP3 PUSH1 0x4 DUP2 DUP9 GAS STATICCALL SWAP2 DUP3 ISZERO PUSH2 0x1DA JUMPI PUSH1 0x0 SWAP3 PUSH2 0x1426 JUMPI JUMPDEST POP CALLER SWAP2 AND SUB PUSH2 0x13C6 JUMPI PUSH1 0x40 MLOAD PUSH4 0x1F34B45B PUSH1 0xE1 SHL DUP2 MSTORE SWAP2 DUP5 DUP4 PUSH1 0x4 DUP2 DUP8 GAS STATICCALL SWAP3 DUP4 ISZERO PUSH2 0x1DA JUMPI PUSH1 0x0 SWAP4 PUSH2 0x1397 JUMPI JUMPDEST POP PUSH1 0x1 SWAP2 DUP3 DUP5 ADD SWAP1 DUP2 DUP6 GT PUSH2 0x1355 JUMPI DUP2 DUP2 GT ISZERO PUSH2 0x138F JUMPI POP SWAP5 JUMPDEST PUSH2 0x1149 DUP7 PUSH2 0x2274 JUMP JUMPDEST SWAP6 PUSH2 0x1153 DUP2 PUSH2 0x1E23 JUMP JUMPDEST SWAP3 PUSH2 0x1161 PUSH1 0x40 MLOAD SWAP5 DUP6 PUSH2 0x1E01 JUMP JUMPDEST DUP2 DUP5 MSTORE PUSH2 0x116D DUP3 PUSH2 0x1E23 JUMP JUMPDEST DUP5 DUP5 ADD SWAP8 SWAP1 PUSH1 0x1F NOT ADD CALLDATASIZE DUP10 CALLDATACOPY PUSH2 0x1182 DUP4 PUSH2 0x2274 JUMP JUMPDEST SWAP7 PUSH1 0x0 NOT DUP5 ADD DUP5 DUP2 GT PUSH2 0x137A JUMPI DUP5 SWAP1 DUP3 LT PUSH2 0x136A JUMPI PUSH2 0x11A0 SWAP2 PUSH2 0x22A6 JUMP JUMPDEST DUP7 DUP2 ADD DUP1 SWAP2 GT PUSH2 0x1355 JUMPI SWAP9 SWAP7 SWAP5 SWAP4 SWAP8 SWAP6 SWAP9 JUMPDEST PUSH1 0x0 JUMPDEST DUP5 DUP2 LT PUSH2 0x1221 JUMPI POP POP POP POP POP SWAP5 PUSH2 0x11DB SWAP6 DUP6 PUSH1 0x40 MLOAD SWAP8 DUP9 SWAP7 PUSH1 0x60 DUP9 MSTORE PUSH1 0x60 DUP9 ADD SWAP1 PUSH2 0x1E51 JUMP JUMPDEST SWAP2 DUP7 DUP4 SUB DUP3 DUP9 ADD MSTORE MLOAD SWAP2 DUP3 DUP2 MSTORE ADD SWAP4 SWAP6 PUSH1 0x0 JUMPDEST DUP3 DUP2 LT PUSH2 0x1209 JUMPI DUP7 DUP1 PUSH2 0x696 DUP9 DUP9 DUP4 DUP3 SUB PUSH1 0x40 DUP6 ADD MSTORE PUSH2 0x1E51 JUMP JUMPDEST DUP8 MLOAD ISZERO ISZERO DUP7 MSTORE SWAP7 DUP2 ADD SWAP7 DUP9 SWAP7 POP SWAP5 DUP2 ADD SWAP5 DUP4 ADD PUSH2 0x11EE JUMP JUMPDEST DUP1 DUP10 PUSH2 0x123F PUSH2 0x1237 DUP4 SWAP13 SWAP15 SWAP12 SWAP14 SWAP10 SWAP11 SWAP13 DUP7 PUSH2 0x2140 JUMP JUMPDEST SWAP3 DUP4 SWAP3 PUSH2 0x209E JUMP JUMPDEST MSTORE PUSH1 0x40 MLOAD PUSH4 0x182D70E5 PUSH1 0xE3 SHL DUP2 MSTORE PUSH1 0x4 DUP2 ADD DUP3 SWAP1 MSTORE DUP8 DUP2 DUP8 DUP2 DUP9 GAS STATICCALL SWAP1 DUP2 ISZERO PUSH2 0x1DA JUMPI PUSH1 0x0 SWAP2 PUSH2 0x1320 JUMPI JUMPDEST POP PUSH2 0x1275 DUP4 DUP11 PUSH2 0x209E JUMP JUMPDEST SWAP1 ISZERO ISZERO SWAP1 MSTORE PUSH1 0x40 MLOAD PUSH4 0x5CBDE43 PUSH1 0xE1 SHL DUP2 MSTORE DUP8 DUP2 PUSH1 0x4 DUP2 DUP9 GAS STATICCALL SWAP1 DUP2 ISZERO PUSH2 0x1DA JUMPI PUSH1 0x0 SWAP2 PUSH2 0x12F3 JUMPI JUMPDEST POP PUSH3 0x15180 SWAP2 DUP3 DUP2 MUL SWAP3 DUP2 DUP5 DIV EQ SWAP1 ISZERO OR ISZERO PUSH2 0x12DE JUMPI PUSH2 0x12D2 SWAP3 SWAP2 PUSH2 0x12C2 SWAP2 PUSH2 0x2140 JUMP JUMPDEST PUSH2 0x12CC DUP3 DUP13 PUSH2 0x209E JUMP JUMPDEST MSTORE PUSH2 0x208F JUMP JUMPDEST SWAP10 SWAP8 SWAP6 SWAP5 SWAP9 SWAP7 SWAP10 PUSH2 0x11B5 JUMP JUMPDEST DUP6 PUSH4 0x4E487B71 PUSH1 0xE0 SHL PUSH1 0x0 MSTORE PUSH1 0x11 PUSH1 0x4 MSTORE PUSH1 0x0 REVERT JUMPDEST SWAP1 POP DUP8 DUP2 DUP2 RETURNDATASIZE DUP4 GT PUSH2 0x1319 JUMPI JUMPDEST PUSH2 0x130A DUP2 DUP4 PUSH2 0x1E01 JUMP JUMPDEST DUP2 ADD SUB SLT PUSH2 0x1CE JUMPI MLOAD DUP14 PUSH2 0x129E JUMP JUMPDEST POP RETURNDATASIZE PUSH2 0x1300 JUMP JUMPDEST SWAP1 POP DUP8 DUP2 DUP2 RETURNDATASIZE DUP4 GT PUSH2 0x134E JUMPI JUMPDEST PUSH2 0x1337 DUP2 DUP4 PUSH2 0x1E01 JUMP JUMPDEST DUP2 ADD SUB SLT PUSH2 0x1CE JUMPI PUSH2 0x1348 SWAP1 PUSH2 0x1FAC JUMP JUMPDEST DUP14 PUSH2 0x126A JUMP JUMPDEST POP RETURNDATASIZE PUSH2 0x132D JUMP JUMPDEST DUP3 PUSH4 0x4E487B71 PUSH1 0xE0 SHL PUSH1 0x0 MSTORE PUSH1 0x11 PUSH1 0x4 MSTORE PUSH1 0x0 REVERT JUMPDEST POP POP PUSH1 0x0 SWAP9 SWAP7 SWAP5 SWAP4 SWAP8 SWAP6 SWAP9 PUSH2 0x11B2 JUMP JUMPDEST DUP4 PUSH4 0x4E487B71 PUSH1 0xE0 SHL PUSH1 0x0 MSTORE PUSH1 0x11 PUSH1 0x4 MSTORE PUSH1 0x0 REVERT JUMPDEST SWAP1 POP SWAP5 PUSH2 0x1140 JUMP JUMPDEST SWAP1 SWAP3 POP DUP5 DUP2 DUP2 RETURNDATASIZE DUP4 GT PUSH2 0x13BF JUMPI JUMPDEST PUSH2 0x13AF DUP2 DUP4 PUSH2 0x1E01 JUMP JUMPDEST DUP2 ADD SUB SLT PUSH2 0x1CE JUMPI MLOAD SWAP2 DUP6 PUSH2 0x1126 JUMP JUMPDEST POP RETURNDATASIZE PUSH2 0x13A5 JUMP JUMPDEST PUSH1 0x40 MLOAD PUSH3 0x461BCD PUSH1 0xE5 SHL DUP2 MSTORE PUSH1 0x4 DUP2 ADD DUP6 SWAP1 MSTORE PUSH1 0x33 DUP2 DUP5 ADD MSTORE PUSH32 0x4E6F7420617574686F72697A656420746F207669657720617474656E64616E63 PUSH1 0x44 DUP3 ADD MSTORE PUSH19 0x1948199BDC881D1A1A5CC818DBDB9D1C9858DD PUSH1 0x6A SHL PUSH1 0x64 DUP3 ADD MSTORE PUSH1 0x84 SWAP1 REVERT JUMPDEST SWAP1 SWAP2 POP DUP6 DUP2 DUP2 RETURNDATASIZE DUP4 GT PUSH2 0x1456 JUMPI JUMPDEST PUSH2 0x143E DUP2 DUP4 PUSH2 0x1E01 JUMP JUMPDEST DUP2 ADD SUB SLT PUSH2 0x1CE JUMPI PUSH2 0x144F SWAP1 PUSH2 0x20C8 JUMP JUMPDEST SWAP1 DUP7 PUSH2 0x10F8 JUMP JUMPDEST POP RETURNDATASIZE PUSH2 0x1434 JUMP JUMPDEST CALLVALUE PUSH2 0x1CE JUMPI PUSH1 0x20 DUP1 PUSH1 0x3 NOT CALLDATASIZE ADD SLT PUSH2 0x1CE JUMPI PUSH1 0x1 PUSH1 0x1 PUSH1 0xA0 SHL SUB DUP1 PUSH2 0x1480 PUSH2 0x1E3B JUMP JUMPDEST AND SWAP1 PUSH1 0x40 MLOAD PUSH4 0xAE200E79 PUSH1 0xE0 SHL DUP2 MSTORE DUP4 DUP2 PUSH1 0x4 DUP2 DUP7 GAS STATICCALL SWAP1 DUP2 ISZERO PUSH2 0x1DA JUMPI PUSH1 0x0 SWAP2 PUSH2 0x15CE JUMPI JUMPDEST POP DUP2 CALLER SWAP2 AND SUB PUSH2 0x1577 JUMPI PUSH1 0x40 MLOAD PUSH4 0xA0A1A7D7 PUSH1 0xE0 SHL DUP2 MSTORE SWAP1 DUP4 DUP3 PUSH1 0x4 DUP2 DUP7 GAS STATICCALL SWAP2 DUP3 ISZERO PUSH2 0x1DA JUMPI PUSH1 0x0 SWAP3 PUSH2 0x1540 JUMPI JUMPDEST POP DUP3 EXTCODESIZE ISZERO PUSH2 0x1CE JUMPI PUSH1 0x40 MLOAD PUSH4 0x17ECA4E5 PUSH1 0xE1 SHL DUP2 MSTORE SWAP2 PUSH1 0x0 DUP4 PUSH1 0x4 DUP2 DUP4 DUP9 GAS CALL SWAP3 DUP4 ISZERO PUSH2 0x1DA JUMPI PUSH32 0x59E8ABA4672F07159A4E5DE40F16903EDB5063DA5DFA8A40B84501E906A9FFB0 SWAP4 PUSH2 0x1531 JUMPI JUMPDEST POP PUSH1 0x40 MLOAD SWAP4 DUP5 MSTORE AND SWAP3 CALLER SWAP3 LOG3 STOP JUMPDEST PUSH2 0x153A SWAP1 PUSH2 0x1DBA JUMP JUMPDEST DUP6 PUSH2 0x1523 JUMP JUMPDEST SWAP1 SWAP2 POP DUP4 DUP2 DUP2 RETURNDATASIZE DUP4 GT PUSH2 0x1570 JUMPI JUMPDEST PUSH2 0x1558 DUP2 DUP4 PUSH2 0x1E01 JUMP JUMPDEST DUP2 ADD SUB SLT PUSH2 0x1CE JUMPI PUSH2 0x1569 SWAP1 PUSH2 0x20C8 JUMP JUMPDEST SWAP1 DUP5 PUSH2 0x14D5 JUMP JUMPDEST POP RETURNDATASIZE PUSH2 0x154E JUMP JUMPDEST PUSH1 0x40 MLOAD PUSH3 0x461BCD PUSH1 0xE5 SHL DUP2 MSTORE PUSH1 0x4 DUP2 ADD DUP5 SWAP1 MSTORE PUSH1 0x29 PUSH1 0x24 DUP3 ADD MSTORE PUSH32 0x4E6F7420617574686F72697A656420746F207465726D696E6174652074686973 PUSH1 0x44 DUP3 ADD MSTORE PUSH9 0x818DBDB9D1C9858DD PUSH1 0xBA SHL PUSH1 0x64 DUP3 ADD MSTORE PUSH1 0x84 SWAP1 REVERT JUMPDEST SWAP1 POP DUP4 DUP2 DUP2 RETURNDATASIZE DUP4 GT PUSH2 0x15FC JUMPI JUMPDEST PUSH2 0x15E5 DUP2 DUP4 PUSH2 0x1E01 JUMP JUMPDEST DUP2 ADD SUB SLT PUSH2 0x1CE JUMPI PUSH2 0x15F6 SWAP1 PUSH2 0x20C8 JUMP JUMPDEST DUP5 PUSH2 0x14A6 JUMP JUMPDEST POP RETURNDATASIZE PUSH2 0x15DB JUMP JUMPDEST CALLVALUE PUSH2 0x1CE JUMPI PUSH1 0x20 CALLDATASIZE PUSH1 0x3 NOT ADD SLT PUSH2 0x1CE JUMPI PUSH1 0x1 PUSH1 0x1 PUSH1 0xA0 SHL SUB PUSH2 0x1624 PUSH2 0x1E3B JUMP JUMPDEST AND PUSH1 0x40 MLOAD PUSH4 0xAE200E79 PUSH1 0xE0 SHL DUP2 MSTORE PUSH1 0x20 DUP2 PUSH1 0x4 DUP2 DUP6 GAS STATICCALL SWAP1 DUP2 ISZERO PUSH2 0x1DA JUMPI PUSH1 0x0 SWAP2 PUSH2 0x188B JUMPI JUMPDEST POP CALLER PUSH1 0x1 PUSH1 0x1 PUSH1 0xA0 SHL SUB SWAP1 SWAP2 AND SUB PUSH2 0x183A JUMPI PUSH1 0x40 MLOAD PUSH4 0x7CC1F867 PUSH1 0xE0 SHL DUP2 MSTORE PUSH2 0x120 DUP2 PUSH1 0x4 DUP2 DUP6 GAS STATICCALL DUP1 ISZERO PUSH2 0x1DA JUMPI PUSH1 0x0 SWAP2 PUSH1 0x0 SWAP2 PUSH1 0x0 SWAP2 PUSH1 0x0 SWAP3 PUSH1 0x0 DUP1 SWAP2 PUSH1 0x0 SWAP4 PUSH1 0x0 SWAP6 PUSH2 0x1805 JUMPI JUMPDEST POP PUSH1 0x40 MLOAD PUSH4 0x404ED5B5 PUSH1 0xE1 SHL DUP2 MSTORE SWAP6 PUSH1 0x20 DUP8 PUSH1 0x4 DUP2 DUP14 GAS STATICCALL SWAP1 DUP2 ISZERO PUSH2 0x1DA JUMPI PUSH1 0x0 SWAP2 PUSH2 0x17D0 JUMPI JUMPDEST PUSH1 0x40 MLOAD PUSH4 0x5CBDE43 PUSH1 0xE1 SHL DUP2 MSTORE SWAP8 POP DUP11 BALANCE SWAP3 PUSH1 0x20 DUP10 PUSH1 0x4 DUP2 DUP16 GAS STATICCALL SWAP9 DUP10 ISZERO PUSH2 0x1DA JUMPI PUSH1 0x0 SWAP10 PUSH2 0x1799 JUMPI JUMPDEST POP PUSH1 0x20 PUSH1 0x4 SWAP13 PUSH1 0x40 MLOAD SWAP14 DUP15 DUP1 SWAP3 PUSH4 0x6A246E7 PUSH1 0xE4 SHL DUP3 MSTORE GAS STATICCALL SWAP10 DUP11 ISZERO PUSH2 0x1DA JUMPI PUSH1 0x0 SWAP11 PUSH2 0x1763 JUMPI JUMPDEST PUSH2 0x180 SWAP13 POP PUSH1 0x40 MLOAD SWAP12 PUSH1 0x1 DUP1 PUSH1 0xA0 SHL SUB AND DUP13 MSTORE PUSH1 0x20 DUP13 ADD MSTORE PUSH1 0x40 DUP12 ADD MSTORE PUSH1 0x60 DUP11 ADD MSTORE PUSH1 0x80 DUP10 ADD MSTORE PUSH1 0xA0 DUP9 ADD MSTORE ISZERO ISZERO PUSH1 0xC0 DUP8 ADD MSTORE ISZERO ISZERO PUSH1 0xE0 DUP7 ADD MSTORE ISZERO ISZERO PUSH2 0x100 DUP6 ADD MSTORE PUSH2 0x120 DUP5 ADD MSTORE PUSH2 0x140 DUP4 ADD MSTORE PUSH2 0x160 DUP3 ADD MSTORE RETURN JUMPDEST SWAP10 POP PUSH1 0x20 DUP13 RETURNDATASIZE PUSH1 0x20 GT PUSH2 0x1791 JUMPI JUMPDEST DUP2 PUSH2 0x177E PUSH1 0x20 SWAP4 DUP4 PUSH2 0x1E01 JUMP JUMPDEST DUP2 ADD SUB SLT PUSH2 0x1CE JUMPI PUSH2 0x180 SWAP12 MLOAD SWAP10 PUSH2 0x170D JUMP JUMPDEST RETURNDATASIZE SWAP2 POP PUSH2 0x1771 JUMP JUMPDEST SWAP12 SWAP9 POP PUSH1 0x20 DUP13 RETURNDATASIZE PUSH1 0x20 GT PUSH2 0x17C8 JUMPI JUMPDEST DUP2 PUSH2 0x17B5 PUSH1 0x20 SWAP4 DUP4 PUSH2 0x1E01 JUMP JUMPDEST DUP2 ADD SUB SLT PUSH2 0x1CE JUMPI SWAP11 MLOAD SWAP8 SWAP11 PUSH1 0x20 PUSH2 0x16E5 JUMP JUMPDEST RETURNDATASIZE SWAP2 POP PUSH2 0x17A8 JUMP JUMPDEST SWAP1 POP PUSH1 0x20 DUP8 RETURNDATASIZE PUSH1 0x20 GT PUSH2 0x17FD JUMPI JUMPDEST DUP2 PUSH2 0x17EB PUSH1 0x20 SWAP4 DUP4 PUSH2 0x1E01 JUMP JUMPDEST DUP2 ADD SUB SLT PUSH2 0x1CE JUMPI PUSH1 0x4 SWAP7 MLOAD SWAP1 PUSH2 0x16BB JUMP JUMPDEST RETURNDATASIZE SWAP2 POP PUSH2 0x17DE JUMP JUMPDEST SWAP7 POP POP POP POP POP POP POP PUSH2 0x1828 SWAP2 POP PUSH2 0x120 RETURNDATASIZE PUSH2 0x120 GT PUSH2 0x681 JUMPI PUSH2 0x666 DUP2 DUP4 PUSH2 0x1E01 JUMP JUMPDEST SWAP7 SWAP8 POP SWAP5 SWAP6 SWAP3 SWAP5 SWAP3 SWAP4 SWAP1 SWAP2 SWAP1 DUP10 PUSH2 0x1694 JUMP JUMPDEST PUSH1 0x40 MLOAD PUSH3 0x461BCD PUSH1 0xE5 SHL DUP2 MSTORE PUSH1 0x20 PUSH1 0x4 DUP3 ADD MSTORE PUSH1 0x24 DUP1 DUP3 ADD MSTORE PUSH32 0x4E6F7420617574686F72697A656420746F2076696577207468697320636F6E74 PUSH1 0x44 DUP3 ADD MSTORE PUSH4 0x1C9858DD PUSH1 0xE2 SHL PUSH1 0x64 DUP3 ADD MSTORE PUSH1 0x84 SWAP1 REVERT JUMPDEST SWAP1 POP PUSH1 0x20 DUP2 RETURNDATASIZE PUSH1 0x20 GT PUSH2 0x18BD JUMPI JUMPDEST DUP2 PUSH2 0x18A6 PUSH1 0x20 SWAP4 DUP4 PUSH2 0x1E01 JUMP JUMPDEST DUP2 ADD SUB SLT PUSH2 0x1CE JUMPI PUSH2 0x18B7 SWAP1 PUSH2 0x20C8 JUMP JUMPDEST DUP3 PUSH2 0x164A JUMP JUMPDEST RETURNDATASIZE SWAP2 POP PUSH2 0x1899 JUMP JUMPDEST CALLVALUE PUSH2 0x1CE JUMPI PUSH1 0x40 CALLDATASIZE PUSH1 0x3 NOT ADD SLT PUSH2 0x1CE JUMPI PUSH2 0x18DE PUSH2 0x1E3B JUMP JUMPDEST PUSH1 0x40 MLOAD PUSH4 0xAE200E79 PUSH1 0xE0 SHL DUP2 MSTORE PUSH1 0x20 SWAP2 PUSH1 0x24 CALLDATALOAD SWAP2 PUSH1 0x1 PUSH1 0x1 PUSH1 0xA0 SHL SUB SWAP2 DUP3 AND SWAP2 SWAP1 DUP5 DUP2 PUSH1 0x4 DUP2 DUP7 GAS STATICCALL DUP1 ISZERO PUSH2 0x1DA JUMPI PUSH1 0x0 SWAP1 PUSH2 0x19A8 JUMPI JUMPDEST PUSH2 0x1923 SWAP2 POP DUP3 AND CALLER EQ PUSH2 0x220E JUMP JUMPDEST DUP2 EXTCODESIZE ISZERO PUSH2 0x1CE JUMPI PUSH1 0x40 MLOAD PUSH4 0x27DD486D PUSH1 0xE2 SHL DUP2 MSTORE PUSH1 0x4 DUP2 ADD DUP5 SWAP1 MSTORE SWAP2 PUSH1 0x0 DUP4 PUSH1 0x24 DUP2 DUP4 DUP6 GAS CALL SWAP1 DUP2 ISZERO PUSH2 0x1DA JUMPI PUSH1 0x4 SWAP4 DUP7 SWAP3 PUSH2 0x1999 JUMPI POP PUSH1 0x40 MLOAD PUSH4 0xA0A1A7D7 PUSH1 0xE0 SHL DUP2 MSTORE SWAP4 DUP5 SWAP2 DUP3 SWAP1 GAS STATICCALL DUP1 ISZERO PUSH2 0x1DA JUMPI PUSH1 0x0 SWAP1 PUSH2 0x193 JUMPI PUSH1 0x0 DUP1 MLOAD PUSH1 0x20 PUSH2 0x22B4 DUP4 CODECOPY DUP2 MLOAD SWAP2 MSTORE SWAP3 POP PUSH1 0x40 MLOAD SWAP4 DUP5 MSTORE AND SWAP3 CALLER SWAP3 LOG3 STOP JUMPDEST PUSH2 0x19A2 SWAP1 PUSH2 0x1DBA JUMP JUMPDEST DUP7 PUSH2 0x152 JUMP JUMPDEST POP DUP5 DUP2 DUP2 RETURNDATASIZE DUP4 GT PUSH2 0x19D7 JUMPI JUMPDEST PUSH2 0x19BE DUP2 DUP4 PUSH2 0x1E01 JUMP JUMPDEST DUP2 ADD SUB SLT PUSH2 0x1CE JUMPI PUSH2 0x19D2 PUSH2 0x1923 SWAP2 PUSH2 0x20C8 JUMP JUMPDEST PUSH2 0x1915 JUMP JUMPDEST POP RETURNDATASIZE PUSH2 0x19B4 JUMP JUMPDEST CALLVALUE PUSH2 0x1CE JUMPI PUSH1 0x60 CALLDATASIZE PUSH1 0x3 NOT ADD SLT PUSH2 0x1CE JUMPI PUSH2 0x19F7 PUSH2 0x1E3B JUMP JUMPDEST PUSH1 0x1 PUSH1 0x1 PUSH1 0xA0 SHL SUB SWAP1 PUSH1 0x44 CALLDATALOAD DUP3 DUP2 AND SWAP2 SWAP1 DUP3 SWAP1 SUB PUSH2 0x1CE JUMPI PUSH1 0x40 MLOAD PUSH4 0xAE200E79 PUSH1 0xE0 SHL DUP2 MSTORE SWAP1 DUP4 AND SWAP3 PUSH1 0x20 DUP3 PUSH1 0x4 DUP2 DUP8 GAS STATICCALL SWAP2 DUP3 ISZERO PUSH2 0x1DA JUMPI PUSH1 0x0 SWAP3 PUSH2 0x1ADB JUMPI JUMPDEST POP CALLER SWAP2 AND SUB PUSH2 0x1A87 JUMPI DUP2 EXTCODESIZE ISZERO PUSH2 0x1CE JUMPI PUSH1 0x0 SWAP2 PUSH1 0x44 DUP4 SWAP3 PUSH1 0x40 MLOAD SWAP5 DUP6 SWAP4 DUP5 SWAP3 PUSH4 0x18B51D13 PUSH1 0xE2 SHL DUP5 MSTORE PUSH1 0x24 CALLDATALOAD PUSH1 0x4 DUP6 ADD MSTORE PUSH1 0x24 DUP5 ADD MSTORE GAS CALL DUP1 ISZERO PUSH2 0x1DA JUMPI PUSH2 0x1A7C JUMPI STOP JUMPDEST PUSH2 0x1A85 SWAP1 PUSH2 0x1DBA JUMP JUMPDEST STOP JUMPDEST PUSH1 0x40 MLOAD PUSH3 0x461BCD PUSH1 0xE5 SHL DUP2 MSTORE PUSH1 0x20 PUSH1 0x4 DUP3 ADD MSTORE PUSH1 0x26 PUSH1 0x24 DUP3 ADD MSTORE PUSH32 0x4E6F7420617574686F72697A656420746F206D6F64696679207468697320636F PUSH1 0x44 DUP3 ADD MSTORE PUSH6 0x1B9D1C9858DD PUSH1 0xD2 SHL PUSH1 0x64 DUP3 ADD MSTORE PUSH1 0x84 SWAP1 REVERT JUMPDEST SWAP1 SWAP2 POP PUSH1 0x20 DUP2 RETURNDATASIZE DUP3 GT PUSH2 0x1B0E JUMPI JUMPDEST DUP2 PUSH2 0x1AF6 PUSH1 0x20 SWAP4 DUP4 PUSH2 0x1E01 JUMP JUMPDEST DUP2 ADD SUB SLT PUSH2 0x1CE JUMPI PUSH2 0x1B07 SWAP1 PUSH2 0x20C8 JUMP JUMPDEST SWAP1 DUP5 PUSH2 0x1A38 JUMP JUMPDEST RETURNDATASIZE SWAP2 POP PUSH2 0x1AE9 JUMP JUMPDEST CALLVALUE PUSH2 0x1CE JUMPI PUSH1 0x20 DUP1 PUSH1 0x3 NOT CALLDATASIZE ADD SLT PUSH2 0x1CE JUMPI PUSH1 0x4 CALLDATALOAD PUSH8 0xFFFFFFFFFFFFFFFF DUP2 GT PUSH2 0x1CE JUMPI CALLDATASIZE PUSH1 0x23 DUP3 ADD SLT ISZERO PUSH2 0x1CE JUMPI DUP1 PUSH1 0x4 ADD CALLDATALOAD SWAP2 PUSH2 0x1B54 DUP4 PUSH2 0x1E23 JUMP JUMPDEST SWAP2 PUSH2 0x1B62 PUSH1 0x40 MLOAD SWAP4 DUP5 PUSH2 0x1E01 JUMP JUMPDEST DUP4 DUP4 MSTORE DUP2 DUP4 ADD PUSH1 0x24 DUP1 SWAP6 PUSH1 0x5 SHL DUP4 ADD ADD SWAP2 CALLDATASIZE DUP4 GT PUSH2 0x1CE JUMPI DUP6 ADD SWAP1 JUMPDEST DUP3 DUP3 LT PUSH2 0x1D9B JUMPI POP POP POP PUSH1 0x0 JUMPDEST DUP3 MLOAD DUP2 LT ISZERO PUSH2 0x1A85 JUMPI PUSH1 0x1 PUSH1 0x1 PUSH1 0xA0 SHL SUB SWAP1 DUP2 PUSH2 0x1BA8 DUP3 DUP7 PUSH2 0x209E JUMP JUMPDEST MLOAD AND SWAP2 PUSH1 0x40 MLOAD PUSH4 0xAE200E79 PUSH1 0xE0 SHL DUP2 MSTORE DUP5 DUP2 PUSH1 0x4 DUP2 DUP8 GAS STATICCALL DUP1 ISZERO PUSH2 0x1DA JUMPI PUSH1 0x0 SWAP1 PUSH2 0x1D65 JUMPI JUMPDEST PUSH2 0x1BDC SWAP2 POP DUP3 AND CALLER EQ PUSH2 0x220E JUMP JUMPDEST PUSH1 0x40 MLOAD PUSH4 0x1F34B45B PUSH1 0xE1 SHL DUP2 MSTORE SWAP1 DUP5 DUP3 PUSH1 0x4 DUP2 DUP8 GAS STATICCALL SWAP2 DUP3 ISZERO PUSH2 0x1DA JUMPI PUSH1 0x0 SWAP3 PUSH2 0x1D36 JUMPI JUMPDEST POP PUSH1 0x40 MLOAD PUSH4 0x56470417 PUSH1 0xE0 SHL DUP2 MSTORE PUSH1 0x4 DUP2 ADD DUP4 SWAP1 MSTORE DUP6 DUP2 DUP10 DUP2 DUP9 GAS STATICCALL SWAP1 DUP2 ISZERO PUSH2 0x1DA JUMPI PUSH1 0x0 SWAP2 PUSH2 0x1D09 JUMPI JUMPDEST POP ISZERO PUSH2 0x1C44 JUMPI JUMPDEST POP POP PUSH2 0x1C3F SWAP2 POP PUSH2 0x208F JUMP JUMPDEST PUSH2 0x1B8B JUMP JUMPDEST DUP4 EXTCODESIZE ISZERO PUSH2 0x1CE JUMPI PUSH1 0x40 MLOAD PUSH4 0x27DD486D PUSH1 0xE2 SHL DUP2 MSTORE PUSH1 0x4 DUP2 ADD DUP4 SWAP1 MSTORE SWAP4 PUSH1 0x0 DUP6 DUP10 DUP2 DUP4 DUP6 GAS CALL SWAP1 DUP2 ISZERO PUSH2 0x1DA JUMPI PUSH1 0x4 SWAP6 DUP8 SWAP3 PUSH2 0x1CFA JUMPI JUMPDEST POP PUSH1 0x40 MLOAD PUSH4 0xA0A1A7D7 PUSH1 0xE0 SHL DUP2 MSTORE SWAP6 DUP7 SWAP2 DUP3 SWAP1 GAS STATICCALL DUP1 ISZERO PUSH2 0x1DA JUMPI PUSH1 0x0 SWAP1 PUSH2 0x1CC4 JUMPI JUMPDEST PUSH2 0x1C3F SWAP5 POP PUSH1 0x40 MLOAD SWAP3 DUP4 MSTORE AND SWAP1 PUSH1 0x0 DUP1 MLOAD PUSH1 0x20 PUSH2 0x22B4 DUP4 CODECOPY DUP2 MLOAD SWAP2 MSTORE DUP6 CALLER SWAP3 LOG3 DUP6 DUP1 PUSH2 0x1C33 JUMP JUMPDEST POP DUP5 DUP5 DUP2 RETURNDATASIZE DUP4 GT PUSH2 0x1CF3 JUMPI JUMPDEST PUSH2 0x1CDA DUP2 DUP4 PUSH2 0x1E01 JUMP JUMPDEST DUP2 ADD SUB SLT PUSH2 0x1CE JUMPI PUSH2 0x1CEE PUSH2 0x1C3F SWAP5 PUSH2 0x20C8 JUMP JUMPDEST PUSH2 0x1C9D JUMP JUMPDEST POP RETURNDATASIZE PUSH2 0x1CD0 JUMP JUMPDEST PUSH2 0x1D03 SWAP1 PUSH2 0x1DBA JUMP JUMPDEST DUP10 PUSH2 0x1C7A JUMP JUMPDEST SWAP1 POP DUP6 DUP2 DUP2 RETURNDATASIZE DUP4 GT PUSH2 0x1D2F JUMPI JUMPDEST PUSH2 0x1D20 DUP2 DUP4 PUSH2 0x1E01 JUMP JUMPDEST DUP2 ADD SUB SLT PUSH2 0x1CE JUMPI MLOAD DUP9 PUSH2 0x1C2C JUMP JUMPDEST POP RETURNDATASIZE PUSH2 0x1D16 JUMP JUMPDEST SWAP1 SWAP2 POP DUP5 DUP2 DUP2 RETURNDATASIZE DUP4 GT PUSH2 0x1D5E JUMPI JUMPDEST PUSH2 0x1D4E DUP2 DUP4 PUSH2 0x1E01 JUMP JUMPDEST DUP2 ADD SUB SLT PUSH2 0x1CE JUMPI MLOAD SWAP1 DUP8 PUSH2 0x1C01 JUMP JUMPDEST POP RETURNDATASIZE PUSH2 0x1D44 JUMP JUMPDEST POP DUP5 DUP2 DUP2 RETURNDATASIZE DUP4 GT PUSH2 0x1D94 JUMPI JUMPDEST PUSH2 0x1D7B DUP2 DUP4 PUSH2 0x1E01 JUMP JUMPDEST DUP2 ADD SUB SLT PUSH2 0x1CE JUMPI PUSH2 0x1D8F PUSH2 0x1BDC SWAP2 PUSH2 0x20C8 JUMP JUMPDEST PUSH2 0x1BCE JUMP JUMPDEST POP RETURNDATASIZE PUSH2 0x1D71 JUMP JUMPDEST DUP2 CALLDATALOAD PUSH1 0x1 PUSH1 0x1 PUSH1 0xA0 SHL SUB DUP2 AND DUP2 SUB PUSH2 0x1CE JUMPI DUP2 MSTORE SWAP1 DUP4 ADD SWAP1 DUP4 ADD PUSH2 0x1B7E JUMP JUMPDEST PUSH8 0xFFFFFFFFFFFFFFFF DUP2 GT PUSH2 0x1DCE JUMPI PUSH1 0x40 MSTORE JUMP JUMPDEST PUSH4 0x4E487B71 PUSH1 0xE0 SHL PUSH1 0x0 MSTORE PUSH1 0x41 PUSH1 0x4 MSTORE PUSH1 0x24 PUSH1 0x0 REVERT JUMPDEST PUSH2 0x1E0 DUP2 ADD SWAP1 DUP2 LT PUSH8 0xFFFFFFFFFFFFFFFF DUP3 GT OR PUSH2 0x1DCE JUMPI PUSH1 0x40 MSTORE JUMP JUMPDEST SWAP1 PUSH1 0x1F DUP1 NOT SWAP2 ADD AND DUP2 ADD SWAP1 DUP2 LT PUSH8 0xFFFFFFFFFFFFFFFF DUP3 GT OR PUSH2 0x1DCE JUMPI PUSH1 0x40 MSTORE JUMP JUMPDEST PUSH8 0xFFFFFFFFFFFFFFFF DUP2 GT PUSH2 0x1DCE JUMPI PUSH1 0x5 SHL PUSH1 0x20 ADD SWAP1 JUMP JUMPDEST PUSH1 0x4 CALLDATALOAD SWAP1 PUSH1 0x1 PUSH1 0x1 PUSH1 0xA0 SHL SUB DUP3 AND DUP3 SUB PUSH2 0x1CE JUMPI JUMP JUMPDEST SWAP1 DUP2 MLOAD DUP1 DUP3 MSTORE PUSH1 0x20 DUP1 DUP1 SWAP4 ADD SWAP4 ADD SWAP2 PUSH1 0x0 JUMPDEST DUP3 DUP2 LT PUSH2 0x1E71 JUMPI POP POP POP POP SWAP1 JUMP JUMPDEST DUP4 MLOAD DUP6 MSTORE SWAP4 DUP2 ADD SWAP4 SWAP3 DUP2 ADD SWAP3 PUSH1 0x1 ADD PUSH2 0x1E63 JUMP JUMPDEST PUSH1 0x20 DUP1 DUP3 ADD SWAP1 DUP1 DUP4 MSTORE DUP4 MLOAD DUP1 SWAP3 MSTORE DUP1 PUSH1 0x40 DUP1 SWAP5 ADD SWAP5 ADD SWAP3 PUSH1 0x0 SWAP1 JUMPDEST DUP4 DUP3 LT PUSH2 0x1EAF JUMPI POP POP POP POP POP SWAP1 JUMP JUMPDEST DUP5 MLOAD DUP1 MLOAD PUSH1 0x1 PUSH1 0x1 PUSH1 0xA0 SHL SUB SWAP1 DUP2 AND DUP9 MSTORE DUP2 DUP6 ADD MLOAD AND DUP8 DUP6 ADD MSTORE DUP1 DUP3 ADD MLOAD DUP8 DUP4 ADD MSTORE PUSH1 0x60 DUP1 DUP3 ADD MLOAD SWAP1 DUP9 ADD MSTORE PUSH1 0x80 DUP1 DUP3 ADD MLOAD SWAP1 DUP9 ADD MSTORE PUSH1 0xA0 DUP1 DUP3 ADD MLOAD SWAP1 DUP9 ADD MSTORE PUSH1 0xC0 DUP1 DUP3 ADD MLOAD ISZERO ISZERO SWAP1 DUP9 ADD MSTORE PUSH1 0xE0 DUP1 DUP3 ADD MLOAD ISZERO ISZERO SWAP1 DUP9 ADD MSTORE PUSH2 0x100 DUP1 DUP3 ADD MLOAD ISZERO ISZERO SWAP1 DUP9 ADD MSTORE PUSH2 0x120 DUP1 DUP3 ADD MLOAD SWAP1 DUP9 ADD MSTORE PUSH2 0x140 DUP1 DUP3 ADD MLOAD SWAP1 DUP9 ADD MSTORE PUSH2 0x160 DUP1 DUP3 ADD MLOAD SWAP1 DUP9 ADD MSTORE PUSH2 0x180 DUP1 DUP3 ADD MLOAD SWAP1 DUP9 ADD MSTORE PUSH2 0x1A0 DUP1 DUP3 ADD MLOAD ISZERO ISZERO SWAP1 DUP9 ADD MSTORE PUSH2 0x1C0 SWAP1 DUP2 ADD MLOAD ISZERO ISZERO SWAP1 DUP8 ADD MSTORE PUSH2 0x1E0 SWAP1 SWAP6 ADD SWAP5 SWAP4 DUP3 ADD SWAP4 PUSH1 0x1 SWAP1 SWAP2 ADD SWAP1 PUSH2 0x1EA0 JUMP JUMPDEST PUSH1 0x40 MLOAD SWAP1 PUSH1 0xA0 DUP3 ADD DUP3 DUP2 LT PUSH8 0xFFFFFFFFFFFFFFFF DUP3 GT OR PUSH2 0x1DCE JUMPI PUSH1 0x40 MSTORE PUSH1 0x0 PUSH1 0x80 DUP4 DUP3 DUP2 MSTORE DUP3 PUSH1 0x20 DUP3 ADD MSTORE DUP3 PUSH1 0x40 DUP3 ADD MSTORE DUP3 PUSH1 0x60 DUP3 ADD MSTORE ADD MSTORE JUMP JUMPDEST MLOAD SWAP1 DUP2 ISZERO ISZERO DUP3 SUB PUSH2 0x1CE JUMPI JUMP JUMPDEST ISZERO PUSH2 0x1FC0 JUMPI JUMP JUMPDEST PUSH1 0x40 MLOAD PUSH3 0x461BCD PUSH1 0xE5 SHL DUP2 MSTORE PUSH1 0x20 PUSH1 0x4 DUP3 ADD MSTORE PUSH1 0x1D PUSH1 0x24 DUP3 ADD MSTORE PUSH32 0x4E6F7420612072656769737465726564206F7267616E697A6174696F6E000000 PUSH1 0x44 DUP3 ADD MSTORE PUSH1 0x64 SWAP1 REVERT JUMPDEST PUSH1 0x20 SWAP1 DUP2 DUP2 DUP5 SUB SLT PUSH2 0x1CE JUMPI DUP1 MLOAD SWAP1 PUSH8 0xFFFFFFFFFFFFFFFF DUP3 GT PUSH2 0x1CE JUMPI ADD SWAP2 DUP1 PUSH1 0x1F DUP5 ADD SLT ISZERO PUSH2 0x1CE JUMPI DUP3 MLOAD PUSH2 0x203B DUP2 PUSH2 0x1E23 JUMP JUMPDEST SWAP4 PUSH2 0x2049 PUSH1 0x40 MLOAD SWAP6 DUP7 PUSH2 0x1E01 JUMP JUMPDEST DUP2 DUP6 MSTORE DUP4 DUP1 DUP7 ADD SWAP3 PUSH1 0x5 SHL DUP3 ADD ADD SWAP3 DUP4 GT PUSH2 0x1CE JUMPI DUP4 ADD SWAP1 JUMPDEST DUP3 DUP3 LT PUSH2 0x2070 JUMPI POP POP POP POP SWAP1 JUMP JUMPDEST DUP2 MLOAD PUSH1 0x1 PUSH1 0x1 PUSH1 0xA0 SHL SUB DUP2 AND DUP2 SUB PUSH2 0x1CE JUMPI DUP2 MSTORE SWAP1 DUP4 ADD SWAP1 DUP4 ADD PUSH2 0x2062 JUMP JUMPDEST PUSH1 0x0 NOT DUP2 EQ PUSH2 0xBBB JUMPI PUSH1 0x1 ADD SWAP1 JUMP JUMPDEST DUP1 MLOAD DUP3 LT ISZERO PUSH2 0x20B2 JUMPI PUSH1 0x20 SWAP2 PUSH1 0x5 SHL ADD ADD SWAP1 JUMP JUMPDEST PUSH4 0x4E487B71 PUSH1 0xE0 SHL PUSH1 0x0 MSTORE PUSH1 0x32 PUSH1 0x4 MSTORE PUSH1 0x24 PUSH1 0x0 REVERT JUMPDEST MLOAD SWAP1 PUSH1 0x1 PUSH1 0x1 PUSH1 0xA0 SHL SUB DUP3 AND DUP3 SUB PUSH2 0x1CE JUMPI JUMP JUMPDEST SWAP1 DUP2 PUSH2 0x120 SWAP2 SUB SLT PUSH2 0x1CE JUMPI PUSH2 0x20F1 DUP2 PUSH2 0x20C8 JUMP JUMPDEST SWAP2 PUSH2 0x20FE PUSH1 0x20 DUP4 ADD PUSH2 0x20C8 JUMP JUMPDEST SWAP2 PUSH1 0x40 DUP2 ADD MLOAD SWAP2 PUSH1 0x60 DUP3 ADD MLOAD SWAP2 PUSH1 0x80 DUP2 ADD MLOAD SWAP2 PUSH2 0x211D PUSH1 0xA0 DUP4 ADD PUSH2 0x1FAC JUMP JUMPDEST SWAP2 PUSH2 0x212A PUSH1 0xC0 DUP3 ADD PUSH2 0x1FAC JUMP JUMPDEST SWAP2 PUSH2 0x100 PUSH2 0x213A PUSH1 0xE0 DUP5 ADD PUSH2 0x1FAC JUMP JUMPDEST SWAP3 ADD MLOAD SWAP1 JUMP JUMPDEST SWAP2 SWAP1 DUP3 ADD DUP1 SWAP3 GT PUSH2 0xBBB JUMPI JUMP JUMPDEST SWAP1 PUSH2 0x2157 DUP3 PUSH2 0x1E23 JUMP JUMPDEST PUSH1 0x40 SWAP1 PUSH2 0x2166 DUP3 MLOAD SWAP2 DUP3 PUSH2 0x1E01 JUMP JUMPDEST DUP4 DUP2 MSTORE DUP1 SWAP4 PUSH2 0x2177 PUSH1 0x1F NOT SWAP2 PUSH2 0x1E23 JUMP JUMPDEST ADD SWAP2 PUSH1 0x0 JUMPDEST DUP4 DUP2 LT PUSH2 0x2189 JUMPI POP POP POP POP JUMP JUMPDEST PUSH1 0x20 SWAP1 DUP3 MLOAD PUSH2 0x2197 DUP2 PUSH2 0x1DE4 JUMP JUMPDEST PUSH1 0x0 DUP2 MSTORE DUP3 PUSH1 0x0 DUP2 DUP4 ADD MSTORE PUSH1 0x0 DUP6 DUP4 ADD MSTORE PUSH1 0x0 PUSH1 0x60 DUP4 ADD MSTORE PUSH1 0x0 PUSH1 0x80 DUP4 ADD MSTORE PUSH1 0x0 PUSH1 0xA0 DUP4 ADD MSTORE PUSH1 0x0 PUSH1 0xC0 DUP4 ADD MSTORE PUSH1 0x0 PUSH1 0xE0 DUP4 ADD MSTORE PUSH1 0x0 PUSH2 0x100 DUP4 ADD MSTORE PUSH1 0x0 PUSH2 0x120 DUP4 ADD MSTORE PUSH1 0x0 PUSH2 0x140 DUP4 ADD MSTORE PUSH1 0x0 PUSH2 0x160 DUP4 ADD MSTORE PUSH1 0x0 PUSH2 0x180 DUP4 ADD MSTORE PUSH1 0x0 PUSH2 0x1A0 DUP4 ADD MSTORE PUSH1 0x0 PUSH2 0x1C0 DUP4 ADD MSTORE DUP3 DUP7 ADD ADD MSTORE ADD PUSH2 0x217C JUMP JUMPDEST ISZERO PUSH2 0x2215 JUMPI JUMP JUMPDEST PUSH1 0x40 MLOAD PUSH3 0x461BCD PUSH1 0xE5 SHL DUP2 MSTORE PUSH1 0x20 PUSH1 0x4 DUP3 ADD MSTORE PUSH1 0x31 PUSH1 0x24 DUP3 ADD MSTORE PUSH32 0x4E6F7420617574686F72697A656420746F2067656E657261746520636F646520 PUSH1 0x44 DUP3 ADD MSTORE PUSH17 0x199BDC881D1A1A5CC818DBDB9D1C9858DD PUSH1 0x7A SHL PUSH1 0x64 DUP3 ADD MSTORE PUSH1 0x84 SWAP1 REVERT JUMPDEST SWAP1 PUSH2 0x227E DUP3 PUSH2 0x1E23 JUMP JUMPDEST PUSH2 0x228B PUSH1 0x40 MLOAD SWAP2 DUP3 PUSH2 0x1E01 JUMP JUMPDEST DUP3 DUP2 MSTORE DUP1 SWAP3 PUSH2 0x229C PUSH1 0x1F NOT SWAP2 PUSH2 0x1E23 JUMP JUMPDEST ADD SWAP1 PUSH1 0x20 CALLDATASIZE SWAP2 ADD CALLDATACOPY JUMP JUMPDEST SWAP2 SWAP1 DUP3 SUB SWAP2 DUP3 GT PUSH2 0xBBB JUMPI JUMP INVALID 0xEB DUP7 0xB0 0xD0 0x28 0xA6 0xD1 SDIV PUSH22 0xE52EA262AC529E889FA50D503F92ECB3992EF26C4C11 0xC5 LOG2 PUSH5 0x6970667358 0x22 SLT KECCAK256 ORIGIN 0xD0 PUSH29 0x1BADC6A00E9FA3E1E579EE41302E46BDC326181156F4AE9D2EC9CCBC23 PUSH5 0x736F6C6343 STOP ADDMOD SGT STOP CALLER "},"methodIdentifiers":{"bulkGenerateCodes(address[])":"27dde58f","createSalaryContract(address,uint256,uint256,bool,uint256)":"8026c0a3","factory()":"c45a0155","generateDailyCode(address,uint256)":"3125ada2","generateTodaysCode(address)":"c81a1d55","getContractDetails(address)":"32df3f02","getEmployeeAttendanceHistory(address,uint256)":"58b86ebc","getEmployeesList(address)":"c1db564a","getEmployerStats(address)":"8a3b3d0e","getTopPerformingEmployees(address,uint256)":"b6dd1f66","proposeModification(address,uint256,address)":"2cf23a3b","terminateContract(address)":"3a3b1e0a"}}}}}