{"contracts/AdminDashboard.sol":{"AdminDashboard":{"abi":[{"inputs":[{"internalType":"address","name":"_factoryAddress","type":"address"}],"stateMutability":"nonpayable","type":"constructor"},{"anonymous":false,"inputs":[{"indexed":false,"internalType":"uint256","name":"totalOrgs","type":"uint256"},{"indexed":false,"internalType":"uint256","name":"totalEmployees","type":"uint256"},{"indexed":false,"internalType":"uint256","name":"totalLocked","type":"uint256"}],"name":"PlatformStatsUpdated","type":"event"},{"inputs":[],"name":"factory","outputs":[{"internalType":"contract SalaryStreamingFactory","name":"","type":"address"}],"stateMutability":"view","type":"function"},{"inputs":[],"name":"getAllOrganizationsSummary","outputs":[{"components":[{"internalType":"address","name":"orgAddress","type":"address"},{"internalType":"string","name":"name","type":"string"},{"internalType":"string","name":"email","type":"string"},{"internalType":"uint256","name":"totalEmployees","type":"uint256"},{"internalType":"uint256","name":"totalSalariesLocked","type":"uint256"},{"internalType":"uint256","name":"activeContracts","type":"uint256"},{"internalType":"bool","name":"isActive","type":"bool"},{"internalType":"uint256","name":"createdAt","type":"uint256"}],"internalType":"struct AdminDashboard.OrganizationSummary[]","name":"","type":"tuple[]"}],"stateMutability":"view","type":"function"},{"inputs":[{"internalType":"address","name":"_contractAddress","type":"address"}],"name":"getContractDetails","outputs":[{"internalType":"address","name":"employer","type":"address"},{"internalType":"address","name":"employee","type":"address"},{"internalType":"uint256","name":"dailySalary","type":"uint256"},{"internalType":"uint256","name":"attendanceCount","type":"uint256"},{"internalType":"uint256","name":"totalWithdrawn","type":"uint256"},{"internalType":"uint256","name":"availableBalance","type":"uint256"},{"internalType":"bool","name":"isActive","type":"bool"},{"internalType":"bool","name":"employeeApproved","type":"bool"},{"internalType":"bool","name":"isOnProbation","type":"bool"},{"internalType":"uint256","name":"probationPercentage","type":"uint256"},{"internalType":"uint256","name":"contractBalance","type":"uint256"}],"stateMutability":"view","type":"function"},{"inputs":[{"internalType":"address","name":"_orgAddress","type":"address"}],"name":"getOrganizationEmployees","outputs":[{"components":[{"internalType":"address","name":"contractAddress","type":"address"},{"internalType":"address","name":"employer","type":"address"},{"internalType":"address","name":"employee","type":"address"},{"internalType":"uint256","name":"dailySalary","type":"uint256"},{"internalType":"uint256","name":"attendanceCount","type":"uint256"},{"internalType":"uint256","name":"totalWithdrawn","type":"uint256"},{"internalType":"bool","name":"isActive","type":"bool"},{"internalType":"bool","name":"employeeApproved","type":"bool"},{"internalType":"uint256","name":"startDate","type":"uint256"}],"internalType":"struct AdminDashboard.EmployeeContractSummary[]","name":"","type":"tuple[]"}],"stateMutability":"view","type":"function"},{"inputs":[],"name":"getPlatformStats","outputs":[{"components":[{"internalType":"uint256","name":"totalOrganizations","type":"uint256"},{"internalType":"uint256","name":"totalEmployees","type":"uint256"},{"internalType":"uint256","name":"totalSalariesLocked","type":"uint256"},{"internalType":"uint256","name":"totalWithdrawn","type":"uint256"},{"internalType":"uint256","name":"activeContracts","type":"uint256"},{"internalType":"uint256","name":"terminatedContracts","type":"uint256"}],"internalType":"struct AdminDashboard.PlatformStats","name":"stats","type":"tuple"}],"stateMutability":"view","type":"function"},{"inputs":[{"internalType":"uint256","name":"_limit","type":"uint256"}],"name":"getRecentContracts","outputs":[{"components":[{"internalType":"address","name":"contractAddress","type":"address"},{"internalType":"address","name":"employer","type":"address"},{"internalType":"address","name":"employee","type":"address"},{"internalType":"uint256","name":"dailySalary","type":"uint256"},{"internalType":"uint256","name":"attendanceCount","type":"uint256"},{"internalType":"uint256","name":"totalWithdrawn","type":"uint256"},{"internalType":"bool","name":"isActive","type":"bool"},{"internalType":"bool","name":"employeeApproved","type":"bool"},{"internalType":"uint256","name":"startDate","type":"uint256"}],"internalType":"struct AdminDashboard.EmployeeContractSummary[]","name":"","type":"tuple[]"}],"stateMutability":"view","type":"function"},{"inputs":[{"internalType":"uint256","name":"_limit","type":"uint256"}],"name":"getTopOrganizationsByEmployees","outputs":[{"components":[{"internalType":"address","name":"orgAddress","type":"address"},{"internalType":"string","name":"name","type":"string"},{"internalType":"string","name":"email","type":"string"},{"internalType":"uint256","name":"totalEmployees","type":"uint256"},{"internalType":"uint256","name":"totalSalariesLocked","type":"uint256"},{"internalType":"uint256","name":"activeContracts","type":"uint256"},{"internalType":"bool","name":"isActive","type":"bool"},{"internalType":"uint256","name":"createdAt","type":"uint256"}],"internalType":"struct AdminDashboard.OrganizationSummary[]","name":"","type":"tuple[]"}],"stateMutability":"view","type":"function"},{"inputs":[{"internalType":"string","name":"_name","type":"string"}],"name":"searchOrganizationByName","outputs":[{"components":[{"internalType":"address","name":"orgAddress","type":"address"},{"internalType":"string","name":"name","type":"string"},{"internalType":"string","name":"email","type":"string"},{"internalType":"uint256","name":"totalEmployees","type":"uint256"},{"internalType":"uint256","name":"totalSalariesLocked","type":"uint256"},{"internalType":"uint256","name":"activeContracts","type":"uint256"},{"internalType":"bool","name":"isActive","type":"bool"},{"internalType":"uint256","name":"createdAt","type":"uint256"}],"internalType":"struct AdminDashboard.OrganizationSummary[]","name":"","type":"tuple[]"}],"stateMutability":"view","type":"function"}],"evm":{"bytecode":{"linkReferences":{},"object":"60803461007457601f611fa138819003918201601f19168301916001600160401b038311848410176100795780849260209460405283398101031261007457516001600160a01b0381169081900361007457600080546001600160a01b031916919091179055604051611f1190816100908239f35b600080fd5b634e487b7160e01b600052604160045260246000fdfe608080604052600436101561001357600080fd5b60003560e01c90816307a11c951461118b57508063136d888314610db257806332df3f0214610b5a5780633504fbab146109a75780635a91b0b21461065e57806377b93ff31461054057806379f59f84146100a55763c45a01551461007757600080fd5b346100a05760003660031901126100a0576000546040516001600160a01b039091168152602090f35b600080fd5b346100a05760203660031901126100a05760043567ffffffffffffffff81116100a057366023820112156100a05780600401356100e181611815565b906100ef60405192836117f3565b808252602082019236602483830101116100a0578160009260246020930186378301015260005460405163429b62e560e01b81523360048201526001600160a01b0390911690602081602481855afa90811561033957600091610506575b508015610494575b61015e90611852565b60405163010ddb2760e31b8152600081600481855afa90811561033957600091610471575b5061018e8151611a16565b9160009160005b815181101561041f576001600160a01b036101b082846119df565b51604051630c37503b60e31b815291166004820152600081602481875afa908115610339576000916103fc575b50602081015160405161020d602082816102008183019687815193849201611605565b81010380845201826117f3565b5190208860405161022d6020828c61020083830196879251928391611605565b51902014610245575b50610240906119ba565b610195565b9660018060a0989694939597981b0361025e85846119df565b51604051635ac6820960e01b815291166004820152946000866024818a5afa958615610339576000966103d7575b5060009660005b875181101561034557600460206001600160a01b036102b2848c6119df565b5116604051928380926308bcf8b560e21b82525afa908115610339576000916102ff575b506102ea575b6102e5906119ba565b610293565b976102f76102e5916119ba565b9890506102dc565b90506020813d602011610331575b8161031a602093836117f3565b810103126100a05761032b90611831565b8c6102d6565b3d915061030d565b6040513d6000823e3d90fd5b5094955096959261024092936103d0929960018060a01b03815116916020820151916040810151916060808301516080808501519160a0938487015115159760c080980151996040519b6103988d6117b9565b8c5260208c015260408b015289015287015285015283015260e08201526103bf82896119df565b526103ca81886119df565b506119ba565b9390610236565b6103f59196503d806000833e6103ed81836117f3565b810190611930565b948961028c565b61041991503d806000833e61041181836117f3565b810190611ae3565b886101dd565b50505061042b81611a16565b9160005b8281106104485760405180610444868261164d565b0390f35b8061045661046c92846119df565b5161046182876119df565b526103ca81866119df565b61042f565b61048e91503d806000833e61048681836117f3565b8101906118ae565b84610183565b50604051638da5cb5b60e01b8152602081600481855afa8015610339576000906104cb575b6001600160a01b031633149050610155565b506020813d6020116104fe575b816104e5602093836117f3565b810103126100a0576104f961015e9161183e565b6104b9565b3d91506104d8565b90506020813d602011610538575b81610521602093836117f3565b810103126100a05761053290611831565b8461014d565b3d9150610514565b346100a0576020806003193601126100a05760005460405163429b62e560e01b8152336004820152916001600160a01b039182168184602481845afa93841561033957600094610627575b5083156105b6575b61059c84611852565b6104446105aa600435611ddc565b60405191829182611714565b604051638da5cb5b60e01b815293508190849060049082905afa908115610339576000916105f0575b5061059c9250163314908280610593565b905082813d8311610620575b61060681836117f3565b810103126100a05761061a61059c9261183e565b836105df565b503d6105fc565b9093508181813d8311610657575b61063f81836117f3565b810103126100a05761065090611831565b928461058b565b503d610635565b346100a05760003660031901126100a05760005460405163429b62e560e01b81523360048201526001600160a01b0390911690602081602481855afa9081156103395760009161096d575b5080156108fb575b6106ba90611852565b60405163010ddb2760e31b8152600081600481855afa908115610339576000916108e0575b506106ea8151611a16565b9160005b82518110156108d2576001600160a01b0361070982856119df565b51169360405193630c37503b60e31b8552856004860152600085602481875afa948515610339576000956108b5575b5060405195635ac6820960e01b87526004870152600086602481875afa95861561033957600096610898575b5060009360005b875181101561081157600460206001600160a01b0361078a848c6119df565b5116604051928380926308bcf8b560e21b82525afa908115610339576000916107d7575b506107c2575b6107bd906119ba565b61076b565b946107cf6107bd916119ba565b9590506107b4565b90506020813d602011610809575b816107f2602093836117f3565b810103126100a05761080390611831565b896107ae565b3d91506107e5565b509550939261089092919360018060a01b03815116916020820151916040810151916060808301516080808501519160a0938487015115159760c080980151996040519b61085e8d6117b9565b8c5260208c015260408b015289015287015285015283015260e082015261088582856119df565b526103ca81846119df565b9290926106ee565b6108ae9196503d806000833e6103ed81836117f3565b9486610764565b6108cb9195503d806000833e61041181836117f3565b9386610738565b60405180610444868261164d565b6108f591503d806000833e61048681836117f3565b826106df565b50604051638da5cb5b60e01b8152602081600481855afa801561033957600090610932575b6001600160a01b0316331490506106b1565b506020813d602011610965575b8161094c602093836117f3565b810103126100a0576109606106ba9161183e565b610920565b3d915061093f565b90506020813d60201161099f575b81610988602093836117f3565b810103126100a05761099990611831565b826106a9565b3d915061097b565b346100a0576020806003193601126100a0576001600160a01b039060043582811691908290036100a0578260005416916040519163429b62e560e01b83523360048401528083602481875afa92831561033957600093610b23575b508215610aa8575b50610a16600092611852565b602460405180948193635ac6820960e01b835260048301525afa90811561033957600091610a8d575b50610a4a8151611bdd565b9160005b8251811015610a7f5780610a7083610a69610a7a94876119df565b5116611c91565b61046182876119df565b610a4e565b604051806104448682611714565b610aa291503d806000833e6103ed81836117f3565b82610a3f565b604051638da5cb5b60e01b81529092508281600481875afa908115610339578593600092610ae4575b5050600092610a16911633149250610a0a565b8194508092503d8311610b1c575b610afc81836117f3565b810103126100a057610a1684610b1360009461183e565b91819450610ad1565b503d610af2565b9080935081813d8311610b53575b610b3b81836117f3565b810103126100a057610b4c90611831565b9185610a02565b503d610b31565b346100a05760203660031901126100a0576004356001600160a01b038116908190036100a05760005460405163429b62e560e01b81523360048201526001600160a01b0390911690602081602481855afa90811561033957600091610d78575b508015610d01575b610bcc9150611852565b604051637cc1f86760e01b815261012081600481855afa90811561033957600091600091600094600090600090600091600093600095600097610cbe575b5060405163404ed5b560e11b81529960208b600481875afa93841561033957600094610c88575b604080516001600160a01b039c8d1681529b909a1660208c0152988a01526060890152608088015260a0870152151560c0860152151560e08501521515610100840152610120830152316101408201526101609150f35b935060208b3d602011610cb6575b81610ca3602093836117f3565b810103126100a0576101609a5193610c31565b3d9150610c96565b97505050965050505050610cec91506101203d61012011610cfa575b610ce481836117f3565b810190611c2d565b95989094919390918a610c0a565b503d610cda565b50602060049160405192838092638da5cb5b60e01b82525afa801561033957600090610d3d575b610bcc91506001600160a01b03163314610bc2565b506020813d602011610d70575b81610d57602093836117f3565b810103126100a057610d6b610bcc9161183e565b610d28565b3d9150610d4a565b90506020813d602011610daa575b81610d93602093836117f3565b810103126100a057610da490611831565b83610bba565b3d9150610d86565b346100a05760003660031901126100a05760405160c0810181811067ffffffffffffffff821117611175576040526000815260006020820152600060408201526000606082015260006080820152600060a082015260018060a01b036000541660405163429b62e560e01b8152336004820152602081602481855afa9081156103395760009161113b575b5080156110c9575b610e4e90611852565b60405163010ddb2760e31b815290600082600481845afa908115610339576004926000926110aa575b5060009060405193848092630c69e74b60e11b82525afa9182156103395760009261108d575b50518252600091828080805b8551871015611039576001600160a01b03610ec488886119df565b5116936040516308bcf8b560e21b8152602081600481895afa90811561033957600091610fff575b5015610fee57610efb906119ba565b915b6040516306f8dfe160e21b815290602082600481895afa91821561033957600092610fb8575b50610f32600492602092611a09565b9560405192838092634b31971360e01b82525afa90811561033957600091610f84575b50610f6390610f7b92611a09565b96610f7160208701516119ba565b60208701526119ba565b95929092610ea9565b90506020813d602011610fb0575b81610f9f602093836117f3565b810103126100a05751610f7b610f55565b3d9150610f92565b91506020823d602011610fe6575b81610fd3602093836117f3565b810103126100a057905190610f32610f23565b3d9150610fc6565b9192610ff9906119ba565b92610efd565b90506020813d602011611031575b8161101a602093836117f3565b810103126100a05761102b90611831565b89610eec565b3d915061100d565b60c094939160408501526060840152608083015260a082015260a0604051918051835260208101516020840152604081015160408401526060810151606084015260808101516080840152015160a0820152f35b6110a39192503d806000833e6103ed81836117f3565b9083610e9d565b60009192506110c2903d8084833e61048681836117f3565b9190610e77565b50604051638da5cb5b60e01b8152602081600481855afa801561033957600090611100575b6001600160a01b031633149050610e45565b506020813d602011611133575b8161111a602093836117f3565b810103126100a05761112e610e4e9161183e565b6110ee565b3d915061110d565b90506020813d60201161116d575b81611156602093836117f3565b810103126100a05761116790611831565b83610e3d565b3d9150611149565b634e487b7160e01b600052604160045260246000fd5b346100a057602090816003193601126100a05760005463429b62e560e01b8252336004838101919091526001600160a01b039390359260249285169082818581855afa908115610339576000916115d0575b508015611568575b6111ee90611852565b60405163010ddb2760e31b815293600085600481855afa9485156103395760009561154b575b50926112208551611a16565b6000915b86518310156113ee578761123884896119df565b51604051630c37503b60e31b815291166004820152966000888381885afa978815610339576000986113d1575b508861127185836119df565b51604051635ac6820960e01b815291166004820152946000868481845afa958615610339576000966113b4575b5060009760005b875181101561133e576004898d6112bc848c6119df565b5116604051928380926308bcf8b560e21b82525afa90811561033957600091611309575b506112f4575b6112ef906119ba565b6112a5565b986113016112ef916119ba565b9990506112e6565b90508981813d8311611337575b61132081836117f3565b810103126100a05761133190611831565b8d6112e0565b503d611316565b5094919861138791965097876113ac9495998c81511692828201516040830151606080850151608091828701519360a0958689015115159960c0809a01519b6040519d8e6117b9565b8d528c015260408b015289015287015285015283015260e08201526103bf82896119df565b919490611224565b6113ca9196503d806000833e6103ed81836117f3565b948a61129e565b6113e79198503d806000833e61041181836117f3565b9689611265565b858260005b81516000199390848101908111611536578210156114ec5760005b83518581019081116114d7578361142491611dcf565b8110156114c6576060908161143982876119df565b51015160018201908183116114b1576114649361145683896119df565b5101511161146957506119ba565b61140e565b6114aa9061147783886119df565b5161148282896119df565b5161148d858a6119df565b5261149884896119df565b506114a382896119df565b52866119df565b50876103ca565b88634e487b7160e01b60005260116004526000fd5b5092506114d2906119ba565b6113f3565b86634e487b7160e01b60005260116004526000fd5b825191508181111561152f57505b61150381611a16565b9160005b82811061151c5760405180610444868261164d565b8061045661152a92846119df565b611507565b90506114fa565b85634e487b7160e01b60005260116004526000fd5b6115619195503d806000833e61048681836117f3565b9386611214565b50604051638da5cb5b60e01b81528281600481855afa8015610339578690600090611598575b16331490506111e5565b50508281813d83116115c9575b6115af81836117f3565b810103126100a057856115c46111ee9261183e565b61158e565b503d6115a5565b90508281813d83116115fe575b6115e781836117f3565b810103126100a0576115f890611831565b866111dd565b503d6115dd565b60005b8381106116185750506000910152565b8181015183820152602001611608565b9060209161164181518092818552858086019101611605565b601f01601f1916010190565b602080820190808352835180925260409283810182858560051b8401019601946000925b858410611682575050505050505090565b909192939495968580600192603f198582030187528a5190848060a01b0382511681526116cf6116bf848401516101008087860152840190611628565b888401518382038a850152611628565b91606080820151908301526080808201519083015260a0808201519083015260c08082015115159083015260e080910151910152990194019401929594939190611671565b60208082019080835283518092528060408094019401926000905b83821061173e57505050505090565b845180516001600160a01b03908116885281850151811688860152818301511687830152606080820151908801526080808201519088015260a0808201519088015260c08082015115159088015260e0808201511515908801526101009081015190870152610120909501949382019360019091019061172f565b610100810190811067ffffffffffffffff82111761117557604052565b610120810190811067ffffffffffffffff82111761117557604052565b90601f8019910116810190811067ffffffffffffffff82111761117557604052565b67ffffffffffffffff811161117557601f01601f191660200190565b519081151582036100a057565b51906001600160a01b03821682036100a057565b1561185957565b60405162461bcd60e51b81526020600482015260156024820152744f6e6c792061646d696e2063616e2061636365737360581b6044820152606490fd5b67ffffffffffffffff81116111755760051b60200190565b60209081818403126100a05780519067ffffffffffffffff82116100a057019180601f840112156100a05782516118e481611896565b936118f260405195866117f3565b818552838086019260051b8201019283116100a0578301905b828210611919575050505090565b8380916119258461183e565b81520191019061190b565b60209081818403126100a05780519067ffffffffffffffff82116100a057019180601f840112156100a057825161196681611896565b9361197460405195866117f3565b818552838086019260051b8201019283116100a0578301905b82821061199b575050505090565b81516001600160a01b03811681036100a057815290830190830161198d565b60001981146119c95760010190565b634e487b7160e01b600052601160045260246000fd5b80518210156119f35760209160051b010190565b634e487b7160e01b600052603260045260246000fd5b919082018092116119c957565b90611a2082611896565b604090611a2f825191826117f3565b8381528093611a40601f1991611896565b019160005b838110611a525750505050565b6020908251611a60816117b9565b600081526060600084918083850152808785015283015260006080830152600060a0830152600060c0830152600060e0830152828601015201611a45565b81601f820112156100a0578051611ab481611815565b92611ac260405194856117f3565b818452602082840101116100a057611ae09160208085019101611605565b90565b906020828203126100a057815167ffffffffffffffff928382116100a0570160e0818303126100a0576040519260e084018481108282111761117557604052611b2b8261183e565b845260208201518181116100a05783611b45918401611a9e565b602085015260408201519081116100a05760c092611b64918301611a9e565b60408401526060810151606084015260808101516080840152611b8960a08201611831565b60a0840152015160c082015290565b60405190611ba5826117d6565b816101006000918281528260208201528260408201528260608201528260808201528260a08201528260c08201528260e08201520152565b90611be782611896565b611bf460405191826117f3565b8281528092611c05601f1991611896565b019060005b828110611c1657505050565b602090611c21611b98565b82828501015201611c0a565b90816101209103126100a057611c428161183e565b91611c4f6020830161183e565b91604081015191606082015191608081015191611c6e60a08301611831565b91611c7b60c08201611831565b91610100611c8b60e08401611831565b92015190565b90611c9a611b98565b5060408051637cc1f86760e01b815290926001600160a01b0390811691610120908181600481875afa928315611dc457956004949596600091829183928480968198829a611d8d575b505083516305cbde4360e11b8152996020908b90818e5afa998a15611d825760009a611d4c575b50829084519b611d198d6117d6565b8c521660208b015216908801526060870152608086015260a0850152151560c0840152151560e083015261010082015290565b90996020823d8211611d7a575b81611d66602093836117f3565b81010312611d775750519882611d0a565b80fd5b3d9150611d59565b84513d6000823e3d90fd5b95509550505095509350611dad9250803d10610cfa57610ce481836117f3565b505096929390959791949093949596973880611ce3565b86513d6000823e3d90fd5b919082039182116119c957565b60008054604051630c69e74b60e11b81526001600160a01b039183908290600490829086165afa908115611ed0578391611eb6575b508051938415611e7b5784811115611e75575083925b611e3a84611e3481611bdd565b96611dcf565b905b848110611e4b57505050505090565b80611e6685610a69611e60611e709587611a09565b876119df565b6103bf82896119df565b611e3c565b92611e27565b50506040519250506020820167ffffffffffffffff811183821017611ea257604052815290565b634e487b7160e01b82526041600452602482fd5b611eca91503d8085833e6103ed81836117f3565b38611e11565b6040513d85823e3d90fdfea2646970667358221220ac0915d09344e871cd2049744c491d05be49400b04e58bf83acba0b7439c43f264736f6c63430008130033","opcodes":"PUSH1 0x80 CALLVALUE PUSH2 0x74 JUMPI PUSH1 0x1F PUSH2 0x1FA1 CODESIZE DUP2 SWAP1 SUB SWAP2 DUP3 ADD PUSH1 0x1F NOT AND DUP4 ADD SWAP2 PUSH1 0x1 PUSH1 0x1 PUSH1 0x40 SHL SUB DUP4 GT DUP5 DUP5 LT OR PUSH2 0x79 JUMPI DUP1 DUP5 SWAP3 PUSH1 0x20 SWAP5 PUSH1 0x40 MSTORE DUP4 CODECOPY DUP2 ADD SUB SLT PUSH2 0x74 JUMPI MLOAD PUSH1 0x1 PUSH1 0x1 PUSH1 0xA0 SHL SUB DUP2 AND SWAP1 DUP2 SWAP1 SUB PUSH2 0x74 JUMPI PUSH1 0x0 DUP1 SLOAD PUSH1 0x1 PUSH1 0x1 PUSH1 0xA0 SHL SUB NOT AND SWAP2 SWAP1 SWAP2 OR SWAP1 SSTORE PUSH1 0x40 MLOAD PUSH2 0x1F11 SWAP1 DUP2 PUSH2 0x90 DUP3 CODECOPY RETURN JUMPDEST PUSH1 0x0 DUP1 REVERT JUMPDEST PUSH4 0x4E487B71 PUSH1 0xE0 SHL PUSH1 0x0 MSTORE PUSH1 0x41 PUSH1 0x4 MSTORE PUSH1 0x24 PUSH1 0x0 REVERT INVALID PUSH1 0x80 DUP1 PUSH1 0x40 MSTORE PUSH1 0x4 CALLDATASIZE LT ISZERO PUSH2 0x13 JUMPI PUSH1 0x0 DUP1 REVERT JUMPDEST PUSH1 0x0 CALLDATALOAD PUSH1 0xE0 SHR SWAP1 DUP2 PUSH4 0x7A11C95 EQ PUSH2 0x118B JUMPI POP DUP1 PUSH4 0x136D8883 EQ PUSH2 0xDB2 JUMPI DUP1 PUSH4 0x32DF3F02 EQ PUSH2 0xB5A JUMPI DUP1 PUSH4 0x3504FBAB EQ PUSH2 0x9A7 JUMPI DUP1 PUSH4 0x5A91B0B2 EQ PUSH2 0x65E JUMPI DUP1 PUSH4 0x77B93FF3 EQ PUSH2 0x540 JUMPI DUP1 PUSH4 0x79F59F84 EQ PUSH2 0xA5 JUMPI PUSH4 0xC45A0155 EQ PUSH2 0x77 JUMPI PUSH1 0x0 DUP1 REVERT JUMPDEST CALLVALUE PUSH2 0xA0 JUMPI PUSH1 0x0 CALLDATASIZE PUSH1 0x3 NOT ADD SLT PUSH2 0xA0 JUMPI PUSH1 0x0 SLOAD PUSH1 0x40 MLOAD PUSH1 0x1 PUSH1 0x1 PUSH1 0xA0 SHL SUB SWAP1 SWAP2 AND DUP2 MSTORE PUSH1 0x20 SWAP1 RETURN JUMPDEST PUSH1 0x0 DUP1 REVERT JUMPDEST CALLVALUE PUSH2 0xA0 JUMPI PUSH1 0x20 CALLDATASIZE PUSH1 0x3 NOT ADD SLT PUSH2 0xA0 JUMPI PUSH1 0x4 CALLDATALOAD PUSH8 0xFFFFFFFFFFFFFFFF DUP2 GT PUSH2 0xA0 JUMPI CALLDATASIZE PUSH1 0x23 DUP3 ADD SLT ISZERO PUSH2 0xA0 JUMPI DUP1 PUSH1 0x4 ADD CALLDATALOAD PUSH2 0xE1 DUP2 PUSH2 0x1815 JUMP JUMPDEST SWAP1 PUSH2 0xEF PUSH1 0x40 MLOAD SWAP3 DUP4 PUSH2 0x17F3 JUMP JUMPDEST DUP1 DUP3 MSTORE PUSH1 0x20 DUP3 ADD SWAP3 CALLDATASIZE PUSH1 0x24 DUP4 DUP4 ADD ADD GT PUSH2 0xA0 JUMPI DUP2 PUSH1 0x0 SWAP3 PUSH1 0x24 PUSH1 0x20 SWAP4 ADD DUP7 CALLDATACOPY DUP4 ADD ADD MSTORE PUSH1 0x0 SLOAD PUSH1 0x40 MLOAD PUSH4 0x429B62E5 PUSH1 0xE0 SHL DUP2 MSTORE CALLER PUSH1 0x4 DUP3 ADD MSTORE PUSH1 0x1 PUSH1 0x1 PUSH1 0xA0 SHL SUB SWAP1 SWAP2 AND SWAP1 PUSH1 0x20 DUP2 PUSH1 0x24 DUP2 DUP6 GAS STATICCALL SWAP1 DUP2 ISZERO PUSH2 0x339 JUMPI PUSH1 0x0 SWAP2 PUSH2 0x506 JUMPI JUMPDEST POP DUP1 ISZERO PUSH2 0x494 JUMPI JUMPDEST PUSH2 0x15E SWAP1 PUSH2 0x1852 JUMP JUMPDEST PUSH1 0x40 MLOAD PUSH4 0x10DDB27 PUSH1 0xE3 SHL DUP2 MSTORE PUSH1 0x0 DUP2 PUSH1 0x4 DUP2 DUP6 GAS STATICCALL SWAP1 DUP2 ISZERO PUSH2 0x339 JUMPI PUSH1 0x0 SWAP2 PUSH2 0x471 JUMPI JUMPDEST POP PUSH2 0x18E DUP2 MLOAD PUSH2 0x1A16 JUMP JUMPDEST SWAP2 PUSH1 0x0 SWAP2 PUSH1 0x0 JUMPDEST DUP2 MLOAD DUP2 LT ISZERO PUSH2 0x41F JUMPI PUSH1 0x1 PUSH1 0x1 PUSH1 0xA0 SHL SUB PUSH2 0x1B0 DUP3 DUP5 PUSH2 0x19DF JUMP JUMPDEST MLOAD PUSH1 0x40 MLOAD PUSH4 0xC37503B PUSH1 0xE3 SHL DUP2 MSTORE SWAP2 AND PUSH1 0x4 DUP3 ADD MSTORE PUSH1 0x0 DUP2 PUSH1 0x24 DUP2 DUP8 GAS STATICCALL SWAP1 DUP2 ISZERO PUSH2 0x339 JUMPI PUSH1 0x0 SWAP2 PUSH2 0x3FC JUMPI JUMPDEST POP PUSH1 0x20 DUP2 ADD MLOAD PUSH1 0x40 MLOAD PUSH2 0x20D PUSH1 0x20 DUP3 DUP2 PUSH2 0x200 DUP2 DUP4 ADD SWAP7 DUP8 DUP2 MLOAD SWAP4 DUP5 SWAP3 ADD PUSH2 0x1605 JUMP JUMPDEST DUP2 ADD SUB DUP1 DUP5 MSTORE ADD DUP3 PUSH2 0x17F3 JUMP JUMPDEST MLOAD SWAP1 KECCAK256 DUP9 PUSH1 0x40 MLOAD PUSH2 0x22D PUSH1 0x20 DUP3 DUP13 PUSH2 0x200 DUP4 DUP4 ADD SWAP7 DUP8 SWAP3 MLOAD SWAP3 DUP4 SWAP2 PUSH2 0x1605 JUMP JUMPDEST MLOAD SWAP1 KECCAK256 EQ PUSH2 0x245 JUMPI JUMPDEST POP PUSH2 0x240 SWAP1 PUSH2 0x19BA JUMP JUMPDEST PUSH2 0x195 JUMP JUMPDEST SWAP7 PUSH1 0x1 DUP1 PUSH1 0xA0 SWAP9 SWAP7 SWAP5 SWAP4 SWAP6 SWAP8 SWAP9 SHL SUB PUSH2 0x25E DUP6 DUP5 PUSH2 0x19DF JUMP JUMPDEST MLOAD PUSH1 0x40 MLOAD PUSH4 0x5AC68209 PUSH1 0xE0 SHL DUP2 MSTORE SWAP2 AND PUSH1 0x4 DUP3 ADD MSTORE SWAP5 PUSH1 0x0 DUP7 PUSH1 0x24 DUP2 DUP11 GAS STATICCALL SWAP6 DUP7 ISZERO PUSH2 0x339 JUMPI PUSH1 0x0 SWAP7 PUSH2 0x3D7 JUMPI JUMPDEST POP PUSH1 0x0 SWAP7 PUSH1 0x0 JUMPDEST DUP8 MLOAD DUP2 LT ISZERO PUSH2 0x345 JUMPI PUSH1 0x4 PUSH1 0x20 PUSH1 0x1 PUSH1 0x1 PUSH1 0xA0 SHL SUB PUSH2 0x2B2 DUP5 DUP13 PUSH2 0x19DF JUMP JUMPDEST MLOAD AND PUSH1 0x40 MLOAD SWAP3 DUP4 DUP1 SWAP3 PUSH4 0x8BCF8B5 PUSH1 0xE2 SHL DUP3 MSTORE GAS STATICCALL SWAP1 DUP2 ISZERO PUSH2 0x339 JUMPI PUSH1 0x0 SWAP2 PUSH2 0x2FF JUMPI JUMPDEST POP PUSH2 0x2EA JUMPI JUMPDEST PUSH2 0x2E5 SWAP1 PUSH2 0x19BA JUMP JUMPDEST PUSH2 0x293 JUMP JUMPDEST SWAP8 PUSH2 0x2F7 PUSH2 0x2E5 SWAP2 PUSH2 0x19BA JUMP JUMPDEST SWAP9 SWAP1 POP PUSH2 0x2DC JUMP JUMPDEST SWAP1 POP PUSH1 0x20 DUP2 RETURNDATASIZE PUSH1 0x20 GT PUSH2 0x331 JUMPI JUMPDEST DUP2 PUSH2 0x31A PUSH1 0x20 SWAP4 DUP4 PUSH2 0x17F3 JUMP JUMPDEST DUP2 ADD SUB SLT PUSH2 0xA0 JUMPI PUSH2 0x32B SWAP1 PUSH2 0x1831 JUMP JUMPDEST DUP13 PUSH2 0x2D6 JUMP JUMPDEST RETURNDATASIZE SWAP2 POP PUSH2 0x30D JUMP JUMPDEST PUSH1 0x40 MLOAD RETURNDATASIZE PUSH1 0x0 DUP3 RETURNDATACOPY RETURNDATASIZE SWAP1 REVERT JUMPDEST POP SWAP5 SWAP6 POP SWAP7 SWAP6 SWAP3 PUSH2 0x240 SWAP3 SWAP4 PUSH2 0x3D0 SWAP3 SWAP10 PUSH1 0x1 DUP1 PUSH1 0xA0 SHL SUB DUP2 MLOAD AND SWAP2 PUSH1 0x20 DUP3 ADD MLOAD SWAP2 PUSH1 0x40 DUP2 ADD MLOAD SWAP2 PUSH1 0x60 DUP1 DUP4 ADD MLOAD PUSH1 0x80 DUP1 DUP6 ADD MLOAD SWAP2 PUSH1 0xA0 SWAP4 DUP5 DUP8 ADD MLOAD ISZERO ISZERO SWAP8 PUSH1 0xC0 DUP1 SWAP9 ADD MLOAD SWAP10 PUSH1 0x40 MLOAD SWAP12 PUSH2 0x398 DUP14 PUSH2 0x17B9 JUMP JUMPDEST DUP13 MSTORE PUSH1 0x20 DUP13 ADD MSTORE PUSH1 0x40 DUP12 ADD MSTORE DUP10 ADD MSTORE DUP8 ADD MSTORE DUP6 ADD MSTORE DUP4 ADD MSTORE PUSH1 0xE0 DUP3 ADD MSTORE PUSH2 0x3BF DUP3 DUP10 PUSH2 0x19DF JUMP JUMPDEST MSTORE PUSH2 0x3CA DUP2 DUP9 PUSH2 0x19DF JUMP JUMPDEST POP PUSH2 0x19BA JUMP JUMPDEST SWAP4 SWAP1 PUSH2 0x236 JUMP JUMPDEST PUSH2 0x3F5 SWAP2 SWAP7 POP RETURNDATASIZE DUP1 PUSH1 0x0 DUP4 RETURNDATACOPY PUSH2 0x3ED DUP2 DUP4 PUSH2 0x17F3 JUMP JUMPDEST DUP2 ADD SWAP1 PUSH2 0x1930 JUMP JUMPDEST SWAP5 DUP10 PUSH2 0x28C JUMP JUMPDEST PUSH2 0x419 SWAP2 POP RETURNDATASIZE DUP1 PUSH1 0x0 DUP4 RETURNDATACOPY PUSH2 0x411 DUP2 DUP4 PUSH2 0x17F3 JUMP JUMPDEST DUP2 ADD SWAP1 PUSH2 0x1AE3 JUMP JUMPDEST DUP9 PUSH2 0x1DD JUMP JUMPDEST POP POP POP PUSH2 0x42B DUP2 PUSH2 0x1A16 JUMP JUMPDEST SWAP2 PUSH1 0x0 JUMPDEST DUP3 DUP2 LT PUSH2 0x448 JUMPI PUSH1 0x40 MLOAD DUP1 PUSH2 0x444 DUP7 DUP3 PUSH2 0x164D JUMP JUMPDEST SUB SWAP1 RETURN JUMPDEST DUP1 PUSH2 0x456 PUSH2 0x46C SWAP3 DUP5 PUSH2 0x19DF JUMP JUMPDEST MLOAD PUSH2 0x461 DUP3 DUP8 PUSH2 0x19DF JUMP JUMPDEST MSTORE PUSH2 0x3CA DUP2 DUP7 PUSH2 0x19DF JUMP JUMPDEST PUSH2 0x42F JUMP JUMPDEST PUSH2 0x48E SWAP2 POP RETURNDATASIZE DUP1 PUSH1 0x0 DUP4 RETURNDATACOPY PUSH2 0x486 DUP2 DUP4 PUSH2 0x17F3 JUMP JUMPDEST DUP2 ADD SWAP1 PUSH2 0x18AE JUMP JUMPDEST DUP5 PUSH2 0x183 JUMP JUMPDEST POP PUSH1 0x40 MLOAD PUSH4 0x8DA5CB5B PUSH1 0xE0 SHL DUP2 MSTORE PUSH1 0x20 DUP2 PUSH1 0x4 DUP2 DUP6 GAS STATICCALL DUP1 ISZERO PUSH2 0x339 JUMPI PUSH1 0x0 SWAP1 PUSH2 0x4CB JUMPI JUMPDEST PUSH1 0x1 PUSH1 0x1 PUSH1 0xA0 SHL SUB AND CALLER EQ SWAP1 POP PUSH2 0x155 JUMP JUMPDEST POP PUSH1 0x20 DUP2 RETURNDATASIZE PUSH1 0x20 GT PUSH2 0x4FE JUMPI JUMPDEST DUP2 PUSH2 0x4E5 PUSH1 0x20 SWAP4 DUP4 PUSH2 0x17F3 JUMP JUMPDEST DUP2 ADD SUB SLT PUSH2 0xA0 JUMPI PUSH2 0x4F9 PUSH2 0x15E SWAP2 PUSH2 0x183E JUMP JUMPDEST PUSH2 0x4B9 JUMP JUMPDEST RETURNDATASIZE SWAP2 POP PUSH2 0x4D8 JUMP JUMPDEST SWAP1 POP PUSH1 0x20 DUP2 RETURNDATASIZE PUSH1 0x20 GT PUSH2 0x538 JUMPI JUMPDEST DUP2 PUSH2 0x521 PUSH1 0x20 SWAP4 DUP4 PUSH2 0x17F3 JUMP JUMPDEST DUP2 ADD SUB SLT PUSH2 0xA0 JUMPI PUSH2 0x532 SWAP1 PUSH2 0x1831 JUMP JUMPDEST DUP5 PUSH2 0x14D JUMP JUMPDEST RETURNDATASIZE SWAP2 POP PUSH2 0x514 JUMP JUMPDEST CALLVALUE PUSH2 0xA0 JUMPI PUSH1 0x20 DUP1 PUSH1 0x3 NOT CALLDATASIZE ADD SLT PUSH2 0xA0 JUMPI PUSH1 0x0 SLOAD PUSH1 0x40 MLOAD PUSH4 0x429B62E5 PUSH1 0xE0 SHL DUP2 MSTORE CALLER PUSH1 0x4 DUP3 ADD MSTORE SWAP2 PUSH1 0x1 PUSH1 0x1 PUSH1 0xA0 SHL SUB SWAP2 DUP3 AND DUP2 DUP5 PUSH1 0x24 DUP2 DUP5 GAS STATICCALL SWAP4 DUP5 ISZERO PUSH2 0x339 JUMPI PUSH1 0x0 SWAP5 PUSH2 0x627 JUMPI JUMPDEST POP DUP4 ISZERO PUSH2 0x5B6 JUMPI JUMPDEST PUSH2 0x59C DUP5 PUSH2 0x1852 JUMP JUMPDEST PUSH2 0x444 PUSH2 0x5AA PUSH1 0x4 CALLDATALOAD PUSH2 0x1DDC JUMP JUMPDEST PUSH1 0x40 MLOAD SWAP2 DUP3 SWAP2 DUP3 PUSH2 0x1714 JUMP JUMPDEST PUSH1 0x40 MLOAD PUSH4 0x8DA5CB5B PUSH1 0xE0 SHL DUP2 MSTORE SWAP4 POP DUP2 SWAP1 DUP5 SWAP1 PUSH1 0x4 SWAP1 DUP3 SWAP1 GAS STATICCALL SWAP1 DUP2 ISZERO PUSH2 0x339 JUMPI PUSH1 0x0 SWAP2 PUSH2 0x5F0 JUMPI JUMPDEST POP PUSH2 0x59C SWAP3 POP AND CALLER EQ SWAP1 DUP3 DUP1 PUSH2 0x593 JUMP JUMPDEST SWAP1 POP DUP3 DUP2 RETURNDATASIZE DUP4 GT PUSH2 0x620 JUMPI JUMPDEST PUSH2 0x606 DUP2 DUP4 PUSH2 0x17F3 JUMP JUMPDEST DUP2 ADD SUB SLT PUSH2 0xA0 JUMPI PUSH2 0x61A PUSH2 0x59C SWAP3 PUSH2 0x183E JUMP JUMPDEST DUP4 PUSH2 0x5DF JUMP JUMPDEST POP RETURNDATASIZE PUSH2 0x5FC JUMP JUMPDEST SWAP1 SWAP4 POP DUP2 DUP2 DUP2 RETURNDATASIZE DUP4 GT PUSH2 0x657 JUMPI JUMPDEST PUSH2 0x63F DUP2 DUP4 PUSH2 0x17F3 JUMP JUMPDEST DUP2 ADD SUB SLT PUSH2 0xA0 JUMPI PUSH2 0x650 SWAP1 PUSH2 0x1831 JUMP JUMPDEST SWAP3 DUP5 PUSH2 0x58B JUMP JUMPDEST POP RETURNDATASIZE PUSH2 0x635 JUMP JUMPDEST CALLVALUE PUSH2 0xA0 JUMPI PUSH1 0x0 CALLDATASIZE PUSH1 0x3 NOT ADD SLT PUSH2 0xA0 JUMPI PUSH1 0x0 SLOAD PUSH1 0x40 MLOAD PUSH4 0x429B62E5 PUSH1 0xE0 SHL DUP2 MSTORE CALLER PUSH1 0x4 DUP3 ADD MSTORE PUSH1 0x1 PUSH1 0x1 PUSH1 0xA0 SHL SUB SWAP1 SWAP2 AND SWAP1 PUSH1 0x20 DUP2 PUSH1 0x24 DUP2 DUP6 GAS STATICCALL SWAP1 DUP2 ISZERO PUSH2 0x339 JUMPI PUSH1 0x0 SWAP2 PUSH2 0x96D JUMPI JUMPDEST POP DUP1 ISZERO PUSH2 0x8FB JUMPI JUMPDEST PUSH2 0x6BA SWAP1 PUSH2 0x1852 JUMP JUMPDEST PUSH1 0x40 MLOAD PUSH4 0x10DDB27 PUSH1 0xE3 SHL DUP2 MSTORE PUSH1 0x0 DUP2 PUSH1 0x4 DUP2 DUP6 GAS STATICCALL SWAP1 DUP2 ISZERO PUSH2 0x339 JUMPI PUSH1 0x0 SWAP2 PUSH2 0x8E0 JUMPI JUMPDEST POP PUSH2 0x6EA DUP2 MLOAD PUSH2 0x1A16 JUMP JUMPDEST SWAP2 PUSH1 0x0 JUMPDEST DUP3 MLOAD DUP2 LT ISZERO PUSH2 0x8D2 JUMPI PUSH1 0x1 PUSH1 0x1 PUSH1 0xA0 SHL SUB PUSH2 0x709 DUP3 DUP6 PUSH2 0x19DF JUMP JUMPDEST MLOAD AND SWAP4 PUSH1 0x40 MLOAD SWAP4 PUSH4 0xC37503B PUSH1 0xE3 SHL DUP6 MSTORE DUP6 PUSH1 0x4 DUP7 ADD MSTORE PUSH1 0x0 DUP6 PUSH1 0x24 DUP2 DUP8 GAS STATICCALL SWAP5 DUP6 ISZERO PUSH2 0x339 JUMPI PUSH1 0x0 SWAP6 PUSH2 0x8B5 JUMPI JUMPDEST POP PUSH1 0x40 MLOAD SWAP6 PUSH4 0x5AC68209 PUSH1 0xE0 SHL DUP8 MSTORE PUSH1 0x4 DUP8 ADD MSTORE PUSH1 0x0 DUP7 PUSH1 0x24 DUP2 DUP8 GAS STATICCALL SWAP6 DUP7 ISZERO PUSH2 0x339 JUMPI PUSH1 0x0 SWAP7 PUSH2 0x898 JUMPI JUMPDEST POP PUSH1 0x0 SWAP4 PUSH1 0x0 JUMPDEST DUP8 MLOAD DUP2 LT ISZERO PUSH2 0x811 JUMPI PUSH1 0x4 PUSH1 0x20 PUSH1 0x1 PUSH1 0x1 PUSH1 0xA0 SHL SUB PUSH2 0x78A DUP5 DUP13 PUSH2 0x19DF JUMP JUMPDEST MLOAD AND PUSH1 0x40 MLOAD SWAP3 DUP4 DUP1 SWAP3 PUSH4 0x8BCF8B5 PUSH1 0xE2 SHL DUP3 MSTORE GAS STATICCALL SWAP1 DUP2 ISZERO PUSH2 0x339 JUMPI PUSH1 0x0 SWAP2 PUSH2 0x7D7 JUMPI JUMPDEST POP PUSH2 0x7C2 JUMPI JUMPDEST PUSH2 0x7BD SWAP1 PUSH2 0x19BA JUMP JUMPDEST PUSH2 0x76B JUMP JUMPDEST SWAP5 PUSH2 0x7CF PUSH2 0x7BD SWAP2 PUSH2 0x19BA JUMP JUMPDEST SWAP6 SWAP1 POP PUSH2 0x7B4 JUMP JUMPDEST SWAP1 POP PUSH1 0x20 DUP2 RETURNDATASIZE PUSH1 0x20 GT PUSH2 0x809 JUMPI JUMPDEST DUP2 PUSH2 0x7F2 PUSH1 0x20 SWAP4 DUP4 PUSH2 0x17F3 JUMP JUMPDEST DUP2 ADD SUB SLT PUSH2 0xA0 JUMPI PUSH2 0x803 SWAP1 PUSH2 0x1831 JUMP JUMPDEST DUP10 PUSH2 0x7AE JUMP JUMPDEST RETURNDATASIZE SWAP2 POP PUSH2 0x7E5 JUMP JUMPDEST POP SWAP6 POP SWAP4 SWAP3 PUSH2 0x890 SWAP3 SWAP2 SWAP4 PUSH1 0x1 DUP1 PUSH1 0xA0 SHL SUB DUP2 MLOAD AND SWAP2 PUSH1 0x20 DUP3 ADD MLOAD SWAP2 PUSH1 0x40 DUP2 ADD MLOAD SWAP2 PUSH1 0x60 DUP1 DUP4 ADD MLOAD PUSH1 0x80 DUP1 DUP6 ADD MLOAD SWAP2 PUSH1 0xA0 SWAP4 DUP5 DUP8 ADD MLOAD ISZERO ISZERO SWAP8 PUSH1 0xC0 DUP1 SWAP9 ADD MLOAD SWAP10 PUSH1 0x40 MLOAD SWAP12 PUSH2 0x85E DUP14 PUSH2 0x17B9 JUMP JUMPDEST DUP13 MSTORE PUSH1 0x20 DUP13 ADD MSTORE PUSH1 0x40 DUP12 ADD MSTORE DUP10 ADD MSTORE DUP8 ADD MSTORE DUP6 ADD MSTORE DUP4 ADD MSTORE PUSH1 0xE0 DUP3 ADD MSTORE PUSH2 0x885 DUP3 DUP6 PUSH2 0x19DF JUMP JUMPDEST MSTORE PUSH2 0x3CA DUP2 DUP5 PUSH2 0x19DF JUMP JUMPDEST SWAP3 SWAP1 SWAP3 PUSH2 0x6EE JUMP JUMPDEST PUSH2 0x8AE SWAP2 SWAP7 POP RETURNDATASIZE DUP1 PUSH1 0x0 DUP4 RETURNDATACOPY PUSH2 0x3ED DUP2 DUP4 PUSH2 0x17F3 JUMP JUMPDEST SWAP5 DUP7 PUSH2 0x764 JUMP JUMPDEST PUSH2 0x8CB SWAP2 SWAP6 POP RETURNDATASIZE DUP1 PUSH1 0x0 DUP4 RETURNDATACOPY PUSH2 0x411 DUP2 DUP4 PUSH2 0x17F3 JUMP JUMPDEST SWAP4 DUP7 PUSH2 0x738 JUMP JUMPDEST PUSH1 0x40 MLOAD DUP1 PUSH2 0x444 DUP7 DUP3 PUSH2 0x164D JUMP JUMPDEST PUSH2 0x8F5 SWAP2 POP RETURNDATASIZE DUP1 PUSH1 0x0 DUP4 RETURNDATACOPY PUSH2 0x486 DUP2 DUP4 PUSH2 0x17F3 JUMP JUMPDEST DUP3 PUSH2 0x6DF JUMP JUMPDEST POP PUSH1 0x40 MLOAD PUSH4 0x8DA5CB5B PUSH1 0xE0 SHL DUP2 MSTORE PUSH1 0x20 DUP2 PUSH1 0x4 DUP2 DUP6 GAS STATICCALL DUP1 ISZERO PUSH2 0x339 JUMPI PUSH1 0x0 SWAP1 PUSH2 0x932 JUMPI JUMPDEST PUSH1 0x1 PUSH1 0x1 PUSH1 0xA0 SHL SUB AND CALLER EQ SWAP1 POP PUSH2 0x6B1 JUMP JUMPDEST POP PUSH1 0x20 DUP2 RETURNDATASIZE PUSH1 0x20 GT PUSH2 0x965 JUMPI JUMPDEST DUP2 PUSH2 0x94C PUSH1 0x20 SWAP4 DUP4 PUSH2 0x17F3 JUMP JUMPDEST DUP2 ADD SUB SLT PUSH2 0xA0 JUMPI PUSH2 0x960 PUSH2 0x6BA SWAP2 PUSH2 0x183E JUMP JUMPDEST PUSH2 0x920 JUMP JUMPDEST RETURNDATASIZE SWAP2 POP PUSH2 0x93F JUMP JUMPDEST SWAP1 POP PUSH1 0x20 DUP2 RETURNDATASIZE PUSH1 0x20 GT PUSH2 0x99F JUMPI JUMPDEST DUP2 PUSH2 0x988 PUSH1 0x20 SWAP4 DUP4 PUSH2 0x17F3 JUMP JUMPDEST DUP2 ADD SUB SLT PUSH2 0xA0 JUMPI PUSH2 0x999 SWAP1 PUSH2 0x1831 JUMP JUMPDEST DUP3 PUSH2 0x6A9 JUMP JUMPDEST RETURNDATASIZE SWAP2 POP PUSH2 0x97B JUMP JUMPDEST CALLVALUE PUSH2 0xA0 JUMPI PUSH1 0x20 DUP1 PUSH1 0x3 NOT CALLDATASIZE ADD SLT PUSH2 0xA0 JUMPI PUSH1 0x1 PUSH1 0x1 PUSH1 0xA0 SHL SUB SWAP1 PUSH1 0x4 CALLDATALOAD DUP3 DUP2 AND SWAP2 SWAP1 DUP3 SWAP1 SUB PUSH2 0xA0 JUMPI DUP3 PUSH1 0x0 SLOAD AND SWAP2 PUSH1 0x40 MLOAD SWAP2 PUSH4 0x429B62E5 PUSH1 0xE0 SHL DUP4 MSTORE CALLER PUSH1 0x4 DUP5 ADD MSTORE DUP1 DUP4 PUSH1 0x24 DUP2 DUP8 GAS STATICCALL SWAP3 DUP4 ISZERO PUSH2 0x339 JUMPI PUSH1 0x0 SWAP4 PUSH2 0xB23 JUMPI JUMPDEST POP DUP3 ISZERO PUSH2 0xAA8 JUMPI JUMPDEST POP PUSH2 0xA16 PUSH1 0x0 SWAP3 PUSH2 0x1852 JUMP JUMPDEST PUSH1 0x24 PUSH1 0x40 MLOAD DUP1 SWAP5 DUP2 SWAP4 PUSH4 0x5AC68209 PUSH1 0xE0 SHL DUP4 MSTORE PUSH1 0x4 DUP4 ADD MSTORE GAS STATICCALL SWAP1 DUP2 ISZERO PUSH2 0x339 JUMPI PUSH1 0x0 SWAP2 PUSH2 0xA8D JUMPI JUMPDEST POP PUSH2 0xA4A DUP2 MLOAD PUSH2 0x1BDD JUMP JUMPDEST SWAP2 PUSH1 0x0 JUMPDEST DUP3 MLOAD DUP2 LT ISZERO PUSH2 0xA7F JUMPI DUP1 PUSH2 0xA70 DUP4 PUSH2 0xA69 PUSH2 0xA7A SWAP5 DUP8 PUSH2 0x19DF JUMP JUMPDEST MLOAD AND PUSH2 0x1C91 JUMP JUMPDEST PUSH2 0x461 DUP3 DUP8 PUSH2 0x19DF JUMP JUMPDEST PUSH2 0xA4E JUMP JUMPDEST PUSH1 0x40 MLOAD DUP1 PUSH2 0x444 DUP7 DUP3 PUSH2 0x1714 JUMP JUMPDEST PUSH2 0xAA2 SWAP2 POP RETURNDATASIZE DUP1 PUSH1 0x0 DUP4 RETURNDATACOPY PUSH2 0x3ED DUP2 DUP4 PUSH2 0x17F3 JUMP JUMPDEST DUP3 PUSH2 0xA3F JUMP JUMPDEST PUSH1 0x40 MLOAD PUSH4 0x8DA5CB5B PUSH1 0xE0 SHL DUP2 MSTORE SWAP1 SWAP3 POP DUP3 DUP2 PUSH1 0x4 DUP2 DUP8 GAS STATICCALL SWAP1 DUP2 ISZERO PUSH2 0x339 JUMPI DUP6 SWAP4 PUSH1 0x0 SWAP3 PUSH2 0xAE4 JUMPI JUMPDEST POP POP PUSH1 0x0 SWAP3 PUSH2 0xA16 SWAP2 AND CALLER EQ SWAP3 POP PUSH2 0xA0A JUMP JUMPDEST DUP2 SWAP5 POP DUP1 SWAP3 POP RETURNDATASIZE DUP4 GT PUSH2 0xB1C JUMPI JUMPDEST PUSH2 0xAFC DUP2 DUP4 PUSH2 0x17F3 JUMP JUMPDEST DUP2 ADD SUB SLT PUSH2 0xA0 JUMPI PUSH2 0xA16 DUP5 PUSH2 0xB13 PUSH1 0x0 SWAP5 PUSH2 0x183E JUMP JUMPDEST SWAP2 DUP2 SWAP5 POP PUSH2 0xAD1 JUMP JUMPDEST POP RETURNDATASIZE PUSH2 0xAF2 JUMP JUMPDEST SWAP1 DUP1 SWAP4 POP DUP2 DUP2 RETURNDATASIZE DUP4 GT PUSH2 0xB53 JUMPI JUMPDEST PUSH2 0xB3B DUP2 DUP4 PUSH2 0x17F3 JUMP JUMPDEST DUP2 ADD SUB SLT PUSH2 0xA0 JUMPI PUSH2 0xB4C SWAP1 PUSH2 0x1831 JUMP JUMPDEST SWAP2 DUP6 PUSH2 0xA02 JUMP JUMPDEST POP RETURNDATASIZE PUSH2 0xB31 JUMP JUMPDEST CALLVALUE PUSH2 0xA0 JUMPI PUSH1 0x20 CALLDATASIZE PUSH1 0x3 NOT ADD SLT PUSH2 0xA0 JUMPI PUSH1 0x4 CALLDATALOAD PUSH1 0x1 PUSH1 0x1 PUSH1 0xA0 SHL SUB DUP2 AND SWAP1 DUP2 SWAP1 SUB PUSH2 0xA0 JUMPI PUSH1 0x0 SLOAD PUSH1 0x40 MLOAD PUSH4 0x429B62E5 PUSH1 0xE0 SHL DUP2 MSTORE CALLER PUSH1 0x4 DUP3 ADD MSTORE PUSH1 0x1 PUSH1 0x1 PUSH1 0xA0 SHL SUB SWAP1 SWAP2 AND SWAP1 PUSH1 0x20 DUP2 PUSH1 0x24 DUP2 DUP6 GAS STATICCALL SWAP1 DUP2 ISZERO PUSH2 0x339 JUMPI PUSH1 0x0 SWAP2 PUSH2 0xD78 JUMPI JUMPDEST POP DUP1 ISZERO PUSH2 0xD01 JUMPI JUMPDEST PUSH2 0xBCC SWAP2 POP PUSH2 0x1852 JUMP JUMPDEST PUSH1 0x40 MLOAD PUSH4 0x7CC1F867 PUSH1 0xE0 SHL DUP2 MSTORE PUSH2 0x120 DUP2 PUSH1 0x4 DUP2 DUP6 GAS STATICCALL SWAP1 DUP2 ISZERO PUSH2 0x339 JUMPI PUSH1 0x0 SWAP2 PUSH1 0x0 SWAP2 PUSH1 0x0 SWAP5 PUSH1 0x0 SWAP1 PUSH1 0x0 SWAP1 PUSH1 0x0 SWAP2 PUSH1 0x0 SWAP4 PUSH1 0x0 SWAP6 PUSH1 0x0 SWAP8 PUSH2 0xCBE JUMPI JUMPDEST POP PUSH1 0x40 MLOAD PUSH4 0x404ED5B5 PUSH1 0xE1 SHL DUP2 MSTORE SWAP10 PUSH1 0x20 DUP12 PUSH1 0x4 DUP2 DUP8 GAS STATICCALL SWAP4 DUP5 ISZERO PUSH2 0x339 JUMPI PUSH1 0x0 SWAP5 PUSH2 0xC88 JUMPI JUMPDEST PUSH1 0x40 DUP1 MLOAD PUSH1 0x1 PUSH1 0x1 PUSH1 0xA0 SHL SUB SWAP13 DUP14 AND DUP2 MSTORE SWAP12 SWAP1 SWAP11 AND PUSH1 0x20 DUP13 ADD MSTORE SWAP9 DUP11 ADD MSTORE PUSH1 0x60 DUP10 ADD MSTORE PUSH1 0x80 DUP9 ADD MSTORE PUSH1 0xA0 DUP8 ADD MSTORE ISZERO ISZERO PUSH1 0xC0 DUP7 ADD MSTORE ISZERO ISZERO PUSH1 0xE0 DUP6 ADD MSTORE ISZERO ISZERO PUSH2 0x100 DUP5 ADD MSTORE PUSH2 0x120 DUP4 ADD MSTORE BALANCE PUSH2 0x140 DUP3 ADD MSTORE PUSH2 0x160 SWAP2 POP RETURN JUMPDEST SWAP4 POP PUSH1 0x20 DUP12 RETURNDATASIZE PUSH1 0x20 GT PUSH2 0xCB6 JUMPI JUMPDEST DUP2 PUSH2 0xCA3 PUSH1 0x20 SWAP4 DUP4 PUSH2 0x17F3 JUMP JUMPDEST DUP2 ADD SUB SLT PUSH2 0xA0 JUMPI PUSH2 0x160 SWAP11 MLOAD SWAP4 PUSH2 0xC31 JUMP JUMPDEST RETURNDATASIZE SWAP2 POP PUSH2 0xC96 JUMP JUMPDEST SWAP8 POP POP POP SWAP7 POP POP POP POP POP PUSH2 0xCEC SWAP2 POP PUSH2 0x120 RETURNDATASIZE PUSH2 0x120 GT PUSH2 0xCFA JUMPI JUMPDEST PUSH2 0xCE4 DUP2 DUP4 PUSH2 0x17F3 JUMP JUMPDEST DUP2 ADD SWAP1 PUSH2 0x1C2D JUMP JUMPDEST SWAP6 SWAP9 SWAP1 SWAP5 SWAP2 SWAP4 SWAP1 SWAP2 DUP11 PUSH2 0xC0A JUMP JUMPDEST POP RETURNDATASIZE PUSH2 0xCDA JUMP JUMPDEST POP PUSH1 0x20 PUSH1 0x4 SWAP2 PUSH1 0x40 MLOAD SWAP3 DUP4 DUP1 SWAP3 PUSH4 0x8DA5CB5B PUSH1 0xE0 SHL DUP3 MSTORE GAS STATICCALL DUP1 ISZERO PUSH2 0x339 JUMPI PUSH1 0x0 SWAP1 PUSH2 0xD3D JUMPI JUMPDEST PUSH2 0xBCC SWAP2 POP PUSH1 0x1 PUSH1 0x1 PUSH1 0xA0 SHL SUB AND CALLER EQ PUSH2 0xBC2 JUMP JUMPDEST POP PUSH1 0x20 DUP2 RETURNDATASIZE PUSH1 0x20 GT PUSH2 0xD70 JUMPI JUMPDEST DUP2 PUSH2 0xD57 PUSH1 0x20 SWAP4 DUP4 PUSH2 0x17F3 JUMP JUMPDEST DUP2 ADD SUB SLT PUSH2 0xA0 JUMPI PUSH2 0xD6B PUSH2 0xBCC SWAP2 PUSH2 0x183E JUMP JUMPDEST PUSH2 0xD28 JUMP JUMPDEST RETURNDATASIZE SWAP2 POP PUSH2 0xD4A JUMP JUMPDEST SWAP1 POP PUSH1 0x20 DUP2 RETURNDATASIZE PUSH1 0x20 GT PUSH2 0xDAA JUMPI JUMPDEST DUP2 PUSH2 0xD93 PUSH1 0x20 SWAP4 DUP4 PUSH2 0x17F3 JUMP JUMPDEST DUP2 ADD SUB SLT PUSH2 0xA0 JUMPI PUSH2 0xDA4 SWAP1 PUSH2 0x1831 JUMP JUMPDEST DUP4 PUSH2 0xBBA JUMP JUMPDEST RETURNDATASIZE SWAP2 POP PUSH2 0xD86 JUMP JUMPDEST CALLVALUE PUSH2 0xA0 JUMPI PUSH1 0x0 CALLDATASIZE PUSH1 0x3 NOT ADD SLT PUSH2 0xA0 JUMPI PUSH1 0x40 MLOAD PUSH1 0xC0 DUP2 ADD DUP2 DUP2 LT PUSH8 0xFFFFFFFFFFFFFFFF DUP3 GT OR PUSH2 0x1175 JUMPI PUSH1 0x40 MSTORE PUSH1 0x0 DUP2 MSTORE PUSH1 0x0 PUSH1 0x20 DUP3 ADD MSTORE PUSH1 0x0 PUSH1 0x40 DUP3 ADD MSTORE PUSH1 0x0 PUSH1 0x60 DUP3 ADD MSTORE PUSH1 0x0 PUSH1 0x80 DUP3 ADD MSTORE PUSH1 0x0 PUSH1 0xA0 DUP3 ADD MSTORE PUSH1 0x1 DUP1 PUSH1 0xA0 SHL SUB PUSH1 0x0 SLOAD AND PUSH1 0x40 MLOAD PUSH4 0x429B62E5 PUSH1 0xE0 SHL DUP2 MSTORE CALLER PUSH1 0x4 DUP3 ADD MSTORE PUSH1 0x20 DUP2 PUSH1 0x24 DUP2 DUP6 GAS STATICCALL SWAP1 DUP2 ISZERO PUSH2 0x339 JUMPI PUSH1 0x0 SWAP2 PUSH2 0x113B JUMPI JUMPDEST POP DUP1 ISZERO PUSH2 0x10C9 JUMPI JUMPDEST PUSH2 0xE4E SWAP1 PUSH2 0x1852 JUMP JUMPDEST PUSH1 0x40 MLOAD PUSH4 0x10DDB27 PUSH1 0xE3 SHL DUP2 MSTORE SWAP1 PUSH1 0x0 DUP3 PUSH1 0x4 DUP2 DUP5 GAS STATICCALL SWAP1 DUP2 ISZERO PUSH2 0x339 JUMPI PUSH1 0x4 SWAP3 PUSH1 0x0 SWAP3 PUSH2 0x10AA JUMPI JUMPDEST POP PUSH1 0x0 SWAP1 PUSH1 0x40 MLOAD SWAP4 DUP5 DUP1 SWAP3 PUSH4 0xC69E74B PUSH1 0xE1 SHL DUP3 MSTORE GAS STATICCALL SWAP2 DUP3 ISZERO PUSH2 0x339 JUMPI PUSH1 0x0 SWAP3 PUSH2 0x108D JUMPI JUMPDEST POP MLOAD DUP3 MSTORE PUSH1 0x0 SWAP2 DUP3 DUP1 DUP1 DUP1 JUMPDEST DUP6 MLOAD DUP8 LT ISZERO PUSH2 0x1039 JUMPI PUSH1 0x1 PUSH1 0x1 PUSH1 0xA0 SHL SUB PUSH2 0xEC4 DUP9 DUP9 PUSH2 0x19DF JUMP JUMPDEST MLOAD AND SWAP4 PUSH1 0x40 MLOAD PUSH4 0x8BCF8B5 PUSH1 0xE2 SHL DUP2 MSTORE PUSH1 0x20 DUP2 PUSH1 0x4 DUP2 DUP10 GAS STATICCALL SWAP1 DUP2 ISZERO PUSH2 0x339 JUMPI PUSH1 0x0 SWAP2 PUSH2 0xFFF JUMPI JUMPDEST POP ISZERO PUSH2 0xFEE JUMPI PUSH2 0xEFB SWAP1 PUSH2 0x19BA JUMP JUMPDEST SWAP2 JUMPDEST PUSH1 0x40 MLOAD PUSH4 0x6F8DFE1 PUSH1 0xE2 SHL DUP2 MSTORE SWAP1 PUSH1 0x20 DUP3 PUSH1 0x4 DUP2 DUP10 GAS STATICCALL SWAP2 DUP3 ISZERO PUSH2 0x339 JUMPI PUSH1 0x0 SWAP3 PUSH2 0xFB8 JUMPI JUMPDEST POP PUSH2 0xF32 PUSH1 0x4 SWAP3 PUSH1 0x20 SWAP3 PUSH2 0x1A09 JUMP JUMPDEST SWAP6 PUSH1 0x40 MLOAD SWAP3 DUP4 DUP1 SWAP3 PUSH4 0x4B319713 PUSH1 0xE0 SHL DUP3 MSTORE GAS STATICCALL SWAP1 DUP2 ISZERO PUSH2 0x339 JUMPI PUSH1 0x0 SWAP2 PUSH2 0xF84 JUMPI JUMPDEST POP PUSH2 0xF63 SWAP1 PUSH2 0xF7B SWAP3 PUSH2 0x1A09 JUMP JUMPDEST SWAP7 PUSH2 0xF71 PUSH1 0x20 DUP8 ADD MLOAD PUSH2 0x19BA JUMP JUMPDEST PUSH1 0x20 DUP8 ADD MSTORE PUSH2 0x19BA JUMP JUMPDEST SWAP6 SWAP3 SWAP1 SWAP3 PUSH2 0xEA9 JUMP JUMPDEST SWAP1 POP PUSH1 0x20 DUP2 RETURNDATASIZE PUSH1 0x20 GT PUSH2 0xFB0 JUMPI JUMPDEST DUP2 PUSH2 0xF9F PUSH1 0x20 SWAP4 DUP4 PUSH2 0x17F3 JUMP JUMPDEST DUP2 ADD SUB SLT PUSH2 0xA0 JUMPI MLOAD PUSH2 0xF7B PUSH2 0xF55 JUMP JUMPDEST RETURNDATASIZE SWAP2 POP PUSH2 0xF92 JUMP JUMPDEST SWAP2 POP PUSH1 0x20 DUP3 RETURNDATASIZE PUSH1 0x20 GT PUSH2 0xFE6 JUMPI JUMPDEST DUP2 PUSH2 0xFD3 PUSH1 0x20 SWAP4 DUP4 PUSH2 0x17F3 JUMP JUMPDEST DUP2 ADD SUB SLT PUSH2 0xA0 JUMPI SWAP1 MLOAD SWAP1 PUSH2 0xF32 PUSH2 0xF23 JUMP JUMPDEST RETURNDATASIZE SWAP2 POP PUSH2 0xFC6 JUMP JUMPDEST SWAP2 SWAP3 PUSH2 0xFF9 SWAP1 PUSH2 0x19BA JUMP JUMPDEST SWAP3 PUSH2 0xEFD JUMP JUMPDEST SWAP1 POP PUSH1 0x20 DUP2 RETURNDATASIZE PUSH1 0x20 GT PUSH2 0x1031 JUMPI JUMPDEST DUP2 PUSH2 0x101A PUSH1 0x20 SWAP4 DUP4 PUSH2 0x17F3 JUMP JUMPDEST DUP2 ADD SUB SLT PUSH2 0xA0 JUMPI PUSH2 0x102B SWAP1 PUSH2 0x1831 JUMP JUMPDEST DUP10 PUSH2 0xEEC JUMP JUMPDEST RETURNDATASIZE SWAP2 POP PUSH2 0x100D JUMP JUMPDEST PUSH1 0xC0 SWAP5 SWAP4 SWAP2 PUSH1 0x40 DUP6 ADD MSTORE PUSH1 0x60 DUP5 ADD MSTORE PUSH1 0x80 DUP4 ADD MSTORE PUSH1 0xA0 DUP3 ADD MSTORE PUSH1 0xA0 PUSH1 0x40 MLOAD SWAP2 DUP1 MLOAD DUP4 MSTORE PUSH1 0x20 DUP2 ADD MLOAD PUSH1 0x20 DUP5 ADD MSTORE PUSH1 0x40 DUP2 ADD MLOAD PUSH1 0x40 DUP5 ADD MSTORE PUSH1 0x60 DUP2 ADD MLOAD PUSH1 0x60 DUP5 ADD MSTORE PUSH1 0x80 DUP2 ADD MLOAD PUSH1 0x80 DUP5 ADD MSTORE ADD MLOAD PUSH1 0xA0 DUP3 ADD MSTORE RETURN JUMPDEST PUSH2 0x10A3 SWAP2 SWAP3 POP RETURNDATASIZE DUP1 PUSH1 0x0 DUP4 RETURNDATACOPY PUSH2 0x3ED DUP2 DUP4 PUSH2 0x17F3 JUMP JUMPDEST SWAP1 DUP4 PUSH2 0xE9D JUMP JUMPDEST PUSH1 0x0 SWAP2 SWAP3 POP PUSH2 0x10C2 SWAP1 RETURNDATASIZE DUP1 DUP5 DUP4 RETURNDATACOPY PUSH2 0x486 DUP2 DUP4 PUSH2 0x17F3 JUMP JUMPDEST SWAP2 SWAP1 PUSH2 0xE77 JUMP JUMPDEST POP PUSH1 0x40 MLOAD PUSH4 0x8DA5CB5B PUSH1 0xE0 SHL DUP2 MSTORE PUSH1 0x20 DUP2 PUSH1 0x4 DUP2 DUP6 GAS STATICCALL DUP1 ISZERO PUSH2 0x339 JUMPI PUSH1 0x0 SWAP1 PUSH2 0x1100 JUMPI JUMPDEST PUSH1 0x1 PUSH1 0x1 PUSH1 0xA0 SHL SUB AND CALLER EQ SWAP1 POP PUSH2 0xE45 JUMP JUMPDEST POP PUSH1 0x20 DUP2 RETURNDATASIZE PUSH1 0x20 GT PUSH2 0x1133 JUMPI JUMPDEST DUP2 PUSH2 0x111A PUSH1 0x20 SWAP4 DUP4 PUSH2 0x17F3 JUMP JUMPDEST DUP2 ADD SUB SLT PUSH2 0xA0 JUMPI PUSH2 0x112E PUSH2 0xE4E SWAP2 PUSH2 0x183E JUMP JUMPDEST PUSH2 0x10EE JUMP JUMPDEST RETURNDATASIZE SWAP2 POP PUSH2 0x110D JUMP JUMPDEST SWAP1 POP PUSH1 0x20 DUP2 RETURNDATASIZE PUSH1 0x20 GT PUSH2 0x116D JUMPI JUMPDEST DUP2 PUSH2 0x1156 PUSH1 0x20 SWAP4 DUP4 PUSH2 0x17F3 JUMP JUMPDEST DUP2 ADD SUB SLT PUSH2 0xA0 JUMPI PUSH2 0x1167 SWAP1 PUSH2 0x1831 JUMP JUMPDEST DUP4 PUSH2 0xE3D JUMP JUMPDEST RETURNDATASIZE SWAP2 POP PUSH2 0x1149 JUMP JUMPDEST PUSH4 0x4E487B71 PUSH1 0xE0 SHL PUSH1 0x0 MSTORE PUSH1 0x41 PUSH1 0x4 MSTORE PUSH1 0x24 PUSH1 0x0 REVERT JUMPDEST CALLVALUE PUSH2 0xA0 JUMPI PUSH1 0x20 SWAP1 DUP2 PUSH1 0x3 NOT CALLDATASIZE ADD SLT PUSH2 0xA0 JUMPI PUSH1 0x0 SLOAD PUSH4 0x429B62E5 PUSH1 0xE0 SHL DUP3 MSTORE CALLER PUSH1 0x4 DUP4 DUP2 ADD SWAP2 SWAP1 SWAP2 MSTORE PUSH1 0x1 PUSH1 0x1 PUSH1 0xA0 SHL SUB SWAP4 SWAP1 CALLDATALOAD SWAP3 PUSH1 0x24 SWAP3 DUP6 AND SWAP1 DUP3 DUP2 DUP6 DUP2 DUP6 GAS STATICCALL SWAP1 DUP2 ISZERO PUSH2 0x339 JUMPI PUSH1 0x0 SWAP2 PUSH2 0x15D0 JUMPI JUMPDEST POP DUP1 ISZERO PUSH2 0x1568 JUMPI JUMPDEST PUSH2 0x11EE SWAP1 PUSH2 0x1852 JUMP JUMPDEST PUSH1 0x40 MLOAD PUSH4 0x10DDB27 PUSH1 0xE3 SHL DUP2 MSTORE SWAP4 PUSH1 0x0 DUP6 PUSH1 0x4 DUP2 DUP6 GAS STATICCALL SWAP5 DUP6 ISZERO PUSH2 0x339 JUMPI PUSH1 0x0 SWAP6 PUSH2 0x154B JUMPI JUMPDEST POP SWAP3 PUSH2 0x1220 DUP6 MLOAD PUSH2 0x1A16 JUMP JUMPDEST PUSH1 0x0 SWAP2 JUMPDEST DUP7 MLOAD DUP4 LT ISZERO PUSH2 0x13EE JUMPI DUP8 PUSH2 0x1238 DUP5 DUP10 PUSH2 0x19DF JUMP JUMPDEST MLOAD PUSH1 0x40 MLOAD PUSH4 0xC37503B PUSH1 0xE3 SHL DUP2 MSTORE SWAP2 AND PUSH1 0x4 DUP3 ADD MSTORE SWAP7 PUSH1 0x0 DUP9 DUP4 DUP2 DUP9 GAS STATICCALL SWAP8 DUP9 ISZERO PUSH2 0x339 JUMPI PUSH1 0x0 SWAP9 PUSH2 0x13D1 JUMPI JUMPDEST POP DUP9 PUSH2 0x1271 DUP6 DUP4 PUSH2 0x19DF JUMP JUMPDEST MLOAD PUSH1 0x40 MLOAD PUSH4 0x5AC68209 PUSH1 0xE0 SHL DUP2 MSTORE SWAP2 AND PUSH1 0x4 DUP3 ADD MSTORE SWAP5 PUSH1 0x0 DUP7 DUP5 DUP2 DUP5 GAS STATICCALL SWAP6 DUP7 ISZERO PUSH2 0x339 JUMPI PUSH1 0x0 SWAP7 PUSH2 0x13B4 JUMPI JUMPDEST POP PUSH1 0x0 SWAP8 PUSH1 0x0 JUMPDEST DUP8 MLOAD DUP2 LT ISZERO PUSH2 0x133E JUMPI PUSH1 0x4 DUP10 DUP14 PUSH2 0x12BC DUP5 DUP13 PUSH2 0x19DF JUMP JUMPDEST MLOAD AND PUSH1 0x40 MLOAD SWAP3 DUP4 DUP1 SWAP3 PUSH4 0x8BCF8B5 PUSH1 0xE2 SHL DUP3 MSTORE GAS STATICCALL SWAP1 DUP2 ISZERO PUSH2 0x339 JUMPI PUSH1 0x0 SWAP2 PUSH2 0x1309 JUMPI JUMPDEST POP PUSH2 0x12F4 JUMPI JUMPDEST PUSH2 0x12EF SWAP1 PUSH2 0x19BA JUMP JUMPDEST PUSH2 0x12A5 JUMP JUMPDEST SWAP9 PUSH2 0x1301 PUSH2 0x12EF SWAP2 PUSH2 0x19BA JUMP JUMPDEST SWAP10 SWAP1 POP PUSH2 0x12E6 JUMP JUMPDEST SWAP1 POP DUP10 DUP2 DUP2 RETURNDATASIZE DUP4 GT PUSH2 0x1337 JUMPI JUMPDEST PUSH2 0x1320 DUP2 DUP4 PUSH2 0x17F3 JUMP JUMPDEST DUP2 ADD SUB SLT PUSH2 0xA0 JUMPI PUSH2 0x1331 SWAP1 PUSH2 0x1831 JUMP JUMPDEST DUP14 PUSH2 0x12E0 JUMP JUMPDEST POP RETURNDATASIZE PUSH2 0x1316 JUMP JUMPDEST POP SWAP5 SWAP2 SWAP9 PUSH2 0x1387 SWAP2 SWAP7 POP SWAP8 DUP8 PUSH2 0x13AC SWAP5 SWAP6 SWAP10 DUP13 DUP2 MLOAD AND SWAP3 DUP3 DUP3 ADD MLOAD PUSH1 0x40 DUP4 ADD MLOAD PUSH1 0x60 DUP1 DUP6 ADD MLOAD PUSH1 0x80 SWAP2 DUP3 DUP8 ADD MLOAD SWAP4 PUSH1 0xA0 SWAP6 DUP7 DUP10 ADD MLOAD ISZERO ISZERO SWAP10 PUSH1 0xC0 DUP1 SWAP11 ADD MLOAD SWAP12 PUSH1 0x40 MLOAD SWAP14 DUP15 PUSH2 0x17B9 JUMP JUMPDEST DUP14 MSTORE DUP13 ADD MSTORE PUSH1 0x40 DUP12 ADD MSTORE DUP10 ADD MSTORE DUP8 ADD MSTORE DUP6 ADD MSTORE DUP4 ADD MSTORE PUSH1 0xE0 DUP3 ADD MSTORE PUSH2 0x3BF DUP3 DUP10 PUSH2 0x19DF JUMP JUMPDEST SWAP2 SWAP5 SWAP1 PUSH2 0x1224 JUMP JUMPDEST PUSH2 0x13CA SWAP2 SWAP7 POP RETURNDATASIZE DUP1 PUSH1 0x0 DUP4 RETURNDATACOPY PUSH2 0x3ED DUP2 DUP4 PUSH2 0x17F3 JUMP JUMPDEST SWAP5 DUP11 PUSH2 0x129E JUMP JUMPDEST PUSH2 0x13E7 SWAP2 SWAP9 POP RETURNDATASIZE DUP1 PUSH1 0x0 DUP4 RETURNDATACOPY PUSH2 0x411 DUP2 DUP4 PUSH2 0x17F3 JUMP JUMPDEST SWAP7 DUP10 PUSH2 0x1265 JUMP JUMPDEST DUP6 DUP3 PUSH1 0x0 JUMPDEST DUP2 MLOAD PUSH1 0x0 NOT SWAP4 SWAP1 DUP5 DUP2 ADD SWAP1 DUP2 GT PUSH2 0x1536 JUMPI DUP3 LT ISZERO PUSH2 0x14EC JUMPI PUSH1 0x0 JUMPDEST DUP4 MLOAD DUP6 DUP2 ADD SWAP1 DUP2 GT PUSH2 0x14D7 JUMPI DUP4 PUSH2 0x1424 SWAP2 PUSH2 0x1DCF JUMP JUMPDEST DUP2 LT ISZERO PUSH2 0x14C6 JUMPI PUSH1 0x60 SWAP1 DUP2 PUSH2 0x1439 DUP3 DUP8 PUSH2 0x19DF JUMP JUMPDEST MLOAD ADD MLOAD PUSH1 0x1 DUP3 ADD SWAP1 DUP2 DUP4 GT PUSH2 0x14B1 JUMPI PUSH2 0x1464 SWAP4 PUSH2 0x1456 DUP4 DUP10 PUSH2 0x19DF JUMP JUMPDEST MLOAD ADD MLOAD GT PUSH2 0x1469 JUMPI POP PUSH2 0x19BA JUMP JUMPDEST PUSH2 0x140E JUMP JUMPDEST PUSH2 0x14AA SWAP1 PUSH2 0x1477 DUP4 DUP9 PUSH2 0x19DF JUMP JUMPDEST MLOAD PUSH2 0x1482 DUP3 DUP10 PUSH2 0x19DF JUMP JUMPDEST MLOAD PUSH2 0x148D DUP6 DUP11 PUSH2 0x19DF JUMP JUMPDEST MSTORE PUSH2 0x1498 DUP5 DUP10 PUSH2 0x19DF JUMP JUMPDEST POP PUSH2 0x14A3 DUP3 DUP10 PUSH2 0x19DF JUMP JUMPDEST MSTORE DUP7 PUSH2 0x19DF JUMP JUMPDEST POP DUP8 PUSH2 0x3CA JUMP JUMPDEST DUP9 PUSH4 0x4E487B71 PUSH1 0xE0 SHL PUSH1 0x0 MSTORE PUSH1 0x11 PUSH1 0x4 MSTORE PUSH1 0x0 REVERT JUMPDEST POP SWAP3 POP PUSH2 0x14D2 SWAP1 PUSH2 0x19BA JUMP JUMPDEST PUSH2 0x13F3 JUMP JUMPDEST DUP7 PUSH4 0x4E487B71 PUSH1 0xE0 SHL PUSH1 0x0 MSTORE PUSH1 0x11 PUSH1 0x4 MSTORE PUSH1 0x0 REVERT JUMPDEST DUP3 MLOAD SWAP2 POP DUP2 DUP2 GT ISZERO PUSH2 0x152F JUMPI POP JUMPDEST PUSH2 0x1503 DUP2 PUSH2 0x1A16 JUMP JUMPDEST SWAP2 PUSH1 0x0 JUMPDEST DUP3 DUP2 LT PUSH2 0x151C JUMPI PUSH1 0x40 MLOAD DUP1 PUSH2 0x444 DUP7 DUP3 PUSH2 0x164D JUMP JUMPDEST DUP1 PUSH2 0x456 PUSH2 0x152A SWAP3 DUP5 PUSH2 0x19DF JUMP JUMPDEST PUSH2 0x1507 JUMP JUMPDEST SWAP1 POP PUSH2 0x14FA JUMP JUMPDEST DUP6 PUSH4 0x4E487B71 PUSH1 0xE0 SHL PUSH1 0x0 MSTORE PUSH1 0x11 PUSH1 0x4 MSTORE PUSH1 0x0 REVERT JUMPDEST PUSH2 0x1561 SWAP2 SWAP6 POP RETURNDATASIZE DUP1 PUSH1 0x0 DUP4 RETURNDATACOPY PUSH2 0x486 DUP2 DUP4 PUSH2 0x17F3 JUMP JUMPDEST SWAP4 DUP7 PUSH2 0x1214 JUMP JUMPDEST POP PUSH1 0x40 MLOAD PUSH4 0x8DA5CB5B PUSH1 0xE0 SHL DUP2 MSTORE DUP3 DUP2 PUSH1 0x4 DUP2 DUP6 GAS STATICCALL DUP1 ISZERO PUSH2 0x339 JUMPI DUP7 SWAP1 PUSH1 0x0 SWAP1 PUSH2 0x1598 JUMPI JUMPDEST AND CALLER EQ SWAP1 POP PUSH2 0x11E5 JUMP JUMPDEST POP POP DUP3 DUP2 DUP2 RETURNDATASIZE DUP4 GT PUSH2 0x15C9 JUMPI JUMPDEST PUSH2 0x15AF DUP2 DUP4 PUSH2 0x17F3 JUMP JUMPDEST DUP2 ADD SUB SLT PUSH2 0xA0 JUMPI DUP6 PUSH2 0x15C4 PUSH2 0x11EE SWAP3 PUSH2 0x183E JUMP JUMPDEST PUSH2 0x158E JUMP JUMPDEST POP RETURNDATASIZE PUSH2 0x15A5 JUMP JUMPDEST SWAP1 POP DUP3 DUP2 DUP2 RETURNDATASIZE DUP4 GT PUSH2 0x15FE JUMPI JUMPDEST PUSH2 0x15E7 DUP2 DUP4 PUSH2 0x17F3 JUMP JUMPDEST DUP2 ADD SUB SLT PUSH2 0xA0 JUMPI PUSH2 0x15F8 SWAP1 PUSH2 0x1831 JUMP JUMPDEST DUP7 PUSH2 0x11DD JUMP JUMPDEST POP RETURNDATASIZE PUSH2 0x15DD JUMP JUMPDEST PUSH1 0x0 JUMPDEST DUP4 DUP2 LT PUSH2 0x1618 JUMPI POP POP PUSH1 0x0 SWAP2 ADD MSTORE JUMP JUMPDEST DUP2 DUP2 ADD MLOAD DUP4 DUP3 ADD MSTORE PUSH1 0x20 ADD PUSH2 0x1608 JUMP JUMPDEST SWAP1 PUSH1 0x20 SWAP2 PUSH2 0x1641 DUP2 MLOAD DUP1 SWAP3 DUP2 DUP6 MSTORE DUP6 DUP1 DUP7 ADD SWAP2 ADD PUSH2 0x1605 JUMP JUMPDEST PUSH1 0x1F ADD PUSH1 0x1F NOT AND ADD ADD SWAP1 JUMP JUMPDEST PUSH1 0x20 DUP1 DUP3 ADD SWAP1 DUP1 DUP4 MSTORE DUP4 MLOAD DUP1 SWAP3 MSTORE PUSH1 0x40 SWAP3 DUP4 DUP2 ADD DUP3 DUP6 DUP6 PUSH1 0x5 SHL DUP5 ADD ADD SWAP7 ADD SWAP5 PUSH1 0x0 SWAP3 JUMPDEST DUP6 DUP5 LT PUSH2 0x1682 JUMPI POP POP POP POP POP POP POP SWAP1 JUMP JUMPDEST SWAP1 SWAP2 SWAP3 SWAP4 SWAP5 SWAP6 SWAP7 DUP6 DUP1 PUSH1 0x1 SWAP3 PUSH1 0x3F NOT DUP6 DUP3 SUB ADD DUP8 MSTORE DUP11 MLOAD SWAP1 DUP5 DUP1 PUSH1 0xA0 SHL SUB DUP3 MLOAD AND DUP2 MSTORE PUSH2 0x16CF PUSH2 0x16BF DUP5 DUP5 ADD MLOAD PUSH2 0x100 DUP1 DUP8 DUP7 ADD MSTORE DUP5 ADD SWAP1 PUSH2 0x1628 JUMP JUMPDEST DUP9 DUP5 ADD MLOAD DUP4 DUP3 SUB DUP11 DUP6 ADD MSTORE PUSH2 0x1628 JUMP JUMPDEST SWAP2 PUSH1 0x60 DUP1 DUP3 ADD MLOAD SWAP1 DUP4 ADD MSTORE PUSH1 0x80 DUP1 DUP3 ADD MLOAD SWAP1 DUP4 ADD MSTORE PUSH1 0xA0 DUP1 DUP3 ADD MLOAD SWAP1 DUP4 ADD MSTORE PUSH1 0xC0 DUP1 DUP3 ADD MLOAD ISZERO ISZERO SWAP1 DUP4 ADD MSTORE PUSH1 0xE0 DUP1 SWAP2 ADD MLOAD SWAP2 ADD MSTORE SWAP10 ADD SWAP5 ADD SWAP5 ADD SWAP3 SWAP6 SWAP5 SWAP4 SWAP2 SWAP1 PUSH2 0x1671 JUMP JUMPDEST PUSH1 0x20 DUP1 DUP3 ADD SWAP1 DUP1 DUP4 MSTORE DUP4 MLOAD DUP1 SWAP3 MSTORE DUP1 PUSH1 0x40 DUP1 SWAP5 ADD SWAP5 ADD SWAP3 PUSH1 0x0 SWAP1 JUMPDEST DUP4 DUP3 LT PUSH2 0x173E JUMPI POP POP POP POP POP SWAP1 JUMP JUMPDEST DUP5 MLOAD DUP1 MLOAD PUSH1 0x1 PUSH1 0x1 PUSH1 0xA0 SHL SUB SWAP1 DUP2 AND DUP9 MSTORE DUP2 DUP6 ADD MLOAD DUP2 AND DUP9 DUP7 ADD MSTORE DUP2 DUP4 ADD MLOAD AND DUP8 DUP4 ADD MSTORE PUSH1 0x60 DUP1 DUP3 ADD MLOAD SWAP1 DUP9 ADD MSTORE PUSH1 0x80 DUP1 DUP3 ADD MLOAD SWAP1 DUP9 ADD MSTORE PUSH1 0xA0 DUP1 DUP3 ADD MLOAD SWAP1 DUP9 ADD MSTORE PUSH1 0xC0 DUP1 DUP3 ADD MLOAD ISZERO ISZERO SWAP1 DUP9 ADD MSTORE PUSH1 0xE0 DUP1 DUP3 ADD MLOAD ISZERO ISZERO SWAP1 DUP9 ADD MSTORE PUSH2 0x100 SWAP1 DUP2 ADD MLOAD SWAP1 DUP8 ADD MSTORE PUSH2 0x120 SWAP1 SWAP6 ADD SWAP5 SWAP4 DUP3 ADD SWAP4 PUSH1 0x1 SWAP1 SWAP2 ADD SWAP1 PUSH2 0x172F JUMP JUMPDEST PUSH2 0x100 DUP2 ADD SWAP1 DUP2 LT PUSH8 0xFFFFFFFFFFFFFFFF DUP3 GT OR PUSH2 0x1175 JUMPI PUSH1 0x40 MSTORE JUMP JUMPDEST PUSH2 0x120 DUP2 ADD SWAP1 DUP2 LT PUSH8 0xFFFFFFFFFFFFFFFF DUP3 GT OR PUSH2 0x1175 JUMPI PUSH1 0x40 MSTORE JUMP JUMPDEST SWAP1 PUSH1 0x1F DUP1 NOT SWAP2 ADD AND DUP2 ADD SWAP1 DUP2 LT PUSH8 0xFFFFFFFFFFFFFFFF DUP3 GT OR PUSH2 0x1175 JUMPI PUSH1 0x40 MSTORE JUMP JUMPDEST PUSH8 0xFFFFFFFFFFFFFFFF DUP2 GT PUSH2 0x1175 JUMPI PUSH1 0x1F ADD PUSH1 0x1F NOT AND PUSH1 0x20 ADD SWAP1 JUMP JUMPDEST MLOAD SWAP1 DUP2 ISZERO ISZERO DUP3 SUB PUSH2 0xA0 JUMPI JUMP JUMPDEST MLOAD SWAP1 PUSH1 0x1 PUSH1 0x1 PUSH1 0xA0 SHL SUB DUP3 AND DUP3 SUB PUSH2 0xA0 JUMPI JUMP JUMPDEST ISZERO PUSH2 0x1859 JUMPI JUMP JUMPDEST PUSH1 0x40 MLOAD PUSH3 0x461BCD PUSH1 0xE5 SHL DUP2 MSTORE PUSH1 0x20 PUSH1 0x4 DUP3 ADD MSTORE PUSH1 0x15 PUSH1 0x24 DUP3 ADD MSTORE PUSH21 0x4F6E6C792061646D696E2063616E20616363657373 PUSH1 0x58 SHL PUSH1 0x44 DUP3 ADD MSTORE PUSH1 0x64 SWAP1 REVERT JUMPDEST PUSH8 0xFFFFFFFFFFFFFFFF DUP2 GT PUSH2 0x1175 JUMPI PUSH1 0x5 SHL PUSH1 0x20 ADD SWAP1 JUMP JUMPDEST PUSH1 0x20 SWAP1 DUP2 DUP2 DUP5 SUB SLT PUSH2 0xA0 JUMPI DUP1 MLOAD SWAP1 PUSH8 0xFFFFFFFFFFFFFFFF DUP3 GT PUSH2 0xA0 JUMPI ADD SWAP2 DUP1 PUSH1 0x1F DUP5 ADD SLT ISZERO PUSH2 0xA0 JUMPI DUP3 MLOAD PUSH2 0x18E4 DUP2 PUSH2 0x1896 JUMP JUMPDEST SWAP4 PUSH2 0x18F2 PUSH1 0x40 MLOAD SWAP6 DUP7 PUSH2 0x17F3 JUMP JUMPDEST DUP2 DUP6 MSTORE DUP4 DUP1 DUP7 ADD SWAP3 PUSH1 0x5 SHL DUP3 ADD ADD SWAP3 DUP4 GT PUSH2 0xA0 JUMPI DUP4 ADD SWAP1 JUMPDEST DUP3 DUP3 LT PUSH2 0x1919 JUMPI POP POP POP POP SWAP1 JUMP JUMPDEST DUP4 DUP1 SWAP2 PUSH2 0x1925 DUP5 PUSH2 0x183E JUMP JUMPDEST DUP2 MSTORE ADD SWAP2 ADD SWAP1 PUSH2 0x190B JUMP JUMPDEST PUSH1 0x20 SWAP1 DUP2 DUP2 DUP5 SUB SLT PUSH2 0xA0 JUMPI DUP1 MLOAD SWAP1 PUSH8 0xFFFFFFFFFFFFFFFF DUP3 GT PUSH2 0xA0 JUMPI ADD SWAP2 DUP1 PUSH1 0x1F DUP5 ADD SLT ISZERO PUSH2 0xA0 JUMPI DUP3 MLOAD PUSH2 0x1966 DUP2 PUSH2 0x1896 JUMP JUMPDEST SWAP4 PUSH2 0x1974 PUSH1 0x40 MLOAD SWAP6 DUP7 PUSH2 0x17F3 JUMP JUMPDEST DUP2 DUP6 MSTORE DUP4 DUP1 DUP7 ADD SWAP3 PUSH1 0x5 SHL DUP3 ADD ADD SWAP3 DUP4 GT PUSH2 0xA0 JUMPI DUP4 ADD SWAP1 JUMPDEST DUP3 DUP3 LT PUSH2 0x199B JUMPI POP POP POP POP SWAP1 JUMP JUMPDEST DUP2 MLOAD PUSH1 0x1 PUSH1 0x1 PUSH1 0xA0 SHL SUB DUP2 AND DUP2 SUB PUSH2 0xA0 JUMPI DUP2 MSTORE SWAP1 DUP4 ADD SWAP1 DUP4 ADD PUSH2 0x198D JUMP JUMPDEST PUSH1 0x0 NOT DUP2 EQ PUSH2 0x19C9 JUMPI PUSH1 0x1 ADD SWAP1 JUMP JUMPDEST PUSH4 0x4E487B71 PUSH1 0xE0 SHL PUSH1 0x0 MSTORE PUSH1 0x11 PUSH1 0x4 MSTORE PUSH1 0x24 PUSH1 0x0 REVERT JUMPDEST DUP1 MLOAD DUP3 LT ISZERO PUSH2 0x19F3 JUMPI PUSH1 0x20 SWAP2 PUSH1 0x5 SHL ADD ADD SWAP1 JUMP JUMPDEST PUSH4 0x4E487B71 PUSH1 0xE0 SHL PUSH1 0x0 MSTORE PUSH1 0x32 PUSH1 0x4 MSTORE PUSH1 0x24 PUSH1 0x0 REVERT JUMPDEST SWAP2 SWAP1 DUP3 ADD DUP1 SWAP3 GT PUSH2 0x19C9 JUMPI JUMP JUMPDEST SWAP1 PUSH2 0x1A20 DUP3 PUSH2 0x1896 JUMP JUMPDEST PUSH1 0x40 SWAP1 PUSH2 0x1A2F DUP3 MLOAD SWAP2 DUP3 PUSH2 0x17F3 JUMP JUMPDEST DUP4 DUP2 MSTORE DUP1 SWAP4 PUSH2 0x1A40 PUSH1 0x1F NOT SWAP2 PUSH2 0x1896 JUMP JUMPDEST ADD SWAP2 PUSH1 0x0 JUMPDEST DUP4 DUP2 LT PUSH2 0x1A52 JUMPI POP POP POP POP JUMP JUMPDEST PUSH1 0x20 SWAP1 DUP3 MLOAD PUSH2 0x1A60 DUP2 PUSH2 0x17B9 JUMP JUMPDEST PUSH1 0x0 DUP2 MSTORE PUSH1 0x60 PUSH1 0x0 DUP5 SWAP2 DUP1 DUP4 DUP6 ADD MSTORE DUP1 DUP8 DUP6 ADD MSTORE DUP4 ADD MSTORE PUSH1 0x0 PUSH1 0x80 DUP4 ADD MSTORE PUSH1 0x0 PUSH1 0xA0 DUP4 ADD MSTORE PUSH1 0x0 PUSH1 0xC0 DUP4 ADD MSTORE PUSH1 0x0 PUSH1 0xE0 DUP4 ADD MSTORE DUP3 DUP7 ADD ADD MSTORE ADD PUSH2 0x1A45 JUMP JUMPDEST DUP2 PUSH1 0x1F DUP3 ADD SLT ISZERO PUSH2 0xA0 JUMPI DUP1 MLOAD PUSH2 0x1AB4 DUP2 PUSH2 0x1815 JUMP JUMPDEST SWAP3 PUSH2 0x1AC2 PUSH1 0x40 MLOAD SWAP5 DUP6 PUSH2 0x17F3 JUMP JUMPDEST DUP2 DUP5 MSTORE PUSH1 0x20 DUP3 DUP5 ADD ADD GT PUSH2 0xA0 JUMPI PUSH2 0x1AE0 SWAP2 PUSH1 0x20 DUP1 DUP6 ADD SWAP2 ADD PUSH2 0x1605 JUMP JUMPDEST SWAP1 JUMP JUMPDEST SWAP1 PUSH1 0x20 DUP3 DUP3 SUB SLT PUSH2 0xA0 JUMPI DUP2 MLOAD PUSH8 0xFFFFFFFFFFFFFFFF SWAP3 DUP4 DUP3 GT PUSH2 0xA0 JUMPI ADD PUSH1 0xE0 DUP2 DUP4 SUB SLT PUSH2 0xA0 JUMPI PUSH1 0x40 MLOAD SWAP3 PUSH1 0xE0 DUP5 ADD DUP5 DUP2 LT DUP3 DUP3 GT OR PUSH2 0x1175 JUMPI PUSH1 0x40 MSTORE PUSH2 0x1B2B DUP3 PUSH2 0x183E JUMP JUMPDEST DUP5 MSTORE PUSH1 0x20 DUP3 ADD MLOAD DUP2 DUP2 GT PUSH2 0xA0 JUMPI DUP4 PUSH2 0x1B45 SWAP2 DUP5 ADD PUSH2 0x1A9E JUMP JUMPDEST PUSH1 0x20 DUP6 ADD MSTORE PUSH1 0x40 DUP3 ADD MLOAD SWAP1 DUP2 GT PUSH2 0xA0 JUMPI PUSH1 0xC0 SWAP3 PUSH2 0x1B64 SWAP2 DUP4 ADD PUSH2 0x1A9E JUMP JUMPDEST PUSH1 0x40 DUP5 ADD MSTORE PUSH1 0x60 DUP2 ADD MLOAD PUSH1 0x60 DUP5 ADD MSTORE PUSH1 0x80 DUP2 ADD MLOAD PUSH1 0x80 DUP5 ADD MSTORE PUSH2 0x1B89 PUSH1 0xA0 DUP3 ADD PUSH2 0x1831 JUMP JUMPDEST PUSH1 0xA0 DUP5 ADD MSTORE ADD MLOAD PUSH1 0xC0 DUP3 ADD MSTORE SWAP1 JUMP JUMPDEST PUSH1 0x40 MLOAD SWAP1 PUSH2 0x1BA5 DUP3 PUSH2 0x17D6 JUMP JUMPDEST DUP2 PUSH2 0x100 PUSH1 0x0 SWAP2 DUP3 DUP2 MSTORE DUP3 PUSH1 0x20 DUP3 ADD MSTORE DUP3 PUSH1 0x40 DUP3 ADD MSTORE DUP3 PUSH1 0x60 DUP3 ADD MSTORE DUP3 PUSH1 0x80 DUP3 ADD MSTORE DUP3 PUSH1 0xA0 DUP3 ADD MSTORE DUP3 PUSH1 0xC0 DUP3 ADD MSTORE DUP3 PUSH1 0xE0 DUP3 ADD MSTORE ADD MSTORE JUMP JUMPDEST SWAP1 PUSH2 0x1BE7 DUP3 PUSH2 0x1896 JUMP JUMPDEST PUSH2 0x1BF4 PUSH1 0x40 MLOAD SWAP2 DUP3 PUSH2 0x17F3 JUMP JUMPDEST DUP3 DUP2 MSTORE DUP1 SWAP3 PUSH2 0x1C05 PUSH1 0x1F NOT SWAP2 PUSH2 0x1896 JUMP JUMPDEST ADD SWAP1 PUSH1 0x0 JUMPDEST DUP3 DUP2 LT PUSH2 0x1C16 JUMPI POP POP POP JUMP JUMPDEST PUSH1 0x20 SWAP1 PUSH2 0x1C21 PUSH2 0x1B98 JUMP JUMPDEST DUP3 DUP3 DUP6 ADD ADD MSTORE ADD PUSH2 0x1C0A JUMP JUMPDEST SWAP1 DUP2 PUSH2 0x120 SWAP2 SUB SLT PUSH2 0xA0 JUMPI PUSH2 0x1C42 DUP2 PUSH2 0x183E JUMP JUMPDEST SWAP2 PUSH2 0x1C4F PUSH1 0x20 DUP4 ADD PUSH2 0x183E JUMP JUMPDEST SWAP2 PUSH1 0x40 DUP2 ADD MLOAD SWAP2 PUSH1 0x60 DUP3 ADD MLOAD SWAP2 PUSH1 0x80 DUP2 ADD MLOAD SWAP2 PUSH2 0x1C6E PUSH1 0xA0 DUP4 ADD PUSH2 0x1831 JUMP JUMPDEST SWAP2 PUSH2 0x1C7B PUSH1 0xC0 DUP3 ADD PUSH2 0x1831 JUMP JUMPDEST SWAP2 PUSH2 0x100 PUSH2 0x1C8B PUSH1 0xE0 DUP5 ADD PUSH2 0x1831 JUMP JUMPDEST SWAP3 ADD MLOAD SWAP1 JUMP JUMPDEST SWAP1 PUSH2 0x1C9A PUSH2 0x1B98 JUMP JUMPDEST POP PUSH1 0x40 DUP1 MLOAD PUSH4 0x7CC1F867 PUSH1 0xE0 SHL DUP2 MSTORE SWAP1 SWAP3 PUSH1 0x1 PUSH1 0x1 PUSH1 0xA0 SHL SUB SWAP1 DUP2 AND SWAP2 PUSH2 0x120 SWAP1 DUP2 DUP2 PUSH1 0x4 DUP2 DUP8 GAS STATICCALL SWAP3 DUP4 ISZERO PUSH2 0x1DC4 JUMPI SWAP6 PUSH1 0x4 SWAP5 SWAP6 SWAP7 PUSH1 0x0 SWAP2 DUP3 SWAP2 DUP4 SWAP3 DUP5 DUP1 SWAP7 DUP2 SWAP9 DUP3 SWAP11 PUSH2 0x1D8D JUMPI JUMPDEST POP POP DUP4 MLOAD PUSH4 0x5CBDE43 PUSH1 0xE1 SHL DUP2 MSTORE SWAP10 PUSH1 0x20 SWAP1 DUP12 SWAP1 DUP2 DUP15 GAS STATICCALL SWAP10 DUP11 ISZERO PUSH2 0x1D82 JUMPI PUSH1 0x0 SWAP11 PUSH2 0x1D4C JUMPI JUMPDEST POP DUP3 SWAP1 DUP5 MLOAD SWAP12 PUSH2 0x1D19 DUP14 PUSH2 0x17D6 JUMP JUMPDEST DUP13 MSTORE AND PUSH1 0x20 DUP12 ADD MSTORE AND SWAP1 DUP9 ADD MSTORE PUSH1 0x60 DUP8 ADD MSTORE PUSH1 0x80 DUP7 ADD MSTORE PUSH1 0xA0 DUP6 ADD MSTORE ISZERO ISZERO PUSH1 0xC0 DUP5 ADD MSTORE ISZERO ISZERO PUSH1 0xE0 DUP4 ADD MSTORE PUSH2 0x100 DUP3 ADD MSTORE SWAP1 JUMP JUMPDEST SWAP1 SWAP10 PUSH1 0x20 DUP3 RETURNDATASIZE DUP3 GT PUSH2 0x1D7A JUMPI JUMPDEST DUP2 PUSH2 0x1D66 PUSH1 0x20 SWAP4 DUP4 PUSH2 0x17F3 JUMP JUMPDEST DUP2 ADD SUB SLT PUSH2 0x1D77 JUMPI POP MLOAD SWAP9 DUP3 PUSH2 0x1D0A JUMP JUMPDEST DUP1 REVERT JUMPDEST RETURNDATASIZE SWAP2 POP PUSH2 0x1D59 JUMP JUMPDEST DUP5 MLOAD RETURNDATASIZE PUSH1 0x0 DUP3 RETURNDATACOPY RETURNDATASIZE SWAP1 REVERT JUMPDEST SWAP6 POP SWAP6 POP POP POP SWAP6 POP SWAP4 POP PUSH2 0x1DAD SWAP3 POP DUP1 RETURNDATASIZE LT PUSH2 0xCFA JUMPI PUSH2 0xCE4 DUP2 DUP4 PUSH2 0x17F3 JUMP JUMPDEST POP POP SWAP7 SWAP3 SWAP4 SWAP1 SWAP6 SWAP8 SWAP2 SWAP5 SWAP1 SWAP4 SWAP5 SWAP6 SWAP7 SWAP8 CODESIZE DUP1 PUSH2 0x1CE3 JUMP JUMPDEST DUP7 MLOAD RETURNDATASIZE PUSH1 0x0 DUP3 RETURNDATACOPY RETURNDATASIZE SWAP1 REVERT JUMPDEST SWAP2 SWAP1 DUP3 SUB SWAP2 DUP3 GT PUSH2 0x19C9 JUMPI JUMP JUMPDEST PUSH1 0x0 DUP1 SLOAD PUSH1 0x40 MLOAD PUSH4 0xC69E74B PUSH1 0xE1 SHL DUP2 MSTORE PUSH1 0x1 PUSH1 0x1 PUSH1 0xA0 SHL SUB SWAP2 DUP4 SWAP1 DUP3 SWAP1 PUSH1 0x4 SWAP1 DUP3 SWAP1 DUP7 AND GAS STATICCALL SWAP1 DUP2 ISZERO PUSH2 0x1ED0 JUMPI DUP4 SWAP2 PUSH2 0x1EB6 JUMPI JUMPDEST POP DUP1 MLOAD SWAP4 DUP5 ISZERO PUSH2 0x1E7B JUMPI DUP5 DUP2 GT ISZERO PUSH2 0x1E75 JUMPI POP DUP4 SWAP3 JUMPDEST PUSH2 0x1E3A DUP5 PUSH2 0x1E34 DUP2 PUSH2 0x1BDD JUMP JUMPDEST SWAP7 PUSH2 0x1DCF JUMP JUMPDEST SWAP1 JUMPDEST DUP5 DUP2 LT PUSH2 0x1E4B JUMPI POP POP POP POP POP SWAP1 JUMP JUMPDEST DUP1 PUSH2 0x1E66 DUP6 PUSH2 0xA69 PUSH2 0x1E60 PUSH2 0x1E70 SWAP6 DUP8 PUSH2 0x1A09 JUMP JUMPDEST DUP8 PUSH2 0x19DF JUMP JUMPDEST PUSH2 0x3BF DUP3 DUP10 PUSH2 0x19DF JUMP JUMPDEST PUSH2 0x1E3C JUMP JUMPDEST SWAP3 PUSH2 0x1E27 JUMP JUMPDEST POP POP PUSH1 0x40 MLOAD SWAP3 POP POP PUSH1 0x20 DUP3 ADD PUSH8 0xFFFFFFFFFFFFFFFF DUP2 GT DUP4 DUP3 LT OR PUSH2 0x1EA2 JUMPI PUSH1 0x40 MSTORE DUP2 MSTORE SWAP1 JUMP JUMPDEST PUSH4 0x4E487B71 PUSH1 0xE0 SHL DUP3 MSTORE PUSH1 0x41 PUSH1 0x4 MSTORE PUSH1 0x24 DUP3 REVERT JUMPDEST PUSH2 0x1ECA SWAP2 POP RETURNDATASIZE DUP1 DUP6 DUP4 RETURNDATACOPY PUSH2 0x3ED DUP2 DUP4 PUSH2 0x17F3 JUMP JUMPDEST CODESIZE PUSH2 0x1E11 JUMP JUMPDEST PUSH1 0x40 MLOAD RETURNDATASIZE DUP6 DUP3 RETURNDATACOPY RETURNDATASIZE SWAP1 REVERT INVALID LOG2 PUSH5 0x6970667358 0x22 SLT KECCAK256 0xAC MULMOD ISZERO 0xD0 SWAP4 PREVRANDAO 0xE8 PUSH18 0xCD2049744C491D05BE49400B04E58BF83ACB LOG0 0xB7 NUMBER SWAP13 NUMBER CALLCODE PUSH5 0x736F6C6343 STOP ADDMOD SGT STOP CALLER "},"methodIdentifiers":{"factory()":"c45a0155","getAllOrganizationsSummary()":"5a91b0b2","getContractDetails(address)":"32df3f02","getOrganizationEmployees(address)":"3504fbab","getPlatformStats()":"136d8883","getRecentContracts(uint256)":"77b93ff3","getTopOrganizationsByEmployees(uint256)":"07a11c95","searchOrganizationByName(string)":"79f59f84"}}}}}