{"contracts/AttendanceManager.sol":{"AttendanceManager":{"abi":[{"anonymous":false,"inputs":[{"indexed":true,"internalType":"address","name":"employee","type":"address"},{"indexed":true,"internalType":"address","name":"employer","type":"address"},{"indexed":false,"internalType":"uint256","name":"day","type":"uint256"}],"name":"AttendanceMarked","type":"event"},{"anonymous":false,"inputs":[{"indexed":true,"internalType":"address","name":"employer","type":"address"},{"indexed":true,"internalType":"address","name":"employee","type":"address"},{"indexed":true,"internalType":"bytes32","name":"codeHash","type":"bytes32"},{"indexed":false,"internalType":"uint256","name":"expiryTime","type":"uint256"}],"name":"CodeGenerated","type":"event"},{"inputs":[],"name":"CODE_VALIDITY_DURATION","outputs":[{"internalType":"uint256","name":"","type":"uint256"}],"stateMutability":"view","type":"function"},{"inputs":[{"internalType":"bytes32","name":"","type":"bytes32"}],"name":"attendanceCodes","outputs":[{"internalType":"bytes32","name":"codeHash","type":"bytes32"},{"internalType":"uint256","name":"expiryTime","type":"uint256"},{"internalType":"bool","name":"isActive","type":"bool"},{"internalType":"address","name":"employer","type":"address"},{"internalType":"address","name":"employee","type":"address"}],"stateMutability":"view","type":"function"},{"inputs":[{"internalType":"address","name":"","type":"address"},{"internalType":"uint256","name":"","type":"uint256"}],"name":"employeeAttendanceDays","outputs":[{"internalType":"uint256","name":"","type":"uint256"}],"stateMutability":"view","type":"function"},{"inputs":[{"internalType":"address","name":"","type":"address"},{"internalType":"uint256","name":"","type":"uint256"}],"name":"employerDailyCodes","outputs":[{"internalType":"bytes32","name":"","type":"bytes32"}],"stateMutability":"view","type":"function"},{"inputs":[{"internalType":"address","name":"_salaryContract","type":"address"},{"internalType":"address","name":"_employee","type":"address"},{"internalType":"uint256","name":"_day","type":"uint256"},{"internalType":"uint256","name":"_nonce","type":"uint256"}],"name":"generateAttendanceCode","outputs":[{"internalType":"bytes32","name":"","type":"bytes32"}],"stateMutability":"nonpayable","type":"function"},{"inputs":[{"internalType":"bytes32","name":"_codeHash","type":"bytes32"}],"name":"getCodeDetails","outputs":[{"components":[{"internalType":"bytes32","name":"codeHash","type":"bytes32"},{"internalType":"uint256","name":"expiryTime","type":"uint256"},{"internalType":"bool","name":"isActive","type":"bool"},{"internalType":"address","name":"employer","type":"address"},{"internalType":"address","name":"employee","type":"address"}],"internalType":"struct AttendanceManager.AttendanceCode","name":"","type":"tuple"}],"stateMutability":"view","type":"function"},{"inputs":[{"internalType":"address","name":"_employee","type":"address"}],"name":"getEmployeeAttendanceDays","outputs":[{"internalType":"uint256[]","name":"","type":"uint256[]"}],"stateMutability":"view","type":"function"},{"inputs":[{"internalType":"bytes32","name":"_codeHash","type":"bytes32"}],"name":"isCodeValid","outputs":[{"internalType":"bool","name":"","type":"bool"}],"stateMutability":"view","type":"function"},{"inputs":[{"internalType":"address","name":"_salaryContract","type":"address"},{"internalType":"bytes32","name":"_codeHash","type":"bytes32"},{"internalType":"uint256","name":"_day","type":"uint256"}],"name":"verifyAndMarkAttendance","outputs":[{"internalType":"bool","name":"","type":"bool"}],"stateMutability":"nonpayable","type":"function"}],"evm":{"bytecode":{"linkReferences":{},"object":"6080806040523461001657610972908161001c8239f35b600080fdfe608060408181526004908136101561001657600080fd5b600092833560e01c90816323ec70e1146107c1575080633cbfedff1461053057806364785689146104835780636ea77fae1461044257806388a0617f146103e95780639926a6ab14610368578063a01b94fd14610305578063c5ff49d6146102e75763ffb71c1a1461008757600080fd5b346102e35760803660031901126102e3576100a0610880565b6001600160a01b039360243593858516929091908386036102df57866044359186519063ae200e7960e01b825281868160209c8d94165afa9081156102d55790829185916102a8575b5016330361026757855196888801903360601b82526bffffffffffffffffffffffff199060601b16603489015282604889015242606889015244608889015260643560a889015260a8885260e088019088821067ffffffffffffffff831117610254578188528851902097620151804201958642116102415750928688936003848d8d9b9a99969861017b8d9a6108c9565b89835261010081018b81528861012083019360018552610160610140850194338652019889528c8252528989209351845551600184015560028301915115159060ff835491610100600160a81b03905160081b169216906affffffffffffffffffffff60a81b1617179055019151166bffffffffffffffffffffffff60a01b82541617905533825260018a528282209082528952205583519081527f236edb05925b47523f4ccf27a1ce649c1fb7b0ea0d98846eb1739065ee213fea863392a451908152f35b634e487b7160e01b865260119052602485fd5b634e487b7160e01b855260418652602485fd5b606484898089519262461bcd60e51b845283015260248201527f4f6e6c7920656d706c6f7965722063616e2067656e657261746520636f6465736044820152fd5b6102c891508a3d8c116102ce575b6102c081836108fb565b81019061091d565b386100e9565b503d6102b6565b87513d86823e3d90fd5b5080fd5b8280fd5b8382346102df57816003193601126102df5760209051620151808152f35b5090346102e35760203660031901126102e35760a09282913581528060205220906003825492600181015492600282015491600180881b03938491015416938151958652602086015260ff821615159085015260081c1660608301526080820152f35b5090346102e35760203660031901126102e357602092829135815280845220908051610393816108c9565b82548152600183015490818582015260806002850154600360ff8216151596878786015260018060a01b03809360081c166060860152015416910152826103de575b50519015158152f35b4211159150386103d5565b8382346102df57806003193601126102df57610403610880565b6001600160a01b0316825260026020528082208054602435939084101561043f57506020926104319161089b565b91905490519160031b1c8152f35b80fd5b8382346102df57806003193601126102df5760209181906001600160a01b03610469610880565b168152600184528181206024358252845220549051908152f35b50823461043f576020908160031936011261043f5782906001600160a01b036104aa610880565b16815260028352818120908251808584549182815201908194845286842090845b81811061051c57505050816104e19103826108fb565b83519485948186019282875251809352850193925b82811061050557505050500390f35b8351855286955093810193928101926001016104f6565b8254845292880192600192830192016104cb565b50823461043f57606036600319011261043f5761054b610880565b825163a0a1a7d760e01b8152602094604435936001600160a01b03936024803594909189908290869082908a165afa9081156107b757908691849161079a575b5016330361074f578382528188528682209387516105a8816108c9565b8554815260018601548a820190815289608089600360028b01549a60ff8c16159485159088015282606088019c60081c168c520154169301928352610718575142116106e35786339151160361069657825281885260028783200160ff198154169055338252600288528682209182549368010000000000000000851015610686575050509061063d9160018201815561089b565b81549060031b9085821b91600019901b191617905551169082519081527f49a414c42fece87066d1706c6d966e8713438782350e5693e74232ca399ddad3843392a35160018152f35b634e487b7160e01b825260419052fd5b875162461bcd60e51b81528085018a90526022818401527f436f6465206e6f742061737369676e656420746f207468697320656d706c6f79604482015261656560f01b6064820152608490fd5b885162461bcd60e51b81528086018b90526010818501526f10dbd919481a185cc8195e1c1a5c995960821b6044820152606490fd5b895162461bcd60e51b81528087018c905260128186015271436f6465206973206e6f742061637469766560701b6044820152606490fd5b8260216084928a8a519362461bcd60e51b85528401528201527f4f6e6c7920656d706c6f7965652063616e206d61726b20617474656e64616e636044820152606560f81b6064820152fd5b6107b191508a3d8c116102ce576102c081836108fb565b8a61058b565b88513d85823e3d90fd5b849391503461087c57602036600319011261087c578360039260a0956080846107ea88966108c9565b828152826020820152828682015282606082015201523581528060205220825190610814826108c9565b805493848352600182015490602084019182526002830154918185019060ff841615158252608060608701946001808c1b0398899788809360081c16885201541696019586528251978852516020880152511515908601525116606084015251166080820152f35b8380fd5b600435906001600160a01b038216820361089657565b600080fd5b80548210156108b35760005260206000200190600090565b634e487b7160e01b600052603260045260246000fd5b60a0810190811067ffffffffffffffff8211176108e557604052565b634e487b7160e01b600052604160045260246000fd5b90601f8019910116810190811067ffffffffffffffff8211176108e557604052565b9081602091031261089657516001600160a01b0381168103610896579056fea2646970667358221220bf51c93381d90b1ed9f772568bee23f2cc55398a795b8659ab17033d880a283e64736f6c63430008130033","opcodes":"PUSH1 0x80 DUP1 PUSH1 0x40 MSTORE CALLVALUE PUSH2 0x16 JUMPI PUSH2 0x972 SWAP1 DUP2 PUSH2 0x1C DUP3 CODECOPY RETURN JUMPDEST PUSH1 0x0 DUP1 REVERT INVALID PUSH1 0x80 PUSH1 0x40 DUP2 DUP2 MSTORE PUSH1 0x4 SWAP1 DUP2 CALLDATASIZE LT ISZERO PUSH2 0x16 JUMPI PUSH1 0x0 DUP1 REVERT JUMPDEST PUSH1 0x0 SWAP3 DUP4 CALLDATALOAD PUSH1 0xE0 SHR SWAP1 DUP2 PUSH4 0x23EC70E1 EQ PUSH2 0x7C1 JUMPI POP DUP1 PUSH4 0x3CBFEDFF EQ PUSH2 0x530 JUMPI DUP1 PUSH4 0x64785689 EQ PUSH2 0x483 JUMPI DUP1 PUSH4 0x6EA77FAE EQ PUSH2 0x442 JUMPI DUP1 PUSH4 0x88A0617F EQ PUSH2 0x3E9 JUMPI DUP1 PUSH4 0x9926A6AB EQ PUSH2 0x368 JUMPI DUP1 PUSH4 0xA01B94FD EQ PUSH2 0x305 JUMPI DUP1 PUSH4 0xC5FF49D6 EQ PUSH2 0x2E7 JUMPI PUSH4 0xFFB71C1A EQ PUSH2 0x87 JUMPI PUSH1 0x0 DUP1 REVERT JUMPDEST CALLVALUE PUSH2 0x2E3 JUMPI PUSH1 0x80 CALLDATASIZE PUSH1 0x3 NOT ADD SLT PUSH2 0x2E3 JUMPI PUSH2 0xA0 PUSH2 0x880 JUMP JUMPDEST PUSH1 0x1 PUSH1 0x1 PUSH1 0xA0 SHL SUB SWAP4 PUSH1 0x24 CALLDATALOAD SWAP4 DUP6 DUP6 AND SWAP3 SWAP1 SWAP2 SWAP1 DUP4 DUP7 SUB PUSH2 0x2DF JUMPI DUP7 PUSH1 0x44 CALLDATALOAD SWAP2 DUP7 MLOAD SWAP1 PUSH4 0xAE200E79 PUSH1 0xE0 SHL DUP3 MSTORE DUP2 DUP7 DUP2 PUSH1 0x20 SWAP13 DUP14 SWAP5 AND GAS STATICCALL SWAP1 DUP2 ISZERO PUSH2 0x2D5 JUMPI SWAP1 DUP3 SWAP2 DUP6 SWAP2 PUSH2 0x2A8 JUMPI JUMPDEST POP AND CALLER SUB PUSH2 0x267 JUMPI DUP6 MLOAD SWAP7 DUP9 DUP9 ADD SWAP1 CALLER PUSH1 0x60 SHL DUP3 MSTORE PUSH12 0xFFFFFFFFFFFFFFFFFFFFFFFF NOT SWAP1 PUSH1 0x60 SHL AND PUSH1 0x34 DUP10 ADD MSTORE DUP3 PUSH1 0x48 DUP10 ADD MSTORE TIMESTAMP PUSH1 0x68 DUP10 ADD MSTORE PREVRANDAO PUSH1 0x88 DUP10 ADD MSTORE PUSH1 0x64 CALLDATALOAD PUSH1 0xA8 DUP10 ADD MSTORE PUSH1 0xA8 DUP9 MSTORE PUSH1 0xE0 DUP9 ADD SWAP1 DUP9 DUP3 LT PUSH8 0xFFFFFFFFFFFFFFFF DUP4 GT OR PUSH2 0x254 JUMPI DUP2 DUP9 MSTORE DUP9 MLOAD SWAP1 KECCAK256 SWAP8 PUSH3 0x15180 TIMESTAMP ADD SWAP6 DUP7 TIMESTAMP GT PUSH2 0x241 JUMPI POP SWAP3 DUP7 DUP9 SWAP4 PUSH1 0x3 DUP5 DUP14 DUP14 SWAP12 SWAP11 SWAP10 SWAP7 SWAP9 PUSH2 0x17B DUP14 SWAP11 PUSH2 0x8C9 JUMP JUMPDEST DUP10 DUP4 MSTORE PUSH2 0x100 DUP2 ADD DUP12 DUP2 MSTORE DUP9 PUSH2 0x120 DUP4 ADD SWAP4 PUSH1 0x1 DUP6 MSTORE PUSH2 0x160 PUSH2 0x140 DUP6 ADD SWAP5 CALLER DUP7 MSTORE ADD SWAP9 DUP10 MSTORE DUP13 DUP3 MSTORE MSTORE DUP10 DUP10 KECCAK256 SWAP4 MLOAD DUP5 SSTORE MLOAD PUSH1 0x1 DUP5 ADD SSTORE PUSH1 0x2 DUP4 ADD SWAP2 MLOAD ISZERO ISZERO SWAP1 PUSH1 0xFF DUP4 SLOAD SWAP2 PUSH2 0x100 PUSH1 0x1 PUSH1 0xA8 SHL SUB SWAP1 MLOAD PUSH1 0x8 SHL AND SWAP3 AND SWAP1 PUSH11 0xFFFFFFFFFFFFFFFFFFFFFF PUSH1 0xA8 SHL AND OR OR SWAP1 SSTORE ADD SWAP2 MLOAD AND PUSH12 0xFFFFFFFFFFFFFFFFFFFFFFFF PUSH1 0xA0 SHL DUP3 SLOAD AND OR SWAP1 SSTORE CALLER DUP3 MSTORE PUSH1 0x1 DUP11 MSTORE DUP3 DUP3 KECCAK256 SWAP1 DUP3 MSTORE DUP10 MSTORE KECCAK256 SSTORE DUP4 MLOAD SWAP1 DUP2 MSTORE PUSH32 0x236EDB05925B47523F4CCF27A1CE649C1FB7B0EA0D98846EB1739065EE213FEA DUP7 CALLER SWAP3 LOG4 MLOAD SWAP1 DUP2 MSTORE RETURN JUMPDEST PUSH4 0x4E487B71 PUSH1 0xE0 SHL DUP7 MSTORE PUSH1 0x11 SWAP1 MSTORE PUSH1 0x24 DUP6 REVERT JUMPDEST PUSH4 0x4E487B71 PUSH1 0xE0 SHL DUP6 MSTORE PUSH1 0x41 DUP7 MSTORE PUSH1 0x24 DUP6 REVERT JUMPDEST PUSH1 0x64 DUP5 DUP10 DUP1 DUP10 MLOAD SWAP3 PUSH3 0x461BCD PUSH1 0xE5 SHL DUP5 MSTORE DUP4 ADD MSTORE PUSH1 0x24 DUP3 ADD MSTORE PUSH32 0x4F6E6C7920656D706C6F7965722063616E2067656E657261746520636F646573 PUSH1 0x44 DUP3 ADD MSTORE REVERT JUMPDEST PUSH2 0x2C8 SWAP2 POP DUP11 RETURNDATASIZE DUP13 GT PUSH2 0x2CE JUMPI JUMPDEST PUSH2 0x2C0 DUP2 DUP4 PUSH2 0x8FB JUMP JUMPDEST DUP2 ADD SWAP1 PUSH2 0x91D JUMP JUMPDEST CODESIZE PUSH2 0xE9 JUMP JUMPDEST POP RETURNDATASIZE PUSH2 0x2B6 JUMP JUMPDEST DUP8 MLOAD RETURNDATASIZE DUP7 DUP3 RETURNDATACOPY RETURNDATASIZE SWAP1 REVERT JUMPDEST POP DUP1 REVERT JUMPDEST DUP3 DUP1 REVERT JUMPDEST DUP4 DUP3 CALLVALUE PUSH2 0x2DF JUMPI DUP2 PUSH1 0x3 NOT CALLDATASIZE ADD SLT PUSH2 0x2DF JUMPI PUSH1 0x20 SWAP1 MLOAD PUSH3 0x15180 DUP2 MSTORE RETURN JUMPDEST POP SWAP1 CALLVALUE PUSH2 0x2E3 JUMPI PUSH1 0x20 CALLDATASIZE PUSH1 0x3 NOT ADD SLT PUSH2 0x2E3 JUMPI PUSH1 0xA0 SWAP3 DUP3 SWAP2 CALLDATALOAD DUP2 MSTORE DUP1 PUSH1 0x20 MSTORE KECCAK256 SWAP1 PUSH1 0x3 DUP3 SLOAD SWAP3 PUSH1 0x1 DUP2 ADD SLOAD SWAP3 PUSH1 0x2 DUP3 ADD SLOAD SWAP2 PUSH1 0x1 DUP1 DUP9 SHL SUB SWAP4 DUP5 SWAP2 ADD SLOAD AND SWAP4 DUP2 MLOAD SWAP6 DUP7 MSTORE PUSH1 0x20 DUP7 ADD MSTORE PUSH1 0xFF DUP3 AND ISZERO ISZERO SWAP1 DUP6 ADD MSTORE PUSH1 0x8 SHR AND PUSH1 0x60 DUP4 ADD MSTORE PUSH1 0x80 DUP3 ADD MSTORE RETURN JUMPDEST POP SWAP1 CALLVALUE PUSH2 0x2E3 JUMPI PUSH1 0x20 CALLDATASIZE PUSH1 0x3 NOT ADD SLT PUSH2 0x2E3 JUMPI PUSH1 0x20 SWAP3 DUP3 SWAP2 CALLDATALOAD DUP2 MSTORE DUP1 DUP5 MSTORE KECCAK256 SWAP1 DUP1 MLOAD PUSH2 0x393 DUP2 PUSH2 0x8C9 JUMP JUMPDEST DUP3 SLOAD DUP2 MSTORE PUSH1 0x1 DUP4 ADD SLOAD SWAP1 DUP2 DUP6 DUP3 ADD MSTORE PUSH1 0x80 PUSH1 0x2 DUP6 ADD SLOAD PUSH1 0x3 PUSH1 0xFF DUP3 AND ISZERO ISZERO SWAP7 DUP8 DUP8 DUP7 ADD MSTORE PUSH1 0x1 DUP1 PUSH1 0xA0 SHL SUB DUP1 SWAP4 PUSH1 0x8 SHR AND PUSH1 0x60 DUP7 ADD MSTORE ADD SLOAD AND SWAP2 ADD MSTORE DUP3 PUSH2 0x3DE JUMPI JUMPDEST POP MLOAD SWAP1 ISZERO ISZERO DUP2 MSTORE RETURN JUMPDEST TIMESTAMP GT ISZERO SWAP2 POP CODESIZE PUSH2 0x3D5 JUMP JUMPDEST DUP4 DUP3 CALLVALUE PUSH2 0x2DF JUMPI DUP1 PUSH1 0x3 NOT CALLDATASIZE ADD SLT PUSH2 0x2DF JUMPI PUSH2 0x403 PUSH2 0x880 JUMP JUMPDEST PUSH1 0x1 PUSH1 0x1 PUSH1 0xA0 SHL SUB AND DUP3 MSTORE PUSH1 0x2 PUSH1 0x20 MSTORE DUP1 DUP3 KECCAK256 DUP1 SLOAD PUSH1 0x24 CALLDATALOAD SWAP4 SWAP1 DUP5 LT ISZERO PUSH2 0x43F JUMPI POP PUSH1 0x20 SWAP3 PUSH2 0x431 SWAP2 PUSH2 0x89B JUMP JUMPDEST SWAP2 SWAP1 SLOAD SWAP1 MLOAD SWAP2 PUSH1 0x3 SHL SHR DUP2 MSTORE RETURN JUMPDEST DUP1 REVERT JUMPDEST DUP4 DUP3 CALLVALUE PUSH2 0x2DF JUMPI DUP1 PUSH1 0x3 NOT CALLDATASIZE ADD SLT PUSH2 0x2DF JUMPI PUSH1 0x20 SWAP2 DUP2 SWAP1 PUSH1 0x1 PUSH1 0x1 PUSH1 0xA0 SHL SUB PUSH2 0x469 PUSH2 0x880 JUMP JUMPDEST AND DUP2 MSTORE PUSH1 0x1 DUP5 MSTORE DUP2 DUP2 KECCAK256 PUSH1 0x24 CALLDATALOAD DUP3 MSTORE DUP5 MSTORE KECCAK256 SLOAD SWAP1 MLOAD SWAP1 DUP2 MSTORE RETURN JUMPDEST POP DUP3 CALLVALUE PUSH2 0x43F JUMPI PUSH1 0x20 SWAP1 DUP2 PUSH1 0x3 NOT CALLDATASIZE ADD SLT PUSH2 0x43F JUMPI DUP3 SWAP1 PUSH1 0x1 PUSH1 0x1 PUSH1 0xA0 SHL SUB PUSH2 0x4AA PUSH2 0x880 JUMP JUMPDEST AND DUP2 MSTORE PUSH1 0x2 DUP4 MSTORE DUP2 DUP2 KECCAK256 SWAP1 DUP3 MLOAD DUP1 DUP6 DUP5 SLOAD SWAP2 DUP3 DUP2 MSTORE ADD SWAP1 DUP2 SWAP5 DUP5 MSTORE DUP7 DUP5 KECCAK256 SWAP1 DUP5 JUMPDEST DUP2 DUP2 LT PUSH2 0x51C JUMPI POP POP POP DUP2 PUSH2 0x4E1 SWAP2 SUB DUP3 PUSH2 0x8FB JUMP JUMPDEST DUP4 MLOAD SWAP5 DUP6 SWAP5 DUP2 DUP7 ADD SWAP3 DUP3 DUP8 MSTORE MLOAD DUP1 SWAP4 MSTORE DUP6 ADD SWAP4 SWAP3 JUMPDEST DUP3 DUP2 LT PUSH2 0x505 JUMPI POP POP POP POP SUB SWAP1 RETURN JUMPDEST DUP4 MLOAD DUP6 MSTORE DUP7 SWAP6 POP SWAP4 DUP2 ADD SWAP4 SWAP3 DUP2 ADD SWAP3 PUSH1 0x1 ADD PUSH2 0x4F6 JUMP JUMPDEST DUP3 SLOAD DUP5 MSTORE SWAP3 DUP9 ADD SWAP3 PUSH1 0x1 SWAP3 DUP4 ADD SWAP3 ADD PUSH2 0x4CB JUMP JUMPDEST POP DUP3 CALLVALUE PUSH2 0x43F JUMPI PUSH1 0x60 CALLDATASIZE PUSH1 0x3 NOT ADD SLT PUSH2 0x43F JUMPI PUSH2 0x54B PUSH2 0x880 JUMP JUMPDEST DUP3 MLOAD PUSH4 0xA0A1A7D7 PUSH1 0xE0 SHL DUP2 MSTORE PUSH1 0x20 SWAP5 PUSH1 0x44 CALLDATALOAD SWAP4 PUSH1 0x1 PUSH1 0x1 PUSH1 0xA0 SHL SUB SWAP4 PUSH1 0x24 DUP1 CALLDATALOAD SWAP5 SWAP1 SWAP2 DUP10 SWAP1 DUP3 SWAP1 DUP7 SWAP1 DUP3 SWAP1 DUP11 AND GAS STATICCALL SWAP1 DUP2 ISZERO PUSH2 0x7B7 JUMPI SWAP1 DUP7 SWAP2 DUP5 SWAP2 PUSH2 0x79A JUMPI JUMPDEST POP AND CALLER SUB PUSH2 0x74F JUMPI DUP4 DUP3 MSTORE DUP2 DUP9 MSTORE DUP7 DUP3 KECCAK256 SWAP4 DUP8 MLOAD PUSH2 0x5A8 DUP2 PUSH2 0x8C9 JUMP JUMPDEST DUP6 SLOAD DUP2 MSTORE PUSH1 0x1 DUP7 ADD SLOAD DUP11 DUP3 ADD SWAP1 DUP2 MSTORE DUP10 PUSH1 0x80 DUP10 PUSH1 0x3 PUSH1 0x2 DUP12 ADD SLOAD SWAP11 PUSH1 0xFF DUP13 AND ISZERO SWAP5 DUP6 ISZERO SWAP1 DUP9 ADD MSTORE DUP3 PUSH1 0x60 DUP9 ADD SWAP13 PUSH1 0x8 SHR AND DUP13 MSTORE ADD SLOAD AND SWAP4 ADD SWAP3 DUP4 MSTORE PUSH2 0x718 JUMPI MLOAD TIMESTAMP GT PUSH2 0x6E3 JUMPI DUP7 CALLER SWAP2 MLOAD AND SUB PUSH2 0x696 JUMPI DUP3 MSTORE DUP2 DUP9 MSTORE PUSH1 0x2 DUP8 DUP4 KECCAK256 ADD PUSH1 0xFF NOT DUP2 SLOAD AND SWAP1 SSTORE CALLER DUP3 MSTORE PUSH1 0x2 DUP9 MSTORE DUP7 DUP3 KECCAK256 SWAP2 DUP3 SLOAD SWAP4 PUSH9 0x10000000000000000 DUP6 LT ISZERO PUSH2 0x686 JUMPI POP POP POP SWAP1 PUSH2 0x63D SWAP2 PUSH1 0x1 DUP3 ADD DUP2 SSTORE PUSH2 0x89B JUMP JUMPDEST DUP2 SLOAD SWAP1 PUSH1 0x3 SHL SWAP1 DUP6 DUP3 SHL SWAP2 PUSH1 0x0 NOT SWAP1 SHL NOT AND OR SWAP1 SSTORE MLOAD AND SWAP1 DUP3 MLOAD SWAP1 DUP2 MSTORE PUSH32 0x49A414C42FECE87066D1706C6D966E8713438782350E5693E74232CA399DDAD3 DUP5 CALLER SWAP3 LOG3 MLOAD PUSH1 0x1 DUP2 MSTORE RETURN JUMPDEST PUSH4 0x4E487B71 PUSH1 0xE0 SHL DUP3 MSTORE PUSH1 0x41 SWAP1 MSTORE REVERT JUMPDEST DUP8 MLOAD PUSH3 0x461BCD PUSH1 0xE5 SHL DUP2 MSTORE DUP1 DUP6 ADD DUP11 SWAP1 MSTORE PUSH1 0x22 DUP2 DUP5 ADD MSTORE PUSH32 0x436F6465206E6F742061737369676E656420746F207468697320656D706C6F79 PUSH1 0x44 DUP3 ADD MSTORE PUSH2 0x6565 PUSH1 0xF0 SHL PUSH1 0x64 DUP3 ADD MSTORE PUSH1 0x84 SWAP1 REVERT JUMPDEST DUP9 MLOAD PUSH3 0x461BCD PUSH1 0xE5 SHL DUP2 MSTORE DUP1 DUP7 ADD DUP12 SWAP1 MSTORE PUSH1 0x10 DUP2 DUP6 ADD MSTORE PUSH16 0x10DBD919481A185CC8195E1C1A5C9959 PUSH1 0x82 SHL PUSH1 0x44 DUP3 ADD MSTORE PUSH1 0x64 SWAP1 REVERT JUMPDEST DUP10 MLOAD PUSH3 0x461BCD PUSH1 0xE5 SHL DUP2 MSTORE DUP1 DUP8 ADD DUP13 SWAP1 MSTORE PUSH1 0x12 DUP2 DUP7 ADD MSTORE PUSH18 0x436F6465206973206E6F7420616374697665 PUSH1 0x70 SHL PUSH1 0x44 DUP3 ADD MSTORE PUSH1 0x64 SWAP1 REVERT JUMPDEST DUP3 PUSH1 0x21 PUSH1 0x84 SWAP3 DUP11 DUP11 MLOAD SWAP4 PUSH3 0x461BCD PUSH1 0xE5 SHL DUP6 MSTORE DUP5 ADD MSTORE DUP3 ADD MSTORE PUSH32 0x4F6E6C7920656D706C6F7965652063616E206D61726B20617474656E64616E63 PUSH1 0x44 DUP3 ADD MSTORE PUSH1 0x65 PUSH1 0xF8 SHL PUSH1 0x64 DUP3 ADD MSTORE REVERT JUMPDEST PUSH2 0x7B1 SWAP2 POP DUP11 RETURNDATASIZE DUP13 GT PUSH2 0x2CE JUMPI PUSH2 0x2C0 DUP2 DUP4 PUSH2 0x8FB JUMP JUMPDEST DUP11 PUSH2 0x58B JUMP JUMPDEST DUP9 MLOAD RETURNDATASIZE DUP6 DUP3 RETURNDATACOPY RETURNDATASIZE SWAP1 REVERT JUMPDEST DUP5 SWAP4 SWAP2 POP CALLVALUE PUSH2 0x87C JUMPI PUSH1 0x20 CALLDATASIZE PUSH1 0x3 NOT ADD SLT PUSH2 0x87C JUMPI DUP4 PUSH1 0x3 SWAP3 PUSH1 0xA0 SWAP6 PUSH1 0x80 DUP5 PUSH2 0x7EA DUP9 SWAP7 PUSH2 0x8C9 JUMP JUMPDEST DUP3 DUP2 MSTORE DUP3 PUSH1 0x20 DUP3 ADD MSTORE DUP3 DUP7 DUP3 ADD MSTORE DUP3 PUSH1 0x60 DUP3 ADD MSTORE ADD MSTORE CALLDATALOAD DUP2 MSTORE DUP1 PUSH1 0x20 MSTORE KECCAK256 DUP3 MLOAD SWAP1 PUSH2 0x814 DUP3 PUSH2 0x8C9 JUMP JUMPDEST DUP1 SLOAD SWAP4 DUP5 DUP4 MSTORE PUSH1 0x1 DUP3 ADD SLOAD SWAP1 PUSH1 0x20 DUP5 ADD SWAP2 DUP3 MSTORE PUSH1 0x2 DUP4 ADD SLOAD SWAP2 DUP2 DUP6 ADD SWAP1 PUSH1 0xFF DUP5 AND ISZERO ISZERO DUP3 MSTORE PUSH1 0x80 PUSH1 0x60 DUP8 ADD SWAP5 PUSH1 0x1 DUP1 DUP13 SHL SUB SWAP9 DUP10 SWAP8 DUP9 DUP1 SWAP4 PUSH1 0x8 SHR AND DUP9 MSTORE ADD SLOAD AND SWAP7 ADD SWAP6 DUP7 MSTORE DUP3 MLOAD SWAP8 DUP9 MSTORE MLOAD PUSH1 0x20 DUP9 ADD MSTORE MLOAD ISZERO ISZERO SWAP1 DUP7 ADD MSTORE MLOAD AND PUSH1 0x60 DUP5 ADD MSTORE MLOAD AND PUSH1 0x80 DUP3 ADD MSTORE RETURN JUMPDEST DUP4 DUP1 REVERT JUMPDEST PUSH1 0x4 CALLDATALOAD SWAP1 PUSH1 0x1 PUSH1 0x1 PUSH1 0xA0 SHL SUB DUP3 AND DUP3 SUB PUSH2 0x896 JUMPI JUMP JUMPDEST PUSH1 0x0 DUP1 REVERT JUMPDEST DUP1 SLOAD DUP3 LT ISZERO PUSH2 0x8B3 JUMPI PUSH1 0x0 MSTORE PUSH1 0x20 PUSH1 0x0 KECCAK256 ADD SWAP1 PUSH1 0x0 SWAP1 JUMP JUMPDEST PUSH4 0x4E487B71 PUSH1 0xE0 SHL PUSH1 0x0 MSTORE PUSH1 0x32 PUSH1 0x4 MSTORE PUSH1 0x24 PUSH1 0x0 REVERT JUMPDEST PUSH1 0xA0 DUP2 ADD SWAP1 DUP2 LT PUSH8 0xFFFFFFFFFFFFFFFF DUP3 GT OR PUSH2 0x8E5 JUMPI PUSH1 0x40 MSTORE JUMP JUMPDEST PUSH4 0x4E487B71 PUSH1 0xE0 SHL PUSH1 0x0 MSTORE PUSH1 0x41 PUSH1 0x4 MSTORE PUSH1 0x24 PUSH1 0x0 REVERT JUMPDEST SWAP1 PUSH1 0x1F DUP1 NOT SWAP2 ADD AND DUP2 ADD SWAP1 DUP2 LT PUSH8 0xFFFFFFFFFFFFFFFF DUP3 GT OR PUSH2 0x8E5 JUMPI PUSH1 0x40 MSTORE JUMP JUMPDEST SWAP1 DUP2 PUSH1 0x20 SWAP2 SUB SLT PUSH2 0x896 JUMPI MLOAD PUSH1 0x1 PUSH1 0x1 PUSH1 0xA0 SHL SUB DUP2 AND DUP2 SUB PUSH2 0x896 JUMPI SWAP1 JUMP INVALID LOG2 PUSH5 0x6970667358 0x22 SLT KECCAK256 0xBF MLOAD 0xC9 CALLER DUP2 0xD9 SIGNEXTEND 0x1E 0xD9 0xF7 PUSH19 0x568BEE23F2CC55398A795B8659AB17033D880A 0x28 RETURNDATACOPY PUSH5 0x736F6C6343 STOP ADDMOD SGT STOP CALLER "},"methodIdentifiers":{"CODE_VALIDITY_DURATION()":"c5ff49d6","attendanceCodes(bytes32)":"a01b94fd","employeeAttendanceDays(address,uint256)":"88a0617f","employerDailyCodes(address,uint256)":"6ea77fae","generateAttendanceCode(address,address,uint256,uint256)":"ffb71c1a","getCodeDetails(bytes32)":"23ec70e1","getEmployeeAttendanceDays(address)":"64785689","isCodeValid(bytes32)":"9926a6ab","verifyAndMarkAttendance(address,bytes32,uint256)":"3cbfedff"}}}}}