{"contracts/SalaryContract.sol":{"SalaryContract":{"abi":[{"inputs":[{"internalType":"address","name":"_employer","type":"address"},{"internalType":"address","name":"_employee","type":"address"},{"internalType":"uint256","name":"_dailySalary","type":"uint256"},{"internalType":"uint256","name":"_probationPercentage","type":"uint256"},{"internalType":"bool","name":"_isOnProbation","type":"bool"},{"internalType":"uint256","name":"_contractDuration","type":"uint256"}],"stateMutability":"payable","type":"constructor"},{"anonymous":false,"inputs":[{"indexed":true,"internalType":"address","name":"employee","type":"address"},{"indexed":false,"internalType":"uint256","name":"day","type":"uint256"},{"indexed":false,"internalType":"uint256","name":"timestamp","type":"uint256"}],"name":"AttendanceMarked","type":"event"},{"anonymous":false,"inputs":[{"indexed":false,"internalType":"uint256","name":"day","type":"uint256"},{"indexed":false,"internalType":"bytes32","name":"codeHash","type":"bytes32"}],"name":"CodeGenerated","type":"event"},{"anonymous":false,"inputs":[{"indexed":true,"internalType":"address","name":"employer","type":"address"},{"indexed":false,"internalType":"uint256","name":"refundAmount","type":"uint256"},{"indexed":false,"internalType":"uint256","name":"employeePayout","type":"uint256"}],"name":"ContractTerminated","type":"event"},{"anonymous":false,"inputs":[{"indexed":true,"internalType":"address","name":"employee","type":"address"}],"name":"EmployeeApproved","type":"event"},{"anonymous":false,"inputs":[{"indexed":false,"internalType":"uint256","name":"newSalary","type":"uint256"},{"indexed":false,"internalType":"address","name":"newEmployee","type":"address"}],"name":"ModificationApproved","type":"event"},{"anonymous":false,"inputs":[{"indexed":false,"internalType":"uint256","name":"newSalary","type":"uint256"},{"indexed":false,"internalType":"address","name":"newEmployee","type":"address"}],"name":"ModificationProposed","type":"event"},{"anonymous":false,"inputs":[],"name":"ModificationRejected","type":"event"},{"anonymous":false,"inputs":[{"indexed":true,"internalType":"address","name":"employee","type":"address"},{"indexed":false,"internalType":"uint256","name":"amount","type":"uint256"},{"indexed":false,"internalType":"uint256","name":"daysWorked","type":"uint256"}],"name":"SalaryWithdrawn","type":"event"},{"inputs":[],"name":"approveContract","outputs":[],"stateMutability":"nonpayable","type":"function"},{"inputs":[],"name":"approveModification","outputs":[],"stateMutability":"nonpayable","type":"function"},{"inputs":[],"name":"attendanceCount","outputs":[{"internalType":"uint256","name":"","type":"uint256"}],"stateMutability":"view","type":"function"},{"inputs":[],"name":"calculateEarnedSalary","outputs":[{"internalType":"uint256","name":"","type":"uint256"}],"stateMutability":"view","type":"function"},{"inputs":[{"internalType":"uint256","name":"","type":"uint256"}],"name":"codeUsed","outputs":[{"internalType":"bool","name":"","type":"bool"}],"stateMutability":"view","type":"function"},{"inputs":[],"name":"contractDuration","outputs":[{"internalType":"uint256","name":"","type":"uint256"}],"stateMutability":"view","type":"function"},{"inputs":[{"internalType":"uint256","name":"","type":"uint256"}],"name":"dailyAttendance","outputs":[{"internalType":"bool","name":"","type":"bool"}],"stateMutability":"view","type":"function"},{"inputs":[{"internalType":"uint256","name":"","type":"uint256"}],"name":"dailyCodes","outputs":[{"internalType":"bytes32","name":"","type":"bytes32"}],"stateMutability":"view","type":"function"},{"inputs":[],"name":"dailySalary","outputs":[{"internalType":"uint256","name":"","type":"uint256"}],"stateMutability":"view","type":"function"},{"inputs":[],"name":"emergencyWithdraw","outputs":[],"stateMutability":"nonpayable","type":"function"},{"inputs":[],"name":"employee","outputs":[{"internalType":"address","name":"","type":"address"}],"stateMutability":"view","type":"function"},{"inputs":[],"name":"employeeApproved","outputs":[{"internalType":"bool","name":"","type":"bool"}],"stateMutability":"view","type":"function"},{"inputs":[],"name":"employer","outputs":[{"internalType":"address","name":"","type":"address"}],"stateMutability":"view","type":"function"},{"inputs":[],"name":"factory","outputs":[{"internalType":"address","name":"","type":"address"}],"stateMutability":"view","type":"function"},{"inputs":[{"internalType":"uint256","name":"_day","type":"uint256"}],"name":"generateDailyCode","outputs":[],"stateMutability":"nonpayable","type":"function"},{"inputs":[],"name":"getAvailableBalance","outputs":[{"internalType":"uint256","name":"","type":"uint256"}],"stateMutability":"view","type":"function"},{"inputs":[],"name":"getContractInfo","outputs":[{"internalType":"address","name":"_employer","type":"address"},{"internalType":"address","name":"_employee","type":"address"},{"internalType":"uint256","name":"_dailySalary","type":"uint256"},{"internalType":"uint256","name":"_attendanceCount","type":"uint256"},{"internalType":"uint256","name":"_totalWithdrawn","type":"uint256"},{"internalType":"bool","name":"_isActive","type":"bool"},{"internalType":"bool","name":"_employeeApproved","type":"bool"},{"internalType":"bool","name":"_isOnProbation","type":"bool"},{"internalType":"uint256","name":"_probationPercentage","type":"uint256"}],"stateMutability":"view","type":"function"},{"inputs":[],"name":"getCurrentDay","outputs":[{"internalType":"uint256","name":"","type":"uint256"}],"stateMutability":"view","type":"function"},{"inputs":[{"internalType":"uint256","name":"_day","type":"uint256"}],"name":"getDailyCodeHash","outputs":[{"internalType":"bytes32","name":"","type":"bytes32"}],"stateMutability":"view","type":"function"},{"inputs":[],"name":"getPendingModification","outputs":[{"components":[{"internalType":"uint256","name":"newDailySalary","type":"uint256"},{"internalType":"address","name":"newEmployeeAddress","type":"address"},{"internalType":"bool","name":"employerSigned","type":"bool"},{"internalType":"bool","name":"employeeSigned","type":"bool"},{"internalType":"bool","name":"isActive","type":"bool"},{"internalType":"uint256","name":"createdAt","type":"uint256"}],"internalType":"struct SalaryContract.ContractModification","name":"","type":"tuple"}],"stateMutability":"view","type":"function"},{"inputs":[{"internalType":"uint256","name":"_day","type":"uint256"}],"name":"hasAttendanceForDay","outputs":[{"internalType":"bool","name":"","type":"bool"}],"stateMutability":"view","type":"function"},{"inputs":[],"name":"hasPendingModification","outputs":[{"internalType":"bool","name":"","type":"bool"}],"stateMutability":"view","type":"function"},{"inputs":[],"name":"isActive","outputs":[{"internalType":"bool","name":"","type":"bool"}],"stateMutability":"view","type":"function"},{"inputs":[],"name":"isOnProbation","outputs":[{"internalType":"bool","name":"","type":"bool"}],"stateMutability":"view","type":"function"},{"inputs":[],"name":"isTerminated","outputs":[{"internalType":"bool","name":"","type":"bool"}],"stateMutability":"view","type":"function"},{"inputs":[{"internalType":"uint256","name":"_day","type":"uint256"},{"internalType":"string","name":"_code","type":"string"}],"name":"markAttendance","outputs":[],"stateMutability":"nonpayable","type":"function"},{"inputs":[],"name":"pendingModification","outputs":[{"internalType":"uint256","name":"newDailySalary","type":"uint256"},{"internalType":"address","name":"newEmployeeAddress","type":"address"},{"internalType":"bool","name":"employerSigned","type":"bool"},{"internalType":"bool","name":"employeeSigned","type":"bool"},{"internalType":"bool","name":"isActive","type":"bool"},{"internalType":"uint256","name":"createdAt","type":"uint256"}],"stateMutability":"view","type":"function"},{"inputs":[],"name":"probationPercentage","outputs":[{"internalType":"uint256","name":"","type":"uint256"}],"stateMutability":"view","type":"function"},{"inputs":[{"internalType":"uint256","name":"_newDailySalary","type":"uint256"},{"internalType":"address","name":"_newEmployeeAddress","type":"address"}],"name":"proposeModification","outputs":[],"stateMutability":"nonpayable","type":"function"},{"inputs":[],"name":"rejectModification","outputs":[],"stateMutability":"nonpayable","type":"function"},{"inputs":[],"name":"startDate","outputs":[{"internalType":"uint256","name":"","type":"uint256"}],"stateMutability":"view","type":"function"},{"inputs":[],"name":"terminateContract","outputs":[],"stateMutability":"nonpayable","type":"function"},{"inputs":[],"name":"totalSalaryLocked","outputs":[{"internalType":"uint256","name":"","type":"uint256"}],"stateMutability":"view","type":"function"},{"inputs":[],"name":"totalWithdrawn","outputs":[{"internalType":"uint256","name":"","type":"uint256"}],"stateMutability":"view","type":"function"},{"inputs":[],"name":"withdrawSalary","outputs":[],"stateMutability":"nonpayable","type":"function"}],"evm":{"bytecode":{"linkReferences":{},"object":"6080601f6200195d38819003918201601f19168301916001600160401b0383118484101761012b5780849260c0946040528339810103126101265761004381610141565b9061005060208201610141565b9160408201519160608101516080820151918215158093036101265760a001519334156100e157620100009560ff9460018060a01b0319913383600054161760005560018060a01b03809216836001541617600155169060025416176002556003556004556007549260055534600655169062ff00ff19161717600755426008556040516118079081620001568239f35b60405162461bcd60e51b815260206004820152601a60248201527f4d757374206c6f636b2066756e647320666f722073616c6172790000000000006044820152606490fd5b600080fd5b634e487b7160e01b600052604160045260246000fd5b51906001600160a01b03821682036101265756fe608060408181526004918236101561001657600080fd5b600092833560e01c9182630b97bc86146114b8575081631be37f84146114995781631c11863a1461147a57816322f3e2d41461145357816323077da21461138b5781632fd949ca146111b75781633e6968b61461118a5781633fb856cd1461116657816343547f541461114957816343d00d04146110505781634b31971314611031578163564704171461049d57816362d4744c14610e2a5781636a246e7014610e0b5781637cc1f86714610d8c578163809dab6a14610d4957816382e0209f14610d225781639005b2c414610b3c5781639425039c14610adc5781639455cd3b146105145781639f7521b41461092f578163a0a1a7d714610906578163a158241e146108d9578163a90795cf14610588578163ae200e791461055f578163b561dd7d14610541578163c16b872814610514578163c45a0155146104ec578163d1cc9976146104c5578163d537f31d1461049d578163db2e21bc146103d2578163dd1d941a1461029657508063e01415f9146101ea578063e9d5e0ef146101cc5763ffa6399b146101a657600080fd5b346101c857816003193601126101c85760209060ff6011541690519015158152f35b5080fd5b50346101c857816003193601126101c8576020906003549051908152f35b823461029357806003193601126102935761021060018060a01b03600254163314611544565b61022a60075460ff8160101c169081610284575b506115f4565b60115461023960ff82166116eb565b61024a60ff600f5460b01c16611737565b81600e5581600f558160105560ff19166011557f118dba3f66e4c91da334c33bac200ff628abbf23c8d2d8212a799d6b942089268180a180f35b60ff915060181c161583610224565b80fd5b839150346101c857816003193601126101c857600254906001600160a01b036102c23382851614611544565b6102db60075460ff8160101c1690816103c357506115f4565b601154906102eb60ff83166116eb565b600f54926102fe60ff8560b01c16611737565b60ff8460a81c166103805750600e80546003819055919093166001600160a01b031994909416841760025591849055600f849055601084905560ff191660115592519283526001600160a01b03166020830152907f83f7d510b8dca14c0080f463411a5ca5ea498f589bcdaec84a017f794339868b9080604081015b0390a180f35b606490602088519162461bcd60e51b8352820152601a60248201527f416c7265616479207369676e656420627920656d706c6f7965650000000000006044820152fd5b60ff915060181c161587610224565b9190503461049957826003193601126104995782546001600160a01b03163381900361045657838080809347905af16104096116bb565b5015610413578280f35b906020606492519162461bcd60e51b8352820152601b60248201527f456d657267656e6379207769746864726177616c206661696c656400000000006044820152fd5b815162461bcd60e51b8152602081850152601a60248201527f4f6e6c7920666163746f72792063616e2063616c6c20746869730000000000006044820152606490fd5b8280fd5b905034610499576020366003190112610499576020928291358152600c845220549051908152f35b5050346101c857816003193601126101c85760209060ff60075460181c1690519015158152f35b5050346101c857816003193601126101c857905490516001600160a01b039091168152602090f35b905034610499576020366003190112610499578160209360ff92358152600b855220541690519015158152f35b90503461049957826003193601126104995760209250549051908152f35b5050346101c857816003193601126101c85760015490516001600160a01b039091168152602090f35b8383346101c857806003193601126101c8576024908335823567ffffffffffffffff81116108d557366023820112156108d55780860135906105c982611528565b916105d685519384611506565b808352368682840101116108d157859181889260209889930183870137840101526002546001600160a01b0392906106119084163314611544565b61063760ff600754818160101c16806108c3575b61062e906115f4565b60081c16611639565b6201518061064760085442611698565b04841161087257838752600b865260ff858820541661082157838752600d865260ff85882054166107df57838752600c8652848720541561079d5784519086828251928a5b8481106107865750506106ab9281018a83820152038084520182611506565b858151910120838752600c8652848720540361074557828652600b855283862060ff1990600182825416179055600d865260018588209182541617905560095496600019881461073457505060017fc51da1eeea2cfdb8d4f06db34d4bd7bf6a82f2e15cf055e2eef27446bc5c3b8994959601600955600254169382519182524290820152a280f35b634e487b7160e01b87526011905285fd5b8660176064928787519362461bcd60e51b85528401528201527f496e76616c696420617474656e64616e636520636f64650000000000000000006044820152fd5b8181018401518682018501528a938693500161068c565b845162461bcd60e51b8152808901879052601e818401527f4e6f20636f64652067656e65726174656420666f7220746869732064617900006044820152606490fd5b845162461bcd60e51b8152808901879052601e818401527f436f646520616c7265616479207573656420666f7220746869732064617900006044820152606490fd5b845162461bcd60e51b81528089018790526026818401527f417474656e64616e636520616c7265616479206d61726b656420666f7220746860448201526569732064617960d01b6064820152608490fd5b845162461bcd60e51b81528089018790526026818401527f43616e6e6f74206d61726b20617474656e64616e636520666f7220667574757260448201526565206461797360d01b6064820152608490fd5b50601881901c821615610625565b8680fd5b8480fd5b905034610499576020366003190112610499578160209360ff92358152600d855220541690519015158152f35b5050346101c857816003193601126101c85760025490516001600160a01b039091168152602090f35b8383346101c8576020806003193601126104995760015490843561095d336001600160a01b0385161461159c565b61097960ff600754818160101c16806108c35761062e906115f4565b6201518061098960085442611698565b048110610a8e57808552600c825283852054610a3f578351908282019342855244868401528160608401526bffffffffffffffffffffffff199060601b1660808301526074825260a082019382851067ffffffffffffffff861117610a2c577f3552d68173ffbd518f5549ce7274cab798032b049b140f3452ff5c211edd3d2996975090600c60c093928688528351902094828a5252838689205584520152a180f35b634e487b7160e01b875260418852602487fd5b835162461bcd60e51b8152808701839052602360248201527f436f646520616c72656164792067656e65726174656420666f7220746869732060448201526264617960e81b6064820152608490fd5b835162461bcd60e51b8152808701839052602260248201527f43616e6e6f742067656e657261746520636f646520666f722070617374206461604482015261797360f01b6064820152608490fd5b5050346101c857816003193601126101c85760c090600e549060ff600f5460105492805194855260018060a01b0382166020860152828260a01c16151590850152818160a81c161515606085015260b01c161515608083015260a0820152f35b919050346104995782600319360112610499576002546001600160a01b0390811692610b69338514611544565b610b8560ff600754818160101c16806108c35761062e906115f4565b60095415610ce857610b95611796565b93610ba3600a548096611698565b948515610c9a57854710610c5757858101809111610c445786808781948294600a555af1610bcf6116bb565b5015610c0f5750907fbee6e25aae108c0524d61c49d523305558f12f21017476c3fef02ca775c41f1f91600254169260095482519182526020820152a280f35b606490602084519162461bcd60e51b8352820152600f60248201526e151c985b9cd9995c8819985a5b1959608a1b6044820152fd5b634e487b7160e01b875260118352602487fd5b845162461bcd60e51b8152602081850152601d60248201527f496e73756666696369656e7420636f6e74726163742062616c616e63650000006044820152606490fd5b845162461bcd60e51b8152602081850152602260248201527f4e6f2073616c61727920617661696c61626c6520666f72207769746864726177604482015261185b60f21b6064820152608490fd5b606490602084519162461bcd60e51b83528201526014602482015273139bc8185d1d195b99185b98d9481b585c9ad95960621b6044820152fd5b5050346101c857816003193601126101c85760209060ff60075460081c1690519015158152f35b5050346101c857816003193601126101c857602091610d66611796565b600a549081811115610d8457610d7c9250611698565b905b51908152f35b505090610d7e565b91905034610499578260031936011261049957610120925060ff60018060a01b0392836001541693600254169260035460095490600a54926007549454968151988952602089015287015260608601526080850152818160101c16151560a0850152818160081c16151560c085015216151560e0830152610100820152f35b5050346101c857816003193601126101c8576020906005549051908152f35b839150346101c857826003193601126101c857602435908035906001600160a01b038084169081850361102d57610e669060015416331461159c565b610e8260ff600754818160101c16806108c35761062e906115f4565b6011549160ff8316610fdb578315610f8e578115610f4b575094600161037a927f43224da643afd5364fe13eca80e87986c24f373291ecbe87c3695beefb96d47196978351610ed0816114d4565b868152816020820152838582015289606082015283608082015260a04291015285600e558260b01b9061ffff60a81b19908460a01b906affffffffffffffffffffff60a81b600f541617171617600f554260105560ff19161760115551928392839092916020906040830194835260018060a01b0316910152565b606490602088519162461bcd60e51b8352820152601c60248201527f496e76616c6964206e657720656d706c6f7965652061646472657373000000006044820152fd5b608490602088519162461bcd60e51b8352820152602160248201527f4e65772073616c617279206d7573742062652067726561746572207468616e206044820152600360fc1b6064820152fd5b608490602088519162461bcd60e51b8352820152602660248201527f5468657265277320616c726561647920612070656e64696e67206d6f6469666960448201526531b0ba34b7b760d11b6064820152fd5b8580fd5b5050346101c857816003193601126101c857602090600a549051908152f35b919050346104995782600319360112610499576002546001600160a01b03169161107b338414611544565b6007549160ff8360081c166111065760ff8360181c166110ca57505061ff001916610100176007557f52fc9bbf272c9663e2f72e32ebbd87b584e1015d97d62c96a47d445f8460cac18280a280f35b906020606492519162461bcd60e51b8352820152601660248201527510dbdb9d1c9858dd081a5cc81d195c9b5a5b985d195960521b6044820152fd5b906020606492519162461bcd60e51b8352820152601960248201527f436f6e747261637420616c726561647920617070726f766564000000000000006044820152fd5b5050346101c857816003193601126101c857602090610d7c611796565b5050346101c857816003193601126101c85760209060ff6007541690519015158152f35b5050346101c857816003193601126101c857602090620151806111af60085442611698565b049051908152f35b919050346104995782600319360112610499576001546001600160a01b03906111e3908216331461159c565b6007549060ff8260101c168061137c575b6111fd906115f4565b60ff8260081c16156113275761121d611214611796565b600a5490611698565b93630100000061122d8647611698565b9363ffff0000191617600755846112d2575b8261127d575b50907f6be8be759cda4c5feef9ad215df471cba9b636e1a68e1b8fb0803037e02c89509291600154169382519182526020820152a280f35b858080808686600154165af16112916116bb565b5061124557606490602085519162461bcd60e51b83528201526016602482015275115b5c1b1bde595c881c99599d5b990819985a5b195960521b6044820152fd5b858080808886600254165af16112e66116bb565b5061123f57606490602085519162461bcd60e51b83528201526016602482015275115b5c1b1bde5959481c185e5bdd5d0819985a5b195960521b6044820152fd5b825162461bcd60e51b8152602081860152602960248201527f43616e6e6f74207465726d696e617465206265666f726520656d706c6f79656560448201526808185c1c1c9bdd985b60ba1b6064820152608490fd5b50601882901c60ff16156111f4565b5050346101c857816003193601126101c85760c09160a082516113ad816114d4565b8281528260208201528284820152826060820152826080820152015280516113d4816114d4565b600e5491828252600f5490602083019060018060a01b0380841683528185019060ff8560a01c1615158252606086019360ff8660a81c161515855260ff608088019660b01c161515865260a0601054970196875283519788525116602087015251151590850152511515606084015251151560808301525160a0820152f35b5050346101c857816003193601126101c85760209060ff60075460101c1690519015158152f35b5050346101c857816003193601126101c8576020906009549051908152f35b5050346101c857816003193601126101c8576020906006549051908152f35b8490346101c857816003193601126101c8576020906008548152f35b60c0810190811067ffffffffffffffff8211176114f057604052565b634e487b7160e01b600052604160045260246000fd5b90601f8019910116810190811067ffffffffffffffff8211176114f057604052565b67ffffffffffffffff81116114f057601f01601f191660200190565b1561154b57565b60405162461bcd60e51b8152602060048201526024808201527f4f6e6c7920656d706c6f7965652063616e2063616c6c20746869732066756e636044820152633a34b7b760e11b6064820152608490fd5b156115a357565b60405162461bcd60e51b8152602060048201526024808201527f4f6e6c7920656d706c6f7965722063616e2063616c6c20746869732066756e636044820152633a34b7b760e11b6064820152608490fd5b156115fb57565b60405162461bcd60e51b8152602060048201526016602482015275436f6e7472616374206973206e6f742061637469766560501b6044820152606490fd5b1561164057565b60405162461bcd60e51b815260206004820152602a60248201527f456d706c6f79656520686173206e6f7420617070726f7665642074686520636f6044820152691b9d1c9858dd081e595d60b21b6064820152608490fd5b919082039182116116a557565b634e487b7160e01b600052601160045260246000fd5b3d156116e6573d906116cc82611528565b916116da6040519384611506565b82523d6000602084013e565b606090565b156116f257565b60405162461bcd60e51b815260206004820152601760248201527f4e6f2070656e64696e67206d6f64696669636174696f6e0000000000000000006044820152606490fd5b1561173e57565b60405162461bcd60e51b815260206004820152601a60248201527f4d6f64696669636174696f6e206973206e6f74206163746976650000000000006044820152606490fd5b818102929181159184041417156116a557565b60095480156117cb576003546117ab91611783565b60ff600754166117b85790565b6117c760649160045490611783565b0490565b5060009056fea26469706673582212209258e13b23710f23d20778e85f916c81b7df482f87ae8cdc905d97527a67e34464736f6c63430008130033","opcodes":"PUSH1 0x80 PUSH1 0x1F PUSH3 0x195D CODESIZE DUP2 SWAP1 SUB SWAP2 DUP3 ADD PUSH1 0x1F NOT AND DUP4 ADD SWAP2 PUSH1 0x1 PUSH1 0x1 PUSH1 0x40 SHL SUB DUP4 GT DUP5 DUP5 LT OR PUSH2 0x12B JUMPI DUP1 DUP5 SWAP3 PUSH1 0xC0 SWAP5 PUSH1 0x40 MSTORE DUP4 CODECOPY DUP2 ADD SUB SLT PUSH2 0x126 JUMPI PUSH2 0x43 DUP2 PUSH2 0x141 JUMP JUMPDEST SWAP1 PUSH2 0x50 PUSH1 0x20 DUP3 ADD PUSH2 0x141 JUMP JUMPDEST SWAP2 PUSH1 0x40 DUP3 ADD MLOAD SWAP2 PUSH1 0x60 DUP2 ADD MLOAD PUSH1 0x80 DUP3 ADD MLOAD SWAP2 DUP3 ISZERO ISZERO DUP1 SWAP4 SUB PUSH2 0x126 JUMPI PUSH1 0xA0 ADD MLOAD SWAP4 CALLVALUE ISZERO PUSH2 0xE1 JUMPI PUSH3 0x10000 SWAP6 PUSH1 0xFF SWAP5 PUSH1 0x1 DUP1 PUSH1 0xA0 SHL SUB NOT SWAP2 CALLER DUP4 PUSH1 0x0 SLOAD AND OR PUSH1 0x0 SSTORE PUSH1 0x1 DUP1 PUSH1 0xA0 SHL SUB DUP1 SWAP3 AND DUP4 PUSH1 0x1 SLOAD AND OR PUSH1 0x1 SSTORE AND SWAP1 PUSH1 0x2 SLOAD AND OR PUSH1 0x2 SSTORE PUSH1 0x3 SSTORE PUSH1 0x4 SSTORE PUSH1 0x7 SLOAD SWAP3 PUSH1 0x5 SSTORE CALLVALUE PUSH1 0x6 SSTORE AND SWAP1 PUSH3 0xFF00FF NOT AND OR OR PUSH1 0x7 SSTORE TIMESTAMP PUSH1 0x8 SSTORE PUSH1 0x40 MLOAD PUSH2 0x1807 SWAP1 DUP2 PUSH3 0x156 DUP3 CODECOPY RETURN JUMPDEST PUSH1 0x40 MLOAD PUSH3 0x461BCD PUSH1 0xE5 SHL DUP2 MSTORE PUSH1 0x20 PUSH1 0x4 DUP3 ADD MSTORE PUSH1 0x1A PUSH1 0x24 DUP3 ADD MSTORE PUSH32 0x4D757374206C6F636B2066756E647320666F722073616C617279000000000000 PUSH1 0x44 DUP3 ADD MSTORE PUSH1 0x64 SWAP1 REVERT JUMPDEST PUSH1 0x0 DUP1 REVERT JUMPDEST PUSH4 0x4E487B71 PUSH1 0xE0 SHL PUSH1 0x0 MSTORE PUSH1 0x41 PUSH1 0x4 MSTORE PUSH1 0x24 PUSH1 0x0 REVERT JUMPDEST MLOAD SWAP1 PUSH1 0x1 PUSH1 0x1 PUSH1 0xA0 SHL SUB DUP3 AND DUP3 SUB PUSH2 0x126 JUMPI JUMP INVALID PUSH1 0x80 PUSH1 0x40 DUP2 DUP2 MSTORE PUSH1 0x4 SWAP2 DUP3 CALLDATASIZE LT ISZERO PUSH2 0x16 JUMPI PUSH1 0x0 DUP1 REVERT JUMPDEST PUSH1 0x0 SWAP3 DUP4 CALLDATALOAD PUSH1 0xE0 SHR SWAP2 DUP3 PUSH4 0xB97BC86 EQ PUSH2 0x14B8 JUMPI POP DUP2 PUSH4 0x1BE37F84 EQ PUSH2 0x1499 JUMPI DUP2 PUSH4 0x1C11863A EQ PUSH2 0x147A JUMPI DUP2 PUSH4 0x22F3E2D4 EQ PUSH2 0x1453 JUMPI DUP2 PUSH4 0x23077DA2 EQ PUSH2 0x138B JUMPI DUP2 PUSH4 0x2FD949CA EQ PUSH2 0x11B7 JUMPI DUP2 PUSH4 0x3E6968B6 EQ PUSH2 0x118A JUMPI DUP2 PUSH4 0x3FB856CD EQ PUSH2 0x1166 JUMPI DUP2 PUSH4 0x43547F54 EQ PUSH2 0x1149 JUMPI DUP2 PUSH4 0x43D00D04 EQ PUSH2 0x1050 JUMPI DUP2 PUSH4 0x4B319713 EQ PUSH2 0x1031 JUMPI DUP2 PUSH4 0x56470417 EQ PUSH2 0x49D JUMPI DUP2 PUSH4 0x62D4744C EQ PUSH2 0xE2A JUMPI DUP2 PUSH4 0x6A246E70 EQ PUSH2 0xE0B JUMPI DUP2 PUSH4 0x7CC1F867 EQ PUSH2 0xD8C JUMPI DUP2 PUSH4 0x809DAB6A EQ PUSH2 0xD49 JUMPI DUP2 PUSH4 0x82E0209F EQ PUSH2 0xD22 JUMPI DUP2 PUSH4 0x9005B2C4 EQ PUSH2 0xB3C JUMPI DUP2 PUSH4 0x9425039C EQ PUSH2 0xADC JUMPI DUP2 PUSH4 0x9455CD3B EQ PUSH2 0x514 JUMPI DUP2 PUSH4 0x9F7521B4 EQ PUSH2 0x92F JUMPI DUP2 PUSH4 0xA0A1A7D7 EQ PUSH2 0x906 JUMPI DUP2 PUSH4 0xA158241E EQ PUSH2 0x8D9 JUMPI DUP2 PUSH4 0xA90795CF EQ PUSH2 0x588 JUMPI DUP2 PUSH4 0xAE200E79 EQ PUSH2 0x55F JUMPI DUP2 PUSH4 0xB561DD7D EQ PUSH2 0x541 JUMPI DUP2 PUSH4 0xC16B8728 EQ PUSH2 0x514 JUMPI DUP2 PUSH4 0xC45A0155 EQ PUSH2 0x4EC JUMPI DUP2 PUSH4 0xD1CC9976 EQ PUSH2 0x4C5 JUMPI DUP2 PUSH4 0xD537F31D EQ PUSH2 0x49D JUMPI DUP2 PUSH4 0xDB2E21BC EQ PUSH2 0x3D2 JUMPI DUP2 PUSH4 0xDD1D941A EQ PUSH2 0x296 JUMPI POP DUP1 PUSH4 0xE01415F9 EQ PUSH2 0x1EA JUMPI DUP1 PUSH4 0xE9D5E0EF EQ PUSH2 0x1CC JUMPI PUSH4 0xFFA6399B EQ PUSH2 0x1A6 JUMPI PUSH1 0x0 DUP1 REVERT JUMPDEST CALLVALUE PUSH2 0x1C8 JUMPI DUP2 PUSH1 0x3 NOT CALLDATASIZE ADD SLT PUSH2 0x1C8 JUMPI PUSH1 0x20 SWAP1 PUSH1 0xFF PUSH1 0x11 SLOAD AND SWAP1 MLOAD SWAP1 ISZERO ISZERO DUP2 MSTORE RETURN JUMPDEST POP DUP1 REVERT JUMPDEST POP CALLVALUE PUSH2 0x1C8 JUMPI DUP2 PUSH1 0x3 NOT CALLDATASIZE ADD SLT PUSH2 0x1C8 JUMPI PUSH1 0x20 SWAP1 PUSH1 0x3 SLOAD SWAP1 MLOAD SWAP1 DUP2 MSTORE RETURN JUMPDEST DUP3 CALLVALUE PUSH2 0x293 JUMPI DUP1 PUSH1 0x3 NOT CALLDATASIZE ADD SLT PUSH2 0x293 JUMPI PUSH2 0x210 PUSH1 0x1 DUP1 PUSH1 0xA0 SHL SUB PUSH1 0x2 SLOAD AND CALLER EQ PUSH2 0x1544 JUMP JUMPDEST PUSH2 0x22A PUSH1 0x7 SLOAD PUSH1 0xFF DUP2 PUSH1 0x10 SHR AND SWAP1 DUP2 PUSH2 0x284 JUMPI JUMPDEST POP PUSH2 0x15F4 JUMP JUMPDEST PUSH1 0x11 SLOAD PUSH2 0x239 PUSH1 0xFF DUP3 AND PUSH2 0x16EB JUMP JUMPDEST PUSH2 0x24A PUSH1 0xFF PUSH1 0xF SLOAD PUSH1 0xB0 SHR AND PUSH2 0x1737 JUMP JUMPDEST DUP2 PUSH1 0xE SSTORE DUP2 PUSH1 0xF SSTORE DUP2 PUSH1 0x10 SSTORE PUSH1 0xFF NOT AND PUSH1 0x11 SSTORE PUSH32 0x118DBA3F66E4C91DA334C33BAC200FF628ABBF23C8D2D8212A799D6B94208926 DUP2 DUP1 LOG1 DUP1 RETURN JUMPDEST PUSH1 0xFF SWAP2 POP PUSH1 0x18 SHR AND ISZERO DUP4 PUSH2 0x224 JUMP JUMPDEST DUP1 REVERT JUMPDEST DUP4 SWAP2 POP CALLVALUE PUSH2 0x1C8 JUMPI DUP2 PUSH1 0x3 NOT CALLDATASIZE ADD SLT PUSH2 0x1C8 JUMPI PUSH1 0x2 SLOAD SWAP1 PUSH1 0x1 PUSH1 0x1 PUSH1 0xA0 SHL SUB PUSH2 0x2C2 CALLER DUP3 DUP6 AND EQ PUSH2 0x1544 JUMP JUMPDEST PUSH2 0x2DB PUSH1 0x7 SLOAD PUSH1 0xFF DUP2 PUSH1 0x10 SHR AND SWAP1 DUP2 PUSH2 0x3C3 JUMPI POP PUSH2 0x15F4 JUMP JUMPDEST PUSH1 0x11 SLOAD SWAP1 PUSH2 0x2EB PUSH1 0xFF DUP4 AND PUSH2 0x16EB JUMP JUMPDEST PUSH1 0xF SLOAD SWAP3 PUSH2 0x2FE PUSH1 0xFF DUP6 PUSH1 0xB0 SHR AND PUSH2 0x1737 JUMP JUMPDEST PUSH1 0xFF DUP5 PUSH1 0xA8 SHR AND PUSH2 0x380 JUMPI POP PUSH1 0xE DUP1 SLOAD PUSH1 0x3 DUP2 SWAP1 SSTORE SWAP2 SWAP1 SWAP4 AND PUSH1 0x1 PUSH1 0x1 PUSH1 0xA0 SHL SUB NOT SWAP5 SWAP1 SWAP5 AND DUP5 OR PUSH1 0x2 SSTORE SWAP2 DUP5 SWAP1 SSTORE PUSH1 0xF DUP5 SWAP1 SSTORE PUSH1 0x10 DUP5 SWAP1 SSTORE PUSH1 0xFF NOT AND PUSH1 0x11 SSTORE SWAP3 MLOAD SWAP3 DUP4 MSTORE PUSH1 0x1 PUSH1 0x1 PUSH1 0xA0 SHL SUB AND PUSH1 0x20 DUP4 ADD MSTORE SWAP1 PUSH32 0x83F7D510B8DCA14C0080F463411A5CA5EA498F589BCDAEC84A017F794339868B SWAP1 DUP1 PUSH1 0x40 DUP2 ADD JUMPDEST SUB SWAP1 LOG1 DUP1 RETURN JUMPDEST PUSH1 0x64 SWAP1 PUSH1 0x20 DUP9 MLOAD SWAP2 PUSH3 0x461BCD PUSH1 0xE5 SHL DUP4 MSTORE DUP3 ADD MSTORE PUSH1 0x1A PUSH1 0x24 DUP3 ADD MSTORE PUSH32 0x416C7265616479207369676E656420627920656D706C6F796565000000000000 PUSH1 0x44 DUP3 ADD MSTORE REVERT JUMPDEST PUSH1 0xFF SWAP2 POP PUSH1 0x18 SHR AND ISZERO DUP8 PUSH2 0x224 JUMP JUMPDEST SWAP2 SWAP1 POP CALLVALUE PUSH2 0x499 JUMPI DUP3 PUSH1 0x3 NOT CALLDATASIZE ADD SLT PUSH2 0x499 JUMPI DUP3 SLOAD PUSH1 0x1 PUSH1 0x1 PUSH1 0xA0 SHL SUB AND CALLER DUP2 SWAP1 SUB PUSH2 0x456 JUMPI DUP4 DUP1 DUP1 DUP1 SWAP4 SELFBALANCE SWAP1 GAS CALL PUSH2 0x409 PUSH2 0x16BB JUMP JUMPDEST POP ISZERO PUSH2 0x413 JUMPI DUP3 DUP1 RETURN JUMPDEST SWAP1 PUSH1 0x20 PUSH1 0x64 SWAP3 MLOAD SWAP2 PUSH3 0x461BCD PUSH1 0xE5 SHL DUP4 MSTORE DUP3 ADD MSTORE PUSH1 0x1B PUSH1 0x24 DUP3 ADD MSTORE PUSH32 0x456D657267656E6379207769746864726177616C206661696C65640000000000 PUSH1 0x44 DUP3 ADD MSTORE REVERT JUMPDEST DUP2 MLOAD PUSH3 0x461BCD PUSH1 0xE5 SHL DUP2 MSTORE PUSH1 0x20 DUP2 DUP6 ADD MSTORE PUSH1 0x1A PUSH1 0x24 DUP3 ADD MSTORE PUSH32 0x4F6E6C7920666163746F72792063616E2063616C6C2074686973000000000000 PUSH1 0x44 DUP3 ADD MSTORE PUSH1 0x64 SWAP1 REVERT JUMPDEST DUP3 DUP1 REVERT JUMPDEST SWAP1 POP CALLVALUE PUSH2 0x499 JUMPI PUSH1 0x20 CALLDATASIZE PUSH1 0x3 NOT ADD SLT PUSH2 0x499 JUMPI PUSH1 0x20 SWAP3 DUP3 SWAP2 CALLDATALOAD DUP2 MSTORE PUSH1 0xC DUP5 MSTORE KECCAK256 SLOAD SWAP1 MLOAD SWAP1 DUP2 MSTORE RETURN JUMPDEST POP POP CALLVALUE PUSH2 0x1C8 JUMPI DUP2 PUSH1 0x3 NOT CALLDATASIZE ADD SLT PUSH2 0x1C8 JUMPI PUSH1 0x20 SWAP1 PUSH1 0xFF PUSH1 0x7 SLOAD PUSH1 0x18 SHR AND SWAP1 MLOAD SWAP1 ISZERO ISZERO DUP2 MSTORE RETURN JUMPDEST POP POP CALLVALUE PUSH2 0x1C8 JUMPI DUP2 PUSH1 0x3 NOT CALLDATASIZE ADD SLT PUSH2 0x1C8 JUMPI SWAP1 SLOAD SWAP1 MLOAD PUSH1 0x1 PUSH1 0x1 PUSH1 0xA0 SHL SUB SWAP1 SWAP2 AND DUP2 MSTORE PUSH1 0x20 SWAP1 RETURN JUMPDEST SWAP1 POP CALLVALUE PUSH2 0x499 JUMPI PUSH1 0x20 CALLDATASIZE PUSH1 0x3 NOT ADD SLT PUSH2 0x499 JUMPI DUP2 PUSH1 0x20 SWAP4 PUSH1 0xFF SWAP3 CALLDATALOAD DUP2 MSTORE PUSH1 0xB DUP6 MSTORE KECCAK256 SLOAD AND SWAP1 MLOAD SWAP1 ISZERO ISZERO DUP2 MSTORE RETURN JUMPDEST SWAP1 POP CALLVALUE PUSH2 0x499 JUMPI DUP3 PUSH1 0x3 NOT CALLDATASIZE ADD SLT PUSH2 0x499 JUMPI PUSH1 0x20 SWAP3 POP SLOAD SWAP1 MLOAD SWAP1 DUP2 MSTORE RETURN JUMPDEST POP POP CALLVALUE PUSH2 0x1C8 JUMPI DUP2 PUSH1 0x3 NOT CALLDATASIZE ADD SLT PUSH2 0x1C8 JUMPI PUSH1 0x1 SLOAD SWAP1 MLOAD PUSH1 0x1 PUSH1 0x1 PUSH1 0xA0 SHL SUB SWAP1 SWAP2 AND DUP2 MSTORE PUSH1 0x20 SWAP1 RETURN JUMPDEST DUP4 DUP4 CALLVALUE PUSH2 0x1C8 JUMPI DUP1 PUSH1 0x3 NOT CALLDATASIZE ADD SLT PUSH2 0x1C8 JUMPI PUSH1 0x24 SWAP1 DUP4 CALLDATALOAD DUP3 CALLDATALOAD PUSH8 0xFFFFFFFFFFFFFFFF DUP2 GT PUSH2 0x8D5 JUMPI CALLDATASIZE PUSH1 0x23 DUP3 ADD SLT ISZERO PUSH2 0x8D5 JUMPI DUP1 DUP7 ADD CALLDATALOAD SWAP1 PUSH2 0x5C9 DUP3 PUSH2 0x1528 JUMP JUMPDEST SWAP2 PUSH2 0x5D6 DUP6 MLOAD SWAP4 DUP5 PUSH2 0x1506 JUMP JUMPDEST DUP1 DUP4 MSTORE CALLDATASIZE DUP7 DUP3 DUP5 ADD ADD GT PUSH2 0x8D1 JUMPI DUP6 SWAP2 DUP2 DUP9 SWAP3 PUSH1 0x20 SWAP9 DUP10 SWAP4 ADD DUP4 DUP8 ADD CALLDATACOPY DUP5 ADD ADD MSTORE PUSH1 0x2 SLOAD PUSH1 0x1 PUSH1 0x1 PUSH1 0xA0 SHL SUB SWAP3 SWAP1 PUSH2 0x611 SWAP1 DUP5 AND CALLER EQ PUSH2 0x1544 JUMP JUMPDEST PUSH2 0x637 PUSH1 0xFF PUSH1 0x7 SLOAD DUP2 DUP2 PUSH1 0x10 SHR AND DUP1 PUSH2 0x8C3 JUMPI JUMPDEST PUSH2 0x62E SWAP1 PUSH2 0x15F4 JUMP JUMPDEST PUSH1 0x8 SHR AND PUSH2 0x1639 JUMP JUMPDEST PUSH3 0x15180 PUSH2 0x647 PUSH1 0x8 SLOAD TIMESTAMP PUSH2 0x1698 JUMP JUMPDEST DIV DUP5 GT PUSH2 0x872 JUMPI DUP4 DUP8 MSTORE PUSH1 0xB DUP7 MSTORE PUSH1 0xFF DUP6 DUP9 KECCAK256 SLOAD AND PUSH2 0x821 JUMPI DUP4 DUP8 MSTORE PUSH1 0xD DUP7 MSTORE PUSH1 0xFF DUP6 DUP9 KECCAK256 SLOAD AND PUSH2 0x7DF JUMPI DUP4 DUP8 MSTORE PUSH1 0xC DUP7 MSTORE DUP5 DUP8 KECCAK256 SLOAD ISZERO PUSH2 0x79D JUMPI DUP5 MLOAD SWAP1 DUP7 DUP3 DUP3 MLOAD SWAP3 DUP11 JUMPDEST DUP5 DUP2 LT PUSH2 0x786 JUMPI POP POP PUSH2 0x6AB SWAP3 DUP2 ADD DUP11 DUP4 DUP3 ADD MSTORE SUB DUP1 DUP5 MSTORE ADD DUP3 PUSH2 0x1506 JUMP JUMPDEST DUP6 DUP2 MLOAD SWAP2 ADD KECCAK256 DUP4 DUP8 MSTORE PUSH1 0xC DUP7 MSTORE DUP5 DUP8 KECCAK256 SLOAD SUB PUSH2 0x745 JUMPI DUP3 DUP7 MSTORE PUSH1 0xB DUP6 MSTORE DUP4 DUP7 KECCAK256 PUSH1 0xFF NOT SWAP1 PUSH1 0x1 DUP3 DUP3 SLOAD AND OR SWAP1 SSTORE PUSH1 0xD DUP7 MSTORE PUSH1 0x1 DUP6 DUP9 KECCAK256 SWAP2 DUP3 SLOAD AND OR SWAP1 SSTORE PUSH1 0x9 SLOAD SWAP7 PUSH1 0x0 NOT DUP9 EQ PUSH2 0x734 JUMPI POP POP PUSH1 0x1 PUSH32 0xC51DA1EEEA2CFDB8D4F06DB34D4BD7BF6A82F2E15CF055E2EEF27446BC5C3B89 SWAP5 SWAP6 SWAP7 ADD PUSH1 0x9 SSTORE PUSH1 0x2 SLOAD AND SWAP4 DUP3 MLOAD SWAP2 DUP3 MSTORE TIMESTAMP SWAP1 DUP3 ADD MSTORE LOG2 DUP1 RETURN JUMPDEST PUSH4 0x4E487B71 PUSH1 0xE0 SHL DUP8 MSTORE PUSH1 0x11 SWAP1 MSTORE DUP6 REVERT JUMPDEST DUP7 PUSH1 0x17 PUSH1 0x64 SWAP3 DUP8 DUP8 MLOAD SWAP4 PUSH3 0x461BCD PUSH1 0xE5 SHL DUP6 MSTORE DUP5 ADD MSTORE DUP3 ADD MSTORE PUSH32 0x496E76616C696420617474656E64616E636520636F6465000000000000000000 PUSH1 0x44 DUP3 ADD MSTORE REVERT JUMPDEST DUP2 DUP2 ADD DUP5 ADD MLOAD DUP7 DUP3 ADD DUP6 ADD MSTORE DUP11 SWAP4 DUP7 SWAP4 POP ADD PUSH2 0x68C JUMP JUMPDEST DUP5 MLOAD PUSH3 0x461BCD PUSH1 0xE5 SHL DUP2 MSTORE DUP1 DUP10 ADD DUP8 SWAP1 MSTORE PUSH1 0x1E DUP2 DUP5 ADD MSTORE PUSH32 0x4E6F20636F64652067656E65726174656420666F722074686973206461790000 PUSH1 0x44 DUP3 ADD MSTORE PUSH1 0x64 SWAP1 REVERT JUMPDEST DUP5 MLOAD PUSH3 0x461BCD PUSH1 0xE5 SHL DUP2 MSTORE DUP1 DUP10 ADD DUP8 SWAP1 MSTORE PUSH1 0x1E DUP2 DUP5 ADD MSTORE PUSH32 0x436F646520616C7265616479207573656420666F722074686973206461790000 PUSH1 0x44 DUP3 ADD MSTORE PUSH1 0x64 SWAP1 REVERT JUMPDEST DUP5 MLOAD PUSH3 0x461BCD PUSH1 0xE5 SHL DUP2 MSTORE DUP1 DUP10 ADD DUP8 SWAP1 MSTORE PUSH1 0x26 DUP2 DUP5 ADD MSTORE PUSH32 0x417474656E64616E636520616C7265616479206D61726B656420666F72207468 PUSH1 0x44 DUP3 ADD MSTORE PUSH6 0x697320646179 PUSH1 0xD0 SHL PUSH1 0x64 DUP3 ADD MSTORE PUSH1 0x84 SWAP1 REVERT JUMPDEST DUP5 MLOAD PUSH3 0x461BCD PUSH1 0xE5 SHL DUP2 MSTORE DUP1 DUP10 ADD DUP8 SWAP1 MSTORE PUSH1 0x26 DUP2 DUP5 ADD MSTORE PUSH32 0x43616E6E6F74206D61726B20617474656E64616E636520666F72206675747572 PUSH1 0x44 DUP3 ADD MSTORE PUSH6 0x652064617973 PUSH1 0xD0 SHL PUSH1 0x64 DUP3 ADD MSTORE PUSH1 0x84 SWAP1 REVERT JUMPDEST POP PUSH1 0x18 DUP2 SWAP1 SHR DUP3 AND ISZERO PUSH2 0x625 JUMP JUMPDEST DUP7 DUP1 REVERT JUMPDEST DUP5 DUP1 REVERT JUMPDEST SWAP1 POP CALLVALUE PUSH2 0x499 JUMPI PUSH1 0x20 CALLDATASIZE PUSH1 0x3 NOT ADD SLT PUSH2 0x499 JUMPI DUP2 PUSH1 0x20 SWAP4 PUSH1 0xFF SWAP3 CALLDATALOAD DUP2 MSTORE PUSH1 0xD DUP6 MSTORE KECCAK256 SLOAD AND SWAP1 MLOAD SWAP1 ISZERO ISZERO DUP2 MSTORE RETURN JUMPDEST POP POP CALLVALUE PUSH2 0x1C8 JUMPI DUP2 PUSH1 0x3 NOT CALLDATASIZE ADD SLT PUSH2 0x1C8 JUMPI PUSH1 0x2 SLOAD SWAP1 MLOAD PUSH1 0x1 PUSH1 0x1 PUSH1 0xA0 SHL SUB SWAP1 SWAP2 AND DUP2 MSTORE PUSH1 0x20 SWAP1 RETURN JUMPDEST DUP4 DUP4 CALLVALUE PUSH2 0x1C8 JUMPI PUSH1 0x20 DUP1 PUSH1 0x3 NOT CALLDATASIZE ADD SLT PUSH2 0x499 JUMPI PUSH1 0x1 SLOAD SWAP1 DUP5 CALLDATALOAD PUSH2 0x95D CALLER PUSH1 0x1 PUSH1 0x1 PUSH1 0xA0 SHL SUB DUP6 AND EQ PUSH2 0x159C JUMP JUMPDEST PUSH2 0x979 PUSH1 0xFF PUSH1 0x7 SLOAD DUP2 DUP2 PUSH1 0x10 SHR AND DUP1 PUSH2 0x8C3 JUMPI PUSH2 0x62E SWAP1 PUSH2 0x15F4 JUMP JUMPDEST PUSH3 0x15180 PUSH2 0x989 PUSH1 0x8 SLOAD TIMESTAMP PUSH2 0x1698 JUMP JUMPDEST DIV DUP2 LT PUSH2 0xA8E JUMPI DUP1 DUP6 MSTORE PUSH1 0xC DUP3 MSTORE DUP4 DUP6 KECCAK256 SLOAD PUSH2 0xA3F JUMPI DUP4 MLOAD SWAP1 DUP3 DUP3 ADD SWAP4 TIMESTAMP DUP6 MSTORE PREVRANDAO DUP7 DUP5 ADD MSTORE DUP2 PUSH1 0x60 DUP5 ADD MSTORE PUSH12 0xFFFFFFFFFFFFFFFFFFFFFFFF NOT SWAP1 PUSH1 0x60 SHL AND PUSH1 0x80 DUP4 ADD MSTORE PUSH1 0x74 DUP3 MSTORE PUSH1 0xA0 DUP3 ADD SWAP4 DUP3 DUP6 LT PUSH8 0xFFFFFFFFFFFFFFFF DUP7 GT OR PUSH2 0xA2C JUMPI PUSH32 0x3552D68173FFBD518F5549CE7274CAB798032B049B140F3452FF5C211EDD3D29 SWAP7 SWAP8 POP SWAP1 PUSH1 0xC PUSH1 0xC0 SWAP4 SWAP3 DUP7 DUP9 MSTORE DUP4 MLOAD SWAP1 KECCAK256 SWAP5 DUP3 DUP11 MSTORE MSTORE DUP4 DUP7 DUP10 KECCAK256 SSTORE DUP5 MSTORE ADD MSTORE LOG1 DUP1 RETURN JUMPDEST PUSH4 0x4E487B71 PUSH1 0xE0 SHL DUP8 MSTORE PUSH1 0x41 DUP9 MSTORE PUSH1 0x24 DUP8 REVERT JUMPDEST DUP4 MLOAD PUSH3 0x461BCD PUSH1 0xE5 SHL DUP2 MSTORE DUP1 DUP8 ADD DUP4 SWAP1 MSTORE PUSH1 0x23 PUSH1 0x24 DUP3 ADD MSTORE PUSH32 0x436F646520616C72656164792067656E65726174656420666F72207468697320 PUSH1 0x44 DUP3 ADD MSTORE PUSH3 0x646179 PUSH1 0xE8 SHL PUSH1 0x64 DUP3 ADD MSTORE PUSH1 0x84 SWAP1 REVERT JUMPDEST DUP4 MLOAD PUSH3 0x461BCD PUSH1 0xE5 SHL DUP2 MSTORE DUP1 DUP8 ADD DUP4 SWAP1 MSTORE PUSH1 0x22 PUSH1 0x24 DUP3 ADD MSTORE PUSH32 0x43616E6E6F742067656E657261746520636F646520666F722070617374206461 PUSH1 0x44 DUP3 ADD MSTORE PUSH2 0x7973 PUSH1 0xF0 SHL PUSH1 0x64 DUP3 ADD MSTORE PUSH1 0x84 SWAP1 REVERT JUMPDEST POP POP CALLVALUE PUSH2 0x1C8 JUMPI DUP2 PUSH1 0x3 NOT CALLDATASIZE ADD SLT PUSH2 0x1C8 JUMPI PUSH1 0xC0 SWAP1 PUSH1 0xE SLOAD SWAP1 PUSH1 0xFF PUSH1 0xF SLOAD PUSH1 0x10 SLOAD SWAP3 DUP1 MLOAD SWAP5 DUP6 MSTORE PUSH1 0x1 DUP1 PUSH1 0xA0 SHL SUB DUP3 AND PUSH1 0x20 DUP7 ADD MSTORE DUP3 DUP3 PUSH1 0xA0 SHR AND ISZERO ISZERO SWAP1 DUP6 ADD MSTORE DUP2 DUP2 PUSH1 0xA8 SHR AND ISZERO ISZERO PUSH1 0x60 DUP6 ADD MSTORE PUSH1 0xB0 SHR AND ISZERO ISZERO PUSH1 0x80 DUP4 ADD MSTORE PUSH1 0xA0 DUP3 ADD MSTORE RETURN JUMPDEST SWAP2 SWAP1 POP CALLVALUE PUSH2 0x499 JUMPI DUP3 PUSH1 0x3 NOT CALLDATASIZE ADD SLT PUSH2 0x499 JUMPI PUSH1 0x2 SLOAD PUSH1 0x1 PUSH1 0x1 PUSH1 0xA0 SHL SUB SWAP1 DUP2 AND SWAP3 PUSH2 0xB69 CALLER DUP6 EQ PUSH2 0x1544 JUMP JUMPDEST PUSH2 0xB85 PUSH1 0xFF PUSH1 0x7 SLOAD DUP2 DUP2 PUSH1 0x10 SHR AND DUP1 PUSH2 0x8C3 JUMPI PUSH2 0x62E SWAP1 PUSH2 0x15F4 JUMP JUMPDEST PUSH1 0x9 SLOAD ISZERO PUSH2 0xCE8 JUMPI PUSH2 0xB95 PUSH2 0x1796 JUMP JUMPDEST SWAP4 PUSH2 0xBA3 PUSH1 0xA SLOAD DUP1 SWAP7 PUSH2 0x1698 JUMP JUMPDEST SWAP5 DUP6 ISZERO PUSH2 0xC9A JUMPI DUP6 SELFBALANCE LT PUSH2 0xC57 JUMPI DUP6 DUP2 ADD DUP1 SWAP2 GT PUSH2 0xC44 JUMPI DUP7 DUP1 DUP8 DUP2 SWAP5 DUP3 SWAP5 PUSH1 0xA SSTORE GAS CALL PUSH2 0xBCF PUSH2 0x16BB JUMP JUMPDEST POP ISZERO PUSH2 0xC0F JUMPI POP SWAP1 PUSH32 0xBEE6E25AAE108C0524D61C49D523305558F12F21017476C3FEF02CA775C41F1F SWAP2 PUSH1 0x2 SLOAD AND SWAP3 PUSH1 0x9 SLOAD DUP3 MLOAD SWAP2 DUP3 MSTORE PUSH1 0x20 DUP3 ADD MSTORE LOG2 DUP1 RETURN JUMPDEST PUSH1 0x64 SWAP1 PUSH1 0x20 DUP5 MLOAD SWAP2 PUSH3 0x461BCD PUSH1 0xE5 SHL DUP4 MSTORE DUP3 ADD MSTORE PUSH1 0xF PUSH1 0x24 DUP3 ADD MSTORE PUSH15 0x151C985B9CD9995C8819985A5B1959 PUSH1 0x8A SHL PUSH1 0x44 DUP3 ADD MSTORE REVERT JUMPDEST PUSH4 0x4E487B71 PUSH1 0xE0 SHL DUP8 MSTORE PUSH1 0x11 DUP4 MSTORE PUSH1 0x24 DUP8 REVERT JUMPDEST DUP5 MLOAD PUSH3 0x461BCD PUSH1 0xE5 SHL DUP2 MSTORE PUSH1 0x20 DUP2 DUP6 ADD MSTORE PUSH1 0x1D PUSH1 0x24 DUP3 ADD MSTORE PUSH32 0x496E73756666696369656E7420636F6E74726163742062616C616E6365000000 PUSH1 0x44 DUP3 ADD MSTORE PUSH1 0x64 SWAP1 REVERT JUMPDEST DUP5 MLOAD PUSH3 0x461BCD PUSH1 0xE5 SHL DUP2 MSTORE PUSH1 0x20 DUP2 DUP6 ADD MSTORE PUSH1 0x22 PUSH1 0x24 DUP3 ADD MSTORE PUSH32 0x4E6F2073616C61727920617661696C61626C6520666F72207769746864726177 PUSH1 0x44 DUP3 ADD MSTORE PUSH2 0x185B PUSH1 0xF2 SHL PUSH1 0x64 DUP3 ADD MSTORE PUSH1 0x84 SWAP1 REVERT JUMPDEST PUSH1 0x64 SWAP1 PUSH1 0x20 DUP5 MLOAD SWAP2 PUSH3 0x461BCD PUSH1 0xE5 SHL DUP4 MSTORE DUP3 ADD MSTORE PUSH1 0x14 PUSH1 0x24 DUP3 ADD MSTORE PUSH20 0x139BC8185D1D195B99185B98D9481B585C9AD959 PUSH1 0x62 SHL PUSH1 0x44 DUP3 ADD MSTORE REVERT JUMPDEST POP POP CALLVALUE PUSH2 0x1C8 JUMPI DUP2 PUSH1 0x3 NOT CALLDATASIZE ADD SLT PUSH2 0x1C8 JUMPI PUSH1 0x20 SWAP1 PUSH1 0xFF PUSH1 0x7 SLOAD PUSH1 0x8 SHR AND SWAP1 MLOAD SWAP1 ISZERO ISZERO DUP2 MSTORE RETURN JUMPDEST POP POP CALLVALUE PUSH2 0x1C8 JUMPI DUP2 PUSH1 0x3 NOT CALLDATASIZE ADD SLT PUSH2 0x1C8 JUMPI PUSH1 0x20 SWAP2 PUSH2 0xD66 PUSH2 0x1796 JUMP JUMPDEST PUSH1 0xA SLOAD SWAP1 DUP2 DUP2 GT ISZERO PUSH2 0xD84 JUMPI PUSH2 0xD7C SWAP3 POP PUSH2 0x1698 JUMP JUMPDEST SWAP1 JUMPDEST MLOAD SWAP1 DUP2 MSTORE RETURN JUMPDEST POP POP SWAP1 PUSH2 0xD7E JUMP JUMPDEST SWAP2 SWAP1 POP CALLVALUE PUSH2 0x499 JUMPI DUP3 PUSH1 0x3 NOT CALLDATASIZE ADD SLT PUSH2 0x499 JUMPI PUSH2 0x120 SWAP3 POP PUSH1 0xFF PUSH1 0x1 DUP1 PUSH1 0xA0 SHL SUB SWAP3 DUP4 PUSH1 0x1 SLOAD AND SWAP4 PUSH1 0x2 SLOAD AND SWAP3 PUSH1 0x3 SLOAD PUSH1 0x9 SLOAD SWAP1 PUSH1 0xA SLOAD SWAP3 PUSH1 0x7 SLOAD SWAP5 SLOAD SWAP7 DUP2 MLOAD SWAP9 DUP10 MSTORE PUSH1 0x20 DUP10 ADD MSTORE DUP8 ADD MSTORE PUSH1 0x60 DUP7 ADD MSTORE PUSH1 0x80 DUP6 ADD MSTORE DUP2 DUP2 PUSH1 0x10 SHR AND ISZERO ISZERO PUSH1 0xA0 DUP6 ADD MSTORE DUP2 DUP2 PUSH1 0x8 SHR AND ISZERO ISZERO PUSH1 0xC0 DUP6 ADD MSTORE AND ISZERO ISZERO PUSH1 0xE0 DUP4 ADD MSTORE PUSH2 0x100 DUP3 ADD MSTORE RETURN JUMPDEST POP POP CALLVALUE PUSH2 0x1C8 JUMPI DUP2 PUSH1 0x3 NOT CALLDATASIZE ADD SLT PUSH2 0x1C8 JUMPI PUSH1 0x20 SWAP1 PUSH1 0x5 SLOAD SWAP1 MLOAD SWAP1 DUP2 MSTORE RETURN JUMPDEST DUP4 SWAP2 POP CALLVALUE PUSH2 0x1C8 JUMPI DUP3 PUSH1 0x3 NOT CALLDATASIZE ADD SLT PUSH2 0x1C8 JUMPI PUSH1 0x24 CALLDATALOAD SWAP1 DUP1 CALLDATALOAD SWAP1 PUSH1 0x1 PUSH1 0x1 PUSH1 0xA0 SHL SUB DUP1 DUP5 AND SWAP1 DUP2 DUP6 SUB PUSH2 0x102D JUMPI PUSH2 0xE66 SWAP1 PUSH1 0x1 SLOAD AND CALLER EQ PUSH2 0x159C JUMP JUMPDEST PUSH2 0xE82 PUSH1 0xFF PUSH1 0x7 SLOAD DUP2 DUP2 PUSH1 0x10 SHR AND DUP1 PUSH2 0x8C3 JUMPI PUSH2 0x62E SWAP1 PUSH2 0x15F4 JUMP JUMPDEST PUSH1 0x11 SLOAD SWAP2 PUSH1 0xFF DUP4 AND PUSH2 0xFDB JUMPI DUP4 ISZERO PUSH2 0xF8E JUMPI DUP2 ISZERO PUSH2 0xF4B JUMPI POP SWAP5 PUSH1 0x1 PUSH2 0x37A SWAP3 PUSH32 0x43224DA643AFD5364FE13ECA80E87986C24F373291ECBE87C3695BEEFB96D471 SWAP7 SWAP8 DUP4 MLOAD PUSH2 0xED0 DUP2 PUSH2 0x14D4 JUMP JUMPDEST DUP7 DUP2 MSTORE DUP2 PUSH1 0x20 DUP3 ADD MSTORE DUP4 DUP6 DUP3 ADD MSTORE DUP10 PUSH1 0x60 DUP3 ADD MSTORE DUP4 PUSH1 0x80 DUP3 ADD MSTORE PUSH1 0xA0 TIMESTAMP SWAP2 ADD MSTORE DUP6 PUSH1 0xE SSTORE DUP3 PUSH1 0xB0 SHL SWAP1 PUSH2 0xFFFF PUSH1 0xA8 SHL NOT SWAP1 DUP5 PUSH1 0xA0 SHL SWAP1 PUSH11 0xFFFFFFFFFFFFFFFFFFFFFF PUSH1 0xA8 SHL PUSH1 0xF SLOAD AND OR OR AND OR PUSH1 0xF SSTORE TIMESTAMP PUSH1 0x10 SSTORE PUSH1 0xFF NOT AND OR PUSH1 0x11 SSTORE MLOAD SWAP3 DUP4 SWAP3 DUP4 SWAP1 SWAP3 SWAP2 PUSH1 0x20 SWAP1 PUSH1 0x40 DUP4 ADD SWAP5 DUP4 MSTORE PUSH1 0x1 DUP1 PUSH1 0xA0 SHL SUB AND SWAP2 ADD MSTORE JUMP JUMPDEST PUSH1 0x64 SWAP1 PUSH1 0x20 DUP9 MLOAD SWAP2 PUSH3 0x461BCD PUSH1 0xE5 SHL DUP4 MSTORE DUP3 ADD MSTORE PUSH1 0x1C PUSH1 0x24 DUP3 ADD MSTORE PUSH32 0x496E76616C6964206E657720656D706C6F796565206164647265737300000000 PUSH1 0x44 DUP3 ADD MSTORE REVERT JUMPDEST PUSH1 0x84 SWAP1 PUSH1 0x20 DUP9 MLOAD SWAP2 PUSH3 0x461BCD PUSH1 0xE5 SHL DUP4 MSTORE DUP3 ADD MSTORE PUSH1 0x21 PUSH1 0x24 DUP3 ADD MSTORE PUSH32 0x4E65772073616C617279206D7573742062652067726561746572207468616E20 PUSH1 0x44 DUP3 ADD MSTORE PUSH1 0x3 PUSH1 0xFC SHL PUSH1 0x64 DUP3 ADD MSTORE REVERT JUMPDEST PUSH1 0x84 SWAP1 PUSH1 0x20 DUP9 MLOAD SWAP2 PUSH3 0x461BCD PUSH1 0xE5 SHL DUP4 MSTORE DUP3 ADD MSTORE PUSH1 0x26 PUSH1 0x24 DUP3 ADD MSTORE PUSH32 0x5468657265277320616C726561647920612070656E64696E67206D6F64696669 PUSH1 0x44 DUP3 ADD MSTORE PUSH6 0x31B0BA34B7B7 PUSH1 0xD1 SHL PUSH1 0x64 DUP3 ADD MSTORE REVERT JUMPDEST DUP6 DUP1 REVERT JUMPDEST POP POP CALLVALUE PUSH2 0x1C8 JUMPI DUP2 PUSH1 0x3 NOT CALLDATASIZE ADD SLT PUSH2 0x1C8 JUMPI PUSH1 0x20 SWAP1 PUSH1 0xA SLOAD SWAP1 MLOAD SWAP1 DUP2 MSTORE RETURN JUMPDEST SWAP2 SWAP1 POP CALLVALUE PUSH2 0x499 JUMPI DUP3 PUSH1 0x3 NOT CALLDATASIZE ADD SLT PUSH2 0x499 JUMPI PUSH1 0x2 SLOAD PUSH1 0x1 PUSH1 0x1 PUSH1 0xA0 SHL SUB AND SWAP2 PUSH2 0x107B CALLER DUP5 EQ PUSH2 0x1544 JUMP JUMPDEST PUSH1 0x7 SLOAD SWAP2 PUSH1 0xFF DUP4 PUSH1 0x8 SHR AND PUSH2 0x1106 JUMPI PUSH1 0xFF DUP4 PUSH1 0x18 SHR AND PUSH2 0x10CA JUMPI POP POP PUSH2 0xFF00 NOT AND PUSH2 0x100 OR PUSH1 0x7 SSTORE PUSH32 0x52FC9BBF272C9663E2F72E32EBBD87B584E1015D97D62C96A47D445F8460CAC1 DUP3 DUP1 LOG2 DUP1 RETURN JUMPDEST SWAP1 PUSH1 0x20 PUSH1 0x64 SWAP3 MLOAD SWAP2 PUSH3 0x461BCD PUSH1 0xE5 SHL DUP4 MSTORE DUP3 ADD MSTORE PUSH1 0x16 PUSH1 0x24 DUP3 ADD MSTORE PUSH22 0x10DBDB9D1C9858DD081A5CC81D195C9B5A5B985D1959 PUSH1 0x52 SHL PUSH1 0x44 DUP3 ADD MSTORE REVERT JUMPDEST SWAP1 PUSH1 0x20 PUSH1 0x64 SWAP3 MLOAD SWAP2 PUSH3 0x461BCD PUSH1 0xE5 SHL DUP4 MSTORE DUP3 ADD MSTORE PUSH1 0x19 PUSH1 0x24 DUP3 ADD MSTORE PUSH32 0x436F6E747261637420616C726561647920617070726F76656400000000000000 PUSH1 0x44 DUP3 ADD MSTORE REVERT JUMPDEST POP POP CALLVALUE PUSH2 0x1C8 JUMPI DUP2 PUSH1 0x3 NOT CALLDATASIZE ADD SLT PUSH2 0x1C8 JUMPI PUSH1 0x20 SWAP1 PUSH2 0xD7C PUSH2 0x1796 JUMP JUMPDEST POP POP CALLVALUE PUSH2 0x1C8 JUMPI DUP2 PUSH1 0x3 NOT CALLDATASIZE ADD SLT PUSH2 0x1C8 JUMPI PUSH1 0x20 SWAP1 PUSH1 0xFF PUSH1 0x7 SLOAD AND SWAP1 MLOAD SWAP1 ISZERO ISZERO DUP2 MSTORE RETURN JUMPDEST POP POP CALLVALUE PUSH2 0x1C8 JUMPI DUP2 PUSH1 0x3 NOT CALLDATASIZE ADD SLT PUSH2 0x1C8 JUMPI PUSH1 0x20 SWAP1 PUSH3 0x15180 PUSH2 0x11AF PUSH1 0x8 SLOAD TIMESTAMP PUSH2 0x1698 JUMP JUMPDEST DIV SWAP1 MLOAD SWAP1 DUP2 MSTORE RETURN JUMPDEST SWAP2 SWAP1 POP CALLVALUE PUSH2 0x499 JUMPI DUP3 PUSH1 0x3 NOT CALLDATASIZE ADD SLT PUSH2 0x499 JUMPI PUSH1 0x1 SLOAD PUSH1 0x1 PUSH1 0x1 PUSH1 0xA0 SHL SUB SWAP1 PUSH2 0x11E3 SWAP1 DUP3 AND CALLER EQ PUSH2 0x159C JUMP JUMPDEST PUSH1 0x7 SLOAD SWAP1 PUSH1 0xFF DUP3 PUSH1 0x10 SHR AND DUP1 PUSH2 0x137C JUMPI JUMPDEST PUSH2 0x11FD SWAP1 PUSH2 0x15F4 JUMP JUMPDEST PUSH1 0xFF DUP3 PUSH1 0x8 SHR AND ISZERO PUSH2 0x1327 JUMPI PUSH2 0x121D PUSH2 0x1214 PUSH2 0x1796 JUMP JUMPDEST PUSH1 0xA SLOAD SWAP1 PUSH2 0x1698 JUMP JUMPDEST SWAP4 PUSH4 0x1000000 PUSH2 0x122D DUP7 SELFBALANCE PUSH2 0x1698 JUMP JUMPDEST SWAP4 PUSH4 0xFFFF0000 NOT AND OR PUSH1 0x7 SSTORE DUP5 PUSH2 0x12D2 JUMPI JUMPDEST DUP3 PUSH2 0x127D JUMPI JUMPDEST POP SWAP1 PUSH32 0x6BE8BE759CDA4C5FEEF9AD215DF471CBA9B636E1A68E1B8FB0803037E02C8950 SWAP3 SWAP2 PUSH1 0x1 SLOAD AND SWAP4 DUP3 MLOAD SWAP2 DUP3 MSTORE PUSH1 0x20 DUP3 ADD MSTORE LOG2 DUP1 RETURN JUMPDEST DUP6 DUP1 DUP1 DUP1 DUP7 DUP7 PUSH1 0x1 SLOAD AND GAS CALL PUSH2 0x1291 PUSH2 0x16BB JUMP JUMPDEST POP PUSH2 0x1245 JUMPI PUSH1 0x64 SWAP1 PUSH1 0x20 DUP6 MLOAD SWAP2 PUSH3 0x461BCD PUSH1 0xE5 SHL DUP4 MSTORE DUP3 ADD MSTORE PUSH1 0x16 PUSH1 0x24 DUP3 ADD MSTORE PUSH22 0x115B5C1B1BDE595C881C99599D5B990819985A5B1959 PUSH1 0x52 SHL PUSH1 0x44 DUP3 ADD MSTORE REVERT JUMPDEST DUP6 DUP1 DUP1 DUP1 DUP9 DUP7 PUSH1 0x2 SLOAD AND GAS CALL PUSH2 0x12E6 PUSH2 0x16BB JUMP JUMPDEST POP PUSH2 0x123F JUMPI PUSH1 0x64 SWAP1 PUSH1 0x20 DUP6 MLOAD SWAP2 PUSH3 0x461BCD PUSH1 0xE5 SHL DUP4 MSTORE DUP3 ADD MSTORE PUSH1 0x16 PUSH1 0x24 DUP3 ADD MSTORE PUSH22 0x115B5C1B1BDE5959481C185E5BDD5D0819985A5B1959 PUSH1 0x52 SHL PUSH1 0x44 DUP3 ADD MSTORE REVERT JUMPDEST DUP3 MLOAD PUSH3 0x461BCD PUSH1 0xE5 SHL DUP2 MSTORE PUSH1 0x20 DUP2 DUP7 ADD MSTORE PUSH1 0x29 PUSH1 0x24 DUP3 ADD MSTORE PUSH32 0x43616E6E6F74207465726D696E617465206265666F726520656D706C6F796565 PUSH1 0x44 DUP3 ADD MSTORE PUSH9 0x8185C1C1C9BDD985B PUSH1 0xBA SHL PUSH1 0x64 DUP3 ADD MSTORE PUSH1 0x84 SWAP1 REVERT JUMPDEST POP PUSH1 0x18 DUP3 SWAP1 SHR PUSH1 0xFF AND ISZERO PUSH2 0x11F4 JUMP JUMPDEST POP POP CALLVALUE PUSH2 0x1C8 JUMPI DUP2 PUSH1 0x3 NOT CALLDATASIZE ADD SLT PUSH2 0x1C8 JUMPI PUSH1 0xC0 SWAP2 PUSH1 0xA0 DUP3 MLOAD PUSH2 0x13AD DUP2 PUSH2 0x14D4 JUMP JUMPDEST DUP3 DUP2 MSTORE DUP3 PUSH1 0x20 DUP3 ADD MSTORE DUP3 DUP5 DUP3 ADD MSTORE DUP3 PUSH1 0x60 DUP3 ADD MSTORE DUP3 PUSH1 0x80 DUP3 ADD MSTORE ADD MSTORE DUP1 MLOAD PUSH2 0x13D4 DUP2 PUSH2 0x14D4 JUMP JUMPDEST PUSH1 0xE SLOAD SWAP2 DUP3 DUP3 MSTORE PUSH1 0xF SLOAD SWAP1 PUSH1 0x20 DUP4 ADD SWAP1 PUSH1 0x1 DUP1 PUSH1 0xA0 SHL SUB DUP1 DUP5 AND DUP4 MSTORE DUP2 DUP6 ADD SWAP1 PUSH1 0xFF DUP6 PUSH1 0xA0 SHR AND ISZERO ISZERO DUP3 MSTORE PUSH1 0x60 DUP7 ADD SWAP4 PUSH1 0xFF DUP7 PUSH1 0xA8 SHR AND ISZERO ISZERO DUP6 MSTORE PUSH1 0xFF PUSH1 0x80 DUP9 ADD SWAP7 PUSH1 0xB0 SHR AND ISZERO ISZERO DUP7 MSTORE PUSH1 0xA0 PUSH1 0x10 SLOAD SWAP8 ADD SWAP7 DUP8 MSTORE DUP4 MLOAD SWAP8 DUP9 MSTORE MLOAD AND PUSH1 0x20 DUP8 ADD MSTORE MLOAD ISZERO ISZERO SWAP1 DUP6 ADD MSTORE MLOAD ISZERO ISZERO PUSH1 0x60 DUP5 ADD MSTORE MLOAD ISZERO ISZERO PUSH1 0x80 DUP4 ADD MSTORE MLOAD PUSH1 0xA0 DUP3 ADD MSTORE RETURN JUMPDEST POP POP CALLVALUE PUSH2 0x1C8 JUMPI DUP2 PUSH1 0x3 NOT CALLDATASIZE ADD SLT PUSH2 0x1C8 JUMPI PUSH1 0x20 SWAP1 PUSH1 0xFF PUSH1 0x7 SLOAD PUSH1 0x10 SHR AND SWAP1 MLOAD SWAP1 ISZERO ISZERO DUP2 MSTORE RETURN JUMPDEST POP POP CALLVALUE PUSH2 0x1C8 JUMPI DUP2 PUSH1 0x3 NOT CALLDATASIZE ADD SLT PUSH2 0x1C8 JUMPI PUSH1 0x20 SWAP1 PUSH1 0x9 SLOAD SWAP1 MLOAD SWAP1 DUP2 MSTORE RETURN JUMPDEST POP POP CALLVALUE PUSH2 0x1C8 JUMPI DUP2 PUSH1 0x3 NOT CALLDATASIZE ADD SLT PUSH2 0x1C8 JUMPI PUSH1 0x20 SWAP1 PUSH1 0x6 SLOAD SWAP1 MLOAD SWAP1 DUP2 MSTORE RETURN JUMPDEST DUP5 SWAP1 CALLVALUE PUSH2 0x1C8 JUMPI DUP2 PUSH1 0x3 NOT CALLDATASIZE ADD SLT PUSH2 0x1C8 JUMPI PUSH1 0x20 SWAP1 PUSH1 0x8 SLOAD DUP2 MSTORE RETURN JUMPDEST PUSH1 0xC0 DUP2 ADD SWAP1 DUP2 LT PUSH8 0xFFFFFFFFFFFFFFFF DUP3 GT OR PUSH2 0x14F0 JUMPI PUSH1 0x40 MSTORE JUMP JUMPDEST PUSH4 0x4E487B71 PUSH1 0xE0 SHL PUSH1 0x0 MSTORE PUSH1 0x41 PUSH1 0x4 MSTORE PUSH1 0x24 PUSH1 0x0 REVERT JUMPDEST SWAP1 PUSH1 0x1F DUP1 NOT SWAP2 ADD AND DUP2 ADD SWAP1 DUP2 LT PUSH8 0xFFFFFFFFFFFFFFFF DUP3 GT OR PUSH2 0x14F0 JUMPI PUSH1 0x40 MSTORE JUMP JUMPDEST PUSH8 0xFFFFFFFFFFFFFFFF DUP2 GT PUSH2 0x14F0 JUMPI PUSH1 0x1F ADD PUSH1 0x1F NOT AND PUSH1 0x20 ADD SWAP1 JUMP JUMPDEST ISZERO PUSH2 0x154B JUMPI JUMP JUMPDEST PUSH1 0x40 MLOAD PUSH3 0x461BCD PUSH1 0xE5 SHL DUP2 MSTORE PUSH1 0x20 PUSH1 0x4 DUP3 ADD MSTORE PUSH1 0x24 DUP1 DUP3 ADD MSTORE PUSH32 0x4F6E6C7920656D706C6F7965652063616E2063616C6C20746869732066756E63 PUSH1 0x44 DUP3 ADD MSTORE PUSH4 0x3A34B7B7 PUSH1 0xE1 SHL PUSH1 0x64 DUP3 ADD MSTORE PUSH1 0x84 SWAP1 REVERT JUMPDEST ISZERO PUSH2 0x15A3 JUMPI JUMP JUMPDEST PUSH1 0x40 MLOAD PUSH3 0x461BCD PUSH1 0xE5 SHL DUP2 MSTORE PUSH1 0x20 PUSH1 0x4 DUP3 ADD MSTORE PUSH1 0x24 DUP1 DUP3 ADD MSTORE PUSH32 0x4F6E6C7920656D706C6F7965722063616E2063616C6C20746869732066756E63 PUSH1 0x44 DUP3 ADD MSTORE PUSH4 0x3A34B7B7 PUSH1 0xE1 SHL PUSH1 0x64 DUP3 ADD MSTORE PUSH1 0x84 SWAP1 REVERT JUMPDEST ISZERO PUSH2 0x15FB JUMPI JUMP JUMPDEST PUSH1 0x40 MLOAD PUSH3 0x461BCD PUSH1 0xE5 SHL DUP2 MSTORE PUSH1 0x20 PUSH1 0x4 DUP3 ADD MSTORE PUSH1 0x16 PUSH1 0x24 DUP3 ADD MSTORE PUSH22 0x436F6E7472616374206973206E6F7420616374697665 PUSH1 0x50 SHL PUSH1 0x44 DUP3 ADD MSTORE PUSH1 0x64 SWAP1 REVERT JUMPDEST ISZERO PUSH2 0x1640 JUMPI JUMP JUMPDEST PUSH1 0x40 MLOAD PUSH3 0x461BCD PUSH1 0xE5 SHL DUP2 MSTORE PUSH1 0x20 PUSH1 0x4 DUP3 ADD MSTORE PUSH1 0x2A PUSH1 0x24 DUP3 ADD MSTORE PUSH32 0x456D706C6F79656520686173206E6F7420617070726F7665642074686520636F PUSH1 0x44 DUP3 ADD MSTORE PUSH10 0x1B9D1C9858DD081E595D PUSH1 0xB2 SHL PUSH1 0x64 DUP3 ADD MSTORE PUSH1 0x84 SWAP1 REVERT JUMPDEST SWAP2 SWAP1 DUP3 SUB SWAP2 DUP3 GT PUSH2 0x16A5 JUMPI JUMP JUMPDEST PUSH4 0x4E487B71 PUSH1 0xE0 SHL PUSH1 0x0 MSTORE PUSH1 0x11 PUSH1 0x4 MSTORE PUSH1 0x24 PUSH1 0x0 REVERT JUMPDEST RETURNDATASIZE ISZERO PUSH2 0x16E6 JUMPI RETURNDATASIZE SWAP1 PUSH2 0x16CC DUP3 PUSH2 0x1528 JUMP JUMPDEST SWAP2 PUSH2 0x16DA PUSH1 0x40 MLOAD SWAP4 DUP5 PUSH2 0x1506 JUMP JUMPDEST DUP3 MSTORE RETURNDATASIZE PUSH1 0x0 PUSH1 0x20 DUP5 ADD RETURNDATACOPY JUMP JUMPDEST PUSH1 0x60 SWAP1 JUMP JUMPDEST ISZERO PUSH2 0x16F2 JUMPI JUMP JUMPDEST PUSH1 0x40 MLOAD PUSH3 0x461BCD PUSH1 0xE5 SHL DUP2 MSTORE PUSH1 0x20 PUSH1 0x4 DUP3 ADD MSTORE PUSH1 0x17 PUSH1 0x24 DUP3 ADD MSTORE PUSH32 0x4E6F2070656E64696E67206D6F64696669636174696F6E000000000000000000 PUSH1 0x44 DUP3 ADD MSTORE PUSH1 0x64 SWAP1 REVERT JUMPDEST ISZERO PUSH2 0x173E JUMPI JUMP JUMPDEST PUSH1 0x40 MLOAD PUSH3 0x461BCD PUSH1 0xE5 SHL DUP2 MSTORE PUSH1 0x20 PUSH1 0x4 DUP3 ADD MSTORE PUSH1 0x1A PUSH1 0x24 DUP3 ADD MSTORE PUSH32 0x4D6F64696669636174696F6E206973206E6F7420616374697665000000000000 PUSH1 0x44 DUP3 ADD MSTORE PUSH1 0x64 SWAP1 REVERT JUMPDEST DUP2 DUP2 MUL SWAP3 SWAP2 DUP2 ISZERO SWAP2 DUP5 DIV EQ OR ISZERO PUSH2 0x16A5 JUMPI JUMP JUMPDEST PUSH1 0x9 SLOAD DUP1 ISZERO PUSH2 0x17CB JUMPI PUSH1 0x3 SLOAD PUSH2 0x17AB SWAP2 PUSH2 0x1783 JUMP JUMPDEST PUSH1 0xFF PUSH1 0x7 SLOAD AND PUSH2 0x17B8 JUMPI SWAP1 JUMP JUMPDEST PUSH2 0x17C7 PUSH1 0x64 SWAP2 PUSH1 0x4 SLOAD SWAP1 PUSH2 0x1783 JUMP JUMPDEST DIV SWAP1 JUMP JUMPDEST POP PUSH1 0x0 SWAP1 JUMP INVALID LOG2 PUSH5 0x6970667358 0x22 SLT KECCAK256 SWAP3 PC 0xE1 EXTCODESIZE 0x23 PUSH18 0xF23D20778E85F916C81B7DF482F87AE8CDC SWAP1 0x5D SWAP8 MSTORE PUSH27 0x67E34464736F6C6343000813003300000000000000000000000000 "},"methodIdentifiers":{"approveContract()":"43d00d04","approveModification()":"dd1d941a","attendanceCount()":"1c11863a","calculateEarnedSalary()":"43547f54","codeUsed(uint256)":"a158241e","contractDuration()":"6a246e70","dailyAttendance(uint256)":"9455cd3b","dailyCodes(uint256)":"d537f31d","dailySalary()":"e9d5e0ef","emergencyWithdraw()":"db2e21bc","employee()":"a0a1a7d7","employeeApproved()":"82e0209f","employer()":"ae200e79","factory()":"c45a0155","generateDailyCode(uint256)":"9f7521b4","getAvailableBalance()":"809dab6a","getContractInfo()":"7cc1f867","getCurrentDay()":"3e6968b6","getDailyCodeHash(uint256)":"56470417","getPendingModification()":"23077da2","hasAttendanceForDay(uint256)":"c16b8728","hasPendingModification()":"ffa6399b","isActive()":"22f3e2d4","isOnProbation()":"3fb856cd","isTerminated()":"d1cc9976","markAttendance(uint256,string)":"a90795cf","pendingModification()":"9425039c","probationPercentage()":"b561dd7d","proposeModification(uint256,address)":"62d4744c","rejectModification()":"e01415f9","startDate()":"0b97bc86","terminateContract()":"2fd949ca","totalSalaryLocked()":"1be37f84","totalWithdrawn()":"4b319713","withdrawSalary()":"9005b2c4"}}}}}