{"contracts/AttendanceManager.sol":{"AttendanceManager":{"abi":[{"anonymous":false,"inputs":[{"indexed":true,"internalType":"address","name":"employee","type":"address"},{"indexed":true,"internalType":"address","name":"employer","type":"address"},{"indexed":false,"internalType":"uint256","name":"day","type":"uint256"},{"indexed":false,"internalType":"bytes32","name":"codeHash","type":"bytes32"}],"name":"AttendanceMarked","type":"event"},{"anonymous":false,"inputs":[{"indexed":true,"internalType":"address","name":"employer","type":"address"},{"indexed":true,"internalType":"address","name":"employee","type":"address"},{"indexed":true,"internalType":"bytes32","name":"codeHash","type":"bytes32"},{"indexed":false,"internalType":"uint256","name":"expiryTime","type":"uint256"},{"indexed":false,"internalType":"uint256","name":"day","type":"uint256"}],"name":"CodeGenerated","type":"event"},{"inputs":[],"name":"CODE_VALIDITY_DURATION","outputs":[{"internalType":"uint256","name":"","type":"uint256"}],"stateMutability":"view","type":"function"},{"inputs":[{"internalType":"bytes32","name":"","type":"bytes32"}],"name":"attendanceCodes","outputs":[{"internalType":"bytes32","name":"codeHash","type":"bytes32"},{"internalType":"uint256","name":"expiryTime","type":"uint256"},{"internalType":"bool","name":"isActive","type":"bool"},{"internalType":"address","name":"employer","type":"address"},{"internalType":"address","name":"employee","type":"address"},{"internalType":"uint256","name":"day","type":"uint256"},{"internalType":"bool","name":"isUsed","type":"bool"}],"stateMutability":"view","type":"function"},{"inputs":[{"internalType":"address","name":"","type":"address"},{"internalType":"uint256","name":"","type":"uint256"}],"name":"employeeAttendanceDays","outputs":[{"internalType":"uint256","name":"","type":"uint256"}],"stateMutability":"view","type":"function"},{"inputs":[{"internalType":"address","name":"","type":"address"},{"internalType":"address","name":"","type":"address"},{"internalType":"uint256","name":"","type":"uint256"}],"name":"employeeEmployerDayAttendance","outputs":[{"internalType":"bool","name":"","type":"bool"}],"stateMutability":"view","type":"function"},{"inputs":[{"internalType":"address","name":"","type":"address"},{"internalType":"uint256","name":"","type":"uint256"}],"name":"employerDailyCodes","outputs":[{"internalType":"bytes32","name":"","type":"bytes32"}],"stateMutability":"view","type":"function"},{"inputs":[{"internalType":"address","name":"_salaryContract","type":"address"},{"internalType":"address","name":"_employee","type":"address"},{"internalType":"uint256","name":"_day","type":"uint256"},{"internalType":"uint256","name":"_nonce","type":"uint256"}],"name":"generateAttendanceCode","outputs":[{"internalType":"bytes32","name":"","type":"bytes32"}],"stateMutability":"nonpayable","type":"function"},{"inputs":[{"internalType":"address","name":"_employer","type":"address"},{"internalType":"address","name":"_employee","type":"address"},{"internalType":"uint256","name":"_day","type":"uint256"}],"name":"getActiveCodeForEmployeeDay","outputs":[{"internalType":"bytes32","name":"","type":"bytes32"}],"stateMutability":"view","type":"function"},{"inputs":[{"internalType":"bytes32","name":"_codeHash","type":"bytes32"}],"name":"getCodeDetails","outputs":[{"components":[{"internalType":"bytes32","name":"codeHash","type":"bytes32"},{"internalType":"uint256","name":"expiryTime","type":"uint256"},{"internalType":"bool","name":"isActive","type":"bool"},{"internalType":"address","name":"employer","type":"address"},{"internalType":"address","name":"employee","type":"address"},{"internalType":"uint256","name":"day","type":"uint256"},{"internalType":"bool","name":"isUsed","type":"bool"}],"internalType":"struct AttendanceManager.AttendanceCode","name":"","type":"tuple"}],"stateMutability":"view","type":"function"},{"inputs":[{"internalType":"address","name":"_employee","type":"address"}],"name":"getEmployeeAttendanceDays","outputs":[{"internalType":"uint256[]","name":"","type":"uint256[]"}],"stateMutability":"view","type":"function"},{"inputs":[{"internalType":"address","name":"","type":"address"},{"internalType":"uint256","name":"","type":"uint256"}],"name":"hasAttendanceForDay","outputs":[{"internalType":"bool","name":"","type":"bool"}],"stateMutability":"view","type":"function"},{"inputs":[{"internalType":"address","name":"_employee","type":"address"},{"internalType":"address","name":"_employer","type":"address"},{"internalType":"uint256","name":"_day","type":"uint256"}],"name":"hasEmployeeAttendedDay","outputs":[{"internalType":"bool","name":"","type":"bool"}],"stateMutability":"view","type":"function"},{"inputs":[{"internalType":"bytes32","name":"_codeHash","type":"bytes32"}],"name":"isCodeValid","outputs":[{"internalType":"bool","name":"","type":"bool"}],"stateMutability":"view","type":"function"},{"inputs":[{"internalType":"address","name":"_salaryContract","type":"address"},{"internalType":"bytes32","name":"_codeHash","type":"bytes32"},{"internalType":"uint256","name":"_day","type":"uint256"}],"name":"verifyAndMarkAttendance","outputs":[{"internalType":"bool","name":"","type":"bool"}],"stateMutability":"nonpayable","type":"function"}],"evm":{"bytecode":{"linkReferences":{},"object":"6080806040523461001657610f6a908161001c8239f35b600080fdfe608060408181526004918236101561001657600080fd5b600090813560e01c90816323ec70e114610c69575080633cbfedff146108845780634c7f52b41461083d57806353a85125146105fa57806364785689146107915780636ea77fae1461075057806388a0617f146106fa5780639926a6ab1461063e5780639931fca3146105fa5780639df01831146105d7578063a01b94fd14610558578063c5ff49d6146105365763ffb71c1a146100b357600080fd5b34610533576080366003190112610533576100cc610d5f565b6001600160a01b0392602480359391928585169283860361053357866044359286519063ae200e7960e01b8252818b8160209c8d94165afa9081156105295790829184916104fc575b501633036104bc578482528888528582203383528852858220838352885260ff868320541661046f57338252600188528582208383528852858220548015159788610371575b87518a8101913360601b83526bffffffffffffffffffffffff199060601b16603482015285604882015242606882015244608882015260643560a882015260a881526101a681610ddd565b51902097888452838a5287842054610313576201518042019586421161030257508960058a809c9d888b8d9e9d98849a986102a4986102e9575b508c8a51976101ee89610ddd565b8689528089019182528b890191600183528b60608b019233845260808c0196875260a08c0197885260c08c0199828b528252528c8c2099518a555160018a015561024b60028a0192511515839060ff801983541691151516179055565b51815490610100600160a81b039060081b1690610100600160a81b031916179055600387019151166bffffffffffffffffffffffff60a01b825416179055519084015551151591019060ff801983541691151516179055565b33815260018a528181208482528a5220558451918252868201527fb0fb8ce86ee3fb97b9d175fc11fb2b9d8fe11ad1be18947c761d6c1c66e3ccf7843392a451908152f35b8952888752898920600201805460ff19169055386101e0565b634e487b7160e01b855260118c5284fd5b875162461bcd60e51b8152808c018b90526033818801527f436f6465206861736820636f6c6c6973696f6e2c2074727920616761696e207760448201527269746820646966666572656e74206e6f6e636560681b6064820152608490fd5b818452838a5289888c898288209160ff600585519461038f86610ddd565b80548652600181015480988701528a60028201548481161515809989015260081c1660608701528a6003820154169384608088015281015460a0870152015416159260c08415910152149182610467575b508161045f575b506103f3575b5061015b565b42111561040057386103ed565b875162461bcd60e51b8152808c018b90526034818801527f41637469766520636f646520616c72656164792065786973747320666f72207460448201527368697320656d706c6f79656520616e642064617960601b6064820152608490fd5b9050386103e7565b9150386103e0565b855162461bcd60e51b8152808a018990526022818601527f456d706c6f79656520616c726561647920617474656e64656420746869732064604482015261617960f01b6064820152608490fd5b6064898986818a519362461bcd60e51b85528401528201527f4f6e6c7920656d706c6f7965722063616e2067656e657261746520636f6465736044820152fd5b61051c91508a3d8c11610522575b6105148183610e0f565b810190610e31565b38610115565b503d61050a565b87513d85823e3d90fd5b80fd5b50903461055457816003193601126105545760209051620151808152f35b5080fd5b509190346105d35760203660031901126105d3578060e093833581528060205220805492600182015492600283015460018060a01b039160ff6005846003880154169587015496015416958151978852602088015260ff821615159087015260081c166060850152608084015260a0830152151560c0820152f35b8280fd5b509034610554576020906105f36105ed36610d7a565b91610e50565b9051908152f35b5091346105d3578160209360ff9261061136610d7a565b6001600160a01b039283168552928852848420911683528652828220908252855220549151911615158152f35b509190346105d35760203660031901126105d357806020938335815280855220815161066981610ddd565b815480825260ff60056001850154948589860152600281015497838916151598898988015260018060a01b03809160081c166060880152600383015416608087015281015460a0860152015416159160c08315910152151593846106f2575b50836106ea575b50826106df575b50519015158152f35b4211159150386106d6565b9250386106cf565b9350386106c8565b509034610554578060031936011261055457610714610d5f565b6001600160a01b03168252600260205280822080546024359390841015610533575060209261074291610daf565b91905490519160031b1c8152f35b50903461055457806003193601126105545760209181906001600160a01b03610777610d5f565b168152600184528181206024358252845220549051908152f35b503461053357602090816003193601126105335782906001600160a01b036107b7610d5f565b16815260028352818120908251808584549182815201908194845286842090845b81811061082957505050816107ee910382610e0f565b83519485948186019282875251809352850193925b82811061081257505050500390f35b835185528695509381019392810192600101610803565b8254845292880192600192830192016107d8565b50903461055457806003193601126105545760209160ff9082906001600160a01b03610867610d5f565b168152600385528181206024358252855220541690519015158152f35b5090346105545760603660031901126105545761089f610d5f565b602492833591604480359285519763a0a1a7d760e01b89526020988981838160018060a01b038099165afa908115610c5f579085918491610c42575b50163303610bf75785825281895286822097885415610bc0576002890193845460ff811615610b8a5760058b0180549260ff8416610b485760019c8d8101544211610b1357338a60038301541603610ac657868b91015403610a9057338752858e528b8720600884901c8a1688528e528b87208a88528e528b87205460ff16610a3f575060ff199283168c1790558116855533845260028b5288842080549194939268010000000000000000831015610a2e5750916109a2828b948d809795018155610daf565b81549060031b908a821b91600019901b191617905533825260038c528282208883528c5282822084868254161790553382528b5281812086865460081c1682528b528181208782528b5220918254161790555460081c16918351918252858201527ff1f568d9365211ed9a4a4e05b0187d304a11620ac0abd042b212d39fc4de20d6833392a351908152f35b634e487b7160e01b85526041845284fd5b857f416c7265616479206d61726b656420617474656e64616e636520666f722074688f9260268f6084958a91519562461bcd60e51b87528601528401528201526569732064617960d01b6064820152fd5b8570086dec8ca40c8c2f240dad2e6dac2e8c6d607b1b8f9260118f6064958a91519562461bcd60e51b8752860152840152820152fd5b60848f7f436f6465206e6f742061737369676e656420746f207468697320656d706c6f798f60228a8c948893519562461bcd60e51b875286015284015282015261656560f01b6064820152fd5b60648f6f10dbd919481a185cc8195e1c1a5c995960821b8f60108a8c948893519562461bcd60e51b8752860152840152820152fd5b857f436f64652068617320616c7265616479206265656e20757365640000000000008f92601a8f6064958a91519562461bcd60e51b8752860152840152820152fd5b5060649350601271436f6465206973206e6f742061637469766560701b928c8b519562461bcd60e51b8752860152840152820152fd5b875162461bcd60e51b81529182018a90526013908201527210dbd91948191bd95cc81b9bdd08195e1a5cdd606a1b81840152606490fd5b865162461bcd60e51b81529081018990526021818901527f4f6e6c7920656d706c6f7965652063616e206d61726b20617474656e64616e6381840152606560f81b6064820152608490fd5b610c5991508b3d8d11610522576105148183610e0f565b386108db565b88513d85823e3d90fd5b8484849234610d5b576020366003190112610d5b578360e09460c083610c8f8695610ddd565b82815282602082015282858201528260608201528260808201528260a08201520152833581528060205220815191610cc683610ddd565b815493848452600183015491602085019283526002840154908086019060ff831615158252606087019160018060a01b039586809560081c16845260c060ff60058760038c0154169860808d01998a528b01549a60a08d019b8c52015416990198151589528251998a525160208a01525115159088015251166060860152511660808401525160a083015251151560c0820152f35b8380fd5b600435906001600160a01b0382168203610d7557565b600080fd5b6060906003190112610d75576001600160a01b03906004358281168103610d7557916024359081168103610d75579060443590565b8054821015610dc75760005260206000200190600090565b634e487b7160e01b600052603260045260246000fd5b60e0810190811067ffffffffffffffff821117610df957604052565b634e487b7160e01b600052604160045260246000fd5b90601f8019910116810190811067ffffffffffffffff821117610df957604052565b90816020910312610d7557516001600160a01b0381168103610d755790565b6001600160a01b03908116600090815260016020908152604080832095835294905292832054919082610e84575b50505090565b828452836020526040842060405190610e9c82610ddd565b805482526001810154928360208401526002820154948160ff871615159687604087015260081c16606085015260ff60058360038601541694856080880152600481015460a0880152015416159360c0851591015216149283610f2c575b5082610f24575b5081610f19575b50610f14578080610e7e565b905090565b905042111538610f08565b915038610f01565b925038610efa56fea2646970667358221220db1add57a1c8bd5844c8fae468f4586034942ce2f1c95ecbd3b9ff99430d5f8a64736f6c63430008130033","opcodes":"PUSH1 0x80 DUP1 PUSH1 0x40 MSTORE CALLVALUE PUSH2 0x16 JUMPI PUSH2 0xF6A SWAP1 DUP2 PUSH2 0x1C DUP3 CODECOPY RETURN JUMPDEST PUSH1 0x0 DUP1 REVERT INVALID PUSH1 0x80 PUSH1 0x40 DUP2 DUP2 MSTORE PUSH1 0x4 SWAP2 DUP3 CALLDATASIZE LT ISZERO PUSH2 0x16 JUMPI PUSH1 0x0 DUP1 REVERT JUMPDEST PUSH1 0x0 SWAP1 DUP2 CALLDATALOAD PUSH1 0xE0 SHR SWAP1 DUP2 PUSH4 0x23EC70E1 EQ PUSH2 0xC69 JUMPI POP DUP1 PUSH4 0x3CBFEDFF EQ PUSH2 0x884 JUMPI DUP1 PUSH4 0x4C7F52B4 EQ PUSH2 0x83D JUMPI DUP1 PUSH4 0x53A85125 EQ PUSH2 0x5FA JUMPI DUP1 PUSH4 0x64785689 EQ PUSH2 0x791 JUMPI DUP1 PUSH4 0x6EA77FAE EQ PUSH2 0x750 JUMPI DUP1 PUSH4 0x88A0617F EQ PUSH2 0x6FA JUMPI DUP1 PUSH4 0x9926A6AB EQ PUSH2 0x63E JUMPI DUP1 PUSH4 0x9931FCA3 EQ PUSH2 0x5FA JUMPI DUP1 PUSH4 0x9DF01831 EQ PUSH2 0x5D7 JUMPI DUP1 PUSH4 0xA01B94FD EQ PUSH2 0x558 JUMPI DUP1 PUSH4 0xC5FF49D6 EQ PUSH2 0x536 JUMPI PUSH4 0xFFB71C1A EQ PUSH2 0xB3 JUMPI PUSH1 0x0 DUP1 REVERT JUMPDEST CALLVALUE PUSH2 0x533 JUMPI PUSH1 0x80 CALLDATASIZE PUSH1 0x3 NOT ADD SLT PUSH2 0x533 JUMPI PUSH2 0xCC PUSH2 0xD5F JUMP JUMPDEST PUSH1 0x1 PUSH1 0x1 PUSH1 0xA0 SHL SUB SWAP3 PUSH1 0x24 DUP1 CALLDATALOAD SWAP4 SWAP2 SWAP3 DUP6 DUP6 AND SWAP3 DUP4 DUP7 SUB PUSH2 0x533 JUMPI DUP7 PUSH1 0x44 CALLDATALOAD SWAP3 DUP7 MLOAD SWAP1 PUSH4 0xAE200E79 PUSH1 0xE0 SHL DUP3 MSTORE DUP2 DUP12 DUP2 PUSH1 0x20 SWAP13 DUP14 SWAP5 AND GAS STATICCALL SWAP1 DUP2 ISZERO PUSH2 0x529 JUMPI SWAP1 DUP3 SWAP2 DUP5 SWAP2 PUSH2 0x4FC JUMPI JUMPDEST POP AND CALLER SUB PUSH2 0x4BC JUMPI DUP5 DUP3 MSTORE DUP9 DUP9 MSTORE DUP6 DUP3 KECCAK256 CALLER DUP4 MSTORE DUP9 MSTORE DUP6 DUP3 KECCAK256 DUP4 DUP4 MSTORE DUP9 MSTORE PUSH1 0xFF DUP7 DUP4 KECCAK256 SLOAD AND PUSH2 0x46F JUMPI CALLER DUP3 MSTORE PUSH1 0x1 DUP9 MSTORE DUP6 DUP3 KECCAK256 DUP4 DUP4 MSTORE DUP9 MSTORE DUP6 DUP3 KECCAK256 SLOAD DUP1 ISZERO ISZERO SWAP8 DUP9 PUSH2 0x371 JUMPI JUMPDEST DUP8 MLOAD DUP11 DUP2 ADD SWAP2 CALLER PUSH1 0x60 SHL DUP4 MSTORE PUSH12 0xFFFFFFFFFFFFFFFFFFFFFFFF NOT SWAP1 PUSH1 0x60 SHL AND PUSH1 0x34 DUP3 ADD MSTORE DUP6 PUSH1 0x48 DUP3 ADD MSTORE TIMESTAMP PUSH1 0x68 DUP3 ADD MSTORE PREVRANDAO PUSH1 0x88 DUP3 ADD MSTORE PUSH1 0x64 CALLDATALOAD PUSH1 0xA8 DUP3 ADD MSTORE PUSH1 0xA8 DUP2 MSTORE PUSH2 0x1A6 DUP2 PUSH2 0xDDD JUMP JUMPDEST MLOAD SWAP1 KECCAK256 SWAP8 DUP9 DUP5 MSTORE DUP4 DUP11 MSTORE DUP8 DUP5 KECCAK256 SLOAD PUSH2 0x313 JUMPI PUSH3 0x15180 TIMESTAMP ADD SWAP6 DUP7 TIMESTAMP GT PUSH2 0x302 JUMPI POP DUP10 PUSH1 0x5 DUP11 DUP1 SWAP13 SWAP14 DUP9 DUP12 DUP14 SWAP15 SWAP14 SWAP9 DUP5 SWAP11 SWAP9 PUSH2 0x2A4 SWAP9 PUSH2 0x2E9 JUMPI JUMPDEST POP DUP13 DUP11 MLOAD SWAP8 PUSH2 0x1EE DUP10 PUSH2 0xDDD JUMP JUMPDEST DUP7 DUP10 MSTORE DUP1 DUP10 ADD SWAP2 DUP3 MSTORE DUP12 DUP10 ADD SWAP2 PUSH1 0x1 DUP4 MSTORE DUP12 PUSH1 0x60 DUP12 ADD SWAP3 CALLER DUP5 MSTORE PUSH1 0x80 DUP13 ADD SWAP7 DUP8 MSTORE PUSH1 0xA0 DUP13 ADD SWAP8 DUP9 MSTORE PUSH1 0xC0 DUP13 ADD SWAP10 DUP3 DUP12 MSTORE DUP3 MSTORE MSTORE DUP13 DUP13 KECCAK256 SWAP10 MLOAD DUP11 SSTORE MLOAD PUSH1 0x1 DUP11 ADD SSTORE PUSH2 0x24B PUSH1 0x2 DUP11 ADD SWAP3 MLOAD ISZERO ISZERO DUP4 SWAP1 PUSH1 0xFF DUP1 NOT DUP4 SLOAD AND SWAP2 ISZERO ISZERO AND OR SWAP1 SSTORE JUMP JUMPDEST MLOAD DUP2 SLOAD SWAP1 PUSH2 0x100 PUSH1 0x1 PUSH1 0xA8 SHL SUB SWAP1 PUSH1 0x8 SHL AND SWAP1 PUSH2 0x100 PUSH1 0x1 PUSH1 0xA8 SHL SUB NOT AND OR SWAP1 SSTORE PUSH1 0x3 DUP8 ADD SWAP2 MLOAD AND PUSH12 0xFFFFFFFFFFFFFFFFFFFFFFFF PUSH1 0xA0 SHL DUP3 SLOAD AND OR SWAP1 SSTORE MLOAD SWAP1 DUP5 ADD SSTORE MLOAD ISZERO ISZERO SWAP2 ADD SWAP1 PUSH1 0xFF DUP1 NOT DUP4 SLOAD AND SWAP2 ISZERO ISZERO AND OR SWAP1 SSTORE JUMP JUMPDEST CALLER DUP2 MSTORE PUSH1 0x1 DUP11 MSTORE DUP2 DUP2 KECCAK256 DUP5 DUP3 MSTORE DUP11 MSTORE KECCAK256 SSTORE DUP5 MLOAD SWAP2 DUP3 MSTORE DUP7 DUP3 ADD MSTORE PUSH32 0xB0FB8CE86EE3FB97B9D175FC11FB2B9D8FE11AD1BE18947C761D6C1C66E3CCF7 DUP5 CALLER SWAP3 LOG4 MLOAD SWAP1 DUP2 MSTORE RETURN JUMPDEST DUP10 MSTORE DUP9 DUP8 MSTORE DUP10 DUP10 KECCAK256 PUSH1 0x2 ADD DUP1 SLOAD PUSH1 0xFF NOT AND SWAP1 SSTORE CODESIZE PUSH2 0x1E0 JUMP JUMPDEST PUSH4 0x4E487B71 PUSH1 0xE0 SHL DUP6 MSTORE PUSH1 0x11 DUP13 MSTORE DUP5 REVERT JUMPDEST DUP8 MLOAD PUSH3 0x461BCD PUSH1 0xE5 SHL DUP2 MSTORE DUP1 DUP13 ADD DUP12 SWAP1 MSTORE PUSH1 0x33 DUP2 DUP9 ADD MSTORE PUSH32 0x436F6465206861736820636F6C6C6973696F6E2C2074727920616761696E2077 PUSH1 0x44 DUP3 ADD MSTORE PUSH19 0x69746820646966666572656E74206E6F6E6365 PUSH1 0x68 SHL PUSH1 0x64 DUP3 ADD MSTORE PUSH1 0x84 SWAP1 REVERT JUMPDEST DUP2 DUP5 MSTORE DUP4 DUP11 MSTORE DUP10 DUP9 DUP13 DUP10 DUP3 DUP9 KECCAK256 SWAP2 PUSH1 0xFF PUSH1 0x5 DUP6 MLOAD SWAP5 PUSH2 0x38F DUP7 PUSH2 0xDDD JUMP JUMPDEST DUP1 SLOAD DUP7 MSTORE PUSH1 0x1 DUP2 ADD SLOAD DUP1 SWAP9 DUP8 ADD MSTORE DUP11 PUSH1 0x2 DUP3 ADD SLOAD DUP5 DUP2 AND ISZERO ISZERO DUP1 SWAP10 DUP10 ADD MSTORE PUSH1 0x8 SHR AND PUSH1 0x60 DUP8 ADD MSTORE DUP11 PUSH1 0x3 DUP3 ADD SLOAD AND SWAP4 DUP5 PUSH1 0x80 DUP9 ADD MSTORE DUP2 ADD SLOAD PUSH1 0xA0 DUP8 ADD MSTORE ADD SLOAD AND ISZERO SWAP3 PUSH1 0xC0 DUP5 ISZERO SWAP2 ADD MSTORE EQ SWAP2 DUP3 PUSH2 0x467 JUMPI JUMPDEST POP DUP2 PUSH2 0x45F JUMPI JUMPDEST POP PUSH2 0x3F3 JUMPI JUMPDEST POP PUSH2 0x15B JUMP JUMPDEST TIMESTAMP GT ISZERO PUSH2 0x400 JUMPI CODESIZE PUSH2 0x3ED JUMP JUMPDEST DUP8 MLOAD PUSH3 0x461BCD PUSH1 0xE5 SHL DUP2 MSTORE DUP1 DUP13 ADD DUP12 SWAP1 MSTORE PUSH1 0x34 DUP2 DUP9 ADD MSTORE PUSH32 0x41637469766520636F646520616C72656164792065786973747320666F722074 PUSH1 0x44 DUP3 ADD MSTORE PUSH20 0x68697320656D706C6F79656520616E6420646179 PUSH1 0x60 SHL PUSH1 0x64 DUP3 ADD MSTORE PUSH1 0x84 SWAP1 REVERT JUMPDEST SWAP1 POP CODESIZE PUSH2 0x3E7 JUMP JUMPDEST SWAP2 POP CODESIZE PUSH2 0x3E0 JUMP JUMPDEST DUP6 MLOAD PUSH3 0x461BCD PUSH1 0xE5 SHL DUP2 MSTORE DUP1 DUP11 ADD DUP10 SWAP1 MSTORE PUSH1 0x22 DUP2 DUP7 ADD MSTORE PUSH32 0x456D706C6F79656520616C726561647920617474656E64656420746869732064 PUSH1 0x44 DUP3 ADD MSTORE PUSH2 0x6179 PUSH1 0xF0 SHL PUSH1 0x64 DUP3 ADD MSTORE PUSH1 0x84 SWAP1 REVERT JUMPDEST PUSH1 0x64 DUP10 DUP10 DUP7 DUP2 DUP11 MLOAD SWAP4 PUSH3 0x461BCD PUSH1 0xE5 SHL DUP6 MSTORE DUP5 ADD MSTORE DUP3 ADD MSTORE PUSH32 0x4F6E6C7920656D706C6F7965722063616E2067656E657261746520636F646573 PUSH1 0x44 DUP3 ADD MSTORE REVERT JUMPDEST PUSH2 0x51C SWAP2 POP DUP11 RETURNDATASIZE DUP13 GT PUSH2 0x522 JUMPI JUMPDEST PUSH2 0x514 DUP2 DUP4 PUSH2 0xE0F JUMP JUMPDEST DUP2 ADD SWAP1 PUSH2 0xE31 JUMP JUMPDEST CODESIZE PUSH2 0x115 JUMP JUMPDEST POP RETURNDATASIZE PUSH2 0x50A JUMP JUMPDEST DUP8 MLOAD RETURNDATASIZE DUP6 DUP3 RETURNDATACOPY RETURNDATASIZE SWAP1 REVERT JUMPDEST DUP1 REVERT JUMPDEST POP SWAP1 CALLVALUE PUSH2 0x554 JUMPI DUP2 PUSH1 0x3 NOT CALLDATASIZE ADD SLT PUSH2 0x554 JUMPI PUSH1 0x20 SWAP1 MLOAD PUSH3 0x15180 DUP2 MSTORE RETURN JUMPDEST POP DUP1 REVERT JUMPDEST POP SWAP2 SWAP1 CALLVALUE PUSH2 0x5D3 JUMPI PUSH1 0x20 CALLDATASIZE PUSH1 0x3 NOT ADD SLT PUSH2 0x5D3 JUMPI DUP1 PUSH1 0xE0 SWAP4 DUP4 CALLDATALOAD DUP2 MSTORE DUP1 PUSH1 0x20 MSTORE KECCAK256 DUP1 SLOAD SWAP3 PUSH1 0x1 DUP3 ADD SLOAD SWAP3 PUSH1 0x2 DUP4 ADD SLOAD PUSH1 0x1 DUP1 PUSH1 0xA0 SHL SUB SWAP2 PUSH1 0xFF PUSH1 0x5 DUP5 PUSH1 0x3 DUP9 ADD SLOAD AND SWAP6 DUP8 ADD SLOAD SWAP7 ADD SLOAD AND SWAP6 DUP2 MLOAD SWAP8 DUP9 MSTORE PUSH1 0x20 DUP9 ADD MSTORE PUSH1 0xFF DUP3 AND ISZERO ISZERO SWAP1 DUP8 ADD MSTORE PUSH1 0x8 SHR AND PUSH1 0x60 DUP6 ADD MSTORE PUSH1 0x80 DUP5 ADD MSTORE PUSH1 0xA0 DUP4 ADD MSTORE ISZERO ISZERO PUSH1 0xC0 DUP3 ADD MSTORE RETURN JUMPDEST DUP3 DUP1 REVERT JUMPDEST POP SWAP1 CALLVALUE PUSH2 0x554 JUMPI PUSH1 0x20 SWAP1 PUSH2 0x5F3 PUSH2 0x5ED CALLDATASIZE PUSH2 0xD7A JUMP JUMPDEST SWAP2 PUSH2 0xE50 JUMP JUMPDEST SWAP1 MLOAD SWAP1 DUP2 MSTORE RETURN JUMPDEST POP SWAP2 CALLVALUE PUSH2 0x5D3 JUMPI DUP2 PUSH1 0x20 SWAP4 PUSH1 0xFF SWAP3 PUSH2 0x611 CALLDATASIZE PUSH2 0xD7A JUMP JUMPDEST PUSH1 0x1 PUSH1 0x1 PUSH1 0xA0 SHL SUB SWAP3 DUP4 AND DUP6 MSTORE SWAP3 DUP9 MSTORE DUP5 DUP5 KECCAK256 SWAP2 AND DUP4 MSTORE DUP7 MSTORE DUP3 DUP3 KECCAK256 SWAP1 DUP3 MSTORE DUP6 MSTORE KECCAK256 SLOAD SWAP2 MLOAD SWAP2 AND ISZERO ISZERO DUP2 MSTORE RETURN JUMPDEST POP SWAP2 SWAP1 CALLVALUE PUSH2 0x5D3 JUMPI PUSH1 0x20 CALLDATASIZE PUSH1 0x3 NOT ADD SLT PUSH2 0x5D3 JUMPI DUP1 PUSH1 0x20 SWAP4 DUP4 CALLDATALOAD DUP2 MSTORE DUP1 DUP6 MSTORE KECCAK256 DUP2 MLOAD PUSH2 0x669 DUP2 PUSH2 0xDDD JUMP JUMPDEST DUP2 SLOAD DUP1 DUP3 MSTORE PUSH1 0xFF PUSH1 0x5 PUSH1 0x1 DUP6 ADD SLOAD SWAP5 DUP6 DUP10 DUP7 ADD MSTORE PUSH1 0x2 DUP2 ADD SLOAD SWAP8 DUP4 DUP10 AND ISZERO ISZERO SWAP9 DUP10 DUP10 DUP9 ADD MSTORE PUSH1 0x1 DUP1 PUSH1 0xA0 SHL SUB DUP1 SWAP2 PUSH1 0x8 SHR AND PUSH1 0x60 DUP9 ADD MSTORE PUSH1 0x3 DUP4 ADD SLOAD AND PUSH1 0x80 DUP8 ADD MSTORE DUP2 ADD SLOAD PUSH1 0xA0 DUP7 ADD MSTORE ADD SLOAD AND ISZERO SWAP2 PUSH1 0xC0 DUP4 ISZERO SWAP2 ADD MSTORE ISZERO ISZERO SWAP4 DUP5 PUSH2 0x6F2 JUMPI JUMPDEST POP DUP4 PUSH2 0x6EA JUMPI JUMPDEST POP DUP3 PUSH2 0x6DF JUMPI JUMPDEST POP MLOAD SWAP1 ISZERO ISZERO DUP2 MSTORE RETURN JUMPDEST TIMESTAMP GT ISZERO SWAP2 POP CODESIZE PUSH2 0x6D6 JUMP JUMPDEST SWAP3 POP CODESIZE PUSH2 0x6CF JUMP JUMPDEST SWAP4 POP CODESIZE PUSH2 0x6C8 JUMP JUMPDEST POP SWAP1 CALLVALUE PUSH2 0x554 JUMPI DUP1 PUSH1 0x3 NOT CALLDATASIZE ADD SLT PUSH2 0x554 JUMPI PUSH2 0x714 PUSH2 0xD5F JUMP JUMPDEST PUSH1 0x1 PUSH1 0x1 PUSH1 0xA0 SHL SUB AND DUP3 MSTORE PUSH1 0x2 PUSH1 0x20 MSTORE DUP1 DUP3 KECCAK256 DUP1 SLOAD PUSH1 0x24 CALLDATALOAD SWAP4 SWAP1 DUP5 LT ISZERO PUSH2 0x533 JUMPI POP PUSH1 0x20 SWAP3 PUSH2 0x742 SWAP2 PUSH2 0xDAF JUMP JUMPDEST SWAP2 SWAP1 SLOAD SWAP1 MLOAD SWAP2 PUSH1 0x3 SHL SHR DUP2 MSTORE RETURN JUMPDEST POP SWAP1 CALLVALUE PUSH2 0x554 JUMPI DUP1 PUSH1 0x3 NOT CALLDATASIZE ADD SLT PUSH2 0x554 JUMPI PUSH1 0x20 SWAP2 DUP2 SWAP1 PUSH1 0x1 PUSH1 0x1 PUSH1 0xA0 SHL SUB PUSH2 0x777 PUSH2 0xD5F JUMP JUMPDEST AND DUP2 MSTORE PUSH1 0x1 DUP5 MSTORE DUP2 DUP2 KECCAK256 PUSH1 0x24 CALLDATALOAD DUP3 MSTORE DUP5 MSTORE KECCAK256 SLOAD SWAP1 MLOAD SWAP1 DUP2 MSTORE RETURN JUMPDEST POP CALLVALUE PUSH2 0x533 JUMPI PUSH1 0x20 SWAP1 DUP2 PUSH1 0x3 NOT CALLDATASIZE ADD SLT PUSH2 0x533 JUMPI DUP3 SWAP1 PUSH1 0x1 PUSH1 0x1 PUSH1 0xA0 SHL SUB PUSH2 0x7B7 PUSH2 0xD5F JUMP JUMPDEST AND DUP2 MSTORE PUSH1 0x2 DUP4 MSTORE DUP2 DUP2 KECCAK256 SWAP1 DUP3 MLOAD DUP1 DUP6 DUP5 SLOAD SWAP2 DUP3 DUP2 MSTORE ADD SWAP1 DUP2 SWAP5 DUP5 MSTORE DUP7 DUP5 KECCAK256 SWAP1 DUP5 JUMPDEST DUP2 DUP2 LT PUSH2 0x829 JUMPI POP POP POP DUP2 PUSH2 0x7EE SWAP2 SUB DUP3 PUSH2 0xE0F JUMP JUMPDEST DUP4 MLOAD SWAP5 DUP6 SWAP5 DUP2 DUP7 ADD SWAP3 DUP3 DUP8 MSTORE MLOAD DUP1 SWAP4 MSTORE DUP6 ADD SWAP4 SWAP3 JUMPDEST DUP3 DUP2 LT PUSH2 0x812 JUMPI POP POP POP POP SUB SWAP1 RETURN JUMPDEST DUP4 MLOAD DUP6 MSTORE DUP7 SWAP6 POP SWAP4 DUP2 ADD SWAP4 SWAP3 DUP2 ADD SWAP3 PUSH1 0x1 ADD PUSH2 0x803 JUMP JUMPDEST DUP3 SLOAD DUP5 MSTORE SWAP3 DUP9 ADD SWAP3 PUSH1 0x1 SWAP3 DUP4 ADD SWAP3 ADD PUSH2 0x7D8 JUMP JUMPDEST POP SWAP1 CALLVALUE PUSH2 0x554 JUMPI DUP1 PUSH1 0x3 NOT CALLDATASIZE ADD SLT PUSH2 0x554 JUMPI PUSH1 0x20 SWAP2 PUSH1 0xFF SWAP1 DUP3 SWAP1 PUSH1 0x1 PUSH1 0x1 PUSH1 0xA0 SHL SUB PUSH2 0x867 PUSH2 0xD5F JUMP JUMPDEST AND DUP2 MSTORE PUSH1 0x3 DUP6 MSTORE DUP2 DUP2 KECCAK256 PUSH1 0x24 CALLDATALOAD DUP3 MSTORE DUP6 MSTORE KECCAK256 SLOAD AND SWAP1 MLOAD SWAP1 ISZERO ISZERO DUP2 MSTORE RETURN JUMPDEST POP SWAP1 CALLVALUE PUSH2 0x554 JUMPI PUSH1 0x60 CALLDATASIZE PUSH1 0x3 NOT ADD SLT PUSH2 0x554 JUMPI PUSH2 0x89F PUSH2 0xD5F JUMP JUMPDEST PUSH1 0x24 SWAP3 DUP4 CALLDATALOAD SWAP2 PUSH1 0x44 DUP1 CALLDATALOAD SWAP3 DUP6 MLOAD SWAP8 PUSH4 0xA0A1A7D7 PUSH1 0xE0 SHL DUP10 MSTORE PUSH1 0x20 SWAP9 DUP10 DUP2 DUP4 DUP2 PUSH1 0x1 DUP1 PUSH1 0xA0 SHL SUB DUP1 SWAP10 AND GAS STATICCALL SWAP1 DUP2 ISZERO PUSH2 0xC5F JUMPI SWAP1 DUP6 SWAP2 DUP5 SWAP2 PUSH2 0xC42 JUMPI JUMPDEST POP AND CALLER SUB PUSH2 0xBF7 JUMPI DUP6 DUP3 MSTORE DUP2 DUP10 MSTORE DUP7 DUP3 KECCAK256 SWAP8 DUP9 SLOAD ISZERO PUSH2 0xBC0 JUMPI PUSH1 0x2 DUP10 ADD SWAP4 DUP5 SLOAD PUSH1 0xFF DUP2 AND ISZERO PUSH2 0xB8A JUMPI PUSH1 0x5 DUP12 ADD DUP1 SLOAD SWAP3 PUSH1 0xFF DUP5 AND PUSH2 0xB48 JUMPI PUSH1 0x1 SWAP13 DUP14 DUP2 ADD SLOAD TIMESTAMP GT PUSH2 0xB13 JUMPI CALLER DUP11 PUSH1 0x3 DUP4 ADD SLOAD AND SUB PUSH2 0xAC6 JUMPI DUP7 DUP12 SWAP2 ADD SLOAD SUB PUSH2 0xA90 JUMPI CALLER DUP8 MSTORE DUP6 DUP15 MSTORE DUP12 DUP8 KECCAK256 PUSH1 0x8 DUP5 SWAP1 SHR DUP11 AND DUP9 MSTORE DUP15 MSTORE DUP12 DUP8 KECCAK256 DUP11 DUP9 MSTORE DUP15 MSTORE DUP12 DUP8 KECCAK256 SLOAD PUSH1 0xFF AND PUSH2 0xA3F JUMPI POP PUSH1 0xFF NOT SWAP3 DUP4 AND DUP13 OR SWAP1 SSTORE DUP2 AND DUP6 SSTORE CALLER DUP5 MSTORE PUSH1 0x2 DUP12 MSTORE DUP9 DUP5 KECCAK256 DUP1 SLOAD SWAP2 SWAP5 SWAP4 SWAP3 PUSH9 0x10000000000000000 DUP4 LT ISZERO PUSH2 0xA2E JUMPI POP SWAP2 PUSH2 0x9A2 DUP3 DUP12 SWAP5 DUP14 DUP1 SWAP8 SWAP6 ADD DUP2 SSTORE PUSH2 0xDAF JUMP JUMPDEST DUP2 SLOAD SWAP1 PUSH1 0x3 SHL SWAP1 DUP11 DUP3 SHL SWAP2 PUSH1 0x0 NOT SWAP1 SHL NOT AND OR SWAP1 SSTORE CALLER DUP3 MSTORE PUSH1 0x3 DUP13 MSTORE DUP3 DUP3 KECCAK256 DUP9 DUP4 MSTORE DUP13 MSTORE DUP3 DUP3 KECCAK256 DUP5 DUP7 DUP3 SLOAD AND OR SWAP1 SSTORE CALLER DUP3 MSTORE DUP12 MSTORE DUP2 DUP2 KECCAK256 DUP7 DUP7 SLOAD PUSH1 0x8 SHR AND DUP3 MSTORE DUP12 MSTORE DUP2 DUP2 KECCAK256 DUP8 DUP3 MSTORE DUP12 MSTORE KECCAK256 SWAP2 DUP3 SLOAD AND OR SWAP1 SSTORE SLOAD PUSH1 0x8 SHR AND SWAP2 DUP4 MLOAD SWAP2 DUP3 MSTORE DUP6 DUP3 ADD MSTORE PUSH32 0xF1F568D9365211ED9A4A4E05B0187D304A11620AC0ABD042B212D39FC4DE20D6 DUP4 CALLER SWAP3 LOG3 MLOAD SWAP1 DUP2 MSTORE RETURN JUMPDEST PUSH4 0x4E487B71 PUSH1 0xE0 SHL DUP6 MSTORE PUSH1 0x41 DUP5 MSTORE DUP5 REVERT JUMPDEST DUP6 PUSH32 0x416C7265616479206D61726B656420617474656E64616E636520666F72207468 DUP16 SWAP3 PUSH1 0x26 DUP16 PUSH1 0x84 SWAP6 DUP11 SWAP2 MLOAD SWAP6 PUSH3 0x461BCD PUSH1 0xE5 SHL DUP8 MSTORE DUP7 ADD MSTORE DUP5 ADD MSTORE DUP3 ADD MSTORE PUSH6 0x697320646179 PUSH1 0xD0 SHL PUSH1 0x64 DUP3 ADD MSTORE REVERT JUMPDEST DUP6 PUSH17 0x86DEC8CA40C8C2F240DAD2E6DAC2E8C6D PUSH1 0x7B SHL DUP16 SWAP3 PUSH1 0x11 DUP16 PUSH1 0x64 SWAP6 DUP11 SWAP2 MLOAD SWAP6 PUSH3 0x461BCD PUSH1 0xE5 SHL DUP8 MSTORE DUP7 ADD MSTORE DUP5 ADD MSTORE DUP3 ADD MSTORE REVERT JUMPDEST PUSH1 0x84 DUP16 PUSH32 0x436F6465206E6F742061737369676E656420746F207468697320656D706C6F79 DUP16 PUSH1 0x22 DUP11 DUP13 SWAP5 DUP9 SWAP4 MLOAD SWAP6 PUSH3 0x461BCD PUSH1 0xE5 SHL DUP8 MSTORE DUP7 ADD MSTORE DUP5 ADD MSTORE DUP3 ADD MSTORE PUSH2 0x6565 PUSH1 0xF0 SHL PUSH1 0x64 DUP3 ADD MSTORE REVERT JUMPDEST PUSH1 0x64 DUP16 PUSH16 0x10DBD919481A185CC8195E1C1A5C9959 PUSH1 0x82 SHL DUP16 PUSH1 0x10 DUP11 DUP13 SWAP5 DUP9 SWAP4 MLOAD SWAP6 PUSH3 0x461BCD PUSH1 0xE5 SHL DUP8 MSTORE DUP7 ADD MSTORE DUP5 ADD MSTORE DUP3 ADD MSTORE REVERT JUMPDEST DUP6 PUSH32 0x436F64652068617320616C7265616479206265656E2075736564000000000000 DUP16 SWAP3 PUSH1 0x1A DUP16 PUSH1 0x64 SWAP6 DUP11 SWAP2 MLOAD SWAP6 PUSH3 0x461BCD PUSH1 0xE5 SHL DUP8 MSTORE DUP7 ADD MSTORE DUP5 ADD MSTORE DUP3 ADD MSTORE REVERT JUMPDEST POP PUSH1 0x64 SWAP4 POP PUSH1 0x12 PUSH18 0x436F6465206973206E6F7420616374697665 PUSH1 0x70 SHL SWAP3 DUP13 DUP12 MLOAD SWAP6 PUSH3 0x461BCD PUSH1 0xE5 SHL DUP8 MSTORE DUP7 ADD MSTORE DUP5 ADD MSTORE DUP3 ADD MSTORE REVERT JUMPDEST DUP8 MLOAD PUSH3 0x461BCD PUSH1 0xE5 SHL DUP2 MSTORE SWAP2 DUP3 ADD DUP11 SWAP1 MSTORE PUSH1 0x13 SWAP1 DUP3 ADD MSTORE PUSH19 0x10DBD91948191BD95CC81B9BDD08195E1A5CDD PUSH1 0x6A SHL DUP2 DUP5 ADD MSTORE PUSH1 0x64 SWAP1 REVERT JUMPDEST DUP7 MLOAD PUSH3 0x461BCD PUSH1 0xE5 SHL DUP2 MSTORE SWAP1 DUP2 ADD DUP10 SWAP1 MSTORE PUSH1 0x21 DUP2 DUP10 ADD MSTORE PUSH32 0x4F6E6C7920656D706C6F7965652063616E206D61726B20617474656E64616E63 DUP2 DUP5 ADD MSTORE PUSH1 0x65 PUSH1 0xF8 SHL PUSH1 0x64 DUP3 ADD MSTORE PUSH1 0x84 SWAP1 REVERT JUMPDEST PUSH2 0xC59 SWAP2 POP DUP12 RETURNDATASIZE DUP14 GT PUSH2 0x522 JUMPI PUSH2 0x514 DUP2 DUP4 PUSH2 0xE0F JUMP JUMPDEST CODESIZE PUSH2 0x8DB JUMP JUMPDEST DUP9 MLOAD RETURNDATASIZE DUP6 DUP3 RETURNDATACOPY RETURNDATASIZE SWAP1 REVERT JUMPDEST DUP5 DUP5 DUP5 SWAP3 CALLVALUE PUSH2 0xD5B JUMPI PUSH1 0x20 CALLDATASIZE PUSH1 0x3 NOT ADD SLT PUSH2 0xD5B JUMPI DUP4 PUSH1 0xE0 SWAP5 PUSH1 0xC0 DUP4 PUSH2 0xC8F DUP7 SWAP6 PUSH2 0xDDD JUMP JUMPDEST DUP3 DUP2 MSTORE DUP3 PUSH1 0x20 DUP3 ADD MSTORE DUP3 DUP6 DUP3 ADD MSTORE DUP3 PUSH1 0x60 DUP3 ADD MSTORE DUP3 PUSH1 0x80 DUP3 ADD MSTORE DUP3 PUSH1 0xA0 DUP3 ADD MSTORE ADD MSTORE DUP4 CALLDATALOAD DUP2 MSTORE DUP1 PUSH1 0x20 MSTORE KECCAK256 DUP2 MLOAD SWAP2 PUSH2 0xCC6 DUP4 PUSH2 0xDDD JUMP JUMPDEST DUP2 SLOAD SWAP4 DUP5 DUP5 MSTORE PUSH1 0x1 DUP4 ADD SLOAD SWAP2 PUSH1 0x20 DUP6 ADD SWAP3 DUP4 MSTORE PUSH1 0x2 DUP5 ADD SLOAD SWAP1 DUP1 DUP7 ADD SWAP1 PUSH1 0xFF DUP4 AND ISZERO ISZERO DUP3 MSTORE PUSH1 0x60 DUP8 ADD SWAP2 PUSH1 0x1 DUP1 PUSH1 0xA0 SHL SUB SWAP6 DUP7 DUP1 SWAP6 PUSH1 0x8 SHR AND DUP5 MSTORE PUSH1 0xC0 PUSH1 0xFF PUSH1 0x5 DUP8 PUSH1 0x3 DUP13 ADD SLOAD AND SWAP9 PUSH1 0x80 DUP14 ADD SWAP10 DUP11 MSTORE DUP12 ADD SLOAD SWAP11 PUSH1 0xA0 DUP14 ADD SWAP12 DUP13 MSTORE ADD SLOAD AND SWAP10 ADD SWAP9 ISZERO ISZERO DUP10 MSTORE DUP3 MLOAD SWAP10 DUP11 MSTORE MLOAD PUSH1 0x20 DUP11 ADD MSTORE MLOAD ISZERO ISZERO SWAP1 DUP9 ADD MSTORE MLOAD AND PUSH1 0x60 DUP7 ADD MSTORE MLOAD AND PUSH1 0x80 DUP5 ADD MSTORE MLOAD PUSH1 0xA0 DUP4 ADD MSTORE MLOAD ISZERO ISZERO PUSH1 0xC0 DUP3 ADD MSTORE RETURN JUMPDEST DUP4 DUP1 REVERT JUMPDEST PUSH1 0x4 CALLDATALOAD SWAP1 PUSH1 0x1 PUSH1 0x1 PUSH1 0xA0 SHL SUB DUP3 AND DUP3 SUB PUSH2 0xD75 JUMPI JUMP JUMPDEST PUSH1 0x0 DUP1 REVERT JUMPDEST PUSH1 0x60 SWAP1 PUSH1 0x3 NOT ADD SLT PUSH2 0xD75 JUMPI PUSH1 0x1 PUSH1 0x1 PUSH1 0xA0 SHL SUB SWAP1 PUSH1 0x4 CALLDATALOAD DUP3 DUP2 AND DUP2 SUB PUSH2 0xD75 JUMPI SWAP2 PUSH1 0x24 CALLDATALOAD SWAP1 DUP2 AND DUP2 SUB PUSH2 0xD75 JUMPI SWAP1 PUSH1 0x44 CALLDATALOAD SWAP1 JUMP JUMPDEST DUP1 SLOAD DUP3 LT ISZERO PUSH2 0xDC7 JUMPI PUSH1 0x0 MSTORE PUSH1 0x20 PUSH1 0x0 KECCAK256 ADD SWAP1 PUSH1 0x0 SWAP1 JUMP JUMPDEST PUSH4 0x4E487B71 PUSH1 0xE0 SHL PUSH1 0x0 MSTORE PUSH1 0x32 PUSH1 0x4 MSTORE PUSH1 0x24 PUSH1 0x0 REVERT JUMPDEST PUSH1 0xE0 DUP2 ADD SWAP1 DUP2 LT PUSH8 0xFFFFFFFFFFFFFFFF DUP3 GT OR PUSH2 0xDF9 JUMPI PUSH1 0x40 MSTORE JUMP JUMPDEST PUSH4 0x4E487B71 PUSH1 0xE0 SHL PUSH1 0x0 MSTORE PUSH1 0x41 PUSH1 0x4 MSTORE PUSH1 0x24 PUSH1 0x0 REVERT JUMPDEST SWAP1 PUSH1 0x1F DUP1 NOT SWAP2 ADD AND DUP2 ADD SWAP1 DUP2 LT PUSH8 0xFFFFFFFFFFFFFFFF DUP3 GT OR PUSH2 0xDF9 JUMPI PUSH1 0x40 MSTORE JUMP JUMPDEST SWAP1 DUP2 PUSH1 0x20 SWAP2 SUB SLT PUSH2 0xD75 JUMPI MLOAD PUSH1 0x1 PUSH1 0x1 PUSH1 0xA0 SHL SUB DUP2 AND DUP2 SUB PUSH2 0xD75 JUMPI SWAP1 JUMP JUMPDEST PUSH1 0x1 PUSH1 0x1 PUSH1 0xA0 SHL SUB SWAP1 DUP2 AND PUSH1 0x0 SWAP1 DUP2 MSTORE PUSH1 0x1 PUSH1 0x20 SWAP1 DUP2 MSTORE PUSH1 0x40 DUP1 DUP4 KECCAK256 SWAP6 DUP4 MSTORE SWAP5 SWAP1 MSTORE SWAP3 DUP4 KECCAK256 SLOAD SWAP2 SWAP1 DUP3 PUSH2 0xE84 JUMPI JUMPDEST POP POP POP SWAP1 JUMP JUMPDEST DUP3 DUP5 MSTORE DUP4 PUSH1 0x20 MSTORE PUSH1 0x40 DUP5 KECCAK256 PUSH1 0x40 MLOAD SWAP1 PUSH2 0xE9C DUP3 PUSH2 0xDDD JUMP JUMPDEST DUP1 SLOAD DUP3 MSTORE PUSH1 0x1 DUP2 ADD SLOAD SWAP3 DUP4 PUSH1 0x20 DUP5 ADD MSTORE PUSH1 0x2 DUP3 ADD SLOAD SWAP5 DUP2 PUSH1 0xFF DUP8 AND ISZERO ISZERO SWAP7 DUP8 PUSH1 0x40 DUP8 ADD MSTORE PUSH1 0x8 SHR AND PUSH1 0x60 DUP6 ADD MSTORE PUSH1 0xFF PUSH1 0x5 DUP4 PUSH1 0x3 DUP7 ADD SLOAD AND SWAP5 DUP6 PUSH1 0x80 DUP9 ADD MSTORE PUSH1 0x4 DUP2 ADD SLOAD PUSH1 0xA0 DUP9 ADD MSTORE ADD SLOAD AND ISZERO SWAP4 PUSH1 0xC0 DUP6 ISZERO SWAP2 ADD MSTORE AND EQ SWAP3 DUP4 PUSH2 0xF2C JUMPI JUMPDEST POP DUP3 PUSH2 0xF24 JUMPI JUMPDEST POP DUP2 PUSH2 0xF19 JUMPI JUMPDEST POP PUSH2 0xF14 JUMPI DUP1 DUP1 PUSH2 0xE7E JUMP JUMPDEST SWAP1 POP SWAP1 JUMP JUMPDEST SWAP1 POP TIMESTAMP GT ISZERO CODESIZE PUSH2 0xF08 JUMP JUMPDEST SWAP2 POP CODESIZE PUSH2 0xF01 JUMP JUMPDEST SWAP3 POP CODESIZE PUSH2 0xEFA JUMP INVALID LOG2 PUSH5 0x6970667358 0x22 SLT KECCAK256 0xDB BYTE 0xDD JUMPI LOG1 0xC8 0xBD PC PREVRANDAO 0xC8 STATICCALL 0xE4 PUSH9 0xF4586034942CE2F1C9 0x5E 0xCB 0xD3 0xB9 SELFDESTRUCT SWAP10 NUMBER 0xD 0x5F DUP11 PUSH5 0x736F6C6343 STOP ADDMOD SGT STOP CALLER "},"methodIdentifiers":{"CODE_VALIDITY_DURATION()":"c5ff49d6","attendanceCodes(bytes32)":"a01b94fd","employeeAttendanceDays(address,uint256)":"88a0617f","employeeEmployerDayAttendance(address,address,uint256)":"9931fca3","employerDailyCodes(address,uint256)":"6ea77fae","generateAttendanceCode(address,address,uint256,uint256)":"ffb71c1a","getActiveCodeForEmployeeDay(address,address,uint256)":"9df01831","getCodeDetails(bytes32)":"23ec70e1","getEmployeeAttendanceDays(address)":"64785689","hasAttendanceForDay(address,uint256)":"4c7f52b4","hasEmployeeAttendedDay(address,address,uint256)":"53a85125","isCodeValid(bytes32)":"9926a6ab","verifyAndMarkAttendance(address,bytes32,uint256)":"3cbfedff"}}}}}