{
  "_format": "hh-sol-artifact-1",
  "contractName": "SalaryStreamingFactory",
  "sourceName": "contracts/SalaryStreamingFactory.sol",
  "abi": [
    {
      "inputs": [],
      "stateMutability": "nonpayable",
      "type": "constructor"
    },
    {
      "anonymous": false,
      "inputs": [
        {
          "indexed": true,
          "internalType": "address",
          "name": "admin",
          "type": "address"
        }
      ],
      "name": "AdminAdded",
      "type": "event"
    },
    {
      "anonymous": false,
      "inputs": [
        {
          "indexed": true,
          "internalType": "address",
          "name": "admin",
          "type": "address"
        }
      ],
      "name": "AdminRemoved",
      "type": "event"
    },
    {
      "anonymous": false,
      "inputs": [
        {
          "indexed": true,
          "internalType": "address",
          "name": "orgAddress",
          "type": "address"
        },
        {
          "indexed": false,
          "internalType": "string",
          "name": "name",
          "type": "string"
        }
      ],
      "name": "OrganizationRegistered",
      "type": "event"
    },
    {
      "anonymous": false,
      "inputs": [
        {
          "indexed": true,
          "internalType": "address",
          "name": "org",
          "type": "address"
        },
        {
          "indexed": true,
          "internalType": "address",
          "name": "employee",
          "type": "address"
        },
        {
          "indexed": false,
          "internalType": "address",
          "name": "contractAddress",
          "type": "address"
        }
      ],
      "name": "SalaryContractCreated",
      "type": "event"
    },
    {
      "inputs": [
        {
          "internalType": "address",
          "name": "_admin",
          "type": "address"
        }
      ],
      "name": "addAdmin",
      "outputs": [],
      "stateMutability": "nonpayable",
      "type": "function"
    },
    {
      "inputs": [
        {
          "internalType": "address",
          "name": "",
          "type": "address"
        }
      ],
      "name": "admins",
      "outputs": [
        {
          "internalType": "bool",
          "name": "",
          "type": "bool"
        }
      ],
      "stateMutability": "view",
      "type": "function"
    },
    {
      "inputs": [
        {
          "internalType": "uint256",
          "name": "",
          "type": "uint256"
        }
      ],
      "name": "allContracts",
      "outputs": [
        {
          "internalType": "contract SalaryContract",
          "name": "",
          "type": "address"
        }
      ],
      "stateMutability": "view",
      "type": "function"
    },
    {
      "inputs": [
        {
          "internalType": "uint256",
          "name": "",
          "type": "uint256"
        }
      ],
      "name": "allOrganizations",
      "outputs": [
        {
          "internalType": "address",
          "name": "",
          "type": "address"
        }
      ],
      "stateMutability": "view",
      "type": "function"
    },
    {
      "inputs": [
        {
          "internalType": "address",
          "name": "_employee",
          "type": "address"
        },
        {
          "internalType": "uint256",
          "name": "_dailySalary",
          "type": "uint256"
        },
        {
          "internalType": "uint256",
          "name": "_probationPercentage",
          "type": "uint256"
        },
        {
          "internalType": "bool",
          "name": "_isOnProbation",
          "type": "bool"
        },
        {
          "internalType": "uint256",
          "name": "_contractDuration",
          "type": "uint256"
        }
      ],
      "name": "createSalaryContract",
      "outputs": [],
      "stateMutability": "payable",
      "type": "function"
    },
    {
      "inputs": [],
      "name": "getAllContracts",
      "outputs": [
        {
          "internalType": "contract SalaryContract[]",
          "name": "",
          "type": "address[]"
        }
      ],
      "stateMutability": "view",
      "type": "function"
    },
    {
      "inputs": [],
      "name": "getAllOrganizations",
      "outputs": [
        {
          "internalType": "address[]",
          "name": "",
          "type": "address[]"
        }
      ],
      "stateMutability": "view",
      "type": "function"
    },
    {
      "inputs": [
        {
          "internalType": "address",
          "name": "_org",
          "type": "address"
        }
      ],
      "name": "getOrganizationContracts",
      "outputs": [
        {
          "internalType": "contract SalaryContract[]",
          "name": "",
          "type": "address[]"
        }
      ],
      "stateMutability": "view",
      "type": "function"
    },
    {
      "inputs": [
        {
          "internalType": "address",
          "name": "_org",
          "type": "address"
        }
      ],
      "name": "getOrganizationDetails",
      "outputs": [
        {
          "components": [
            {
              "internalType": "address",
              "name": "orgAddress",
              "type": "address"
            },
            {
              "internalType": "string",
              "name": "name",
              "type": "string"
            },
            {
              "internalType": "string",
              "name": "email",
              "type": "string"
            },
            {
              "internalType": "uint256",
              "name": "totalEmployees",
              "type": "uint256"
            },
            {
              "internalType": "uint256",
              "name": "totalSalariesLocked",
              "type": "uint256"
            },
            {
              "internalType": "bool",
              "name": "isActive",
              "type": "bool"
            },
            {
              "internalType": "uint256",
              "name": "createdAt",
              "type": "uint256"
            }
          ],
          "internalType": "struct SalaryStreamingFactory.Organization",
          "name": "",
          "type": "tuple"
        }
      ],
      "stateMutability": "view",
      "type": "function"
    },
    {
      "inputs": [],
      "name": "getTotalContracts",
      "outputs": [
        {
          "internalType": "uint256",
          "name": "",
          "type": "uint256"
        }
      ],
      "stateMutability": "view",
      "type": "function"
    },
    {
      "inputs": [],
      "name": "getTotalOrganizations",
      "outputs": [
        {
          "internalType": "uint256",
          "name": "",
          "type": "uint256"
        }
      ],
      "stateMutability": "view",
      "type": "function"
    },
    {
      "inputs": [
        {
          "internalType": "address",
          "name": "",
          "type": "address"
        }
      ],
      "name": "isOrganization",
      "outputs": [
        {
          "internalType": "bool",
          "name": "",
          "type": "bool"
        }
      ],
      "stateMutability": "view",
      "type": "function"
    },
    {
      "inputs": [
        {
          "internalType": "address",
          "name": "",
          "type": "address"
        },
        {
          "internalType": "uint256",
          "name": "",
          "type": "uint256"
        }
      ],
      "name": "organizationContracts",
      "outputs": [
        {
          "internalType": "contract SalaryContract",
          "name": "",
          "type": "address"
        }
      ],
      "stateMutability": "view",
      "type": "function"
    },
    {
      "inputs": [
        {
          "internalType": "address",
          "name": "",
          "type": "address"
        }
      ],
      "name": "organizations",
      "outputs": [
        {
          "internalType": "address",
          "name": "orgAddress",
          "type": "address"
        },
        {
          "internalType": "string",
          "name": "name",
          "type": "string"
        },
        {
          "internalType": "string",
          "name": "email",
          "type": "string"
        },
        {
          "internalType": "uint256",
          "name": "totalEmployees",
          "type": "uint256"
        },
        {
          "internalType": "uint256",
          "name": "totalSalariesLocked",
          "type": "uint256"
        },
        {
          "internalType": "bool",
          "name": "isActive",
          "type": "bool"
        },
        {
          "internalType": "uint256",
          "name": "createdAt",
          "type": "uint256"
        }
      ],
      "stateMutability": "view",
      "type": "function"
    },
    {
      "inputs": [],
      "name": "owner",
      "outputs": [
        {
          "internalType": "address",
          "name": "",
          "type": "address"
        }
      ],
      "stateMutability": "view",
      "type": "function"
    },
    {
      "inputs": [
        {
          "internalType": "string",
          "name": "_name",
          "type": "string"
        },
        {
          "internalType": "string",
          "name": "_email",
          "type": "string"
        }
      ],
      "name": "registerOrganization",
      "outputs": [],
      "stateMutability": "nonpayable",
      "type": "function"
    },
    {
      "inputs": [
        {
          "internalType": "address",
          "name": "_admin",
          "type": "address"
        }
      ],
      "name": "removeAdmin",
      "outputs": [],
      "stateMutability": "nonpayable",
      "type": "function"
    },
    {
      "inputs": [
        {
          "internalType": "address",
          "name": "_org",
          "type": "address"
        },
        {
          "internalType": "bool",
          "name": "_status",
          "type": "bool"
        }
      ],
      "name": "updateOrganizationStatus",
      "outputs": [],
      "stateMutability": "nonpayable",
      "type": "function"
    }
  ],
  "bytecode": "0x60808060405234610040573360018060a01b031960005416176000553360005260016020526040600020600160ff1982541617905561301e90816100468239f35b600080fdfe608060405260043610156200001357600080fd5b60003560e01c8062600e1c1462001317578063086ed93814620012475780631785f53c146200113457806318d3ce9614620010a9578063247a50d81462000ba6578063429b62e51462000b63578063534860cc1462000b435780635a1f74061462000a895780635ac6820914620009f457806361ba81d814620008b35780637048027514620007dd5780638026c0a3146200037e5780638da5cb5b1462000353578063a1fa6f521462000333578063b1ce8eab14620002f0578063b625804e1462000290578063e54e26b914620002325763f61bd7a114620000f457600080fd5b346200022d5760403660031901126200022d5762000111620013c5565b6024359081151582036200022d5733600052600160205260ff60406000205416801562000218575b15620001c9576001600160a01b031660008181526004602052604090205490919060ff16156200018b576200018991600052600260205260056040600020019060ff801983541691151516179055565b005b60405162461bcd60e51b815260206004820152601660248201527513dc99d85b9a5e985d1a5bdb881b9bdd08199bdd5b9960521b6044820152606490fd5b60405162461bcd60e51b815260206004820152602160248201527f4f6e6c792061646d696e2063616e2063616c6c20746869732066756e6374696f6044820152603760f91b6064820152608490fd5b506000546001600160a01b0316331462000139565b600080fd5b346200022d5760203660031901126200022d576004356006548110156200022d5760066000527ff652222313e28459528d920b65115c16c04f3efc82aaedc97be59f3f377c0d3f01546040516001600160a01b039091168152602090f35b346200022d5760403660031901126200022d57620002ad620013c5565b6024359060018060a01b038091166000526003602052604060002080548310156200022d57602092620002e091620013ac565b90549060031b1c16604051908152f35b346200022d5760203660031901126200022d576001600160a01b0362000315620013c5565b166000526004602052602060ff604060002054166040519015158152f35b346200022d5760003660031901126200022d576020600554604051908152f35b346200022d5760003660031901126200022d576000546040516001600160a01b039091168152602090f35b60a03660031901126200022d5762000395620013c5565b6024906044906064823584358235801515908190036200022d5760843592336000526020946004865260ff60406000205416156200077f576001600160a01b039687169788156200073f578415620006f257600a83101580620006e7575b15620006a75785156200065557858502858104870362000640573410620005f35750506040519361195d928386019286841067ffffffffffffffff851117620005de5760c09587956200168c87393385528a8986015260408501526060840152608083015260a082015203019034f08015620005d25733600052600382526040600020908154600160401b9283821015620005bd57816200049e916001620004bf94018155620013ac565b95909216809583549060031b9160018060a01b03809116831b921b19161790565b905560065490811015620005a857600181018060065581101562000593577ff652222313e28459528d920b65115c16c04f3efc82aaedc97be59f3f377c0d3f0180546001600160a01b031916831790553360009081526002825260409020600301805460001981146200057e576001019055336000526002815260046040600020018054903482018092116200057e575560405191825233917f10a856768ada7fd34a33d8c8414ca3ff1ed4ddaecea4f4c5e9b0b810d6d14bfa9190a3005b85634e487b7160e01b60005260116004526000fd5b84634e487b7160e01b60005260326004526000fd5b84634e487b7160e01b60005260416004526000fd5b87634e487b7160e01b60005260416004526000fd5b6040513d6000823e3d90fd5b8a634e487b7160e01b60005260416004526000fd5b636c61727960e01b6084927f496e73756666696369656e742066756e6473206c6f636b656420666f7220736189938d6040519562461bcd60e51b8752600487015280860152840152820152fd5b8a634e487b7160e01b60005260116004526000fd5b67072207468616e20360c41b6084927f436f6e7472616374206475726174696f6e206d75737420626520677265617465899360288e6040519662461bcd60e51b88526004880152860152840152820152fd5b7f496e76616c69642070726f626174696f6e2070657263656e74616765000000008791601c8c6040519462461bcd60e51b86526004860152840152820152fd5b5081831115620003f3565b6206e20360ec1b6084927f4461696c792073616c617279206d757374206265206772656174657220746861899360238e6040519662461bcd60e51b88526004880152860152840152820152fd5b7f496e76616c696420656d706c6f79656520616464726573730000000000000000879160188c6040519462461bcd60e51b86526004860152840152820152fd5b8573371031b0b636103a3434b990333ab731ba34b7b760611b6084927f4f6e6c792072656769737465726564206f7267616e697a6174696f6e732063618b60348e6040519662461bcd60e51b88526004880152860152840152820152fd5b346200022d5760203660031901126200022d57620007fa620013c5565b6000546001600160a01b039190620008169083163314620015ef565b166200082481151562001646565b80600052600160205260ff604060002054166200087b578060005260016020526040600020600160ff198254161790557f44d6d25963f097ad14f29f06854a01f575648a1ef82f30e562ccd3889717e339600080a2005b60405162461bcd60e51b815260206004820152601060248201526f20b63932b0b23c9030b71030b236b4b760811b6044820152606490fd5b346200022d576020806003193601126200022d57620008d1620013c5565b90600060c0604051620008e48162001422565b828152606084820152606060408201528260608201528260808201528260a0820152015260018060a01b03809216600052600281526040600020604051916200092d8362001422565b8382541683526200094160018301620014fb565b918184019283526200095660028201620014fb565b9260408501938452620009d560038301549460608701958652620009c160048501549360808901948552600660ff6005880154169660a08b01971515885201549660c08a019788526040519a8b9a828c525116908a01525160e060408a0152610100890190620015ad565b9051878203601f19016060890152620015ad565b935160808601525160a085015251151560c08401525160e08301520390f35b346200022d576020806003193601126200022d576001600160a01b038062000a1b620013c5565b1660005260038252604060002091604051809282855492838152019460005282600020926000915b83831062000a6f5762000a6b8662000a5e818a03826200143f565b60405191829182620013dc565b0390f35b845481168752958101956001948501949092019162000a43565b346200022d5760203660031901126200022d576001600160a01b038062000aaf620013c5565b16600052600260205260406000209081541662000acf60018301620014fb565b9162000ade60028201620014fb565b600382015491600481015462000b28600660ff6005850154169301549362000b19604051988998895260e060208a015260e0890190620015ad565b908782036040890152620015ad565b9360608601526080850152151560a084015260c08301520390f35b346200022d5760003660031901126200022d576020600654604051908152f35b346200022d5760203660031901126200022d576001600160a01b0362000b88620013c5565b166000526001602052602060ff604060002054166040519015158152f35b346200022d5760403660031901126200022d5760043567ffffffffffffffff81116200022d5762000bdc90369060040162001462565b60243567ffffffffffffffff81116200022d5762000bff90369060040162001462565b9033600052600460205260ff604060002054166200106457805115620010285781511562000feb576040519162000c368362001422565b338352602083019082825260408401526000606084015260006080840152600160a08401524260c084015233600052600260205260406000209060018060a01b038451166bffffffffffffffffffffffff60a01b8354161782555192835167ffffffffffffffff811162000e375762000cb36001840154620014be565b601f811162000f9f575b506020601f821160011462000f2b57819293949560009262000f1f575b50508160011b916000199060031b1c19161760018301555b604081015180519067ffffffffffffffff821162000e375762000d196002850154620014be565b601f811162000ed3575b50602090601f831160011462000e595791806006949260c09460009262000e4d575b50508160011b916000199060031b1c19161760028501555b606081015160038501556080810151600485015562000d9160a08201511515600586019060ff801983541691151516179055565b01519101553360005260046020526040600020600160ff19825416179055600554600160401b81101562000e375762000dd581600162000df693016005556200135e565b815491926001600160a01b0360039290921b91821b199092163390911b1790565b90557f783e607e94efcb9adce3489c806008ddc378d784ae22a1f801458720054325a2604051602081528062000e3233946020830190620015ad565b0390a2005b634e487b7160e01b600052604160045260246000fd5b01519050878062000d45565b906002850160005260206000209160005b601f198516811062000eba5750926006949260019260c09583601f1981161062000ea0575b505050811b01600285015562000d5d565b015160001960f88460031b161c1916905587808062000e8f565b9192602060018192868501518155019401920162000e6a565b600285016000526020600020601f840160051c81016020851062000f17575b601f830160051c8201811062000f0a57505062000d23565b6000815560010162000ef2565b508062000ef2565b01519050858062000cda565b6001840160005260206000209060005b601f198416811062000f86575060019394959683601f1981161062000f6c575b505050811b01600183015562000cf2565b015160001960f88460031b161c1916905585808062000f5b565b9091602060018192858b01518155019301910162000f3b565b600184016000526020600020601f830160051c81016020841062000fe3575b601f830160051c8201811062000fd657505062000cbd565b6000815560010162000fbe565b508062000fbe565b60405162461bcd60e51b8152602060048201526015602482015274456d61696c2063616e6e6f7420626520656d70747960581b6044820152606490fd5b60405162461bcd60e51b81526020600482015260146024820152734e616d652063616e6e6f7420626520656d70747960601b6044820152606490fd5b60405162461bcd60e51b815260206004820152601f60248201527f4f7267616e697a6174696f6e20616c72656164792072656769737465726564006044820152606490fd5b346200022d5760003660031901126200022d57604051806006549182815260208091019260066000527ff652222313e28459528d920b65115c16c04f3efc82aaedc97be59f3f377c0d3f916000905b828210620011135762000a6b8562000a5e818903826200143f565b83546001600160a01b031686529485019460019384019390910190620010f8565b346200022d5760203660031901126200022d5762001151620013c5565b6000546001600160a01b03908116916200116d338414620015ef565b16906200117c82151562001646565b81600052600160205260ff604060002054161562001213578114620011d857806000526001602052604060002060ff1981541690557fa3b62bc36326052d97ea62d63c3d60308ed4c3ea8ac079dd8499f1e9c4f80c0f600080a2005b60405162461bcd60e51b815260206004820152601360248201527221b0b73737ba103932b6b7bb329037bbb732b960691b6044820152606490fd5b60405162461bcd60e51b815260206004820152600c60248201526b2737ba1030b71030b236b4b760a11b6044820152606490fd5b346200022d5760003660031901126200022d57604051806005548083526020809301809160056000527f036b6384b5eca791c62761152d0c79bb0604c104a5fb6f4eb0703f3154bb3db09060005b86828210620012f9578686620012ae828803836200143f565b604051928392818401908285525180915260408401929160005b828110620012d857505050500390f35b83516001600160a01b031685528695509381019392810192600101620012c8565b83546001600160a01b03168552909301926001928301920162001295565b346200022d5760203660031901126200022d576004356005548110156200022d57620013456020916200135e565b905460405160039290921b1c6001600160a01b03168152f35b600554811015620013965760056000527f036b6384b5eca791c62761152d0c79bb0604c104a5fb6f4eb0703f3154bb3db00190600090565b634e487b7160e01b600052603260045260246000fd5b8054821015620013965760005260206000200190600090565b600435906001600160a01b03821682036200022d57565b6020908160408183019282815285518094520193019160005b82811062001404575050505090565b83516001600160a01b031685529381019392810192600101620013f5565b60e0810190811067ffffffffffffffff82111762000e3757604052565b90601f8019910116810190811067ffffffffffffffff82111762000e3757604052565b81601f820112156200022d5780359067ffffffffffffffff821162000e3757604051926200149b601f8401601f1916602001856200143f565b828452602083830101116200022d57816000926020809301838601378301015290565b90600182811c92168015620014f0575b6020831014620014da57565b634e487b7160e01b600052602260045260246000fd5b91607f1691620014ce565b90604051918260008254926200151184620014be565b90818452600194858116908160001462001588575060011462001541575b50506200153f925003836200143f565b565b9093915060005260209081600020936000915b8183106200156f5750506200153f935082010138806200152f565b8554888401850152948501948794509183019162001554565b9150506200153f94506020925060ff191682840152151560051b82010138806200152f565b919082519283825260005b848110620015da575050826000602080949584010152601f8019910116010190565b602081830181015184830182015201620015b8565b15620015f757565b60405162461bcd60e51b815260206004820152602160248201527f4f6e6c79206f776e65722063616e2063616c6c20746869732066756e6374696f6044820152603760f91b6064820152608490fd5b156200164e57565b60405162461bcd60e51b8152602060048201526015602482015274496e76616c69642061646d696e206164647265737360581b6044820152606490fdfe6080601f6200195d38819003918201601f19168301916001600160401b0383118484101761012b5780849260c0946040528339810103126101265761004381610141565b9061005060208201610141565b9160408201519160608101516080820151918215158093036101265760a001519334156100e157620100009560ff9460018060a01b0319913383600054161760005560018060a01b03809216836001541617600155169060025416176002556003556004556007549260055534600655169062ff00ff19161717600755426008556040516118079081620001568239f35b60405162461bcd60e51b815260206004820152601a60248201527f4d757374206c6f636b2066756e647320666f722073616c6172790000000000006044820152606490fd5b600080fd5b634e487b7160e01b600052604160045260246000fd5b51906001600160a01b03821682036101265756fe608060408181526004918236101561001657600080fd5b600092833560e01c9182630b97bc86146114b8575081631be37f84146114995781631c11863a1461147a57816322f3e2d41461145357816323077da21461138b5781632fd949ca146111b75781633e6968b61461118a5781633fb856cd1461116657816343547f541461114957816343d00d04146110505781634b31971314611031578163564704171461049d57816362d4744c14610e2a5781636a246e7014610e0b5781637cc1f86714610d8c578163809dab6a14610d4957816382e0209f14610d225781639005b2c414610b3c5781639425039c14610adc5781639455cd3b146105145781639f7521b41461092f578163a0a1a7d714610906578163a158241e146108d9578163a90795cf14610588578163ae200e791461055f578163b561dd7d14610541578163c16b872814610514578163c45a0155146104ec578163d1cc9976146104c5578163d537f31d1461049d578163db2e21bc146103d2578163dd1d941a1461029657508063e01415f9146101ea578063e9d5e0ef146101cc5763ffa6399b146101a657600080fd5b346101c857816003193601126101c85760209060ff6011541690519015158152f35b5080fd5b50346101c857816003193601126101c8576020906003549051908152f35b823461029357806003193601126102935761021060018060a01b03600254163314611544565b61022a60075460ff8160101c169081610284575b506115f4565b60115461023960ff82166116eb565b61024a60ff600f5460b01c16611737565b81600e5581600f558160105560ff19166011557f118dba3f66e4c91da334c33bac200ff628abbf23c8d2d8212a799d6b942089268180a180f35b60ff915060181c161583610224565b80fd5b839150346101c857816003193601126101c857600254906001600160a01b036102c23382851614611544565b6102db60075460ff8160101c1690816103c357506115f4565b601154906102eb60ff83166116eb565b600f54926102fe60ff8560b01c16611737565b60ff8460a81c166103805750600e80546003819055919093166001600160a01b031994909416841760025591849055600f849055601084905560ff191660115592519283526001600160a01b03166020830152907f83f7d510b8dca14c0080f463411a5ca5ea498f589bcdaec84a017f794339868b9080604081015b0390a180f35b606490602088519162461bcd60e51b8352820152601a60248201527f416c7265616479207369676e656420627920656d706c6f7965650000000000006044820152fd5b60ff915060181c161587610224565b9190503461049957826003193601126104995782546001600160a01b03163381900361045657838080809347905af16104096116bb565b5015610413578280f35b906020606492519162461bcd60e51b8352820152601b60248201527f456d657267656e6379207769746864726177616c206661696c656400000000006044820152fd5b815162461bcd60e51b8152602081850152601a60248201527f4f6e6c7920666163746f72792063616e2063616c6c20746869730000000000006044820152606490fd5b8280fd5b905034610499576020366003190112610499576020928291358152600c845220549051908152f35b5050346101c857816003193601126101c85760209060ff60075460181c1690519015158152f35b5050346101c857816003193601126101c857905490516001600160a01b039091168152602090f35b905034610499576020366003190112610499578160209360ff92358152600b855220541690519015158152f35b90503461049957826003193601126104995760209250549051908152f35b5050346101c857816003193601126101c85760015490516001600160a01b039091168152602090f35b8383346101c857806003193601126101c8576024908335823567ffffffffffffffff81116108d557366023820112156108d55780860135906105c982611528565b916105d685519384611506565b808352368682840101116108d157859181889260209889930183870137840101526002546001600160a01b0392906106119084163314611544565b61063760ff600754818160101c16806108c3575b61062e906115f4565b60081c16611639565b6201518061064760085442611698565b04841161087257838752600b865260ff858820541661082157838752600d865260ff85882054166107df57838752600c8652848720541561079d5784519086828251928a5b8481106107865750506106ab9281018a83820152038084520182611506565b858151910120838752600c8652848720540361074557828652600b855283862060ff1990600182825416179055600d865260018588209182541617905560095496600019881461073457505060017fc51da1eeea2cfdb8d4f06db34d4bd7bf6a82f2e15cf055e2eef27446bc5c3b8994959601600955600254169382519182524290820152a280f35b634e487b7160e01b87526011905285fd5b8660176064928787519362461bcd60e51b85528401528201527f496e76616c696420617474656e64616e636520636f64650000000000000000006044820152fd5b8181018401518682018501528a938693500161068c565b845162461bcd60e51b8152808901879052601e818401527f4e6f20636f64652067656e65726174656420666f7220746869732064617900006044820152606490fd5b845162461bcd60e51b8152808901879052601e818401527f436f646520616c7265616479207573656420666f7220746869732064617900006044820152606490fd5b845162461bcd60e51b81528089018790526026818401527f417474656e64616e636520616c7265616479206d61726b656420666f7220746860448201526569732064617960d01b6064820152608490fd5b845162461bcd60e51b81528089018790526026818401527f43616e6e6f74206d61726b20617474656e64616e636520666f7220667574757260448201526565206461797360d01b6064820152608490fd5b50601881901c821615610625565b8680fd5b8480fd5b905034610499576020366003190112610499578160209360ff92358152600d855220541690519015158152f35b5050346101c857816003193601126101c85760025490516001600160a01b039091168152602090f35b8383346101c8576020806003193601126104995760015490843561095d336001600160a01b0385161461159c565b61097960ff600754818160101c16806108c35761062e906115f4565b6201518061098960085442611698565b048110610a8e57808552600c825283852054610a3f578351908282019342855244868401528160608401526bffffffffffffffffffffffff199060601b1660808301526074825260a082019382851067ffffffffffffffff861117610a2c577f3552d68173ffbd518f5549ce7274cab798032b049b140f3452ff5c211edd3d2996975090600c60c093928688528351902094828a5252838689205584520152a180f35b634e487b7160e01b875260418852602487fd5b835162461bcd60e51b8152808701839052602360248201527f436f646520616c72656164792067656e65726174656420666f7220746869732060448201526264617960e81b6064820152608490fd5b835162461bcd60e51b8152808701839052602260248201527f43616e6e6f742067656e657261746520636f646520666f722070617374206461604482015261797360f01b6064820152608490fd5b5050346101c857816003193601126101c85760c090600e549060ff600f5460105492805194855260018060a01b0382166020860152828260a01c16151590850152818160a81c161515606085015260b01c161515608083015260a0820152f35b919050346104995782600319360112610499576002546001600160a01b0390811692610b69338514611544565b610b8560ff600754818160101c16806108c35761062e906115f4565b60095415610ce857610b95611796565b93610ba3600a548096611698565b948515610c9a57854710610c5757858101809111610c445786808781948294600a555af1610bcf6116bb565b5015610c0f5750907fbee6e25aae108c0524d61c49d523305558f12f21017476c3fef02ca775c41f1f91600254169260095482519182526020820152a280f35b606490602084519162461bcd60e51b8352820152600f60248201526e151c985b9cd9995c8819985a5b1959608a1b6044820152fd5b634e487b7160e01b875260118352602487fd5b845162461bcd60e51b8152602081850152601d60248201527f496e73756666696369656e7420636f6e74726163742062616c616e63650000006044820152606490fd5b845162461bcd60e51b8152602081850152602260248201527f4e6f2073616c61727920617661696c61626c6520666f72207769746864726177604482015261185b60f21b6064820152608490fd5b606490602084519162461bcd60e51b83528201526014602482015273139bc8185d1d195b99185b98d9481b585c9ad95960621b6044820152fd5b5050346101c857816003193601126101c85760209060ff60075460081c1690519015158152f35b5050346101c857816003193601126101c857602091610d66611796565b600a549081811115610d8457610d7c9250611698565b905b51908152f35b505090610d7e565b91905034610499578260031936011261049957610120925060ff60018060a01b0392836001541693600254169260035460095490600a54926007549454968151988952602089015287015260608601526080850152818160101c16151560a0850152818160081c16151560c085015216151560e0830152610100820152f35b5050346101c857816003193601126101c8576020906005549051908152f35b839150346101c857826003193601126101c857602435908035906001600160a01b038084169081850361102d57610e669060015416331461159c565b610e8260ff600754818160101c16806108c35761062e906115f4565b6011549160ff8316610fdb578315610f8e578115610f4b575094600161037a927f43224da643afd5364fe13eca80e87986c24f373291ecbe87c3695beefb96d47196978351610ed0816114d4565b868152816020820152838582015289606082015283608082015260a04291015285600e558260b01b9061ffff60a81b19908460a01b906affffffffffffffffffffff60a81b600f541617171617600f554260105560ff19161760115551928392839092916020906040830194835260018060a01b0316910152565b606490602088519162461bcd60e51b8352820152601c60248201527f496e76616c6964206e657720656d706c6f7965652061646472657373000000006044820152fd5b608490602088519162461bcd60e51b8352820152602160248201527f4e65772073616c617279206d7573742062652067726561746572207468616e206044820152600360fc1b6064820152fd5b608490602088519162461bcd60e51b8352820152602660248201527f5468657265277320616c726561647920612070656e64696e67206d6f6469666960448201526531b0ba34b7b760d11b6064820152fd5b8580fd5b5050346101c857816003193601126101c857602090600a549051908152f35b919050346104995782600319360112610499576002546001600160a01b03169161107b338414611544565b6007549160ff8360081c166111065760ff8360181c166110ca57505061ff001916610100176007557f52fc9bbf272c9663e2f72e32ebbd87b584e1015d97d62c96a47d445f8460cac18280a280f35b906020606492519162461bcd60e51b8352820152601660248201527510dbdb9d1c9858dd081a5cc81d195c9b5a5b985d195960521b6044820152fd5b906020606492519162461bcd60e51b8352820152601960248201527f436f6e747261637420616c726561647920617070726f766564000000000000006044820152fd5b5050346101c857816003193601126101c857602090610d7c611796565b5050346101c857816003193601126101c85760209060ff6007541690519015158152f35b5050346101c857816003193601126101c857602090620151806111af60085442611698565b049051908152f35b919050346104995782600319360112610499576001546001600160a01b03906111e3908216331461159c565b6007549060ff8260101c168061137c575b6111fd906115f4565b60ff8260081c16156113275761121d611214611796565b600a5490611698565b93630100000061122d8647611698565b9363ffff0000191617600755846112d2575b8261127d575b50907f6be8be759cda4c5feef9ad215df471cba9b636e1a68e1b8fb0803037e02c89509291600154169382519182526020820152a280f35b858080808686600154165af16112916116bb565b5061124557606490602085519162461bcd60e51b83528201526016602482015275115b5c1b1bde595c881c99599d5b990819985a5b195960521b6044820152fd5b858080808886600254165af16112e66116bb565b5061123f57606490602085519162461bcd60e51b83528201526016602482015275115b5c1b1bde5959481c185e5bdd5d0819985a5b195960521b6044820152fd5b825162461bcd60e51b8152602081860152602960248201527f43616e6e6f74207465726d696e617465206265666f726520656d706c6f79656560448201526808185c1c1c9bdd985b60ba1b6064820152608490fd5b50601882901c60ff16156111f4565b5050346101c857816003193601126101c85760c09160a082516113ad816114d4565b8281528260208201528284820152826060820152826080820152015280516113d4816114d4565b600e5491828252600f5490602083019060018060a01b0380841683528185019060ff8560a01c1615158252606086019360ff8660a81c161515855260ff608088019660b01c161515865260a0601054970196875283519788525116602087015251151590850152511515606084015251151560808301525160a0820152f35b5050346101c857816003193601126101c85760209060ff60075460101c1690519015158152f35b5050346101c857816003193601126101c8576020906009549051908152f35b5050346101c857816003193601126101c8576020906006549051908152f35b8490346101c857816003193601126101c8576020906008548152f35b60c0810190811067ffffffffffffffff8211176114f057604052565b634e487b7160e01b600052604160045260246000fd5b90601f8019910116810190811067ffffffffffffffff8211176114f057604052565b67ffffffffffffffff81116114f057601f01601f191660200190565b1561154b57565b60405162461bcd60e51b8152602060048201526024808201527f4f6e6c7920656d706c6f7965652063616e2063616c6c20746869732066756e636044820152633a34b7b760e11b6064820152608490fd5b156115a357565b60405162461bcd60e51b8152602060048201526024808201527f4f6e6c7920656d706c6f7965722063616e2063616c6c20746869732066756e636044820152633a34b7b760e11b6064820152608490fd5b156115fb57565b60405162461bcd60e51b8152602060048201526016602482015275436f6e7472616374206973206e6f742061637469766560501b6044820152606490fd5b1561164057565b60405162461bcd60e51b815260206004820152602a60248201527f456d706c6f79656520686173206e6f7420617070726f7665642074686520636f6044820152691b9d1c9858dd081e595d60b21b6064820152608490fd5b919082039182116116a557565b634e487b7160e01b600052601160045260246000fd5b3d156116e6573d906116cc82611528565b916116da6040519384611506565b82523d6000602084013e565b606090565b156116f257565b60405162461bcd60e51b815260206004820152601760248201527f4e6f2070656e64696e67206d6f64696669636174696f6e0000000000000000006044820152606490fd5b1561173e57565b60405162461bcd60e51b815260206004820152601a60248201527f4d6f64696669636174696f6e206973206e6f74206163746976650000000000006044820152606490fd5b818102929181159184041417156116a557565b60095480156117cb576003546117ab91611783565b60ff600754166117b85790565b6117c760649160045490611783565b0490565b5060009056fea26469706673582212209258e13b23710f23d20778e85f916c81b7df482f87ae8cdc905d97527a67e34464736f6c63430008130033a2646970667358221220c0f488fcbf9f27b5cb5492b486a4a1939efdfd810ba3f545da99d3fe67d430a764736f6c63430008130033",
  "linkReferences": {},
  "deployedLinkReferences": {}
}