{
  "_format": "hh-sol-artifact-1",
  "contractName": "EmployeeDashboard",
  "sourceName": "contracts/EmployeeDashboard.sol",
  "abi": [
    {
      "inputs": [
        {
          "internalType": "address",
          "name": "_factoryAddress",
          "type": "address"
        }
      ],
      "stateMutability": "nonpayable",
      "type": "constructor"
    },
    {
      "anonymous": false,
      "inputs": [
        {
          "indexed": true,
          "internalType": "address",
          "name": "employee",
          "type": "address"
        },
        {
          "indexed": true,
          "internalType": "address",
          "name": "contractAddress",
          "type": "address"
        },
        {
          "indexed": false,
          "internalType": "uint256",
          "name": "day",
          "type": "uint256"
        }
      ],
      "name": "AttendanceMarked",
      "type": "event"
    },
    {
      "anonymous": false,
      "inputs": [
        {
          "indexed": true,
          "internalType": "address",
          "name": "employee",
          "type": "address"
        },
        {
          "indexed": true,
          "internalType": "address",
          "name": "contractAddress",
          "type": "address"
        }
      ],
      "name": "ContractApproved",
      "type": "event"
    },
    {
      "anonymous": false,
      "inputs": [
        {
          "indexed": true,
          "internalType": "address",
          "name": "employee",
          "type": "address"
        },
        {
          "indexed": false,
          "internalType": "uint256",
          "name": "amount",
          "type": "uint256"
        }
      ],
      "name": "SalaryWithdrawn",
      "type": "event"
    },
    {
      "inputs": [
        {
          "internalType": "address",
          "name": "_contractAddress",
          "type": "address"
        }
      ],
      "name": "approveContract",
      "outputs": [],
      "stateMutability": "nonpayable",
      "type": "function"
    },
    {
      "inputs": [
        {
          "internalType": "address",
          "name": "_contractAddress",
          "type": "address"
        }
      ],
      "name": "approveModification",
      "outputs": [],
      "stateMutability": "nonpayable",
      "type": "function"
    },
    {
      "inputs": [],
      "name": "factory",
      "outputs": [
        {
          "internalType": "contract SalaryStreamingFactory",
          "name": "",
          "type": "address"
        }
      ],
      "stateMutability": "view",
      "type": "function"
    },
    {
      "inputs": [
        {
          "internalType": "address",
          "name": "_contractAddress",
          "type": "address"
        },
        {
          "internalType": "address",
          "name": "_employee",
          "type": "address"
        }
      ],
      "name": "getAttendanceHistory",
      "outputs": [
        {
          "components": [
            {
              "internalType": "uint256",
              "name": "day",
              "type": "uint256"
            },
            {
              "internalType": "uint256",
              "name": "timestamp",
              "type": "uint256"
            },
            {
              "internalType": "bool",
              "name": "marked",
              "type": "bool"
            }
          ],
          "internalType": "struct EmployeeDashboard.AttendanceRecord[]",
          "name": "",
          "type": "tuple[]"
        }
      ],
      "stateMutability": "view",
      "type": "function"
    },
    {
      "inputs": [
        {
          "internalType": "address",
          "name": "_contractAddress",
          "type": "address"
        },
        {
          "internalType": "address",
          "name": "_employee",
          "type": "address"
        }
      ],
      "name": "getContractSummary",
      "outputs": [
        {
          "internalType": "uint256",
          "name": "totalDaysWorked",
          "type": "uint256"
        },
        {
          "internalType": "uint256",
          "name": "totalEarned",
          "type": "uint256"
        },
        {
          "internalType": "uint256",
          "name": "totalWithdrawn",
          "type": "uint256"
        },
        {
          "internalType": "uint256",
          "name": "availableBalance",
          "type": "uint256"
        },
        {
          "internalType": "uint256",
          "name": "dailyEarnings",
          "type": "uint256"
        },
        {
          "internalType": "bool",
          "name": "canWithdraw",
          "type": "bool"
        }
      ],
      "stateMutability": "view",
      "type": "function"
    },
    {
      "inputs": [
        {
          "internalType": "address",
          "name": "_employee",
          "type": "address"
        }
      ],
      "name": "getEmployeeContracts",
      "outputs": [
        {
          "components": [
            {
              "internalType": "address",
              "name": "contractAddress",
              "type": "address"
            },
            {
              "internalType": "address",
              "name": "employer",
              "type": "address"
            },
            {
              "internalType": "uint256",
              "name": "dailySalary",
              "type": "uint256"
            },
            {
              "internalType": "uint256",
              "name": "attendanceCount",
              "type": "uint256"
            },
            {
              "internalType": "uint256",
              "name": "totalWithdrawn",
              "type": "uint256"
            },
            {
              "internalType": "uint256",
              "name": "availableBalance",
              "type": "uint256"
            },
            {
              "internalType": "bool",
              "name": "isActive",
              "type": "bool"
            },
            {
              "internalType": "bool",
              "name": "employeeApproved",
              "type": "bool"
            },
            {
              "internalType": "bool",
              "name": "isOnProbation",
              "type": "bool"
            },
            {
              "internalType": "uint256",
              "name": "probationPercentage",
              "type": "uint256"
            },
            {
              "internalType": "uint256",
              "name": "startDate",
              "type": "uint256"
            },
            {
              "internalType": "uint256",
              "name": "contractDuration",
              "type": "uint256"
            },
            {
              "internalType": "string",
              "name": "employerName",
              "type": "string"
            }
          ],
          "internalType": "struct EmployeeDashboard.EmployeeContractInfo[]",
          "name": "",
          "type": "tuple[]"
        }
      ],
      "stateMutability": "view",
      "type": "function"
    },
    {
      "inputs": [
        {
          "internalType": "address",
          "name": "_employee",
          "type": "address"
        }
      ],
      "name": "getPendingApprovals",
      "outputs": [
        {
          "components": [
            {
              "internalType": "address",
              "name": "contractAddress",
              "type": "address"
            },
            {
              "internalType": "address",
              "name": "employer",
              "type": "address"
            },
            {
              "internalType": "uint256",
              "name": "dailySalary",
              "type": "uint256"
            },
            {
              "internalType": "bool",
              "name": "isOnProbation",
              "type": "bool"
            },
            {
              "internalType": "uint256",
              "name": "probationPercentage",
              "type": "uint256"
            },
            {
              "internalType": "uint256",
              "name": "contractDuration",
              "type": "uint256"
            },
            {
              "internalType": "string",
              "name": "employerName",
              "type": "string"
            }
          ],
          "internalType": "struct EmployeeDashboard.PendingApproval[]",
          "name": "",
          "type": "tuple[]"
        }
      ],
      "stateMutability": "view",
      "type": "function"
    },
    {
      "inputs": [
        {
          "internalType": "address",
          "name": "_contractAddress",
          "type": "address"
        },
        {
          "internalType": "address",
          "name": "_employee",
          "type": "address"
        }
      ],
      "name": "getPendingModification",
      "outputs": [
        {
          "internalType": "bool",
          "name": "hasPendingModification",
          "type": "bool"
        },
        {
          "internalType": "uint256",
          "name": "newDailySalary",
          "type": "uint256"
        },
        {
          "internalType": "address",
          "name": "newEmployeeAddress",
          "type": "address"
        },
        {
          "internalType": "bool",
          "name": "employerSigned",
          "type": "bool"
        },
        {
          "internalType": "bool",
          "name": "employeeSigned",
          "type": "bool"
        },
        {
          "internalType": "uint256",
          "name": "createdAt",
          "type": "uint256"
        }
      ],
      "stateMutability": "view",
      "type": "function"
    },
    {
      "inputs": [
        {
          "internalType": "address",
          "name": "_contractAddress",
          "type": "address"
        },
        {
          "internalType": "address",
          "name": "_employee",
          "type": "address"
        }
      ],
      "name": "getTodaysAttendanceStatus",
      "outputs": [
        {
          "internalType": "bool",
          "name": "canMarkAttendance",
          "type": "bool"
        },
        {
          "internalType": "bool",
          "name": "alreadyMarked",
          "type": "bool"
        },
        {
          "internalType": "uint256",
          "name": "currentDay",
          "type": "uint256"
        },
        {
          "internalType": "bool",
          "name": "codeGenerated",
          "type": "bool"
        }
      ],
      "stateMutability": "view",
      "type": "function"
    },
    {
      "inputs": [
        {
          "internalType": "address",
          "name": "_contractAddress",
          "type": "address"
        },
        {
          "internalType": "uint256",
          "name": "_day",
          "type": "uint256"
        },
        {
          "internalType": "string",
          "name": "_code",
          "type": "string"
        }
      ],
      "name": "markAttendance",
      "outputs": [],
      "stateMutability": "nonpayable",
      "type": "function"
    },
    {
      "inputs": [
        {
          "internalType": "address",
          "name": "_contractAddress",
          "type": "address"
        }
      ],
      "name": "rejectModification",
      "outputs": [],
      "stateMutability": "nonpayable",
      "type": "function"
    },
    {
      "inputs": [
        {
          "internalType": "address",
          "name": "_contractAddress",
          "type": "address"
        }
      ],
      "name": "withdrawSalary",
      "outputs": [],
      "stateMutability": "nonpayable",
      "type": "function"
    }
  ],
  "bytecode": "0x60803461007457601f6123e338819003918201601f19168301916001600160401b038311848410176100795780849260209460405283398101031261007457516001600160a01b0381169081900361007457600080546001600160a01b03191691909117905560405161235390816100908239f35b600080fd5b634e487b7160e01b600052604160045260246000fdfe60e080604052600436101561001357600080fd5b600060a05260003560e01c90816307f7aafb14611e035750806325c299e514611b5a57806332ddd8471461195657806336c8aa5f146116f75780633af610051461151e5780633e548ae21461134e578063642422a91461122757806367ab4e22146110ea578063686b3adb14610aa15780637f447e351461045c578063c45a0155146104305763ce1d9bdf146100a857600080fd5b346102b95760403660031901126102b9576100c1611f46565b6100c9611f5c565b60405163a0a1a7d760e01b81526001600160a01b03928316926020928383600481885afa9283156102c65760a051936103f8575b50811691160361039857604051631f34b45b60e11b8152918183600481845afa9283156102c65760a05193610369575b50600192838101918282116102e957610147839593612061565b946101556040519687611fdb565b808652610164601f1991612061565b0160a0515b81811061033557505060a0515b828111156101d457505050604051918083018184528451809152816040850195019160a0515b8281106101a95785870386f35b835180518852828101518389015260409081015115159088015260609096019592810192840161019c565b6040516305cbde4360e11b8152939593908582600481865afa9182156102c65760a05192610301575b50620151808082029082820414821517156102e95782018092116102d35760405163182d70e560e31b815260048101829052918683602481875afa80156102c65760a0519061028a575b61028293506040519161025983611fbf565b83835288830152151560408201526102718287612112565b5261027c8186612112565b50612103565b949294610176565b508683813d83116102bf575b6102a08183611fdb565b810103126102b9576102b461028293612150565b610247565b60a05180fd5b503d610296565b6040513d60a051823e3d90fd5b634e487b7160e01b600052601160045260246000fd5b634e487b7160e01b60a051526011600452602460a051fd5b9091508581813d831161032e575b6103198183611fdb565b81010312610329575190386101fd565b600080fd5b503d61030f565b859060409795975161034681611fbf565b60a051815260a0518382015260a051604082015282828801015201959395610169565b9092508181813d8311610391575b6103818183611fdb565b810103126103295751913861012d565b503d610377565b6084906040519062461bcd60e51b82526004820152603360248201527f4e6f7420617574686f72697a656420746f207669657720617474656e64616e636044820152721948199bdc881d1a1a5cc818dbdb9d1c9858dd606a1b6064820152fd5b9092508381813d8311610429575b6104108183611fdb565b810103126102b957610422829161213c565b92906100fd565b503d610406565b346102b95760a0518060031936011261045957546040516001600160a01b039091168152602090f35b80fd5b346102b95760203660031901126102b957610475611f46565b60018060a01b0360a051541660405191630c69e74b60e11b835260a05183600481855afa9283156102c65760a05193610a7e575b5060a05190815b845181101561056557600460206001600160a01b036104cf8489612112565b51166040519283809263a0a1a7d760e01b82525afa9081156102c65760a0519161052b575b506001600160a01b03838116911614610516575b61051190612103565b6104b0565b9161052361051191612103565b929050610508565b90506020813d60201161055d575b8161054660209383611fdb565b810103126102b9576105579061213c565b866104f4565b3d9150610539565b50839161058061057482612061565b6040518060c052611fdb565b8060c05152610591601f1991612061565b0160a0515b8181106109f957505060a05191826080525b8051608051908110156108f4576001600160a01b03906105c89083612112565b511660405163a0a1a7d760e01b8152602081600481855afa9081156102c65760a051916108ba575b506001600160a01b03848116911614610618575b50610610608051612103565b6080526105a8565b604051637cc1f86760e01b815291939061012083600481845afa9283156102c65760a0519384908592869287889189938a95610875575b5060405195630c37503b60e31b875260018060a01b038b1660048801528d8760248160a051935afa9687156102c65760a05197610852575b5060405163404ed5b560e11b8152976020896004818d5afa9283156102c65760a0519361081d575b6040516305cbde4360e11b8152995060208a6004818e5afa9889156102c65760a051996107e8575b6040516306a246e760e41b81529a5060208b6004818f5afa9a8b156102c65760a0519b610793575b509061078c9d60206107229d9c9b9a9998979695949301519b6040519d8e611fa2565b8d5260018060a01b031660208d015260408c015260608b015260808a015260a0890152151560c0880152151560e0870152151561010086015261012085015261014084015261016083015261018082015261077f8260c051612112565b5261027c8160c051612112565b9184610604565b9b9a5098979695949392919060208c3d6020116107e0575b816107b860209383611fdb565b810103126103295761078c9d60206107229d519c9d50509d99909192939495969798996106ff565b3d91506107ab565b985060208a3d602011610815575b8161080360209383611fdb565b810103126103295760049951986106d7565b3d91506107f6565b92506020893d60201161084a575b8161083860209383611fdb565b810103126103295760049851926106af565b3d915061082b565b61086e91973d8091833e6108668183611fdb565b810190612206565b958e610687565b96505050505050506108a29193506101203d610120116108b3575b61089a8183611fdb565b81019061215d565b97999794965092949091908d61064f565b503d610890565b90506020813d6020116108ec575b816108d560209383611fdb565b810103126102b9576108e69061213c565b866105f0565b3d91506108c8565b60405180602081016020825260c051518091526040820160408260051b84010191602060c051019160a051905b82821061093057505050500390f35b919360019193955060206109e98192603f198a82030186528851858060a01b038151168252858060a01b0384820151168483015260408101516040830152606080820151908301526080810151608083015260a081015160a083015260c0810151151560c083015260e0810151151560e08301526101008082015115159083015261012080820151908301526101408082015190830152610160808201519083015261018080910151916101a08092820152019061203c565b9601920192018594939192610921565b602090604051610a0881611fa2565b60a051815260a0518382015260a051604082015260a0516060908183015260a051608083015260a05160a083015260a05160c083015260a05160e083015260a05161010083015260a05161012083015260a05161014083015260a051610160830152610180820152828260c05101015201610596565b610a9a91933d8091833e610a928183611fdb565b810190612079565b91836104a9565b346102b95760203660031901126102b957610aba611f46565b60018060a01b0360a0515416604051630c69e74b60e11b815260a05181600481855afa9081156102c65760a051916110d1575b5060a05190815b8151811015610c8e576001600160a01b03610b0f8284612112565b511660405163a0a1a7d760e01b8152602081600481855afa9081156102c65760a05191610c54575b506001600160a01b038781169116149081610be9575b81610b7c575b50610b67575b610b6290612103565b610af4565b91610b74610b6291612103565b929050610b59565b6040516368e64cbb60e11b81529150602090829060049082905afa9081156102c65760a05191610baf575b501586610b53565b90506020813d602011610be1575b81610bca60209383611fdb565b810103126102b957610bdb90612150565b86610ba7565b3d9150610bbd565b6040516382e0209f60e01b8152909150602081600481855afa9081156102c65760a05191610c1a575b501590610b4d565b90506020813d602011610c4c575b81610c3560209383611fdb565b810103126102b957610c4690612150565b87610c12565b3d9150610c28565b90506020813d602011610c86575b81610c6f60209383611fdb565b810103126102b957610c809061213c565b87610b37565b3d9150610c62565b50919290610c9b81612061565b90610ca96040519283611fdb565b808252610cb8601f1991612061565b0160a0515b81811061108357505060a05191825b8451811015610fc6576001600160a01b03610ce78287612112565b511660405163a0a1a7d760e01b8152602081600481855afa9081156102c65760a05191610f8c575b506001600160a01b0384811691161480610f24575b80610ebc575b610d3e575b50610d3990612103565b610ccc565b604051637cc1f86760e01b81529194906101208084600481855afa9081156102c65760a05191829583928492610e8c575b5050604051630c37503b60e31b81526001600160a01b038416600482015260a051909290836024818f5afa9283156102c65760a05193610e71575b506040516306a246e760e41b815292602084600481895afa9384156102c65760a05194610e2f575b5090610d39976020610e2898979695949301519460405196610df388611f86565b87526001600160a01b03166020870152604086015215156060850152608084015260a083015260c08201526102718287612112565b9390610d2f565b969594935091906020873d602011610e69575b81610e4f60209383611fdb565b810103126103295795519495939492939091610d39610dd2565b3d9150610e42565b610e8591933d8091833e6108668183611fdb565b918c610daa565b9250925050610ea8929450803d106108b35761089a8183611fdb565b959650989693505050509194908b80610d6f565b506040516368e64cbb60e11b8152602081600481855afa9081156102c65760a05191610eea575b5015610d2a565b90506020813d602011610f1c575b81610f0560209383611fdb565b810103126102b957610f1690612150565b88610ee3565b3d9150610ef8565b506040516382e0209f60e01b8152602081600481855afa9081156102c65760a05191610f52575b5015610d24565b90506020813d602011610f84575b81610f6d60209383611fdb565b810103126102b957610f7e90612150565b88610f4b565b3d9150610f60565b90506020813d602011610fbe575b81610fa760209383611fdb565b810103126102b957610fb89061213c565b88610d0f565b3d9150610f9a565b826040518091602082016020835281518091526040830190602060408260051b86010193019160a051905b82821061100057505050500390f35b919360019193955060206110738192603f198a820301865260e0895191868060a01b038351168152868060a01b03858401511685820152604083015160408201526060808401511515908201526080808401519082015260a083015160a08201528160c08094015193820152019061203c565b9601920192018594939192610ff1565b60209060405161109281611f86565b60a051815260a0518382015260a051604082015260a0516060908183015260a051608083015260a05160a083015260c082015282828601015201610cbd565b6110e4913d8091833e610a928183611fdb565b83610aed565b346102b9576020806003193601126102b9576001600160a01b03908161110e611f46565b60405163a0a1a7d760e01b81529116928282600481875afa9182156102c65760a051926111f0575b50339116036111865750803b156102b9576040519063e01415f960e01b82528160048160a05180945af180156102c657611171575b60a05180f35b61117a90611f72565b60a051801561116b5780fd5b6084906040519062461bcd60e51b82526004820152603760248201527f4e6f7420617574686f72697a656420746f2072656a656374206d6f646966696360448201527f6174696f6e20666f72207468697320636f6e74726163740000000000000000006064820152fd5b9091508281813d8311611220575b6112088183611fdb565b810103126102b9576112199061213c565b9084611136565b503d6111fe565b346102b9576020806003193601126102b9576001600160a01b03908161124b611f46565b60405163a0a1a7d760e01b81529116928282600481875afa9182156102c65760a05192611317575b50339116036112ad5750803b156102b95760405190636e8eca0d60e11b82528160048160a05180945af180156102c6576111715760a05180f35b6084906040519062461bcd60e51b82526004820152603860248201527f4e6f7420617574686f72697a656420746f20617070726f7665206d6f6469666960448201527f636174696f6e20666f72207468697320636f6e747261637400000000000000006064820152fd5b9091508281813d8311611347575b61132f8183611fdb565b810103126102b9576113409061213c565b9084611273565b503d611325565b346102b95760403660031901126102b957611367611f46565b61136f611f5c565b60405163a0a1a7d760e01b81526020926001600160a01b039081169291908482600481875afa9182156102c65760a051926114e2575b50806113b493169116146122c5565b60405190637cc1f86760e01b8252610120928383600481855afa9384156102c65760049460a0519485809281968293839684936114ad575b505086906040519a8b809263404ed5b560e11b82525afa9485156102c65760a0519561147d575b60c099501561147657611428906064926122b2565b04935b61143585886122b2565b918661146e575b5085611464575b604051968752860152604085015260608401526080830152151560a0820152f35b8315159550611443565b95508861143c565b509361142b565b94508589813d83116114a6575b6114948183611fdb565b810103126103295760c0985194611413565b503d61148a565b94509450965050508395506114ce9250803d106108b35761089a8183611fdb565b949a9299909750929550939291908b6113ec565b9291508483813d8311611517575b6114fa8183611fdb565b810103126102b9578061150f6113b49461213c565b9293506113a5565b503d6114f0565b346102b95760603660031901126102b957611537611f46565b60243560443567ffffffffffffffff81116102b957366023820112156102b957806004013561156581611ffd565b906115736040519283611fdb565b80825236602482850101116102b957806024602094018484013760a05190820183015260405163a0a1a7d760e01b81526001600160a01b03948516948382600481895afa9182156102c65760a051926116c0575b503391160361165f57833b156102b9576040519063a90795cf60e01b825283600483015260406024830152818061160560a05193604483019061203c565b038160a051885af180156102c65761164a575b507f49a414c42fece87066d1706c6d966e8713438782350e5693e74232ca399ddad3906040519283523392a360a05180f35b61165390611f72565b60a05180156116185780fd5b60405162461bcd60e51b815260048101839052603360248201527f4e6f7420617574686f72697a656420746f206d61726b20617474656e64616e636044820152721948199bdc881d1a1a5cc818dbdb9d1c9858dd606a1b6064820152608490fd5b9091508381813d83116116f0575b6116d88183611fdb565b810103126102b9576116e99061213c565b90866115c7565b503d6116ce565b346102b95760403660031901126102b957611710611f46565b611718611f5c565b60405163a0a1a7d760e01b81526020926001600160a01b039081169291908482600481875afa9182156102c65760a0519261191a575b508061175d93169116146122c5565b604051631f34b45b60e11b8152918083600481855afa9283156102c65760a051936118eb575b5060405163182d70e560e31b815260048101849052928184602481865afa9384156102c65760a051946118b4575b50604051635647041760e01b8152600481018290528281602481875afa9081156102c65760a05191611887575b50151591604051948594637cc1f86760e01b86528560046101209788935afa80156102c65760809660a05196879261185a575b505085611852575b5084611849575b84611840575b604051941515855215159084015260408301526060820152f35b93508293611826565b80159450611820565b945086611819565b61187593975080919250903d106108b35761089a8183611fdb565b50509995509350505050948780611811565b90508281813d83116118ad575b61189e8183611fdb565b810103126102b95751856117de565b503d611894565b9093508181813d83116118e4575b6118cc8183611fdb565b810103126102b9576118dd90612150565b92846117b1565b503d6118c2565b9080935081813d8311611913575b6119038183611fdb565b8101031261032957519183611783565b503d6118f9565b9291508483813d831161194f575b6119328183611fdb565b810103126102b9578061194761175d9461213c565b92935061174e565b503d611928565b346102b9576020806003193601126102b9576001600160a01b03908161197a611f46565b60405163a0a1a7d760e01b81529116928282600481875afa9182156102c65760a05192611b23575b5033911603611ac95760405163404ed5b560e11b8152918183600481845afa9283156102c65760a05193611a9a575b508215611a4a57803b156102b957604051906324016cb160e21b82528160048160a05180945af180156102c657611a35575b507f4bd50b38ad6944dcad8281f6eaa36ae63ad5d893ef8975a57b41a9ba7caa2077906040519283523392a260a05180f35b611a3e90611f72565b60a0518015611a035780fd5b60405162461bcd60e51b815260048101839052602260248201527f4e6f2073616c61727920617661696c61626c6520666f72207769746864726177604482015261185b60f21b6064820152608490fd5b9092508181813d8311611ac2575b611ab28183611fdb565b81010312610329575191836119d1565b503d611aa8565b6084906040519062461bcd60e51b82526004820152602d60248201527f4e6f7420617574686f72697a656420746f2077697468647261772066726f6d2060448201526c1d1a1a5cc818dbdb9d1c9858dd609a1b6064820152fd5b9091508281813d8311611b53575b611b3b8183611fdb565b810103126102b957611b4c9061213c565b90846119a2565b503d611b31565b346102b95760403660031901126102b957611b73611f46565b611b7b611f5c565b60a05160405163a0a1a7d760e01b81526001600160a01b03938416936020938392839291839182919088816004818d5afa9182156102c657859160a05193611dc8575b508116911603611d655760405160016259c66560e01b031981529680886004818c5afa9788156102c65760a05198611d2e575b5087611c22575b60c098506040519715158852870152166040850152151560608401521515608083015260a0820152f35b9550505091505060c060049460405195868092631183bed160e11b82525afa9081156102c65760a05191611c78575b60c09450815190808484015116604084015115159260a06060860151151595015195611bf8565b905060c0843d8211611d26575b81611c9260c09383611fdb565b810103126102b95760405160c0810181811067ffffffffffffffff821117611d105760c09560a09160405280518352611ccc85820161213c565b85840152611cdc60408201612150565b6040840152611ced60608201612150565b6060840152611cfe60808201612150565b6080840152015160a082015290611c51565b634e487b7160e01b600052604160045260246000fd5b3d9150611c85565b9080985081813d8311611d5e575b611d468183611fdb565b810103126102b957611d5790612150565b9689611bf1565b503d611d3c565b60405162461bcd60e51b815260048101889052603560248201527f4e6f7420617574686f72697a656420746f2076696577206d6f646966696361746044820152741a5bdb88199bdc881d1a1a5cc818dbdb9d1c9858dd605a1b6064820152608490fd5b8a809294508193503d8311611dfc575b611de28183611fdb565b810103126102b95784611df5819261213c565b9290611bbe565b503d611dd8565b3461032957602080600319360112610329576001600160a01b039182611e27611f46565b63a0a1a7d760e01b835216928282600481875afa9182156102c65760a05192611f0f575b5033911603611ebb5750803b156102b9576040516310f4034160e21b815260a0518160048183865af180156102c657611eac575b5060a05190337f329b5f7db63f569f81bfeb8c6fbbc6bba7274d06a644011a6f3e7ac77ab0cf768380a380f35b611eb590611f72565b81611e7f565b6084906040519062461bcd60e51b82526004820152602760248201527f4e6f7420617574686f72697a656420746f20617070726f7665207468697320636044820152661bdb9d1c9858dd60ca1b6064820152fd5b9091508281813d8311611f3f575b611f278183611fdb565b810103126102b957611f389061213c565b9084611e4b565b503d611f1d565b600435906001600160a01b038216820361032957565b602435906001600160a01b038216820361032957565b67ffffffffffffffff8111611d1057604052565b60e0810190811067ffffffffffffffff821117611d1057604052565b6101a0810190811067ffffffffffffffff821117611d1057604052565b6060810190811067ffffffffffffffff821117611d1057604052565b90601f8019910116810190811067ffffffffffffffff821117611d1057604052565b67ffffffffffffffff8111611d1057601f01601f191660200190565b60005b83811061202c5750506000910152565b818101518382015260200161201c565b9060209161205581518092818552858086019101612019565b601f01601f1916010190565b67ffffffffffffffff8111611d105760051b60200190565b60209081818403126103295780519067ffffffffffffffff821161032957019180601f840112156103295782516120af81612061565b936120bd6040519586611fdb565b818552838086019260051b820101928311610329578301905b8282106120e4575050505090565b81516001600160a01b03811681036103295781529083019083016120d6565b60001981146102d35760010190565b80518210156121265760209160051b010190565b634e487b7160e01b600052603260045260246000fd5b51906001600160a01b038216820361032957565b5190811515820361032957565b9081610120910312610329576121728161213c565b9161217f6020830161213c565b9160408101519160608201519160808101519161219e60a08301612150565b916121ab60c08201612150565b916101006121bb60e08401612150565b92015190565b81601f820112156103295780516121d781611ffd565b926121e56040519485611fdb565b81845260208284010111610329576122039160208085019101612019565b90565b9060208282031261032957815167ffffffffffffffff92838211610329570160e081830312610329576040519261223c84611f86565b6122458261213c565b84526020820151818111610329578361225f9184016121c1565b602085015260408201519081116103295760c09261227e9183016121c1565b604084015260608101516060840152608081015160808401526122a360a08201612150565b60a0840152015160c082015290565b818102929181159184041417156102d357565b156122cc57565b60405162461bcd60e51b8152602060048201526024808201527f4e6f7420617574686f72697a656420746f2076696577207468697320636f6e746044820152631c9858dd60e21b6064820152608490fdfea264697066735822122034bfaf0f06a941bee35bb33e0d25369a4edc363db2e19d969c52a7ce53958bb264736f6c63430008130033",
  "linkReferences": {},
  "deployedLinkReferences": {}
}