{
  "_format": "hh-sol-artifact-1",
  "contractName": "EmployerDashboard",
  "sourceName": "contracts/EmployerDashboard.sol",
  "abi": [
    {
      "inputs": [
        {
          "internalType": "address",
          "name": "_factoryAddress",
          "type": "address"
        }
      ],
      "stateMutability": "nonpayable",
      "type": "constructor"
    },
    {
      "anonymous": false,
      "inputs": [
        {
          "indexed": true,
          "internalType": "address",
          "name": "employer",
          "type": "address"
        },
        {
          "indexed": true,
          "internalType": "address",
          "name": "employee",
          "type": "address"
        },
        {
          "indexed": false,
          "internalType": "uint256",
          "name": "day",
          "type": "uint256"
        }
      ],
      "name": "CodeGenerated",
      "type": "event"
    },
    {
      "anonymous": false,
      "inputs": [
        {
          "indexed": true,
          "internalType": "address",
          "name": "employer",
          "type": "address"
        },
        {
          "indexed": true,
          "internalType": "address",
          "name": "employee",
          "type": "address"
        },
        {
          "indexed": false,
          "internalType": "address",
          "name": "contractAddress",
          "type": "address"
        }
      ],
      "name": "ContractTerminated",
      "type": "event"
    },
    {
      "anonymous": false,
      "inputs": [
        {
          "indexed": true,
          "internalType": "address",
          "name": "employer",
          "type": "address"
        },
        {
          "indexed": true,
          "internalType": "address",
          "name": "employee",
          "type": "address"
        },
        {
          "indexed": false,
          "internalType": "address",
          "name": "contractAddress",
          "type": "address"
        }
      ],
      "name": "EmployeeAdded",
      "type": "event"
    },
    {
      "inputs": [
        {
          "internalType": "address[]",
          "name": "_contractAddresses",
          "type": "address[]"
        }
      ],
      "name": "bulkGenerateCodes",
      "outputs": [],
      "stateMutability": "nonpayable",
      "type": "function"
    },
    {
      "inputs": [
        {
          "internalType": "address",
          "name": "_employee",
          "type": "address"
        },
        {
          "internalType": "uint256",
          "name": "_dailySalary",
          "type": "uint256"
        },
        {
          "internalType": "uint256",
          "name": "_probationPercentage",
          "type": "uint256"
        },
        {
          "internalType": "bool",
          "name": "_isOnProbation",
          "type": "bool"
        },
        {
          "internalType": "uint256",
          "name": "_contractDuration",
          "type": "uint256"
        }
      ],
      "name": "createSalaryContract",
      "outputs": [],
      "stateMutability": "payable",
      "type": "function"
    },
    {
      "inputs": [],
      "name": "factory",
      "outputs": [
        {
          "internalType": "contract SalaryStreamingFactory",
          "name": "",
          "type": "address"
        }
      ],
      "stateMutability": "view",
      "type": "function"
    },
    {
      "inputs": [
        {
          "internalType": "address",
          "name": "_contractAddress",
          "type": "address"
        },
        {
          "internalType": "uint256",
          "name": "_day",
          "type": "uint256"
        }
      ],
      "name": "generateDailyCode",
      "outputs": [],
      "stateMutability": "nonpayable",
      "type": "function"
    },
    {
      "inputs": [
        {
          "internalType": "address",
          "name": "_contractAddress",
          "type": "address"
        }
      ],
      "name": "generateTodaysCode",
      "outputs": [],
      "stateMutability": "nonpayable",
      "type": "function"
    },
    {
      "inputs": [
        {
          "internalType": "address",
          "name": "_contractAddress",
          "type": "address"
        }
      ],
      "name": "getContractDetails",
      "outputs": [
        {
          "internalType": "address",
          "name": "employee",
          "type": "address"
        },
        {
          "internalType": "uint256",
          "name": "dailySalary",
          "type": "uint256"
        },
        {
          "internalType": "uint256",
          "name": "attendanceCount",
          "type": "uint256"
        },
        {
          "internalType": "uint256",
          "name": "totalWithdrawn",
          "type": "uint256"
        },
        {
          "internalType": "uint256",
          "name": "availableBalance",
          "type": "uint256"
        },
        {
          "internalType": "uint256",
          "name": "contractBalance",
          "type": "uint256"
        },
        {
          "internalType": "bool",
          "name": "isActive",
          "type": "bool"
        },
        {
          "internalType": "bool",
          "name": "employeeApproved",
          "type": "bool"
        },
        {
          "internalType": "bool",
          "name": "isOnProbation",
          "type": "bool"
        },
        {
          "internalType": "uint256",
          "name": "probationPercentage",
          "type": "uint256"
        },
        {
          "internalType": "uint256",
          "name": "startDate",
          "type": "uint256"
        },
        {
          "internalType": "uint256",
          "name": "contractDuration",
          "type": "uint256"
        }
      ],
      "stateMutability": "view",
      "type": "function"
    },
    {
      "inputs": [
        {
          "internalType": "address",
          "name": "_contractAddress",
          "type": "address"
        },
        {
          "internalType": "uint256",
          "name": "_days",
          "type": "uint256"
        }
      ],
      "name": "getEmployeeAttendanceHistory",
      "outputs": [
        {
          "internalType": "uint256[]",
          "name": "attendanceDays",
          "type": "uint256[]"
        },
        {
          "internalType": "bool[]",
          "name": "attendanceStatus",
          "type": "bool[]"
        },
        {
          "internalType": "uint256[]",
          "name": "timestamps",
          "type": "uint256[]"
        }
      ],
      "stateMutability": "view",
      "type": "function"
    },
    {
      "inputs": [
        {
          "internalType": "address",
          "name": "_employer",
          "type": "address"
        }
      ],
      "name": "getEmployeesList",
      "outputs": [
        {
          "components": [
            {
              "internalType": "address",
              "name": "contractAddress",
              "type": "address"
            },
            {
              "internalType": "address",
              "name": "employeeAddress",
              "type": "address"
            },
            {
              "internalType": "uint256",
              "name": "dailySalary",
              "type": "uint256"
            },
            {
              "internalType": "uint256",
              "name": "attendanceCount",
              "type": "uint256"
            },
            {
              "internalType": "uint256",
              "name": "totalWithdrawn",
              "type": "uint256"
            },
            {
              "internalType": "uint256",
              "name": "availableBalance",
              "type": "uint256"
            },
            {
              "internalType": "bool",
              "name": "isActive",
              "type": "bool"
            },
            {
              "internalType": "bool",
              "name": "employeeApproved",
              "type": "bool"
            },
            {
              "internalType": "bool",
              "name": "isOnProbation",
              "type": "bool"
            },
            {
              "internalType": "uint256",
              "name": "probationPercentage",
              "type": "uint256"
            },
            {
              "internalType": "uint256",
              "name": "startDate",
              "type": "uint256"
            },
            {
              "internalType": "uint256",
              "name": "contractDuration",
              "type": "uint256"
            },
            {
              "internalType": "uint256",
              "name": "currentDay",
              "type": "uint256"
            },
            {
              "internalType": "bool",
              "name": "todayAttendanceMarked",
              "type": "bool"
            },
            {
              "internalType": "bool",
              "name": "todayCodeGenerated",
              "type": "bool"
            }
          ],
          "internalType": "struct EmployerDashboard.EmployeeInfo[]",
          "name": "",
          "type": "tuple[]"
        }
      ],
      "stateMutability": "view",
      "type": "function"
    },
    {
      "inputs": [
        {
          "internalType": "address",
          "name": "_employer",
          "type": "address"
        }
      ],
      "name": "getEmployerStats",
      "outputs": [
        {
          "components": [
            {
              "internalType": "uint256",
              "name": "totalEmployees",
              "type": "uint256"
            },
            {
              "internalType": "uint256",
              "name": "activeEmployees",
              "type": "uint256"
            },
            {
              "internalType": "uint256",
              "name": "totalSalariesLocked",
              "type": "uint256"
            },
            {
              "internalType": "uint256",
              "name": "totalPaidOut",
              "type": "uint256"
            },
            {
              "internalType": "uint256",
              "name": "pendingApprovals",
              "type": "uint256"
            }
          ],
          "internalType": "struct EmployerDashboard.EmployerStats",
          "name": "",
          "type": "tuple"
        }
      ],
      "stateMutability": "view",
      "type": "function"
    },
    {
      "inputs": [
        {
          "internalType": "address",
          "name": "_employer",
          "type": "address"
        },
        {
          "internalType": "uint256",
          "name": "_limit",
          "type": "uint256"
        }
      ],
      "name": "getTopPerformingEmployees",
      "outputs": [
        {
          "components": [
            {
              "internalType": "address",
              "name": "contractAddress",
              "type": "address"
            },
            {
              "internalType": "address",
              "name": "employeeAddress",
              "type": "address"
            },
            {
              "internalType": "uint256",
              "name": "dailySalary",
              "type": "uint256"
            },
            {
              "internalType": "uint256",
              "name": "attendanceCount",
              "type": "uint256"
            },
            {
              "internalType": "uint256",
              "name": "totalWithdrawn",
              "type": "uint256"
            },
            {
              "internalType": "uint256",
              "name": "availableBalance",
              "type": "uint256"
            },
            {
              "internalType": "bool",
              "name": "isActive",
              "type": "bool"
            },
            {
              "internalType": "bool",
              "name": "employeeApproved",
              "type": "bool"
            },
            {
              "internalType": "bool",
              "name": "isOnProbation",
              "type": "bool"
            },
            {
              "internalType": "uint256",
              "name": "probationPercentage",
              "type": "uint256"
            },
            {
              "internalType": "uint256",
              "name": "startDate",
              "type": "uint256"
            },
            {
              "internalType": "uint256",
              "name": "contractDuration",
              "type": "uint256"
            },
            {
              "internalType": "uint256",
              "name": "currentDay",
              "type": "uint256"
            },
            {
              "internalType": "bool",
              "name": "todayAttendanceMarked",
              "type": "bool"
            },
            {
              "internalType": "bool",
              "name": "todayCodeGenerated",
              "type": "bool"
            }
          ],
          "internalType": "struct EmployerDashboard.EmployeeInfo[]",
          "name": "",
          "type": "tuple[]"
        }
      ],
      "stateMutability": "view",
      "type": "function"
    },
    {
      "inputs": [
        {
          "internalType": "address",
          "name": "_contractAddress",
          "type": "address"
        },
        {
          "internalType": "uint256",
          "name": "_newDailySalary",
          "type": "uint256"
        },
        {
          "internalType": "address",
          "name": "_newEmployeeAddress",
          "type": "address"
        }
      ],
      "name": "proposeModification",
      "outputs": [],
      "stateMutability": "nonpayable",
      "type": "function"
    },
    {
      "inputs": [
        {
          "internalType": "address",
          "name": "_contractAddress",
          "type": "address"
        }
      ],
      "name": "terminateContract",
      "outputs": [],
      "stateMutability": "nonpayable",
      "type": "function"
    }
  ],
  "bytecode": "0x60803461007457601f61239938819003918201601f19168301916001600160401b038311848410176100795780849260209460405283398101031261007457516001600160a01b0381169081900361007457600080546001600160a01b03191691909117905560405161230990816100908239f35b600080fd5b634e487b7160e01b600052604160045260246000fdfe6080604052600436101561001257600080fd5b60003560e01c806327dde58f14611b165780632cf23a3b146119de5780633125ada2146118c557806332df3f02146116035780633a3b1e0a1461145d57806358b86ebc146110a55780638026c0a314610f1a5780638a3b3d0e14610c9d578063b6dd1f66146106fd578063c1db564a14610283578063c45a01551461025a5763c81a1d55146100a057600080fd5b346101ce576020806003193601126101ce576001600160a01b03806100c3611e3b565b1660405163ae200e7960e01b81528381600481855afa80156101da57600090610224575b6100f591508316331461220e565b604051631f34b45b60e11b8152918383600481855afa9283156101da576000936101f5575b50813b156101ce576040516327dd486d60e21b8152600481018490529160008360248183855af19081156101da5760049386926101e6575b5060405163a0a1a7d760e01b815293849182905afa80156101da57600090610193575b6000805160206122b4833981519152925060405193845216923392a3005b508382813d83116101d3575b6101a98183611e01565b810103126101ce576101c96000805160206122b4833981519152926120c8565b610175565b600080fd5b503d61019f565b6040513d6000823e3d90fd5b6101ef90611dba565b38610152565b9092508381813d831161021d575b61020d8183611e01565b810103126101ce5751913861011a565b503d610203565b508381813d8311610253575b61023a8183611e01565b810103126101ce5761024e6100f5916120c8565b6100e7565b503d610230565b346101ce5760003660031901126101ce576000546040516001600160a01b039091168152602090f35b346101ce5760203660031901126101ce5761029c611e3b565b60005460405163b1ce8eab60e01b81526001600160a01b03928316600482018190529290911691602082602481865afa9182156101da576000926106bd575b506102e7600092611fb9565b602460405180948193635ac6820960e01b835260048301525afa9081156101da5760009161069a575b5061031b815161214d565b60005b8251811015610688576001600160a01b03610339828561209e565b51604051637cc1f86760e01b8152911661012082600481845afa9081156101da576000926000926000809160009360008091600093610641575b50604051631f34b45b60e11b8152956020876004818b5afa9687156101da5760009761060d575b5060405163404ed5b560e11b81526020816004818c5afa9081156101da576000916105db575b506040516305cbde4360e11b8152966020886004818d5afa9687156101da576000976105a6575b6040516306a246e760e41b815298506020896004818e5afa9889156101da57600099610572575b5060405163182d70e560e31b8152600481018b90529b8c808d5a92602491602094fa9b8c156101da5760009c610536575b604051635647041760e01b8152600481018d90529d5060208e602481845afa9d8e156101da5760009e610502575b506040519e8f9161047d83611de4565b82526001600160a01b031660208201526040015260608d015260808c015260a08b0152151560c08a0152151560e0890152151561010088015261012087015261014086015261016085015261018084015215156101a083015215156101c08201526104e8828461209e565b526104f3818361209e565b506104fd9061208f565b61031e565b909d506020813d60201161052e575b8161051e60209383611e01565b810103126101ce57519c3861046d565b3d9150610511565b9b5060208d3d60201161056a575b8161055160209383611e01565b810103126101ce5761056460209d611fac565b9b61043f565b3d9150610544565b9098506020813d60201161059e575b8161058e60209383611e01565b810103126101ce5751973861040e565b3d9150610581565b96506020883d6020116105d3575b816105c160209383611e01565b810103126101ce5760049751966103e7565b3d91506105b4565b90506020813d602011610605575b816105f660209383611e01565b810103126101ce57518e6103c0565b3d91506105e9565b9096506020813d602011610639575b8161062960209383611e01565b810103126101ce5751958d61039a565b3d915061061c565b96985050505050505061066e91506101203d61012011610681575b6106668183611e01565b8101906120dc565b969895975094959194929392908c610373565b503d61065c565b604051806106968482611e85565b0390f35b6106b791503d806000833e6106af8183611e01565b810190612005565b81610310565b91506020823d6020116106f5575b816106d860209383611e01565b810103126101ce576102e76106ee600093611fac565b92506102db565b3d91506106cb565b346101ce5760403660031901126101ce57610716611e3b565b60005460405163b1ce8eab60e01b81526001600160a01b0392831660048201819052602480359490931692602090839081865afa9182156101da57600092610c5d575b50610765600092611fb9565b602460405180948193635ac6820960e01b835260048301525afa9081156101da57600091610c42575b50610799815161214d565b9060005b8151811015610af7576001600160a01b036107b8828461209e565b51604051637cc1f86760e01b8152911661012082600481845afa9081156101da576000926000926000809160009360008091600093610ac0575b50604051631f34b45b60e11b8152956020876004818b5afa9687156101da57600097610a8c575b5060405163404ed5b560e11b81526020816004818c5afa9081156101da57600091610a5a575b506040516305cbde4360e11b8152966020886004818d5afa9687156101da57600097610a25575b6040516306a246e760e41b815298506020896004818e5afa9889156101da576000996109f1575b5060405163182d70e560e31b8152600481018b90529b8c808d5a92602491602094fa9b8c156101da5760009c6109b5575b604051635647041760e01b8152600481018d90529d5060208e602481845afa9d8e156101da5760009e610981575b506040519e8f916108fc83611de4565b82526001600160a01b031660208201526040015260608d015260808c015260a08b0152151560c08a0152151560e0890152151561010088015261012087015261014086015261016085015261018084015215156101a083015215156101c0820152610967828561209e565b52610972818461209e565b5061097c9061208f565b61079d565b909d506020813d6020116109ad575b8161099d60209383611e01565b810103126101ce57519c386108ec565b3d9150610990565b9b5060208d3d6020116109e9575b816109d060209383611e01565b810103126101ce576109e360209d611fac565b9b6108be565b3d91506109c3565b9098506020813d602011610a1d575b81610a0d60209383611e01565b810103126101ce5751973861088d565b3d9150610a00565b96506020883d602011610a52575b81610a4060209383611e01565b810103126101ce576004975196610866565b3d9150610a33565b90506020813d602011610a84575b81610a7560209383611e01565b810103126101ce57518f61083f565b3d9150610a68565b9096506020813d602011610ab8575b81610aa860209383611e01565b810103126101ce5751958e610819565b3d9150610a9b565b969850505050505050610ae491506101203d61012011610681576106668183611e01565b969895975094959194929392908d6107f2565b828460005b82516000199290838101908111610bbb57821015610be25760005b8451848101908111610bbb5783610b2d916122a6565b811015610bd15760609081610b42828861209e565b5101516001820190818311610bbb57610b6e93610b5f838a61209e565b51015111610b73575b5061208f565b610b17565b610bb490610b81838961209e565b51610b8c828a61209e565b51610b97858b61209e565b52610ba2848a61209e565b50610bad828a61209e565b528761209e565b5086610b68565b634e487b7160e01b600052601160045260246000fd5b509150610bdd9061208f565b610afc565b8351849181811115610c3b57505b610bf98161214d565b9160005b828110610c1257604051806106968682611e85565b80610c20610c36928461209e565b51610c2b828761209e565b52610b68818661209e565b610bfd565b9050610bf0565b610c5791503d806000833e6106af8183611e01565b8261078e565b91506020823d602011610c95575b81610c7860209383611e01565b810103126101ce57610765610c8e600093611fac565b9250610759565b3d9150610c6b565b346101ce576020806003193601126101ce57610cb7611e3b565b90610cc0611f70565b5060005460405163b1ce8eab60e01b81526001600160a01b0393841660048201819052918416918382602481865afa9182156101da57600092610edf575b50610d0a600092611fb9565b602460405180948193635ac6820960e01b835260048301525afa9081156101da57600091610ec4575b5090610d3d611f70565b600091604082019460608301935b8551811015610e975781610d5f828861209e565b511660405191637cc1f86760e01b8352610120928381600481865afa9283156101da578691600094600091600091610e64575b5060049495965081610da48b5161208f565b8b52610e50575b159081610e48575b50610e33575b6040516306f8dfe160e21b815292839182905afa9081156101da57600091610e04575b50610dff92610def610df8928b51612140565b8a528751612140565b865261208f565b610d4b565b90508481813d8311610e2c575b610e1b8183611e01565b810103126101ce5751610dff610ddc565b503d610e11565b60808801610e41815161208f565b9052610db9565b90508c610db3565b838a01610e5d815161208f565b9052610dab565b915050600493945085610e839296903d10610681576106668183611e01565b505094509894509150509590869594610d92565b60a083608086888b6040519483518652808401519086015251604085015251606084015201516080820152f35b610ed991503d806000833e6106af8183611e01565b83610d33565b91508382813d8311610f13575b610ef68183611e01565b810103126101ce57610d0a610f0c600093611fac565b9250610cfe565b503d610eec565b60a03660031901126101ce57610f2e611e3b565b606435908115158092036101ce5760005460405163b1ce8eab60e01b81523360048201526020926001600160a01b039283169290918481602481875afa9081156101da57600091611070575b501561101057823b156101ce5760a46000926040519485938492638026c0a360e01b84521697886004840152602435602484015260443560448401526064830152608435608483015234905af180156101da57611001575b507f23af81eccafdcdf15da528004ccdfa3609d55578a2e0df674c079941508a792060405191600083523392a3005b61100a90611dba565b82610fd2565b60405162461bcd60e51b815260048101859052603260248201527f4f6e6c792072656769737465726564206f7267616e697a6174696f6e732063616044820152716e2063726561746520636f6e74726163747360701b6064820152608490fd5b90508481813d831161109e575b6110878183611e01565b810103126101ce5761109890611fac565b86610f7a565b503d61107d565b346101ce5760403660031901126101ce576110be611e3b565b60405163ae200e7960e01b81526020916001600160a01b0390811691602491823591908582600481885afa9182156101da57600092611426575b50339116036113c657604051631f34b45b60e11b8152918483600481875afa9283156101da57600093611397575b5060019182840190818511611355578181111561138f5750945b61114986612274565b9561115381611e23565b926111616040519485611e01565b81845261116d82611e23565b8484019790601f190136893761118283612274565b96600019840184811161137a578490821061136a576111a0916122a6565b86810180911161135557989694939795985b60005b848110611221575050505050946111db9585604051978896606088526060880190611e51565b9186830382880152519182815201939560005b82811061120957868061069688888382036040850152611e51565b875115158652968101968896509481019483016111ee565b808961123f611237839c9e9b9d999a9c86612140565b92839261209e565b5260405163182d70e560e31b81526004810182905287818781885afa9081156101da57600091611320575b50611275838a61209e565b90151590526040516305cbde4360e11b81528781600481885afa9081156101da576000916112f3575b5062015180918281029281840414901517156112de576112d292916112c291612140565b6112cc828c61209e565b5261208f565b999795949896996111b5565b85634e487b7160e01b60005260116004526000fd5b90508781813d8311611319575b61130a8183611e01565b810103126101ce57518d61129e565b503d611300565b90508781813d831161134e575b6113378183611e01565b810103126101ce5761134890611fac565b8d61126a565b503d61132d565b82634e487b7160e01b60005260116004526000fd5b50506000989694939795986111b2565b83634e487b7160e01b60005260116004526000fd5b905094611140565b9092508481813d83116113bf575b6113af8183611e01565b810103126101ce57519185611126565b503d6113a5565b60405162461bcd60e51b8152600481018590526033818401527f4e6f7420617574686f72697a656420746f207669657720617474656e64616e636044820152721948199bdc881d1a1a5cc818dbdb9d1c9858dd606a1b6064820152608490fd5b9091508581813d8311611456575b61143e8183611e01565b810103126101ce5761144f906120c8565b90866110f8565b503d611434565b346101ce576020806003193601126101ce576001600160a01b0380611480611e3b565b169060405163ae200e7960e01b81528381600481865afa9081156101da576000916115ce575b5081339116036115775760405163a0a1a7d760e01b8152908382600481865afa9182156101da57600092611540575b50823b156101ce576040516317eca4e560e11b81529160008360048183885af19283156101da577f59e8aba4672f07159a4e5de40f16903edb5063da5dfa8a40b84501e906a9ffb093611531575b5060405193845216923392a3005b61153a90611dba565b85611523565b9091508381813d8311611570575b6115588183611e01565b810103126101ce57611569906120c8565b90846114d5565b503d61154e565b60405162461bcd60e51b815260048101849052602960248201527f4e6f7420617574686f72697a656420746f207465726d696e61746520746869736044820152680818dbdb9d1c9858dd60ba1b6064820152608490fd5b90508381813d83116115fc575b6115e58183611e01565b810103126101ce576115f6906120c8565b846114a6565b503d6115db565b346101ce5760203660031901126101ce576001600160a01b03611624611e3b565b1660405163ae200e7960e01b8152602081600481855afa9081156101da5760009161188b575b50336001600160a01b039091160361183a57604051637cc1f86760e01b815261012081600481855afa80156101da5760009160009160009160009260008091600093600095611805575b5060405163404ed5b560e11b8152956020876004818d5afa9081156101da576000916117d0575b6040516305cbde4360e11b815297508a31926020896004818f5afa9889156101da57600099611799575b50602060049c6040519d8e80926306a246e760e41b82525afa998a156101da5760009a611763575b6101809c506040519b60018060a01b03168c5260208c015260408b015260608a0152608089015260a0880152151560c0870152151560e08601521515610100850152610120840152610140830152610160820152f35b995060208c3d602011611791575b8161177e60209383611e01565b810103126101ce576101809b519961170d565b3d9150611771565b9b985060208c3d6020116117c8575b816117b560209383611e01565b810103126101ce579a51979a60206116e5565b3d91506117a8565b90506020873d6020116117fd575b816117eb60209383611e01565b810103126101ce5760049651906116bb565b3d91506117de565b965050505050505061182891506101203d61012011610681576106668183611e01565b96975094959294929390919089611694565b60405162461bcd60e51b8152602060048201526024808201527f4e6f7420617574686f72697a656420746f2076696577207468697320636f6e746044820152631c9858dd60e21b6064820152608490fd5b90506020813d6020116118bd575b816118a660209383611e01565b810103126101ce576118b7906120c8565b8261164a565b3d9150611899565b346101ce5760403660031901126101ce576118de611e3b565b60405163ae200e7960e01b8152602091602435916001600160a01b0391821691908481600481865afa80156101da576000906119a8575b61192391508216331461220e565b813b156101ce576040516327dd486d60e21b8152600481018490529160008360248183855af19081156101da576004938692611999575060405163a0a1a7d760e01b815293849182905afa80156101da57600090610193576000805160206122b4833981519152925060405193845216923392a3005b6119a290611dba565b86610152565b508481813d83116119d7575b6119be8183611e01565b810103126101ce576119d2611923916120c8565b611915565b503d6119b4565b346101ce5760603660031901126101ce576119f7611e3b565b6001600160a01b039060443582811691908290036101ce5760405163ae200e7960e01b815290831692602082600481875afa9182156101da57600092611adb575b5033911603611a8757813b156101ce576000916044839260405194859384926318b51d1360e21b8452602435600485015260248401525af180156101da57611a7c57005b611a8590611dba565b005b60405162461bcd60e51b815260206004820152602660248201527f4e6f7420617574686f72697a656420746f206d6f64696679207468697320636f6044820152651b9d1c9858dd60d21b6064820152608490fd5b9091506020813d8211611b0e575b81611af660209383611e01565b810103126101ce57611b07906120c8565b9084611a38565b3d9150611ae9565b346101ce576020806003193601126101ce5760043567ffffffffffffffff81116101ce57366023820112156101ce57806004013591611b5483611e23565b91611b626040519384611e01565b8383528183016024809560051b830101913683116101ce578501905b828210611d9b5750505060005b8251811015611a85576001600160a01b039081611ba8828661209e565b51169160405163ae200e7960e01b81528481600481875afa80156101da57600090611d65575b611bdc91508216331461220e565b604051631f34b45b60e11b8152908482600481875afa9182156101da57600092611d36575b50604051635647041760e01b81526004810183905285818981885afa9081156101da57600091611d09575b5015611c44575b5050611c3f915061208f565b611b8b565b833b156101ce576040516327dd486d60e21b81526004810183905293600085898183855af19081156101da576004958792611cfa575b5060405163a0a1a7d760e01b815295869182905afa80156101da57600090611cc4575b611c3f945060405192835216906000805160206122b4833981519152853392a38580611c33565b508484813d8311611cf3575b611cda8183611e01565b810103126101ce57611cee611c3f946120c8565b611c9d565b503d611cd0565b611d0390611dba565b89611c7a565b90508581813d8311611d2f575b611d208183611e01565b810103126101ce575188611c2c565b503d611d16565b9091508481813d8311611d5e575b611d4e8183611e01565b810103126101ce57519087611c01565b503d611d44565b508481813d8311611d94575b611d7b8183611e01565b810103126101ce57611d8f611bdc916120c8565b611bce565b503d611d71565b81356001600160a01b03811681036101ce578152908301908301611b7e565b67ffffffffffffffff8111611dce57604052565b634e487b7160e01b600052604160045260246000fd5b6101e0810190811067ffffffffffffffff821117611dce57604052565b90601f8019910116810190811067ffffffffffffffff821117611dce57604052565b67ffffffffffffffff8111611dce5760051b60200190565b600435906001600160a01b03821682036101ce57565b90815180825260208080930193019160005b828110611e71575050505090565b835185529381019392810192600101611e63565b60208082019080835283518092528060408094019401926000905b838210611eaf57505050505090565b845180516001600160a01b0390811688528185015116878501528082015187830152606080820151908801526080808201519088015260a0808201519088015260c08082015115159088015260e0808201511515908801526101008082015115159088015261012080820151908801526101408082015190880152610160808201519088015261018080820151908801526101a0808201511515908801526101c0908101511515908701526101e09095019493820193600190910190611ea0565b6040519060a0820182811067ffffffffffffffff821117611dce5760405260006080838281528260208201528260408201528260608201520152565b519081151582036101ce57565b15611fc057565b60405162461bcd60e51b815260206004820152601d60248201527f4e6f7420612072656769737465726564206f7267616e697a6174696f6e0000006044820152606490fd5b60209081818403126101ce5780519067ffffffffffffffff82116101ce57019180601f840112156101ce57825161203b81611e23565b936120496040519586611e01565b818552838086019260051b8201019283116101ce578301905b828210612070575050505090565b81516001600160a01b03811681036101ce578152908301908301612062565b6000198114610bbb5760010190565b80518210156120b25760209160051b010190565b634e487b7160e01b600052603260045260246000fd5b51906001600160a01b03821682036101ce57565b90816101209103126101ce576120f1816120c8565b916120fe602083016120c8565b9160408101519160608201519160808101519161211d60a08301611fac565b9161212a60c08201611fac565b9161010061213a60e08401611fac565b92015190565b91908201809211610bbb57565b9061215782611e23565b60409061216682519182611e01565b8381528093612177601f1991611e23565b019160005b8381106121895750505050565b602090825161219781611de4565b60008152826000818301526000858301526000606083015260006080830152600060a0830152600060c0830152600060e08301526000610100830152600061012083015260006101408301526000610160830152600061018083015260006101a083015260006101c083015282860101520161217c565b1561221557565b60405162461bcd60e51b815260206004820152603160248201527f4e6f7420617574686f72697a656420746f2067656e657261746520636f646520604482015270199bdc881d1a1a5cc818dbdb9d1c9858dd607a1b6064820152608490fd5b9061227e82611e23565b61228b6040519182611e01565b828152809261229c601f1991611e23565b0190602036910137565b91908203918211610bbb5756feeb86b0d028a6d10575e52ea262ac529e889fa50d503f92ecb3992ef26c4c11c5a264697066735822122032d07c1badc6a00e9fa3e1e579ee41302e46bdc326181156f4ae9d2ec9ccbc2364736f6c63430008130033",
  "linkReferences": {},
  "deployedLinkReferences": {}
}